:040000006EEF00F0AF
:100008004882FACF06F0FBCF07F0E9CF08F0EACF35
:1000180009F0E1CF0AF0E2CF0BF0D9CF0CF0DACF3C
:100028000DF0F3CF0EF0F4CF0FF0F6CF10F0F7CFBE
:1000380011F0F8CF12F0F5CF13F048C014F049C012
:1000480015F04AC016F04BC017F0F2B6F2A003D074
:1000580000EC19F019D0F2BAF2A403D095EC10F024
:1000680013D0F2AC11D0A0B8A1A803D002EC19F0BB
:100078000BD09DB89EA803D030EC17F005D09DBAE0
:100088009EAA02D081EC17F017C04BF016C04AF0B8
:1000980015C049F014C048F013C0F5FF12C0F8FFAE
:1000A80011C0F7FF10C0F6FF0FC0F4FF0EC0F3FF3A
:1000B8000DC0DAFF0CC0D9FF0BC0E2FF0AC0E1FF98
:1000C80009C0EAFF08C0E9FF07C0FBFF06C0FAFF46
:1000D8004892110046EF11F0000E0101CF6F44D194
:1000E8009BEC15F0010E01012C6F1200BEEC15F00F
:1000F8000101CF6F240ECF19D8A41200020E2C6F65
:1001080012002D51D8B41200BEEC15F00101CF6FCA
:10011800CF51D8B412000D0ECF19D8A403D0030EB6
:100128002C6F1200200ECF19D8B412002851010DDF
:10013800870EF324D96E010EF420DA6ECFC1DFFFEB
:10014800282B12008751B4EC18F00101CF6F23D08F
:10015800000E2B6F040E2C6F1200010E2B6F040E75
:100168002C6F1200020E2B6F040E2C6F12009B0EC8
:10017800246E010E256EC50E266E7F0E276ED7ECF7
:1001880006F09B0E196E010E1A6EF9EC12F0000EB5
:1001980001012C6F1200CF51520AD8B4D9D7010AE5
:1001A800D8B4E0D7070AD8B4D8D7E1D78851B4EC87
:1001B80018F00101CF6F68D0490ECF19D8B414D008
:1001C800460ECF19D8B410D0510ECF19D8B40CD0D0
:1001D800580ECF19D8B408D0530ECF19D8B404D0BC
:1001E800430ECF19D8A406D0CF51D00F2A6F050ED1
:1001F8002C6F1200D00E196E7F0E1A6EF9EC12F0E9
:10020800000E01012C6F1200490ECF19D8B414D07A
:10021800460ECF19D8B410D0510ECF19D8B40CD07F
:10022800580ECF19D8B408D0420ECF19D8B404D07C
:10023800530ECF19D8A406D0CF51D00F2A6F050E70
:100248002C6F1200D00E196E7F0E1A6EF9EC12F098
:10025800000E01012C6F1200480ECF19D8B404D03B
:100268004C0ECF19D8A406D0CF51D00F2A6F050E47
:100278002C6F1200D00E196E7F0E1A6EF9EC12F068
:10028800000E01012C6F12002B51000AD8B494D72C
:10029800010AD8B4B9D7030AD8A41200DDD7285167
:1002A800FE0F296F29C173F12951D8A403D0080E74
:1002B8002C6F1200060E2C6F1200000ECE6F010E6E
:1002C800CD6F1BD0010E0101CD250001E56F000E99
:1002D8000101CE210001E66F870EE525D96E010EDA
:1002E800E621DA6E730E0101CD25E16E010ECE21F5
:1002F800E26EDFCFE7FFCD4BCE2B29510001E56F32
:10030800E66B010EE527000EE623E5510101CD5D00
:10031800CE51800A0001E76FE651800AE759D8A05C
:10032800D1D7080E01012C6F12002B51020DD40EEB
:10033800F324D96E010EF420DA6E01D811D005002D
:10034800FA6EDE50FD6EDE50FE6EF850FF6EFA500B
:10035800730E0001E26F010EE36F01012A511200D2
:10036800000E01012C6F12002C51000AD8B4B8D627
:10037800010AD8B4BBD6030AD8B4C3D6010AD8B484
:10038800E1D6070AD8B412D7010AD8B488D7030A25
:10039800D8B493D70E0AD8A41200C7D7690E246E12
:1003A800000E256E540E266E7F0E276ED7EC06F0D3
:1003B800690E196E000E1A6EF9EC12F0690E246EB1
:1003C800000E256E7C0E266E7C0E276ED7EC06F08E
:1003D800690E196E000E1A6EF9EC12F0690E246E91
:1003E800000E256EFC0E266E7C0E276ED7EC06F0EE
:1003F800690E196E000E1A6EF9EC12F0690E246E71
:10040800000E256ED90E266E7D0E276ED7EC06F0EF
:10041800690E196E000E1A6EF9EC12F0690E246E50
:10042800000E256E9E0E266E7B0E276ED7EC06F00C
:10043800690E196E000E1A6EF9EC12F0690E246E30
:10044800000E256E4F0E266E7B0E276ED7EC06F03B
:10045800690E196E000E1A6EF9EC12F0690E246E10
:10046800000E256E3B0E266E7F0E276ED7EC06F02B
:10047800690E196E000E1A6EF9EC12F0690E246EF0
:10048800000E256EE90E266E7B0E276ED7EC06F061
:10049800690E196E000E1A6EF9EC12F0690E246ED0
:1004A800000E256E070E266E7E0E276ED7EC06F020
:1004B800690E196E000E1A6EF9EC12F0690E246EB0
:1004C800000E256EBE0E266E7C0E276ED7EC06F04B
:1004D800690E196E000E1A6EF9EC12F0690E246E90
:1004E800000E256E390E266E7D0E276ED7EC06F0AF
:1004F800690E196E000E1A6EF9EC12F0690E246E70
:10050800000E256EA30E266E7A0E276ED7EC06F027
:10051800690E196E000E1A6EF9EC12F0690E246E4F
:10052800000E256E3E0E266E7A0E276ED7EC06F06C
:10053800690E196E000E1A6EF9EC12F0690E246E2F
:10054800000E256E010E266E7F0E276ED7EC06F084
:10055800690E196E000E1A6EF9EC12F0690E246E0F
:10056800000E256EAB0E266E7D0E276ED7EC06F0BC
:10057800690E196E000E1A6EF9EC12F0690E246EEF
:10058800000E256E760E266E7D0E276ED7EC06F0D1
:10059800690E196E000E1A6EF9EC12F0690E246ECF
:1005A800000E256EF90E266E7A0E276ED7EC06F031
:1005B800690E196E000E1A6EF9EC12F0690E246EAF
:1005C800000E256E340E266E7E0E276ED7EC06F0D2
:1005D800690E196E000E1A6EF9EC12F0690E246E8F
:1005E800000E256E5A0E266E7E0E276ED7EC06F08C
:1005F800690E196E000E1A6EF9EC12F0690E246E6F
:10060800000E256E330E266E7C0E276ED7EC06F094
:10061800690E196E000E1A6EF9EC12F01200000144
:100628009F51A011A111D8A407D0000E9F6F800E72
:10063800A06F3F0EA16F1200720E186E310E196E68
:10064800440E1A6E9FC01BF0A0C01CF0A1C01DF084
:1006580074EC12F0D8B00CD0000E0001ED6F220E31
:10066800EC6FFF0E9F6F7F0EA06F7F0EA16F1200C1
:100678009FC018F0A0C019F0A1C01AF0490E1B6E57
:100688003A0E1C6EC40E1D6E74EC12F0D8B00CD06D
:10069800000E0001ED6F220EEC6F000E9F6F000E32
:1006A800A06F000EA16F12000001A1AF02D0010ED1
:1006B80001D0000EA76FA751D8B40ED09FC018F074
:1006C800A0C019F0A1C01AF038EC18F018C09FF0BB
:1006D80019C0A0F01AC0A1F09FC060F0A0C061F0DE
:1006E800A1C062F0AA0E0001636FB80E646F3F0EDE
:1006F800656FC6EC0CF060C09FF061C0A0F062C0EE
:10070800A1F09FC097F0A0C098F0A1C099F027EC85
:100718000EF097C0A2F098C0A3F099C0A4F0A2C0B0
:100728007EF0A3C07FF0A4C080F04AEC0CF07EC03D
:10073800A5F07FC0A6F09FC060F0A0C061F0A1C086
:1007480062F0A5C020F0A6C021F014EC17F020C07C
:1007580063F021C064F022C065F023EC16F060C09D
:100768009FF061C0A0F062C0A1F09FC06FF0A0C070
:1007780070F0A1C071F0050E0001726F7A0E736FF0
:10078800000E756F090E746F04EC0FF06FC07BF0EC
:1007980070C07CF071C07DF0A5C07EF0A6C07FF06F
:1007A80071EC0FF07BC09FF07CC0A0F07DC0A1F081
:1007B8000001A751D8B425D09F290EE17F0EA019BA
:1007C8000BE17F0EA119D8A407D0000E9F6F000E71
:1007D800A06F000EA16F1200000E6F6F800E706F79
:1007E8003F0E716F9FC072F0A0C073F0A1C074F08B
:1007F80041EC0DF06FC09FF070C0A0F071C0A1F087
:1008080012009FC09FF0A0C0A0F0A1C0A1F01200EC
:10081800000E0001AB6F200EAC6F410EAD6F000EE5
:10082800A86F000EA96F400EAA6F4BEC09F0A8C084
:10083800C0F0A9C0C1F0AAC0C2F0800E0001726F5A
:10084800980E736F450E746FB9C020F0BAC021F0CE
:1008580026EC18F020C063F021C064F022C065F0D7
:10086800000E276E800E286EBF0E296EC0C024F0C1
:10087800C1C025F0C2C026F0B0EC07F024C060F07B
:1008880025C061F026C062F0C6EC0CF060C06FF0C5
:1008980061C070F062C071F041EC0DF06FC07EF085
:1008A80070C07FF071C080F04AEC0CF07EC0CCF0D4
:1008B8007FC0CDF0000E0001AB6F000EAC6F400E94
:1008C800AD6F000EA86F000EA96F400EAA6F4BEC1B
:1008D80009F0A8C0C3F0A9C0C4F0AAC0C5F0000EB2
:1008E8000001AB6F500EAC6F410EAD6F000EA86FDC
:1008F800000EA96F400EAA6F4BEC09F0A8C0C6F015
:10090800A9C0C7F0AAC0C8F0000E0001AB6F600E06
:10091800AC6F410EAD6F000EA86F000EA96F400EB0
:10092800AA6F4BEC09F0A8C0C9F0A9C0CAF0AAC0C8
:10093800CBF0C9C063F0CAC064F0CBC065F0000159
:10094800BB5114EC18F020C060F021C061F022C047
:1009580062F0C6EC0CF060C07EF061C07FF062C04F
:1009680080F04AEC0CF07EC0BCF07FC0BDF080C0C7
:10097800BEF081C0BFF0000E0001636F800E646F8F
:100988003F0E656FC6C060F0C7C061F0C8C062F0B6
:10099800C6EC0CF060C07EF061C07FF062C080F0F1
:1009A8004AEC0CF000017E51BC137F51BD13C3C04B
:1009B80063F0C4C064F0C5C065F0CCC020F0CDC001
:1009C80021F026EC18F020C060F021C061F022C0B0
:1009D80062F0C6EC0CF060C07EF061C07FF062C0CF
:1009E80080F04AEC0CF000017E51BC11CE6F7F51B3
:1009F800BD11CF6FCEC0B9F0CFC0BAF0120026C07B
:100A0800D9FF27C0DAFFDF500001656F264A272A81
:100A18006551DCEC17F0D8B0F2D7000E0001616F19
:100A2800000E626F000E636F000E646F000E606F41
:100A38002D0E6519D8A403D0010E606F04D02B0EBB
:100A48006519D8A408D026C0D9FF27C0DAFFDF501F
:100A5800656F264A272A300E6519D8A42ED026C0DD
:100A6800D9FF27C0DAFFDF50656F264A272A2A50A8
:100A78002B10D8B405D0100E2A182B10D8A415D0D6
:100A8800780E6519D8B404D0580E6519D8A40DD0BD
:100A9800000E2B6E100E2A6E26C0D9FF27C0DAFF73
:100AA800DF50656F264A272A08D02A502B10D8A471
:100AB80004D0000E2B6E080E2A6E2A502B10D8A4D4
:100AC80004D0000E2B6E0A0E2A6E6551C8EC17F082
:100AD800D8A008D000016551B4EC18F0C90F000186
:100AE800656F09D0000165514AEC18F0D8A039D0DB
:100AF800300E0001655F65512C6E2D6A2A502C5C02
:100B08002D50800A2E6E2B50800A2E58D8B029D02E
:100B18002AC01AF02BC01BF0000E1BBEFF0E1C6E65
:100B28001D6E61C01EF062C01FF063C020F064C07B
:100B380021F0FFEC14F0000165511A24616F000EDA
:100B48001B20626F000E1C20636F000E1D20646F57
:100B580026C0D9FF27C0DAFFDF50656F264A272A4B
:100B6800B4D728502910D8B40ED0FF0E26242C6EE6
:100B7800FF0E27202D6E28C0D9FF29C0DAFF2CC010
:100B8800DEFF2DC0DDFF00016051D8B41AD061C06E
:100B98002CF062C02DF063C02EF064C02FF02C1E24
:100BA8002D1E2E1E2F1E2C2A000E2D222E222F2205
:100BB8002CC026F02DC027F02EC028F02FC029F019
:100BC800120061C026F062C027F063C028F064C03C
:100BD80029F012000001CE6F000E0001CA6F000E4E
:100BE800CB6F000ECC6F000ECD6FC1C0D9FFC2C055
:100BF800DAFF300EDE18D8A407D0D00E196E7F0E9B
:100C08001A6EF9EC12F01200C1C066F0C2C067F0AB
:100C1800E2EC11F066C0CAF067C0CBF068C0CCF057
:100C280069C0CDF0000120EE01F0C151D926C251B2
:100C3800DA22DF50C36FD00EC325F06FF16BFF0EC1
:100C4800F123C1C0D9FFC2C0DAFFDF50C36FFF0E66
:100C5800C325206E216AFF0E212214EC17F020C054
:100C6800C4F021C0C5F022C0C6F0C4C0ABF0C5C0F6
:100C7800ACF0C6C0ADF0000E0001A86F200EA96F41
:100C8800410EAA6F4BEC09F0A8C0C7F0A9C0C8F084
:100C9800AAC0C9F0CAC0B9F0CBC0BAF0CCC0BBF08A
:100CA800CDC0BCF0C7C07EF0C8C07FF0C9C080F01E
:100CB8004AEC0CF000017EC0BDF07FC0BEF0000E13
:100CC800BEBFFF0EBF6FC06F32EC13F0B9C0F2F0B9
:100CD800BAC0F3F00001F15104E1050EF05DD8A0AF
:100CE80007D0D00E196E7F0E1A6EF9EC12F01200B2
:100CF8000001CE51D8A429D0F051F111D8A407D0C1
:100D0800A10E196E7E0E1A6EF9EC12F00BD00001CE
:100D1800F005F111D8A406D01E0E196E7F0E1A6EBA
:100D2800F9EC12F00001F051F111D8B404D0F0053B
:100D3800F111D8A404D0010E01012E6F06D0D00EF7
:100D4800196E7F0E1A6EF9EC12F00001CE05D8A4C8
:100D58001200F051F111D8A407D0C20E196E7E0E00
:100D68001A6EF9EC12F00BD00001F005F111D8A4BD
:100D780006D07F0E196E7E0E1A6EF9EC12F0000185
:100D8800F051F111D8B404D0F005F111D8A404D071
:100D9800010E01012E6F1200D00E196E7F0E1A6E11
:100DA800F9EC12F01200280E0001626F000E636F5A
:100DB800C0D0250E6819D8B409D024C0D9FF25C0E1
:100DC800DAFF68C0DFFF244A252AB3D0000E606F1F
:100DD8002ED062C0D9FF63C0DAFFDECF64F0DDCF6A
:100DE80065F0020E6227000E632364516511D8A4D2
:100DF80014D0EC0E646F7F0E656F0FD064C0F6FFE1
:100E080065C0F7FF24C0D9FF25C0DAFF0800F5CF79
:100E1800DFFF644B652B244A252A64C0F6FF65C0B2
:100E2800F7FF0800F5500009D8B483D0E7D726C0EB
:100E3800F6FF27C0F7FF264A272A0800F5CF68F0F3
:100E48006851000AD8B481D0640AD8B407D00D0A12
:100E5800D8B404D01A0AD8B4BCD76BD062C0D9FFB2
:100E680063C0DAFFDECF66F0DDCF67F0020E6227DF
:100E7800000E632367AF06D0030E6013666D671F0D
:100E8800D8B0672B010E686F050E6819D8B412D058
:100E98006851020DEB0EF324F66E790EF420F76E0E
:100EA8000900F550665D0900F5506759D8A002D0D1
:100EB800682BEAD760C02AF0030E2A16D8B408D0E7
:100EC80024C0D9FF25C0DAFF2D0EDF6E244A252A5B
:100ED80068C061F02AD06151020DEB0EF324F66E62
:100EE800790EF420F76E0900F5CF1AF00A00F5CF55
:100EF8001BF066C018F067C019F02AEC15F018C08E
:100F08001FF019C020F0000E226E0A0E216E02ECAE
:100F180016F01F50300F0001686F24C0D9FF25C09C
:100F2800DAFF68C0DFFF244A252A61076129D8A4AF
:100F3800D2D726C0F6FF27C0F7FF264A272A08007F
:100F4800F5CF68F06851D8A434D724C0D9FF25C09C
:100F5800DAFF000EDF6E120026C02AF02B6A2C6A18
:100F680025342A3601E32B802A502F6E29C02AF017
:100F78002B6A2C6A28342A3601E32B802A502E6EDD
:100F88002F50D8B40BD02E502F5CD8B00ED02F5085
:100F980000082E242A6E180E2A6407D027C024F0D1
:100FA80028C025F029C026F012002E50D8B40BD046
:100FB8002F502E5CD8B00ED02E5000082F242A6E49
:100FC800180E2A6407D024C024F025C025F026C0B6
:100FD80026F01200060E2D6E26BE2D8E29BE2D8CF3
:100FE800258EFF0E2416FF0E2516000E2616288EB7
:100FF800FF0E2716FF0E2816000E29162E502F5CFE
:10100800D8B01BD0D8902736283629362E062F5030
:101018002E18D8B40DD02D062DC02AF0070E2A168A
:10102800D8B406D0EFD7D8902632253224322F2ACA
:101038002E502F18D8B41FD0F6D72F502E5CD8B00A
:101048001AD0D8902436253626362F062F502E183B
:10105800D8B40DD02D062DC02AF0070E2A16D8B404
:1010680006D0EFD7D8902932283227322E2A2E5090
:101078002F18D8A4F7D72DAE0CD0FF0E241AFF0EC8
:10108800251AFF0E261A010E2426000E2522000E10
:1010980026222DAC0CD0FF0E271AFF0E281AFF0EA1
:1010A800291A010E2726000E2822000E2922000EDA
:1010B8002D6E24502726255028222650292229AE75
:1010C8000ED0FF0E271AFF0E281AFF0E291A010E3E
:1010D8002726000E2822000E2922010E2D6E27C079
:1010E80018F028C019F029C01AF02FC01BF02DC025
:1010F8001CF0EFEC10F018C024F019C025F01AC04D
:1011080026F01200800E626E010E186E000E83EC3F
:1011180016F0000E0001896F000E886F89BF06D097
:10112800895129E10D0E885DD8B025D088C086F098
:1011380089C087F0D89086378737D8908637873721
:10114800830E8625F66E790E8721F76E0900F5CF96
:1011580028F00900F5CF29F00900F5CF2AF00A0098
:10116800F5CF2BF0030E2C6E000E95EC11F000015C
:10117800884B892BD3D7010E186E010E83EC16F01D
:10118800000E00018B6F000E8A6F8BBF06D08B514B
:1011980029E10D0E8A5DD8B025D08AC086F08BC0B3
:1011A80087F0D89086378737D89086378737B70E35
:1011B8008625F66E790E8721F76E0900F5CF28F09F
:1011C8000900F5CF29F00900F5CF2AF00A00F5CF7C
:1011D8002BF0030E2C6E010E95EC11F000018A4BDA
:1011E8008B2BD3D7C70EF66E790EF76E0900F5CFA5
:1011F80028F00900F5CF29F00900F5CF2AF00A00F8
:10120800F5CF2BF0030E2C6E010E95EC11F0BF0EEE
:10121800F66E790EF76E0900F5CF28F00900F5CFC4
:1012280029F00900F5CF2AF00A00F5CF2BF0030EBC
:101238002C6E010E95EC11F0BB0EF66E790EF76E62
:101248000900F5CF28F00900F5CF29F00900F5CFFE
:101258002AF00A00F5CF2BF0030E2C6E010E95EC48
:1012680011F0B70EF66E790EF76E0900F5CF28F07B
:101278000900F5CF29F00900F5CF2AF00A00F5CFCB
:101288002BF0030E2C6E010E95EC11F01200000EDF
:101298000001B46FA851A911AA11D8A41DD0000E3D
:1012A800186E000E196E000E1A6EABC01BF0ACC0A3
:1012B8001CF0ADC01DF074EC12F0D8A005D0000EE3
:1012C8000001ED6F210EEC6F000E0001A86F000EFB
:1012D800A96F000EAA6F1200AB51AC11AD11D8A4C2
:1012E80007D0000EA86F800EA96F3F0EAA6F1200DC
:1012F800AAAF41D0ABC07EF0ACC07FF0ADC080F0EB
:101308004AEC0CF07EC0B5F07FC0B6F080C0B7F0F4
:1013180081C0B8F0B5C020F0B6C021F0B7C022F047
:10132800B8C023F023EC14F00001AB51201807E1FA
:10133800AC51211804E1AD512218D8B40BD0000EDD
:10134800ED6F210EEC6F000EA86F000EA96F000E56
:10135800AA6F1200B551010BB46FA8C018F0A9C04C
:1013680019F0AAC01AF038EC18F018C0A8F019C083
:10137800A9F01AC0AAF0A8C07BF0A9C07CF0AAC046
:101388007DF02EEC0BF07BC0AEF07CC0AFF07DC0E2
:10139800B0F0AEC060F0AFC061F0B0C062F0ABC0FA
:1013A80063F0ACC064F0ADC065F0C6EC0CF060C092
:1013B800B1F061C0B2F062C0B3F0B1C09FF0B2C08A
:1013C800A0F0B3C0A1F013EC03F09FC0A8F0A0C038
:1013D800A9F0A1C0AAF00001B451D8B40FD0A8C098
:1013E80018F0A9C019F0AAC01AF038EC18F018C003
:1013F800A8F019C0A9F01AC0AAF01200A8C0A8F055
:10140800A9C0A9F0AAC0AAF012000001CA6F000E74
:101418000001CB6F000ECC6F000ECD6F000ECE6FAB
:10142800B951CA5F000ECF6F6DD0CF51BD6FBE6B83
:10143800010EBD27000EBE23BD1FBE1FBD4BBE2B18
:10144800B951BD27BA51BE23D890BD37BE37D89001
:10145800BD37BE37D890BD37BE37BDC020F0BEC03F
:1014680021F014EC17F020C0C4F021C0C5F022C050
:10147800C6F0C4C0ABF0C5C0ACF0C6C0ADF0000E3D
:101488000001A86F000EA96F400EAA6F4BEC09F07F
:10149800A8C0C7F0A9C0C8F0AAC0C9F0C7C07EF0EC
:1014A800C8C07FF0C9C080F04AEC0CF07EC0C0F024
:1014B8007FC0C1F080C0C2F081C0C3F00001CA5132
:1014C800CF25F0EC18F00001BD6FBD511A6E1B6AF4
:1014D8001C6A1D6AC0C01EF0C1C01FF0C2C020F047
:1014E800C3C021F0FFEC14F00001CB511A10CB6FF0
:1014F800CC511B10CC6FCD511C10CD6FCE511D108F
:10150800CE6FCF2BCF51BD6FBE6BB951BD5DBE51F4
:10151800800ABF6FBA51800ABF59D8A086D7CBC0FE
:10152800B9F0CCC0BAF0CDC0BBF0CEC0BCF0120050
:10153800D0C066F0D1C067F0E2EC11F066C0D3F01D
:1015480067C0D4F068C0D5F069C0D6F0000120EEBD
:1015580001F0D051D926D151DA22DF50D00FE16FF6
:10156800D0C0D9FFD1C0DAFFDF50D26FFF0ED2252D
:10157800206E216AFF0E212214EC17F020C0D7F04C
:1015880021C0D8F022C0D9F0D7C0ABF0D8C0ACF099
:10159800D9C0ADF0000E0001A86F200EA96F410E52
:1015A800AA6F4BEC09F0A8C0DAF0A9C0DBF0AAC01A
:1015B800DCF0D3C0B9F0D4C0BAF0D5C0BBF0D6C007
:1015C800BCF0DAC07EF0DBC07FF0DCC080F04AEC13
:1015D8000CF000017EC0BDF07FC0BEF0000EBEBFA3
:1015E800FF0EBF6FC06F32EC13F0B9C0DDF0BAC0A8
:1015F800DEF0DDC0B9F0DEC0BAF0E1C0BBF00CEC43
:1016080004F0B9C0DFF0BAC0E0F0DFC028F0E0C0F5
:1016180029F02A6A2B6A010E2C6E020E95EC11F045
:10162800DFC021F0E0C022F0236A246A0001E15102
:10163800010DFD0EF324F66E790EF420F76E080006
:10164800F5504009256E000E276E020E266EF8EC46
:1016580016F0120000017DAF0BD0000EED6F210EC9
:10166800EC6F000E7B6F000E7C6F000E7D6F12001A
:101678007B517C117D11D8A40BD0000EED6F220E8A
:10168800EC6F000E7B6F000E7C6F000E7D6F1200FA
:10169800000E636F000E646F400E656F7E0E1B6E4A
:1016A800000E1C6E7BC018F07CC019F07DC01AF0CB
:1016B8002CEC12F018C060F019C061F01AC062F08A
:1016C800C6EC0CF060C024F061C025F062C026F0C2
:1016D800000E276E800E286EBF0E296EB0EC07F044
:1016E80024C07BF025C07CF026C07DF000017E0779
:1016F800D8A07F077BC06FF07CC070F07DC071F010
:10170800230E726F7A0E736F000E756F080E746F6A
:1017180004EC0FF06FC07BF070C07CF071C07DF0FE
:10172800720E0001636F310E646F3F0E656F7EC0ED
:1017380020F07FC021F014EC17F020C060F021C029
:1017480061F022C062F0C6EC0CF060C024F061C009
:1017580025F062C026F07BC027F07CC028F07DC051
:1017680029F0B0EC07F024C07BF025C07CF026C03F
:101778007DF01200000E0101D36F000ED26F000140
:10178800F207D8A0F307F22903E1F329D8B474D0FB
:10179800010EF025F66E7A0EF121F76E0800F5506D
:1017A8009AEC17F018C0D0F119C0D1F1000E000161
:1017B800AB6F200EAC6F410EAD6F000EA86F000E20
:1017C800A96F400EAA6F4BEC09F0A8C0CDF1A9C0D3
:1017D800CEF1AAC0CFF1C00E0001636F500E646F46
:1017E800450E656FCDC172F0CEC173F0CFC174F0F4
:1017F800D0C120F0D1C121F026EC18F020C06FF044
:1018080021C070F022C071F041EC0DF06FC060F0A3
:1018180070C061F071C062F0C6EC0CF060C07EF080
:1018280061C07FF062C080F04AEC0CF07EC0D2F15B
:101838007FC0D3F19B0E246E010E256EF90E266E25
:101848007F0E276ED2C128F0D3C129F0D7EC06F05D
:101858009B0E196E010E1A6EF9EC12F00B0E0001B8
:10186800BA6F260EB96F5D0EE82EFED7B92FFCD7DA
:10187800BA2FFAD700D01200000E01012E6FE30E26
:10188800196E7F0E1A6EF9EC12F0120080C082F009
:101898000001836B846B7F35823701E3838182513A
:1018A8008C6F8C51D8A409D0000E7E6F000E7F6F0C
:1018B800000E806F000E816F1200170E826F7EC0BF
:1018C80083F07FC084F080C085F08229866F04D0C1
:1018D800D890853384338333862FFAD70001835118
:1018E800876F7F8FFF0E7E17FF0E7F17000E801702
:1018F8007E51886F7F51896F80518A6F8B6B8E0EF6
:101908008C5F8CAF16D08C51800A8F0FD8B009D05D
:10191800000E7E6F000E7F6F000E806F000E816FCD
:101928001200D8908B338A33893388338C3FF9D7A8
:1019380015D0170E8C650FD0000E7E6F000E7F6FCE
:10194800000E806F000E816F1200D890883789379B
:101958008A378B378C078C51D8A4F7D78751D8B4DE
:1019680008D08B1F8A1F891F886D000E89238A2340
:101978008B2388C07EF089C07FF08AC080F08BC03E
:1019880081F0120062C066F00001676B686B613518
:10199800663701E367816651696F6951D8A407D03A
:1019A800000E606F000E616F000E626F120065C05E
:1019B80066F0676B686B6435663701E3678166516B
:1019C8006E6F6E51D8A407D0000E606F000E616F65
:1019D800000E626F12006E517B0F692762C06EF0B5
:1019E80065516E1B800E6E17618F648FFF0E631733
:1019F800FF0E6417000E6517000E6A6F000E6B6FFE
:101A0800000E6C6F070E6D6F60A106D063516A27D8
:101A180064516B2365516C23D89062336133603312
:101A2800D8906337643765376D2FEED7090E6D6F21
:101A380060A106D063516A2764516B2365516C23FA
:101A4800D890623361336033D8906C336B336A3328
:101A58006D2FEED76AC018F06BC019F06CC01AF081
:101A680069C01BF06EC01CF0EFEC10F018C060F0FD
:101A780019C061F01AC062F0120071C075F000015F
:101A8800766B776B7035753701E3768175517C6FAE
:101A98007C51D8A407D0000E6F6F000E706F000E37
:101AA800716F120074C075F0766B776B733575378C
:101AB80001E3768175517D6F7D51D8A407D0000E62
:101AC8006F6F000E706F000E716F1200000E796F4D
:101AD800000E7A6F000E7B6F7D51890F7C5F71C09D
:101AE8007DF074517D1B800E7D17708FFF0E6F1770
:101AF800FF0E7017000E7117738FFF0E7217FF0E0F
:101B08007317000E7417180E786FD89079377A37D4
:101B18007B3772516F5D7351705974517159D8A0E8
:101B280007D072516F5F7351705B7451715B79812B
:101B3800D8906F3770377137782FE7D779C018F09A
:101B48007AC019F07BC01AF07CC01BF07DC01CF075
:101B5800EFEC10F018C06FF019C070F01AC071F0F7
:101B68001200000E0001D46FD451800A7C0FD8B047
:101B78001200000EBA6F020EB96FD451010DFD0E9E
:101B8800F324F66E790EF420F76E0800F55040093C
:101B980009EC0AF0B9C0D2F0BAC0D3F00001D229DA
:101BA80044E1D329D8A441D0D451020DF50EF32431
:101BB800F66E790EF420F76E0900F5CFD0F0090023
:101BC800F5CFD1F0D0C028F0D1C029F02A6A2B6A0D
:101BD800010E2C6E020E95EC11F00001D451020D8D
:101BE800F50EF324F66E790EF420F76E0900F5CFA2
:101BF800D0F00900F5CFD1F0D0C021F0D1C022F04B
:101C0800236A246AD451010DFD0EF324F66E790E71
:101C1800F420F76E0800F5504009256E000E276E77
:101C2800020E266EF8EC16F00BD0D2C028F0D3C006
:101C380029F02A6A2B6A010E2C6E020E95EC11F01F
:101C48000001D42B91D797C018F098C019F099C00B
:101C58001AF09D0E1B6E000E1C6E2CEC12F000018B
:101C68009EAF10D099AF07D0000E976F800E986F77
:101C7800BF0E996F1200000E976F000E986F000E3E
:101C8800996F12009E5104E1150E9D5DD8A007D0F2
:101C980097C097F098C098F099C099F0120097C033
:101CA8007EF098C07FF099C080F04AEC0CF07EC0BE
:101CB8008DF07FC08EF080C08FF081C090F0BCECBA
:101CC80012F08DC09AF08EC09BF08FC09CF097C028
:101CD80018F098C019F099C01AF09AC01BF09BC070
:101CE8001CF09CC01DF074EC12F0D8B015D09AC04E
:101CF80024F09BC025F09CC026F0000E276E800EB5
:101D0800286EBF0E296EB0EC07F024C097F025C0EE
:101D180098F026C099F012009AC097F09BC098F0EE
:101D28009CC099F01200690E246E000E256EE20E1A
:101D3800266E7E0E276ED7EC06F0690E196E000E21
:101D48001A6EF9EC12F0690E246E000E256E6B0EF9
:101D5800266E7F0E276ED7EC06F0690E196E000E00
:101D68001A6EF9EC12F0690E246E000E256EA70E9D
:101D7800266E7F0E276EF30E286E7F0E296ED7EC27
:101D880006F0690E196E000E1A6EF9EC12F0690E63
:101D9800246E000E256E930E266E7F0E276EB90EEA
:101DA800286E7F0E296ED7EC06F0690E196E000EAC
:101DB8001A6EF9EC12F0690E246E000E256E7F0E75
:101DC800266E7F0E276EDA0E286E7F0E296ED7ECF0
:101DD80006F0690E196E000E1A6EF9EC12F0690E13
:101DE800246E000E256EE20E266E7E0E276ED7EC50
:101DF80006F0690E196E000E1A6EF9EC12F0120058
:101E080074C018F075C019F0000E1B6E030E1A6E20
:101E1800EFEC17F072C076F073C077F0185000013D
:101E280076271950772376C0F6FF77C0F7FF0900A9
:101E3800F5CF78F00900F5CF79F00A00F5CF7AF000
:101E480040D078C063F079C064F07AC065F06FC0A4
:101E580060F070C061F071C062F0C6EC0CF060C058
:101E680024F061C025F062C026F0000E1B6E030E40
:101E78001A6E00017407D8A0750774C018F075C0F1
:101E880019F0EFEC17F072C076F073C077F01850C5
:101E9800000176271950772376C0F6FF77C0F7FF41
:101EA8000900F5CF27F00900F5CF28F00A00F5CF93
:101EB80029F0B0EC07F024C078F025C079F026C0EE
:101EC8007AF0000174517511D8A4BBD778C06FF0AF
:101ED80079C070F07AC071F0120000017B517C115A
:101EE8007D11D8A407D0000E7B6F000E7C6F000E0A
:101EF8007D6F12007D517F0B806F816BD89080378A
:101F0800813780517E2781517F237CAF03D0806B3E
:101F1800802B02D00001806B80517E27000E7F232A
:101F28007FAF0BD0000EED6F220EEC6F000E7B6FB3
:101F3800000E7C6F000E7D6F12007FBF15D07F05ED
:101F4800D8A012D0000EED6F220EEC6F7DAF06D038
:101F5800FF0E7B6F7F0E7C6FFF0EEDD7FF0E7B6F42
:101F68007F0E7C6F7F0EE7D77F357F31816F7E31A3
:101F7800806F7D518019800B80197D6F7EC080F045
:101F8800010E8017803380337C5180197F0B8019B4
:101F98007C6F7BC07BF07CC07CF07DC07DF0120044
:101FA8000001856F010E0001806F000E816F000E29
:101FB800826F000E836F600E206E000E216E000E81
:101FC800236E200E226E68EC18F0600E186E000E5C
:101FD800196E24C01AF025C01BF026C01CF027C0BB
:101FE8001DF051EC14F0000E0001846F1F0E846583
:101FF80001D026D0000E186E8551D4EC14F00001E3
:102008008451010D600EF324D96E000EF420DA6EAF
:10201800DF50D8B406D0010E186E8551A9EC14F023
:1020280006D0000E186E00018551A9EC14F0010EBF
:10203800186E00018551D4EC14F00001842BD6D71A
:10204800210EE82EFED700F0000E186E0001855113
:10205800A9EC14F0000E186E00018551D4EC14F0B0
:102068001200000E0001BF6F000EBE6F040EF66E68
:102078007A0EF76E0800F5509AEC17F018C0BCF00D
:1020880019C0BDF0000E0001AB6F200EAC6F410E01
:10209800AD6F000EA86F000EA96F400EAA6F4BEC33
:1020A80009F0A8C0B9F0A9C0BAF0AAC0BBF0C00E28
:1020B8000001636F500E646F450E656FB9C072F012
:1020C800BAC073F0BBC074F0BCC020F0BDC021F032
:1020D80026EC18F020C06FF021C070F022C071F01B
:1020E80041EC0DF06FC060F070C061F071C062F03B
:1020F800C6EC0CF060C07EF061C07FF062C080F07A
:102108004AEC0CF07EC0BEF07FC0BFF0A50E000107
:10211800BE5D060EBF59D8A002D08A8012008A90F0
:102128001200F2944750D76E46C0D6FF354A362A79
:1021380035C001F036C002F0000E046E140E036EB6
:1021480044EC16F001500210D8A403D0010E01018E
:10215800326F35C001F036C002F0000E046E320E48
:10216800036E44EC16F001500210D8A403D0010EFF
:102178000101316F35C001F036C002F0010E046E66
:102188002C0E036E44EC16F001500210D8A403D0B4
:10219800010E0101306F35C001F036C002F0000EAB
:1021A800046EC80E036E44EC16F001500210D8A459
:1021B80003D0010E01012F6F35C001F036C002F0C7
:1021C800010E046E2C0E036E44EC16F001C035F0BF
:1021D80002C036F012001B50D8B405D018501910A0
:1021E8001A10D8A40CD0000E186E000E196E000E2E
:1021F8001A6E12001B2AD8901A3219321832000EA1
:1022080018141D6E000E19141E6EFE0E1A141F6E81
:102218001D501E101F10D8B40CD0ECD71B2A010E6D
:102228001826000E1922000E1A22D8901A321932D6
:102238001832000E18141D6E000E19141E6EFF0EB3
:102248001A141F6E1D501E101F10D8B406D0E6D7E2
:102258001B06D890183619361A3619BE03D0020E46
:102268001B60F6D71BA0199ED8901B321B501A1260
:102278001C50D8A41A8E18C018F019C019F01AC02A
:102288001AF01200C00EF66E310EF76E000EF86EE0
:1022980001EED4F010EE0CF00900F5CFEEFFE5509A
:1022A800E150FAE1F40EF66E310EF76E000EF86E9C
:1022B80000EEF8F010EE04F00900F5CFEEFFE5505F
:1022C800E150FAE1F00EF66E310EF76E000EF86E80
:1022D80000EE42F010EE04F00900F5CFEEFFE550F5
:1022E800E150FAE102EE00F0460EEE6AE806FDE182
:1022F80001EE00F09B0EEE6AE806FDE100EEE8F064
:10230800100EEE6AE806FDE100EE31F0110EEE6AFD
:10231800E806FDE148904892000EF86E000166EF6D
:1023280013F0306EF29E3050D8B403D03004D8A4E5
:1023380016D0000E186E3050A1EC16F028C024F00C
:1023480029C025F02AC026F02BC027F03050D4EC45
:102358000FF0010E186E3050A1EC16F02DD0020EC1
:102368003018D8A429D0000E77EC18F0010E2C24D0
:102378002E6E2F6A000E2F222FBE1BD02F5003E186
:102388002E04D8A016D028C018F029C019F02AC0E9
:102398001AF02BC01BF02E041C6EF5EC13F02D6EFA
:1023A8002DC01AF030507DEC14F02E06D8A02F0660
:1023B800E3D7010E77EC18F0F28E12006C0E206E47
:1023C800000E216E000E236E080E226E68EC18F0C7
:1023D800000E0001766F000E756F76BF06D076513D
:1023E80020E1080E755DD8B01CD0010E75256A6F06
:1023F800000E76216B6F6A516625D96E6B51672185
:10240800DA6EDF50746F7451D8B40BD06C0E75252A
:10241800D96E000E7621DA6E74C0DFFF754B762B0D
:10242800DCD76C0E266E000E276E000E286E000E8E
:10243800296E000E2B6E0A0E2A6E03EC05F026C0DC
:1024480066F027C067F028C068F029C069F012005C
:10245800185019101A10D8A40FD01BC0D9FF1CC0CF
:10246800DAFF000EDE6E000EDD6E000E186E000E36
:10247800196E000E1A6E12001A507F0B1D6E1E6A1E
:10248800D8901D361E361BC0D9FF1CC0DAFF1DC0F0
:10249800DEFF1EC0DDFF19AE03D01D6A1D2A01D064
:1024A8001D6A1D501BC0D9FF1CC0DAFFDE12000ECA
:1024B800DD121BC0D9FF1CC0DAFF820EDE26FF0E1C
:1024C800DD221A801A821A841A861A881A8A1A9C95
:1024D800199E18C018F019C019F01AC01AF0120085
:1024E8001AAE16D018C01EF019C01FF01AC020F07E
:1024F8001E1E1F1E201E1E2A000E1F222022000E36
:102508001E24186E000E1F20196E800E20201A6ED1
:102518001DAE16D01BC01EF01CC01FF01DC020F041
:102528001E1E1F1E201E1E2A000E1F222022000E05
:102538001E241B6E000E1F201C6E800E20201D6E98
:10254800000E181A000E191A800E1A1A000E1B1AFD
:10255800000E1C1A800E1D1A1B50185C1C501958AE
:102568001D501A58D8B002D0D8901200D880120046
:10257800000E0001966F8E0E956F90AF11D0901FD0
:102588008F1F8E1F8D6D000E8E238F239023010EBB
:10259800966F06D0D89090338F338E338D33952B2A
:1025A800000E8D15916F000E8E15926F000E8F150F
:1025B800936FFF0E9015946F91519211931194118E
:1025C800D8A4E8D78DC018F08EC019F08FC01AF0C3
:1025D80095C01BF096C01CF0EFEC10F018C08DF001
:1025E80019C08EF01AC08FF01200000E1E6E000E79
:1025F8001D6E1AD01D5019241B6E1E501A201C6EF9
:102608001BC0F6FF1CC0F7FFF86A050EF76403D07D
:102618000800F55005D0F6CFE9FFF7CFEAFFEF50F5
:1026280065EC16F01D4A1E2A1D5019241B6E1E50FB
:102638001A201C6E1BC0F6FF1CC0F7FFF86A050EB7
:10264800F76403D00800F55005D0F6CFE9FFF7CFBF
:10265800EAFFEF500009D8B41200CCD70001BD51F1
:10266800BE11BF11C011D8B424D0010E306E06D0EF
:10267800D890BD37BE37BF37C037302AC0AFF8D77C
:10268800BD51B95DBE51BA59BF51BB59C051BC59B2
:10269800D8A008D0BD51B95FBE51BA5BBF51BB5B72
:1026A800C051BC5BD890C033BF33BE33BD33302E6E
:1026B800E7D7B9C0B9F0BAC0BAF0BBC0BBF0BCC06C
:1026C800BCF01200E6EC18F0A9EC18F097EC0EF04C
:1026D800030EC6EC13F070EC00F001013205D8A42B
:1026E80006D0E0EC15F0000E0101326FF4D730058A
:1026F800D8A406D092EC18F0000E0101306FEBD789
:102708002F05D8A406D035EC10F0000E01012F6F6C
:10271800E2D73105D8A4DFD72E05D8A4DCD7BEEC84
:102728000BF0D9D7000E1A6E000E196E1ABE06D01D
:102738001A5027E10A0E195CD8B012008B80820E5D
:10274800186EDE0EE82EFED7182EFCD78A88820E69
:10275800186EDE0EE82EFED7182EFCD78B90820E50
:10276800186EDE0EE82EFED7182EFCD78A98820E39
:10277800186EDE0EE82EFED7182EFCD7194A1A2A34
:10278800D5D712001B6E000E1D6E000E1C6E1B505E
:10279800186E196A18501C5C1D50800A1A6E195060
:1027A800800A1A58D8B012008B90020E196E040EC7
:1027B800186EBA0EE82EFED7182EFCD7192EFAD7A7
:1027C80000D08B80020E196E040E186EBA0EE82E19
:1027D800FED7182EFCD7192EFAD700D01C4A1D2A6E
:1027E800D6D71FD018501200195012001A501200D4
:1027F800000E18141D6E000E19141E6E000E1A1409
:102808001F6EFF0E1B14206E190E05D0D8902032B3
:102818001F321E321D32E82EF9D71D501200000E4D
:1028280012001C50000AD8B4DDD7010AD8B4DCD78E
:10283800030AD8B4DBD7010AD8B4DAD7F0D78E0E9A
:10284800286E06D0D8902332223221322032282A0C
:10285800000E2014246E000E2114256E000E221482
:10286800266EFF0E2314276E2450251026102710DD
:10287800D8A4E8D720C018F021C019F022C01AF057
:1028880028C01BF0000E1C6EEFEC10F018C020F0F2
:1028980019C021F01AC022F01200000E216E000E9D
:1028A800206E21BE06D0215023E1210E205CD8B035
:1028B8001200010E20241E6E000E21201F6E1E1E07
:1028C8001F1E1E4A1F2A200E1E26000E1F221E50E3
:1028D8001824D96E1F501920DA6E1A50010BDF6EBA
:1028E800D8901D321C321B321A32204A212AD9D7DD
:1028F80012001C6E080E1B6E1AD0010E186E1C50AA
:10290800D4EC14F01AAE06D0010E186E1C50A9ECC7
:1029180014F005D0000E186E1C50A9EC14F0000E2F
:10292800186E1C50D4EC14F01B06D8901A361B50A5
:10293800D8A4E3D7000E186E1C50A9EC14F0000EB2
:10294800186E1C50D4EC14F01200196E1ED0180426
:10295800D8A402D08C8012001850D8A412008C90F1
:1029680012001804D8A402D08B8A12001850D8A4D8
:1029780012008B9A12001804D8A402D08988120079
:102988001850D8A41200899812001950000AD8B417
:10299800DED7010AD8B4E5D7030AD8A41200EBD7CA
:1029A800196E1ED01804D8A402D08B8612001850B5
:1029B800D8A412008B9612001804D8A402D08B88D1
:1029C80012001850D8A412008B9812001804D8A42A
:1029D80002D0898612001850D8A4120089961200D5
:1029E8001950000AD8B4DED7010AD8B4E5D7030ACB
:1029F800D8A41200EBD7000E226E000E236E000E34
:102A0800246E000E256E1AA008D01E5022261F50D4
:102A180023222050242221502522D8901E361F36EA
:102A280020362136D8901D321C321B321A321A50E9
:102A38001B101C101D10D8A4E6D722C01AF023C002
:102A48001BF024C01CF025C01DF01200000E1E6EE5
:102A5800000E1D6E1A501B10D8B41CD0010E1C6E2F
:102A680004D0D8901A361B361C2A1BAEFAD7D89039
:102A78001D361E361A50185C1B501958D8A005D0A0
:102A88001A50185E1B50195A1D80D8901B321A32E2
:102A98001C2EEDD71DC018F01EC019F01200000141
:102AA800E46F08D0E2C0C1F0E3C0C2F0000EEEEC63
:102AB80005F012000001E451120AD8B41200040A09
:102AC800D8B412000F0AD8B41200380AD8B41200C9
:102AD800020AD8B4E7D70B0AD8B412004B0AD8B404
:102AE8001200060A1200000E8D6E000E8C6E060E85
:102AF800896E000E8A6E000E8B6E070E966EE10EC2
:102B0800926EEE0E936E800E946EF20E956E300EEF
:102B18000F013A6F320E396FE40E3B6F070E3C6FB0
:102B28002F0E386FC20E616EF18EF2861200000E03
:102B380001012B6F000E2A6F000E286F000E296FFF
:102B4800000E0001F76F000EF66F870E206E010E63
:102B5800216E000E236E140E226E68EC18F0730EB0
:102B6800206E010E216E000E236E140E226E68EC8C
:102B780018F01200000E1A6E000E196E01012D5188
:102B8800D8A402D0195012003750010D000EF324BA
:102B9800D96E010EF420DA6EDF50186E1850196ED7
:102BA8001A6A372A270E376402D0000E376E9D9AAC
:102BB8002D079D8A19501200010E0001E827000E0A
:102BC800E923EA23EB23E8C0B9F0E9C0BAF0EAC088
:102BD800BBF0EBC0BCF0800EBD6F430EBE6F000EA5
:102BE800BF6F000EC06F32EC13F0B9C0E8F0BAC086
:102BF800E9F0BBC0EAF0BCC0EBF012002150221093
:102C0800D8B418D0010E236E04D0D89021362236BD
:102C1800232A22AEFAD721501F5C22502058D8A070
:102C280004D021501F5E2250205AD89022322132DF
:102C3800232EF1D71FC01FF020C020F01200000182
:102C4800635164116511D8B406D0000E631B000EE1
:102C5800641B800E651B60C024F061C025F062C053
:102C680026F063C027F064C028F065C029F0B0ECF6
:102C780007F024C060F025C061F026C062F01200A1
:102C880003500410D8B418D0010E056E04D0D890A3
:102C980003360436052A04AEFAD70350015C045003
:102CA8000258D8A004D00350015E0450025AD890AC
:102CB80004320332052EF1D701C001F002C002F040
:102CC8001200186E0001FE51D8B4FCD79DB803D08D
:102CD80018C0ADFF12D09D983A50010D000EF32494
:102CE800D96E020EF420DA6E18C0DFFF3A2A450EBC
:102CF8003A6402D0000E3A6EFE079D881200196EE3
:102D080014D01804D8A402D08B8212001850D8A46A
:102D180012008B9212001804D8A402D08C841200DE
:102D28001850D8A412008C9412001950000AD8B474
:102D3800E8D7010AD8A41200EED7196E14D01804E7
:102D4800D8A402D08B8412001850D8A412008B94F7
:102D580012001804D8A402D08C8612001850D8A4E7
:102D680012008C9612001950000AD8B4E8D7010A4C
:102D7800D8A41200EED70001E46F07D0E2C0D0F06B
:102D8800E3C0D1F09CEC0AF012000001E451120AF1
:102D9800D8B41200040AD8B412000F0AD8B412002A
:102DA800380AD8B41200020AD8B4E8D70B0A1200BD
:102DB8009D9A9D98080EB86E900EAB6E240EAC6E60
:102DC800100EAF6E000EB06E000E3A6E000E396E29
:102DD800460E0001FE6F000E386E000E376E000EB4
:102DE80001012D6F9D8A120026C029F015D021C03F
:102DF80018F022C019F023C01AF024C01BF02904CF
:102E08001C6EF5EC13F0286E28C01BF02950000842
:102E18002524D9EC18F029062950D8B41200E7D790
:102E2800000E236E21AE06D0206C211ED8B0212AB8
:102E3800010E236E20C018F021C019F01A6A8E0EF8
:102E48001B6E23C01CF0EFEC10F018C020F019C066
:102E580021F01AC022F01200460E0001FE6112D0C5
:102E68003950010D000EF324D96E020EF420DA6EEB
:102E7800DF50AD6E392A450E396402D0000E396E26
:102E8800FE2B12009D98000E396E000E3A6E12004D
:102E9800196E000EF2BE010E1A6E19C0A9FF18C0F5
:102EA800A8FFA69EA69CA684F29E550EA76EAA0E03
:102EB800A76EA682A6B2FED7A6941AB002D0F29E3A
:102EC80001D0F28E12003C0ED76EAF0ED66ED650E1
:102ED800D7CF1AF01B6A1AC01BF01A6A1A10466E6E
:102EE8001B50476EF294F28A000E186E000E196E8F
:102EF800EBEC18F0900ED56E1200ABA202D0AB9896
:102F0800AB88AECFADFF3850010D000EF324D96E5B
:102F1800010EF420DA6EAECFDFFF382A270E3864B0
:102F280002D0000E386E01012D2B12001C6E1CC041
:102F38001AF01A461A46C2501A18830B1A18C26E8B
:102F4800C280C282C2B2FED7C4501B6E1A6AC35076
:102F58001A24186E000E1B20196E120018C01EF0DD
:102F680019C01FF008D01EC0D9FF1FC0DAFF1AC051
:102F7800DFFF1E4A1F2A1C06D8A01D061C28F3E1E5
:102F88001D28D8B41200EFD71D6E010E1C6E7B0EE3
:102F98001D6003D0610E1D6007D01D5059EC18F05C
:102FA800D8B002D0000E1C6E1CC01BF01B301200E3
:102FB8001A6E010E196E200E1A18D8B408D00E0E0B
:102FC8001A6003D0090E1A6002D0000E196E19C0DB
:102FD80018F01830120018501A02F3CF1CF0F4CF72
:102FE8001DF018501B02F3501D2619501A02F350F9
:102FF8001D261CC018F01DC019F012000001E46F56
:1030080006D0D2EC01F0120096EC13F01200000189
:10301800E451180AD8B4F5D7040AD8A41200F4D792
:10302800236E2350186E196A1A6A8E0E1B6E000ED4
:103038001C6EEFEC10F018C020F019C021F01AC077
:1030480022F0120020C018F021C019F01A6A8E0E62
:103058001B6E000E1C6EEFEC10F018C020F019C0AB
:1030680021F01AC022F01200185019101A10D8B402
:1030780006D0000E181A000E191A800E1A1A18C057
:1030880018F019C019F01AC01AF012001A6E000EC2
:10309800196E3A0E1A6005D02F0E1A6402D0010E6E
:1030A800196E19C018F0183012001A6E000E196E39
:1030B8005B0E1A6005D0400E1A6402D0010E196E1C
:1030C80019C018F01830120020C018F021C019F0EB
:1030D800000E1B6E000E1A6E22C01CF023C01DF0DD
:1030E800B2EC17F01200186E04D08994120089848B
:1030F80012001850000AD8B4F8D7010AD8A4120050
:10310800F6D7FCEC18F077EC15F0D2EC18F067EC79
:1031180017F09EEC18F0DCEC16F012008BB003D020
:10312800186A182A01D0186A8B501818FE0B18183C
:103138008B6E1200050EC26E000EC16E870EC06E39
:10314800000EC36E000EC46E1200F5EC18F0FEEC13
:1031580018F086EC08F0C8EC18F0B5EC0DF0120089
:10316800186E7B0E186004D0600E186401D0189A8F
:1031780018501200186E18C0A9FFA69CA69EA6801B
:1031880000F000F0A8501200000E0001E86F000ED9
:10319800E96F000EEA6F000EEB6F1200600ED36E3F
:1031A800040ED26E000E9B6E12001C6E1BC018F02F
:1031B8001C504CEC17F012007E2DA62A043000009B
:1031C8000000000085EC18F0F28EF28C120018C096
:1031D800FCF019C0FDF01200196E1950BEEC18F081
:1031E8001200000E3D6E120000400000004000007A
:1031F800D09E1200D58E1200F2901200A1981200F3
:10798200001C0401000B306100BA26C000C9FC19BA
:107992001A28042D10E700001276600535250080B4
:1079A20000848B00320300000032000800A1AAAA62
:1079B20001DA0E03001C0401000B3061003A32C0F0
:1079C20000C9BC212228042D10E7000012762001F4
:1079D2003525008000849B00340300000012000063
:1079E20000010000064003200001000A006400E8D4
:1079F2000310274423446344A344E3020406080417
:107A020006050700803F72313FFE753E58633D9583
:107A12001D3CC5AE3A79213994803793A735561566
:107A22003400000000803FF0FFBEE2A93E8376BE34
:107A3200AE2B3E3CC3BDD2133D78D3BB2452435040
:107A4200203C583E3C63723E202020202053657427
:107A520020436F6D7072657373696F6E206F70650E
:107A6200726174696F6E206D6F646520617420525B
:107A7200582073797374656D3A204175746F6D6126
:107A82007469635B315D204D616E75616C5B305D65
:107A9200205B44656661756C74203D20305D0D0A83
:107AA2000024524352203C583E3C63723E20202028
:107AB200202053657420436F6D7072657373696F14
:107AC2006E2072616E67652061742052582073794E
:107AD2007374656D2E2048696768205B315D204CA8
:107AE2006F77205B305D205B44656661756C742046
:107AF2003D20305D0D0A0024534255203C583E3C47
:107B020063723E2020202020536574205541525438
:107B1200206175746F6D61746963206F7065726145
:107B220074696F6E3A204175746F6D617469635B3D
:107B3200315D204D616E75616C5B305D205B44652B
:107B42006661756C74203D20305D0D0A0024545826
:107B5200203C583E3C63723E202020202020547559
:107B6200726E206F6E5B315D202F206F66665B3018
:107B72005D207472616E736D697373696F6E2061DB
:107B8200742054582073797374656D205B44656664
:107B920061756C74203D20305D0D0A002454422032
:107BA2003C583E3C63723E202020202020547572B7
:107BB2006E206F6E5B315D202F206F66665B305DDD
:107BC20020424954206D6F6465206174205458200E
:107BD20073797374656D205B44656661756C74209E
:107BE2003D20305D0D0A00245249203C5858585817
:107BF2003E3C63723E202020496E69742052582018
:107C020073797374656D20616E6420736574206688
:107C120072657175656E6379206174205858585881
:107C22002028302D39393939295B4D487A5D0D0AC2
:107C320000245444203C444143204E554D3E3C4494
:107C420041432056414C55453E3C63723E20202024
:107C52002020202020205365742054582044414382
:107C6200203C302D333E203C302D567265665B340D
:107C7200206469675D3E200D0A00245449203C5867
:107C82005858583E3C63723E202020496E69742049
:107C920054582073797374656D20616E6420736526
:107CA20074206672657175656E63792028302D398E
:107CB200393939295B4D487A5D0D0A002452422038
:107CC2003C583E3C63723E20202020202054757296
:107CD2006E206F6E5B315D202F206F66665B305DBC
:107CE20020424954206D6F646520617420525820EF
:107CF20073797374656D2E0D0A00245446203C5826
:107D02005858583E3C63723E2020205365742054DC
:107D1200582073797374656D206672657175656E2E
:107D220063792061742028302D39393939295B4D26
:107D3200487A5D2E0D0A00245258203C583E3C637E
:107D4200723E2020202020205475726E206F6E5BC0
:107D5200315D202F206F66665B305D207265636542
:107D62006976652061742052582073797374656D49
:107D72002E0D0A0024534254203C58583E3C637254
:107D82003E202020205365742055415254207265B4
:107D9200667265736820726174652028312D3230F5
:107DA200295B487A5D2E0D0A00245348203C6372F9
:107DB2003E2020202020202020205072696E742036
:107DC20073797374656D2068656C70206D6573736B
:107DD2006167652E0D0A00245451203C63723E20D7
:107DE2002020202020202020476574207374617495
:107DF20075732066726F6D205458207379737465A1
:107E02006D2E0D0A00245251203C63723E20202028
:107E120020202020202047657420737461747573BC
:107E22002066726F6D2052582073797374656D0DE0
:107E32000A00245351203C583E3C63723E202020CD
:107E42002020204765742073797374656D207374E4
:107E5200617475732E0D0A0024534C203C63723EEC
:107E62002020202020202020205465737420737944
:107E72007374656D204C4544732E0D0A00525820D0
:107E820053414D504C45204348414E4E454C2052A3
:107E9200582D4144435F56475F4D4F4E0A0D0054E3
:107EA200582053414D504C45204348414E4E454C7D
:107EB2003A2054582D4144435F525245560A0D0010
:107EC20052582053414D504C45204348414E4E4557
:107ED2004C2052582D4144435F464657520A0D00EA
:107EE2002A2A2A2A2A2A2A2A2A2A2A2A2A2A2A2AF0
:107EF2002A2A2A2A2A2A2A2A2A2A2A200A0D000A71
:107F02000D3C436F6D6D6F6E2073797374656D20D8
:107F1200636F6D6D616E64733E0A0D005458205399
:107F2200414D504C45204348414E4E454C20414422
:107F3200435F464657520A0D000A0D3C52582073C1
:107F4200797374656D20636F6D6D616E64733E0A43
:107F52000D003C54582073797374656D20636F6D06
:107F62006D616E64733E0A0D0046415354204C49C4
:107F72004E4B2053595354454D200A0D00436F6D0B
:107F820070696C652074696D653A202573200A0D4D
:107F920000436F6D70696C6520646174653A2025D9
:107FA20073200A0D0053572056455352494F4E3AFB
:107FB200202573200A0D004D6172203236203230A6
:107FC2003138004E4F54204F2E4B200A0D004E4F99
:107FD20054204F4B200A0D0031373A33393A3330AF
:107FE200000A0D204F4B200A0D00286E756C6C297B
:0D7FF20000315F30303200256420090000AE
:020000040020DA
:08000000FFFFFFFFFFFFFFFF00
:020000040030CA
:0E000000FF281F3CFFBF85FF0FC00FE00F4021
:00000001FF
