:040000006EEF00F0AF
:100008004882FACF06F0FBCF07F0E9CF08F0EACF35
:1000180009F0E1CF0AF0E2CF0BF0D9CF0CF0DACF3C
:100028000DF0F3CF0EF0F4CF0FF0F6CF10F0F7CFBE
:1000380011F0F8CF12F0F5CF13F048C014F049C012
:1000480015F04AC016F04BC017F0F2B6F2A003D074
:10005800DAEC22F019D0F2BAF2A403D0E5EC19F0E8
:1000680013D0F2AC11D0A0B8A1A803D0DCEC22F0D8
:100078000BD09DB89EA803D000EC21F005D09DBA06
:100088009EAA02D06CEC21F017C04BF016C04AF0C3
:1000980015C049F014C048F013C0F5FF12C0F8FFAE
:1000A80011C0F7FF10C0F6FF0FC0F4FF0EC0F3FF3A
:1000B8000DC0DAFF0CC0D9FF0BC0E2FF0AC0E1FF98
:1000C80009C0EAFF08C0E9FF07C0FBFF06C0FAFF46
:1000D800489211002DEF1BF0C00E0001CE6F000EEC
:1000E800CF6FC8D3250EE119D8B409D0BCC0D9FF49
:1000F800BDC0DAFFE1C0DFFFBC4BBD2BBBD3000E98
:10010800D16F000ED06F30D0D18548D0CEC0D9FF86
:10011800CFC0DAFFDECFCCF0DDCFCDF0020ECE2798
:10012800000ECF23CC51CD11D8A414D0E90ECC6F3A
:100138007F0ECD6F0FD0CCC0F6FFCDC0F7FFBCC08F
:10014800D9FFBDC0DAFF0800F5CFDFFFCC4BCD2BC0
:10015800BC4BBD2BCCC0F6FFCDC0F7FF0800F55057
:100168000009D8B487D3E7D7BEC0F6FFBFC0F7FFF2
:10017800BE4BBF2B0800F5CFE1F0E151000AD8B41F
:1001880085D3640AD8B40AD0020AD8B4BDD70F0AF6
:10019800D8B404D01A0AD8B4B9D76CD3070ED1157D
:1001A800D8B4C8D2000ED36F060ED26FCEC0D9FF16
:1001B800CFC0DAFFDECFDEF0DECFDFF0DDCFE0F05C
:1001C800030ECE27000ECF23E0AF11D0DEC018F00B
:1001D800DFC019F0E0C01AF011EC22F018C0DEF010
:1001E80019C0DFF01AC0E0F0030E0001D013000EB2
:1001F800D96F000ED86FDE51DF11E011D8B486D068
:10020800820EC36FFF0EC46FDEC0C5F0DFC0C6F03C
:10021800E0C0C7F0E1C0C8F0100E05D0D890C833D0
:10022800C733C633C533E82EF9D7C551C325D86FB0
:10023800000EC421D96FD807D8A0D907D8C026F096
:10024800D9C027F0000E296E030E286EDAEC21F0D3
:1002580026C0D8F027C0D9F0D8C01EF0D9C01FF0EA
:10026800000E216E0A0E206E06EC1CF01EC0D8F09F
:100278001FC0D9F00001D9AF03D0D807D8A0D9073B
:10028800D851000851EC04F072C0DAF073C0DBF00A
:1002980074C0DCF0DAC066F0DBC067F0DCC068F080
:1002A800DEC069F0DFC06AF0E0C06BF06DEC16F0FC
:1002B80066C0DAF067C0DBF068C0DCF0DAC018F0BE
:1002C800DBC019F0DCC01AF0000E1B6E800E1C6E2D
:1002D8003F0E1D6EBEEC1BF0D8B005D00001D8074C
:1002E800D8A0D90713D0DAC018F0DBC019F0DCC0E9
:1002F8001AF0000E1B6E200E1C6E410E1D6EBEEC19
:100308001BF0D8A003D00001D84BD92B0001D3BFD4
:1003180006D0D3511BE10D0ED25DD8B017D0DEC088
:100328007CF0DFC07DF0E0C07EF0D2511BEC09F01C
:1003380072C07FF073C080F074C081F026EC0EF0BC
:100348007CC0DEF07DC0DFF07EC0E0F00001D9BFE8
:1003580006D0D9511FE10A0ED85DD8B01BD0DE51A6
:10036800DF11E011D8B455D0DEC079F0DFC07AF0E3
:10037800E0C07BF0F1EC15F0000179517A117B11A6
:100388007C11D8B4D9BF45D0D95104E1020ED85D4B
:10039800D8A03FD0DAC018F0DBC019F0DCC01AF0E2
:1003A800700E1B6E890E1C6E400E1D6EBEEC1BF08F
:1003B800D8B003D00001F70E02D00001F80ED827FC
:1003C800FF0ED923D85151EC04F072C0DAF073C093
:1003D800DBF074C0DCF0DEC018F0DFC019F0E0C05C
:1003E8001AF0DAC01BF0DBC01CF0DCC01DF0EFEC2B
:1003F80011F018C0D4F019C0D5F01AC0D6F01BC03F
:10040800D7F0000E0001DE6F000EDF6F000EE06F08
:1004180033D0DEC079F0DFC07AF0E0C07BF0F1ECD9
:1004280015F079C0D4F07AC0D5F07BC0D6F07CC086
:10043800D7F0DEC088F0DFC089F0E0C08AF0D4C011
:1004480020F0D5C021F0D6C022F0D7C023F09AEC16
:100458001EF020C08BF021C08CF022C08DF02CEC57
:1004680020F088C0DEF089C0DFF08AC0E0F0000E1E
:100478000001D96F000ED86F010EE16F0A0EE11965
:10048800D8B418D0E151040D3B0EF324F66E780E63
:10049800F420F76E0900F550D45D0900F550D559E0
:1004A8000900F550D6590900F550D759D8A002D0FF
:1004B800E12BE4D7030ED015C36F000ED115C46F1E
:1004C800C351C411D8B451D0BCC0D9FFBDC0DAFFE4
:1004D8002D0E48D0D4C018F0D5C019F0D6C01AF0E7
:1004E800D7C01BF0E151040D3B0EF324F66E780ED5
:1004F800F420F76E0900F5CF1CF00900F5CF1DF0C8
:100508000900F5CF1EF00A00F5CF1FF048EC1CF0EB
:1005180018C0DAF019C0DBF01AC0DCF01BC0DDF03F
:10052800DAC0B3F0DBC0B4F0DCC0B5F0DDC0B6F0C3
:100538000A0E0001B76F000EB86F000EB96F000EFB
:10054800BA6FA9EC1DF0B3C0DAF0B4C0DBF0B5C0E7
:10055800DCF0B6C0DDF00001DA51300FBCC0D9FFC5
:10056800BDC0DAFFDF6EBC4BBD2BE107E129D8B473
:100578000CD0B0D7BCC0D9FFBDC0DAFF300EDF6EDB
:10058800BC4BBD2BD807D8A0D907D9BF05D0D951A6
:10059800F1E1D805D8B0EED7D3BF09D0D35104E1E3
:1005A800090ED25DD8A003D0080EE16F02D0D2C0E8
:1005B800E1F0E151D25F000EE1BFFF0ED35BE151E4
:1005C800D8B408D0BCC0D9FFBDC0DAFF2E0EDF6E8C
:1005D800BC4BBD2BE15151EC04F072C0C9F073C0A3
:1005E800CAF074C0CBF0DEC069F0DFC06AF0E0C0CA
:1005F8006BF0C9C066F0CAC067F0CBC068F06DEC9C
:1006080016F066C079F067C07AF068C07BF0F1EC4C
:1006180015F079C0D4F07AC0D5F07BC0D6F07CC094
:10062800D7F072D0D4C018F0D5C019F0D6C01AF0DF
:10063800D7C01BF00001E151040D3B0EF324F66E08
:10064800780EF420F76E0900F5CF1CF00900F5CFFD
:100658001DF00900F5CF1EF00A00F5CF1FF048EC99
:100668001CF018C0DAF019C0DBF01AC0DCF01BC0AF
:10067800DDF0DAC0B3F0DBC0B4F0DCC0B5F0DDC04B
:10068800B6F00A0E0001B76F000EB86F000EB96F12
:10069800000EBA6FA9EC1DF0B3C0DAF0B4C0DBF0FD
:1006A800B5C0DCF0B6C0DDF00001DA51300FBCC0D7
:1006B800D9FFBDC0DAFFDF6EBC4BBD2BD4C0B3F091
:1006C800D5C0B4F0D6C0B5F0D7C0B6F0E151040D2E
:1006D8003B0EF324F66E780EF420F76E0900F5CF82
:1006E800B7F00900F5CFB8F00900F5CFB9F00A0066
:1006F800F5CFBAF0A9EC1DF0B3C0D4F0B4C0D5F072
:10070800B5C0D6F0B6C0D7F00001E107E129D8B4EA
:100718000CD088D7BCC0D9FFBDC0DAFF300EDF6E61
:10072800BC4BBD2BD207D8A0D307D251D311D8B414
:10073800A1D0F0D7CEC0D9FFCFC0DAFFDECFD4F03A
:10074800DDCFD5F0000ED5BFFF0ED66FD76F020EE6
:10075800CE27000ECF23D7AF0AD0030ED013D71F52
:10076800D61FD51FD46D000ED523D623D723010E4F
:10077800E16F0A0EE119D8B418D0E151040D3B0E0F
:10078800F324F66E780EF420F76E0900F550D45D68
:100798000900F550D5590900F550D6590900F5500A
:1007A800D759D8A002D0E12BE4D7030ED015C36FD8
:1007B800000ED115C46FC351C411D8B408D0BCC041
:1007C800D9FFBDC0DAFF2D0EDF6EBC4BBD2BE1514A
:1007D800D26FD36BD2BFD30745D0D2C0C3F0D3C03A
:1007E800C4F0D890C337C437D890C337C4373B0E4A
:1007F800C325F66E780EC421F76E0900F5CF1CF0FC
:100808000900F5CF1DF00900F5CF1EF00A00F5CF5D
:100818001FF0D4C018F0D5C019F0D6C01AF0D7C050
:100828001BF048EC1CF018C0B3F019C0B4F01AC0A3
:10083800B5F01BC0B6F00A0E0001B76F000EB86F16
:10084800000EB96F000EBA6FA9EC1DF00001B3518C
:10085800300FE16FBCC0D9FFBDC0DAFFE1C0DFFFD8
:10086800BC4BBD2BD207D8A0D307D229B6E1D329D8
:10087800D8A4B3D7BEC0F6FFBFC0F7FFBE4BBF2B8F
:100888000800F5CFE1F0E151D8A42CD4BCC0D9FFC1
:10089800BDC0DAFF000EDF6E12000001786F0001A4
:1008A80078AF06D1786D7851800A120FD8A093D00E
:1008B800000E296E030E286E000E216E0A0E206EA1
:1008C800000E1B6E640E1A6E7851186E196A18BEE7
:1008D80019063AEC1DF018C01EF019C01FF006ECFE
:1008E8001CF0090E1E24266E000E1F20276EDAEC5F
:1008F80021F08A0E2624F66E780E2720F76E09005E
:10090800F5CF69F00900F5CF6AF00A00F5CF6BF072
:10091800000E216E640E206E000178511E6E1F6A53
:100928001EBE1F0606EC1CF0120E1E24266E000EBC
:100938001F20276E000E296E030E286EDAEC21F0B8
:100948008A0E2624F66E780E2720F76E0900F5CF5A
:1009580066F00900F5CF67F00A00F5CF68F06DEC96
:1009680016F066C075F067C076F068C077F075C09D
:1009780066F076C067F077C068F0000E296E030E47
:10098800286E000E1B6E0A0E1A6E00017851186E42
:10099800196A18BE19063AEC1DF018C026F019C0DD
:1009A80027F0DAEC21F08A0E2624F66E780E27203E
:1009B800F76E0900F5CF69F00900F5CF6AF00A0073
:1009C800F5CF6BF06DEC16F066C072F067C073F08F
:1009D80068C074F0120000017851800A750FD8A021
:1009E80054D0000E216E0A0E206E78511E6E1F6ABA
:1009F8001EBE1F0606EC1CF0090E1E24266E000EF5
:100A08001F20276E000E296E030E286EDAEC21F0E7
:100A18008A0E2624F66E780E2720F76E0900F5CF89
:100A280066F00900F5CF67F00A00F5CF68F0000E10
:100A3800296E030E286E000E1B6E0A0E1A6E000138
:100A48007851186E196A18BE19063AEC1DF018C0CC
:100A580026F019C027F0DAEC21F08A0E2624F66E6B
:100A6800780E2720F76E0900F5CF69F00900F5CF59
:100A78006AF00A00F5CF6BF06DEC16F066C072F004
:100A880067C073F068C074F0120000017851030D5C
:100A98008A0EF324F66E780EF420F76E0900F5CF6F
:100AA80072F00900F5CF73F00A00F5CF74F0120068
:100AB8007851800A120FD8A093D0000E296E030E29
:100AC800286E000E216E0A0E206E000E1B6E640E3C
:100AD8001A6E7851186E196A18BE19063AEC1DF08C
:100AE80018C01EF019C01FF006EC1CF0090E1E24D9
:100AF800266E000E1F20276EDAEC21F0630E2624E6
:100B0800F66E780E2720F76E0900F5CF69F0090018
:100B1800F5CF6AF00A00F5CF6BF0000E216E640E77
:100B2800206E000178511E6E1F6A1EBE1F0606EC5D
:100B38001CF0120E1E24266E000E1F20276E000EBB
:100B4800296E030E286EDAEC21F0630E2624F66E69
:100B5800780E2720F76E0900F5CF66F00900F5CF6B
:100B680067F00A00F5CF68F06DEC16F066C075F016
:100B780067C076F068C077F075C066F076C067F039
:100B880077C068F0000E296E030E286E000E1B6EEB
:100B98000A0E1A6E00017851186E196A18BE1906E5
:100BA8003AEC1DF018C026F019C027F0DAEC21F055
:100BB800630E2624F66E780E2720F76E0900F5CF0F
:100BC80069F00900F5CF6AF00A00F5CF6BF06DEC1B
:100BD80016F066C072F067C073F068C074F0120057
:100BE80000017851800A750FD8A054D0000E216EEC
:100BF8000A0E206E78511E6E1F6A1EBE1F0606EC76
:100C08001CF0090E1E24266E000E1F20276E000EF3
:100C1800296E030E286EDAEC21F0630E2624F66E98
:100C2800780E2720F76E0900F5CF66F00900F5CF9A
:100C380067F00A00F5CF68F0000E296E030E286EE3
:100C4800000E1B6E0A0E1A6E00017851186E196A92
:100C580018BE19063AEC1DF018C026F019C027F086
:100C6800DAEC21F0630E2624F66E780E2720F76E54
:100C78000900F5CF69F00900F5CF6AF00A00F5CF51
:100C88006BF06DEC16F066C072F067C073F068C068
:100C980074F0120000017851030D630EF324F66E10
:100CA800780EF420F76E0900F5CF72F00900F5CF41
:100CB80073F00A00F5CF74F01200000E0101846F82
:100CC80047D1E8EC1FF0010E0101E66F12000AECB3
:100CD80020F00101846F240E8419D8A41200020E9A
:100CE800E66F1200E751D8B412000AEC20F00101B7
:100CF800846F8451D8B412000D0E8419D8A403D07F
:100D0800030EE66F1200200E8419D8B41200E051C9
:100D1800010DC20EF324D96E020EF420DA6E84C1DE
:100D2800DFFFE02B12000201C2518DEC22F001011D
:100D3800846F24D0000EE56F040EE66F1200010EDA
:100D4800E56F040EE66F1200020EE56F040EE66F03
:100D58001200500E0001BC6F010EBD6FB80EBE6FC1
:100D68007F0EBF6F70EC00F0500E196E010E1A6EF8
:100D780001EC1DF0000E0101E66F12008451520AC9
:100D8800D8B4D8D7010AD8B4DFD7070AD8B4D7D788
:100D9800E0D70201C3518DEC22F00101846F68D0C5
:100DA800490E8419D8B414D0460E8419D8B410D07A
:100DB800510E8419D8B40CD0580E8419D8B408D060
:100DC800530E8419D8B404D0430E8419D8A406D07D
:100DD8008451D00FE46F050EE66F1200CD0E196E28
:100DE8007F0E1A6E01EC1DF0000E0101E66F120075
:100DF800490E8419D8B414D0460E8419D8B410D02A
:100E0800510E8419D8B40CD0580E8419D8B408D00F
:100E1800420E8419D8B404D0530E8419D8A406D02D
:100E28008451D00FE46F050EE66F1200CD0E196ED7
:100E38007F0E1A6E01EC1DF0000E0101E66F120024
:100E4800480E8419D8B404D04C0E8419D8A406D0FE
:100E58008451D00FE46F050EE66F1200CD0E196EA7
:100E68007F0E1A6E01EC1DF0000E0101E66F1200F4
:100E7800E551000AD8B494D7010AD8B4B9D7030AFF
:100E8800D8A41200DDD7E051FE0FE36FE3C1AEF244
:100E9800E351D8A403D0080EE66F1200060EE66FE1
:100EA8001200000E836F010E826F1BD0010E01012C
:100EB80082250001EC6F000E010183210001ED6F16
:100EC800C20EEC25D96E020EED21DA6EAE0E0101CE
:100ED8008225E16E020E8321E26EDFCFE7FF824BAF
:100EE800832BE3510001EC6FED6B010EEC27000E34
:100EF800ED23EC510101825D8351800A0001EE6F00
:100F0800ED51800AEE59D8A0D1D7080E0101E66F3D
:100F18001200E551020DD60EF324D96E020EF4200C
:100F2800DA6E01D811D00500FA6EDE50FD6EDE5083
:100F3800FE6EF850FF6EFA50AE0E0001E26F020E20
:100F4800E36F0101E4511200000E0101E66F120087
:100F5800E651000AD8B4B5D6010AD8B4B8D6030AFF
:100F6800D8B4C0D6010AD8B4DED6070AD8B411D787
:100F7800010AD8B488D7030AD8B493D70E0AD8A4DC
:100F88001200C7D7000E0001BC6F010EBD6FDB0E4B
:100F9800BE6F7E0EBF6F70EC00F0000E196E010E72
:100FA8001A6E01EC1DF0000E0001BC6F010EBD6F42
:100FB800380EBE6F7B0EBF6F70EC00F0000E196E1E
:100FC800010E1A6E01EC1DF0000E0001BC6F010E3F
:100FD800BD6FB80EBE6F7B0EBF6F70EC00F0000ED9
:100FE800196E010E1A6E01EC1DF0000E0001BC6FA7
:100FF800010EBD6FD00EBE6F7C0EBF6F70EC00F09F
:10100800000E196E010E1A6E01EC1DF0000E0001A3
:10101800BC6F010EBD6F5A0EBE6F7A0EBF6F70ECBB
:1010280000F0000E196E010E1A6E01EC1DF0000E94
:101038000001BC6F010EBD6F0B0EBE6F7A0EBF6F45
:1010480070EC00F0000E196E010E1A6E01EC1DF026
:10105800000E0001BC6F010EBD6F7A0EBE6F7E0ED2
:10106800BF6F70EC00F0000E196E010E1A6E01ECE5
:101078001DF0000E0001BC6F010EBD6FA50EBE6F06
:101088007A0EBF6F70EC00F0000E196E010E1A6E2A
:1010980001EC1DF0000E0001BC6F010EBD6FFE0ECD
:1010A800BE6F7C0EBF6F70EC00F0000E196E010E63
:1010B8001A6E01EC1DF0000E0001BC6F010EBD6F31
:1010C8007A0EBE6F7B0EBF6F70EC00F0000E196ECB
:1010D800010E1A6E01EC1DF0000E0001BC6F010E2E
:1010E800BD6FF50EBE6F7B0EBF6F70EC00F0000E8B
:1010F800196E010E1A6E01EC1DF0000E0001BC6F96
:10110800010EBD6F5F0EBE6F790EBF6F70EC00F001
:10111800000E196E010E1A6E01EC1DF0000E000192
:10112800BC6F010EBD6FFA0EBE6F780EBF6F70EC0C
:1011380000F0000E196E010E1A6E01EC1DF0000E83
:101148000001BC6F010EBD6F400EBE6F7E0EBF6FFB
:1011580070EC00F0000E196E010E1A6E01EC1DF015
:10116800000E0001BC6F010EBD6FA20EBE6F7C0E9B
:10117800BF6F70EC00F0000E196E010E1A6E01ECD4
:101188001DF0000E0001BC6F010EBD6F6D0EBE6F2D
:101198007C0EBF6F70EC00F0000E196E010E1A6E17
:1011A80001EC1DF0000E0001BC6F010EBD6FB50E05
:1011B800BE6F790EBF6F70EC00F0000E196E010E55
:1011C8001A6E01EC1DF0000E0001BC6F010EBD6F20
:1011D8002B0EBE6F7D0EBF6F70EC00F0000E196E07
:1011E800010E1A6E01EC1DF0000E0001BC6F010E1D
:1011F800BD6F510EBE6F7D0EBF6F70EC00F0000E1C
:10120800196E010E1A6E01EC1DF0000E0001BC6F84
:10121800010EBD6FEF0EBE6F7A0EBF6F70EC00F05F
:10122800000E196E010E1A6E01EC1DF0120000017D
:101238007B6F6D0E00017B65A0D0000E296E030E3A
:10124800286E000E216E0A0E206E000E1B6E640EB4
:101258001A6E7BC018F0196A3AEC1DF018C01EF01F
:1012680019C01FF006EC1CF0090E1E24266E000E95
:101278001F20276EDAEC21F08A0E2624F66E780EEF
:101288002720F76E0900F5CF69F00900F5CF6AF05D
:101298000A00F5CF6BF0000E216E640E206E7BC045
:1012A8001EF01F6A06EC1CF0120E1E24266E000E9D
:1012B8001F20276E000E296E030E286EDAEC21F02F
:1012C8008A0E2624F66E780E2720F76E0900F5CFD1
:1012D80066F00900F5CF67F00A00F5CF68F06DEC0D
:1012E80016F066C078F067C079F068C07AF0000E32
:1012F800296E030E286E000E1B6E0A0E1A6E7BC036
:1013080018F0196A3AEC1DF018C026F019C027F039
:10131800DAEC21F08A0E2624F66E780E2720F76E76
:101328000900F5CF69F00900F5CF6AF00A00F5CF9A
:101338006BF078C066F079C067F07AC068F06DEC41
:1013480016F066C075F067C076F068C077F075C0B3
:1013580066F076C067F077C068F0000E0001696F2C
:10136800000E6A6F3F0E6B6F6DEC16F066C072F080
:1013780067C073F068C074F012000A0E00017B6544
:1013880064D0000E296E030E286E000E1B6E0A0E26
:101398001A6E7BC018F0196A3AEC1DF018C026F0D6
:1013A80019C027F0DAEC21F08A0E2624F66E780EA2
:1013B8002720F76E0900F5CF69F00900F5CF6AF02C
:1013C8000A00F5CF6BF0000E216E0A0E206E7BC06E
:1013D8001EF01F6A06EC1CF0090E1E24266E000E75
:1013E8001F20276E000E296E030E286EDAEC21F0FE
:1013F8008A0E2624F66E780E2720F76E0900F5CFA0
:1014080066F00900F5CF67F00A00F5CF68F06DECDB
:1014180016F066C078F067C079F068C07AF078C0D6
:1014280066F079C067F07AC068F0000E0001696F55
:10143800000E6A6F3F0E6B6F6DEC16F066C072F0AF
:1014480067C073F068C074F0120000017B51030D8F
:101458008A0EF324F66E780EF420F76E0900F5CFA5
:1014680066F00900F5CF67F00A00F5CF68F0000EC6
:10147800696F000E6A6F3F0E6B6F6DEC16F066C0F9
:1014880072F067C073F068C074F01200000E0001BB
:10149800BC6F010EBD6F090EBE6F7F0EBF6F70EC83
:1014A80000F0000E196E010E1A6E01EC1DF0000E10
:1014B8000001BC6F010EBD6F760EBE6F7D0EBF6F53
:1014C80085C1C0F0C16B70EC00F0000E196E010E02
:1014D8001A6E01EC1DF0000E0001BC6F010EBD6F0D
:1014E800930EBE6F7E0EBF6F8BC1C0F08CC1C1F072
:1014F8008DC1C2F070EC00F0000E196E010E1A6E6C
:1015080001EC1DF0000E0001BC6F010EBD6F9A0EBC
:10151800BE6F7D0EBF6F8EC1C0F0C16B70EC00F066
:10152800000E196E010E1A6E01EC1DF0000E00017E
:10153800BC6F010EBD6FC30EBE6F7E0EBF6F8FC135
:10154800C0F090C1C1F091C1C2F070EC00F0000E83
:10155800196E010E1A6E01EC1DF0000E0001BC6F31
:10156800010EBD6FC30EBE6F7F0EBF6F010192519A
:101578000001C06FC16BC0BFC10770EC00F0000E66
:10158800196E010E1A6E01EC1DF0000E0001BC6F01
:10159800010EBD6FF20EBE6F7E0EBF6F96C1C0F01A
:1015A800C16B70EC00F0000E196E010E1A6E01ECA2
:1015B8001DF0000E0001BC6F010EBD6F9F0EBE6FC7
:1015C8007F0EBF6F010197510001C06FC16BC0BF93
:1015D800C10770EC00F0000E196E010E1A6E01ECD6
:1015E8001DF0000E0001BC6F010EBD6F920EBE6FA4
:1015F8007F0EBF6F98C1C0F099C1C1F070EC00F0C8
:10160800000E196E010E1A6E01EC1DF0000E00019D
:10161800BC6F010EBD6F1F0EBE6F7F0EBF6F9AC1EC
:10162800C0F09BC1C1F070EC00F0000E196E010E05
:101638001A6E01EC1DF0000E0001BC6F010EBD6FAB
:10164800830EBE6F7F0EBF6F9CC1C0F0C16B70EC84
:1016580000F0000E196E010E1A6E01EC1DF0000E5E
:101668000001BC6F010EBD6F090EBE6F7F0EBF6F0C
:1016780070EC00F0000E196E010E1A6E01EC1DF0F0
:101688001200000E0001BC6F010EBD6F090EBE6F87
:101698007F0EBF6F70EC00F0000E196E010E1A6E0F
:1016A80001EC1DF0000E0001BC6F010EBD6F320E83
:1016B800BE6F7C0EBF6FA3C1C0F0C16B70EC00F0B1
:1016C800000E196E010E1A6E01EC1DF0000E0001DD
:1016D800BC6F010EBD6F930EBE6F7E0EBF6FA9C1AA
:1016E800C0F0AAC1C1F0ABC1C2F070EC00F0000EAE
:1016F800196E010E1A6E01EC1DF0000E0001BC6F90
:10170800010EBD6F9A0EBE6F7D0EBF6FACC1C0F0EB
:10171800C16B70EC00F0000E196E010E1A6E01EC30
:101728001DF0000E0001BC6F010EBD6FAB0EBE6F49
:101738007E0EBF6FADC1C0F0AEC1C1F0AFC1C2F087
:1017480070EC00F0000E196E010E1A6E01EC1DF01F
:10175800000E0001BC6F010EBD6FC30EBE6F7F0E81
:10176800BF6F0101B0510001C06FC16BC0BFC1079D
:1017780070EC00F0000E196E010E1A6E01EC1DF0EF
:10178800000E0001BC6F010EBD6FF20EBE6F7E0E23
:10179800BF6FB4C1C0F0C16B70EC00F0000E196EE1
:1017A800010E1A6E01EC1DF0000E0001BC6F010E57
:1017B800BD6F9F0EBE6F7F0EBF6F0101B551000157
:1017C800C06FC16BC0BFC10770EC00F0000E196E8E
:1017D800010E1A6E01EC1DF0000E0001BC6F010E27
:1017E800BD6F920EBE6F7F0EBF6FB6C1C0F0B7C19E
:1017F800C1F070EC00F0000E196E010E1A6E01ECCB
:101808001DF0000E0001BC6F010EBD6F1F0EBE6FF4
:101818007F0EBF6FB8C1C0F0B9C1C1F070EC00F065
:10182800000E196E010E1A6E01EC1DF0000E00017B
:10183800BC6F010EBD6F830EBE6F7F0EBF6FBAC146
:10184800C0F0C16B70EC00F0000E196E010E1A6E3C
:1018580001EC1DF0000E0001BC6F010EBD6F090EFA
:10186800BE6F7F0EBF6F70EC00F0000E196E010E98
:101878001A6E01EC1DF01200000199519A119B118A
:10188800D8A407D0000E996F800E9A6F3F0E9B6FF9
:101898001200720E186E310E196E440E1A6E99C02F
:1018A8001BF09AC01CF09BC01DF0BEEC1BF0D8B01A
:1018B8000DD0000E0101D16F220ED06FFF0E000176
:1018C800996F7F0E9A6F7F0E9B6F120099C018F068
:1018D8009AC019F09BC01AF0490E1B6E3A0E1C6E86
:1018E800C40E1D6EBEEC1BF0D8B00DD0000E010169
:1018F800D16F220ED06F000E0001996F000E9A6F03
:10190800000E9B6F120000019BAF02D0010E01D0A8
:10191800000EA16FA151D8B40ED099C018F09AC08A
:1019280019F09BC01AF011EC22F018C099F019C0F8
:101938009AF01AC09BF099C066F09AC067F09BC0F5
:1019480068F0AA0E0001696FB80E6A6F3F0E6B6FE0
:101958006DEC16F066C099F067C09AF068C09BF00D
:1019680099C090F09AC091F09BC092F041EC18F0A9
:1019780090C09CF091C09DF092C09EF09CC079F000
:101988009DC07AF09EC07BF0F1EC15F079C09FF015
:101998007AC0A0F099C088F09AC089F09BC08AF0FC
:1019A8009FC020F0A0C021F0E4EC20F020C08BF014
:1019B80021C08CF022C08DF02CEC20F088C099F06A
:1019C80089C09AF08AC09BF099C088F09AC089F0C3
:1019D8009BC08AF0C10E00018B6F780E8C6F000ED1
:1019E8008E6F090E8D6FB2EC18F088C092F089C026
:1019F80093F08AC094F09FC095F0A0C096F01DECBB
:101A080019F092C099F093C09AF094C09BF000012D
:101A1800A151D8B425D099290EE17F0E9A190BE16E
:101A28007F0E9B19D8A407D0000E996F000E9A6FED
:101A3800000E9B6F1200000E236E800E246E3F0E68
:101A4800256E99C026F09AC027F09BC028F0E8ECD4
:101A580016F023C099F024C09AF025C09BF012001C
:101A680099C099F09AC09AF09BC09BF0120026C0CA
:101A7800D9FF27C0DAFFDF500001656F264A272A01
:101A88006551C7EC21F0D8B0F2D7000E0001616FA4
:101A9800000E626F000E636F000E646F000E606FC1
:101AA8002D0E6519D8A403D0010E606F04D02B0E3B
:101AB8006519D8A408D026C0D9FF27C0DAFFDF509F
:101AC800656F264A272A300E6519D8A42ED026C05D
:101AD800D9FF27C0DAFFDF50656F264A272A2A5028
:101AE8002B10D8B405D0100E2A182B10D8A415D056
:101AF800780E6519D8B404D0580E6519D8A40DD03D
:101B0800000E2B6E100E2A6E26C0D9FF27C0DAFFF2
:101B1800DF50656F264A272A08D02A502B10D8A4F0
:101B280004D0000E2B6E080E2A6E2A502B10D8A453
:101B380004D0000E2B6E0A0E2A6E6551B3EC21F00C
:101B4800D8A008D0000165518DEC22F0C90F000122
:101B5800656F09D00001655123EC22F0D8A039D077
:101B6800300E0001655F65512C6E2D6A2A502C5C81
:101B78002D50800A2E6E2B50800A2E58D8B029D0AE
:101B88002AC01AF02BC01BF0000E1BBEFF0E1C6EE5
:101B98001D6E61C01EF062C01FF063C020F064C0FB
:101BA80021F076EC1FF0000165511A24616F000ED8
:101BB8001B20626F000E1C20636F000E1D20646FD7
:101BC80026C0D9FF27C0DAFFDF50656F264A272ACB
:101BD800B4D728502910D8B40ED0FF0E26242C6E66
:101BE800FF0E27202D6E28C0D9FF29C0DAFF2CC090
:101BF800DEFF2DC0DDFF00016051D8B41AD061C0EE
:101C08002CF062C02DF063C02EF064C02FF02C1EA3
:101C18002D1E2E1E2F1E2C2A000E2D222E222F2284
:101C28002CC026F02DC027F02EC028F02FC029F098
:101C3800120061C026F062C027F063C028F064C0BB
:101C480029F012007EC082F00001836B846B7D3521
:101C5800823701E383818251876F81C082F0836B71
:101C6800846B8035823701E383818251866F875187
:101C7800D8B40BD08651875DD8B00ED087510008F4
:101C88008625826F180E826507D07FC07CF080C0E1
:101C98007DF081C07EF012008651D8B40BD08751F8
:101CA800865DD8B00ED0865100088725826F180E41
:101CB800826507D07CC07CF07DC07DF07EC07EF060
:101CC8001200060E856F7EBF858F81BF858D7D8F43
:101CD800FF0E7C17FF0E7D17000E7E17808FFF0EFC
:101CE8007F17FF0E8017000E81178651875DD8B0C9
:101CF8001BD0D8907F378037813786078751861960
:101D0800D8B40DD0850785C082F0070E8217D8B4E5
:101D180006D0EFD7D8907E337D337C33872B86511E
:101D28008719D8B41FD0F6D78751865DD8B01AD096
:101D3800D8907C377D377E37870787518619D8B486
:101D48000DD0850785C082F0070E8217D8B406D05B
:101D5800EFD7D890813380337F33862B865187190C
:101D6800D8A4F7D785AF0CD0FF0E7C1BFF0E7D1BC8
:101D7800FF0E7E1B010E7C27000E7D23000E7E23A6
:101D880085AD0CD0FF0E7F1BFF0E801BFF0E811B45
:101D9800010E7F27000E8023000E8123000E856F21
:101DA8007C517F277D5180237E51812381AF0ED0C6
:101DB800FF0E7F1BFF0E801BFF0E811B010E7F276E
:101DC800000E8023000E8123010E856F7FC018F05E
:101DD80080C019F081C01AF087C01BF085C01CF0C4
:101DE8003FEC1AF018C07CF019C07DF01AC07EF0E4
:101DF8001200000E0101386F000E376FD451D51153
:101E0800D8B4B5D0BD0E3724F66E780E3820F76EEC
:101E18000800F55085EC21F018C035F119C036F1ED
:101E2800000E0001A56F200EA66F410EA76F000ED1
:101E3800A26F000EA36F400EA46F89EC10F0A2C031
:101E480032F1A3C033F1A4C034F1C00E0001696FB0
:101E5800500E6A6F450E6B6F32C126F033C127F002
:101E680034C128F035C120F036C121F0FFEC21F053
:101E780020C023F021C024F022C025F0E8EC16F0A1
:101E880023C066F024C067F025C068F06DEC16F03A
:101E980066C079F067C07AF068C07BF0F1EC15F0A5
:101EA80079C037F17AC038F1BD0E3724F66E780E56
:101EB8003820F76E0800F550060AD8A404D037C1B8
:101EC800DEF138C1DFF1BD0E3724F66E780E38200A
:101ED800F76E0800F550050AD8A404D037C1DCF124
:101EE80038C1DDF1BD0E3724F66E780E3820F76E56
:101EF8000800F550040AD8A404D037C1DAF138C173
:101F0800DBF1BD0E3724F66E780E3820F76E080028
:101F1800F550070AD8A404D037C1D8F138C1D9F18F
:101F2800000E0001BC6F010EBD6FF60EBE6F7F0E76
:101F3800BF6F37C1C0F038C1C1F070EC00F0000EBF
:101F4800196E010E1A6E01EC1DF0020E0001E36F0E
:101F5800040EE26FBA0EE82EFED7E22FFCD7E32F6D
:101F6800FAD700F00101D407D8A0D5071200000E57
:101F7800EA6FE00E196E7F0E1A6E01EC1DF012006A
:101F8800800E626E010E186E000E8CEC20F0000EB2
:101F98000001896F000E886F89BF06D0895129E139
:101FA8000D0E885DD8B025D088C086F089C087F02E
:101FB800D89086378737D89086378737D30E8625C7
:101FC800F66E770E8721F76E0900F5CF28F0090025
:101FD800F5CF29F00900F5CF2AF00A00F5CF2BF04C
:101FE800030E2C6E000E96EC1AF00001884B892B1C
:101FF800D3D7010E186E010E8CEC20F0000E0001F4
:102008008B6F000E8A6F8BBF06D08B5129E10D0EA6
:102018008A5DD8B025D08AC086F08BC087F0D8906A
:1020280086378737D89086378737070E8625F66E26
:10203800780E8721F76E0900F5CF28F00900F5CF53
:1020480029F00900F5CF2AF00A00F5CF2BF0030E8E
:102058002C6E010E96EC1AF000018A4B8B2BD3D70D
:10206800170EF66E780EF76E0900F5CF28F0090006
:10207800F5CF29F00900F5CF2AF00A00F5CF2BF0AB
:10208800030E2C6E010E96EC1AF00F0EF66E780EFB
:10209800F76E0900F5CF28F00900F5CF29F00900FF
:1020A800F5CF2AF00A00F5CF2BF0030E2C6E010EA7
:1020B80096EC1AF00B0EF66E780EF76E0900F5CF57
:1020C80028F00900F5CF29F00900F5CF2AF00A0019
:1020D800F5CF2BF0030E2C6E010E96EC1AF0070EBE
:1020E800F66E780EF76E0900F5CF28F00900F5CFE7
:1020F80029F00900F5CF2AF00A00F5CF2BF0030EDE
:102108002C6E010E96EC1AF01200000E0001AE6F54
:10211800A251A311A411D8A41DD0000E186E000E50
:10212800196E000E1A6EA5C01BF0A6C01CF0A7C041
:102138001DF0BEEC1BF0D8A005D0000E0101D16F38
:10214800210ED06F000E0001A26F000EA36F000ECB
:10215800A46F1200A551A611A711D8A407D0000E8C
:10216800A26F800EA36F3F0EA46F1200A4AF43D0DE
:10217800A5C079F0A6C07AF0A7C07BF0F1EC15F005
:1021880079C0AFF07AC0B0F07BC0B1F07CC0B2F0DB
:10219800AFC020F0B0C021F0B1C022F0B2C023F02F
:1021A8009AEC1EF00001A551201807E1A65121184C
:1021B80004E1A7512218D8B40DD0000E0101D16F47
:1021C800210ED06F000E0001A26F000EA36F000E4B
:1021D800A46F1200AF51010BAE6FA2C018F0A3C0DC
:1021E80019F0A4C01AF011EC22F018C0A2F019C01E
:1021F800A3F01AC0A4F0A2C092F0A3C093F0A4C0A8
:1022080094F088EC12F092C0A8F093C0A9F094C0A2
:10221800AAF0A8C066F0A9C067F0AAC068F0A5C077
:1022280069F0A6C06AF0A7C06BF06DEC16F066C046
:10223800ABF067C0ACF068C0ADF0ABC099F0ACC013
:102248009AF0ADC09BF040EC0CF099C0A2F09AC097
:10225800A3F09BC0A4F00001AE51D8B40FD0A2C027
:1022680018F0A3C019F0A4C01AF011EC22F018C09D
:10227800A2F019C0A3F01AC0A4F01200A2C0A2F0E4
:10228800A3C0A3F0A4C0A4F01200000E0001B96F0F
:10229800000EB86F010EBA6F040EBA6501D01200B5
:1022A800BA51010DBD0EF324F66E780EF420F76EC8
:1022B8000800F55085EC21F018C0B6F019C0B7F049
:1022C800000E0001A56F200EA66F410EA76F000E2D
:1022D800A26F000EA36F400EA46F89EC10F0A2C08D
:1022E800B3F0A3C0B4F0A4C0B5F0C00E0001696F8C
:1022F800500E6A6F450E6B6FB3C026F0B4C027F05E
:10230800B5C028F0B6C020F0B7C021F0FFEC21F02E
:1023180020C023F021C024F022C025F0E8EC16F0FC
:1023280023C066F024C067F025C068F06DEC16F095
:1023380066C079F067C07AF068C07BF0F1EC15F000
:1023480079C0B8F07AC0B9F00001BA51010DBD0EDC
:10235800F324F66E780EF420F76E0800F550060A9E
:10236800D8A404D0B8C0DEF1B9C0DFF1BA51010D6C
:10237800BD0EF324F66E780EF420F76E0800F550C3
:10238800050AD8A404D0B8C0DCF1B9C0DDF1BA514F
:10239800010DBD0EF324F66E780EF420F76E0800DA
:1023A800F550040AD8A404D0B8C0DAF1B9C0DBF1FA
:1023B800BA51010DBD0EF324F66E780EF420F76EB7
:1023C8000800F550070AD8A404D0B8C0D8F1B9C09D
:1023D800D9F1BA2B61D71AC01EF01F6A206A1934C6
:1023E8001E3601E31F801E50266E2650D8A409D041
:1023F800000E186E000E196E000E1A6E000E1B6E7F
:1024080012001DC01EF01F6A206A1C341E3601E32C
:102418001F801E50256E2550D8A409D0000E186EB6
:10242800000E196E000E1A6E000E1B6E1200198E29
:10243800FF0E1816FF0E1916000E1A161C8EFF0E28
:102448001B16FF0E1C16000E1D16000E216E000E28
:10245800226E000E236E000E246E7F0E265E25501F
:10246800980F265E180E256ED89021362236233610
:1024780024361B50185C1C5019581D501A58D8A0E7
:1024880007D01B50185E1C50195A1D501A5A21802B
:10249800D890183619361A36252EE6D726AE16D015
:1024A8002650800A970FD8B009D0000E186E000E7B
:1024B800196E000E1A6E000E1B6E1200D890243290
:1024C800233222322132263EF9D715D0170E266440
:1024D8000FD0000E186E000E196E000E1A6E000E48
:1024E8001B6E1200D8902136223623362436260653
:1024F8002650D8A4F7D721C018F022C019F023C05D
:102508001AF024C01BF01200000194AF0DD0000E89
:102518000101D16F210ED06F000E0001926F000EE5
:10252800936F000E946F1200925193119411D8A4D6
:102538000DD0000E0101D16F220ED06F000E0001E8
:10254800926F000E936F000E946F1200000E696F69
:10255800000E6A6F400E6B6F950E1B6E000E1C6EA0
:1025680092C018F093C019F094C01AF076EC1BF0E2
:1025780018C066F019C067F01AC068F06DEC16F064
:1025880066C07CF067C07DF068C07EF0000E000178
:102598007F6F800E806FBF0E816F26EC0EF07CC0BF
:1025A80092F07DC093F07EC094F000019507D8A00A
:1025B800960792C088F093C089F094C08AF0DF0E25
:1025C8008B6F780E8C6F000E8E6F080E8D6FB2ECCD
:1025D80018F088C092F089C093F08AC094F0720E07
:1025E8000001696F310E6A6F3F0E6B6F95C020F066
:1025F80096C021F0E4EC20F020C066F021C067F01E
:1026080022C068F06DEC16F066C07CF067C07DF003
:1026180068C07EF092C07FF093C080F094C081F0D3
:1026280026EC0EF07CC092F07DC093F07EC094F052
:1026380012001A341B34236E2350D8A409D0000E7C
:10264800186E000E196E000E1A6E000E1B6E120028
:102658001D341E34226E2250D8A409D0000E186EE4
:10266800000E196E000E1A6E000E1B6E12001A8EE6
:10267800FF0E1816FF0E1916FF0E1A16000E1B165F
:102688001D8EFF0E1B16FF0E1C16FF0E1D16000ECC
:102698001E16000E1E6E000E1F6E000E206E000E1F
:1026A800216E7F0E235E2250A00F235E200E226E25
:1026B800D8901E361F36203621361B50185C1C5009
:1026C80019581D501A581E501B58D8A009D01B5015
:1026D800185E1C50195A1D501A5A1E501B5A1E803B
:1026E800D890183619361A361B36222EE1D723AE63
:1026F80016D02350800A9F0FD8B009D0000E186E4C
:10270800000E196E000E1A6E000E1B6E1200D89085
:10271800213220321F321E32233EF9D715D01F0E28
:1027280023640FD0000E186E000E196E000E1A6E7C
:10273800000E1B6E1200D8901E361F36203621362A
:1027480023062350D8A4F7D71EC018F01FC019F0CD
:1027580020C01AF021C01BF012000001EB6F77D0E7
:10276800C6EC1CF04AEC0AF01200E2C066F0E3C0C6
:1027780067F0E3EC1AF066C0C4F167C0C5F168C041
:10278800C6F169C0C7F1000120EE01F0E251D92677
:10279800E351DA22DF50E46FD00EE425376E386A51
:1027A800FF0E3822E2C0D9FFE3C0DAFFDF50E46F42
:1027B800FF0EE425206E216AFF0E2122E4EC20F0B2
:1027C80020C0E5F021C0E6F022C0E7F0E5C0A5F0A2
:1027D800E6C0A6F0E7C0A7F0000E0001A26F200E29
:1027E800A36F410EA46F89EC10F0A2C0E8F0A3C05B
:1027F800E9F0A4C0EAF0C4C1B3F0C5C1B4F0C6C1E1
:10280800B5F0C7C1B6F0E8C079F0E9C07AF0EAC01F
:102818007BF0F1EC15F0000179C0B7F07AC0B8F0A0
:10282800000EB8BFFF0EB96FBA6FA9EC1DF0B3C0A8
:10283800D4F1B4C0D5F137C01FF0D4C120F0D5C150
:1028480021F0226A236A000E64EC15F012000001E0
:10285800EB51120AD8B41200040AD8B412000F0AB5
:10286800D8B41200380AD8B47BD7020AD8B47DD7B6
:102878000B0AD8B412004B0AD8B41200060A120088
:102888000001C46F000E0001C56F000EC66F000E78
:10289800C76F000EC86FB351C45F000EC96F6DD00B
:1028A800C951B76FB86B010EB727000EB823B71F11
:1028B800B81FB74BB82BB351B727B451B823D8902A
:1028C800B737B837D890B737B837D890B737B83799
:1028D800B7C020F0B8C021F0E4EC20F020C0BEF072
:1028E80021C0BFF022C0C0F0BEC0A5F0BFC0A6F096
:1028F800C0C0A7F0000E0001A26F000EA36F400E2B
:10290800A46F89EC10F0A2C0C1F0A3C0C2F0A4C0AB
:10291800C3F0C1C079F0C2C07AF0C3C07BF0F1EC5B
:1029280015F079C0BAF07AC0BBF07BC0BCF07CC0AF
:10293800BDF00001C451C925C9EC22F00001B76FF0
:10294800B7511A6E1B6A1C6A1D6ABAC01EF0BBC05A
:102958001FF0BCC020F0BDC021F076EC1FF00001D4
:10296800C5511A10C56FC6511B10C66FC7511C1030
:10297800C76FC8511D10C86FC92BC951B76FB86B45
:10298800B351B75DB851800AB96FB451800AB959CB
:10299800D8A086D7C5C0B3F0C6C0B4F0C7C0B5F0DC
:1029A800C8C0B6F012000001EB6F77D072EC1DF0D2
:1029B80045EC0BF01200E2C066F0E3C067F0E3EC10
:1029C8001AF066C0C4F167C0C5F168C0C6F169C035
:1029D800C7F1000120EE01F0E251D926E351DA22D5
:1029E800DF50E46FD00EE425376E386AFF0E3822C8
:1029F800E2C0D9FFE3C0DAFFDF50E46FFF0EE42541
:102A0800206E216AFF0E2122E4EC20F020C0E5F0C0
:102A180021C0E6F022C0E7F0E5C0A5F0E6C0A6F0C8
:102A2800E7C0A7F0000E0001A26F200EA36F410EB1
:102A3800A46F89EC10F0A2C0E8F0A3C0E9F0A4C02C
:102A4800EAF0C4C1B3F0C5C1B4F0C6C1B5F0C7C19E
:102A5800B6F0E8C079F0E9C07AF0EAC07BF0F1ECB2
:102A680015F0000179C0B7F07AC0B8F0000EB8BF11
:102A7800FF0EB96FBA6FA9EC1DF0B3C0D4F1B4C0A2
:102A8800D5F137C01FF0D4C120F0D5C121F0226A9A
:102A9800236A010E64EC15F012000001EB51120AD2
:102AA800D8B41200040AD8B412000F0AD8B412001D
:102AB800380AD8B47BD7020AD8B47DD70B0A1200DB
:102AC800286E000E246E000E256E000E266E000E77
:102AD800276E1F50D8A40BD02850D8A404D0000EBD
:102AE8000101866F1200000E0101A46F1200385018
:102AF80004E1050E375CD8A007D0CD0E196E7F0E05
:102B08001A6E01EC1DF012002850D8A431D03750AD
:102B18003810D8A404D0000E0101A46F12003704A5
:102B28003810D8A407D0E00E196E7D0E1A6E01EC8D
:102B38001DF00BD0020E37183810D8A406D05D0E41
:102B4800196E7E0E1A6E01EC1DF037043810D8B4D9
:102B580005D0020E37183810D8A404D0010E010190
:102B6800EA6F06D0CD0E196E7F0E1A6E01EC1DF0BD
:102B78002804D8A4120037503810D8A404D0000E66
:102B88000101A46F120037043810D8A407D0010E31
:102B9800196E7E0E1A6E01EC1DF00BD0020E37185E
:102BA8003810D8A406D0BE0E196E7D0E1A6E01EC30
:102BB8001DF037043810D8B405D0020E3718381075
:102BC800D8A404D0010E0101EA6F1200CD0E196ECF
:102BD8007F0E1A6E01EC1DF012007BC07DF0000123
:102BE8007E6B7F6B7A357D3701E37E817D51876F00
:102BF8008751D8A409D0000E796F000E7A6F000EA5
:102C08007B6F000E7C6F1200170E7D6F79C07EF00F
:102C18007AC07FF07BC080F07D29816F04D0D89086
:102C280080337F337E33812FFAD700017E51826F44
:102C38007A8FFF0E7917FF0E7A17000E7B177951DE
:102C4800836F7A51846F7B51856F866B8E0E875F99
:102C580087AF16D08751800A8F0FD8B009D0000EE1
:102C6800796F000E7A6F000E7B6F000E7C6F12007A
:102C7800D8908633853384338333873FF9D715D08B
:102C8800170E87650FD0000E796F000E7A6F000E51
:102C98007B6F000E7C6F1200D8908337843785379E
:102CA800863787078751D8A4F7D78251D8B408D078
:102CB800861F851F841F836D000E8423852386232A
:102CC80083C079F084C07AF085C07BF086C07CF040
:102CD800120068C02CF02D6A2E6A000167352C3668
:102CE80001E32D802C506C6F6C51D8A407D0000ED6
:102CF800666F000E676F000E686F12006BC02CF0D5
:102D08002D6A2E6A6A352C3601E32D802C50716F9E
:102D18007151D8A407D0000E666F000E676F000EC1
:102D2800686F120071517B0F6C2768C071F06B518E
:102D3800711B800E7117678F6A8FFF0E6917FF0E60
:102D48006A17000E6B17000E6D6F000E6E6F000E87
:102D58006F6F070E706F66A106D069516D276A51B3
:102D68006E236B516F23D890683367336633D890DE
:102D780069376A376B37702FEED7090E706F66A107
:102D880006D069516D276A516E236B516F23D89015
:102D9800683367336633D8906F336E336D33702F73
:102DA800EED76DC018F06EC019F06FC01AF06CC085
:102DB8001BF071C01CF03FEC1AF018C066F019C087
:102DC80067F01AC068F0120025C029F02A6A2B6A39
:102DD8002434293601E32A8029500001646F6451A4
:102DE800D8A407D0000E236E000E246E000E256EA8
:102DF800120028C029F02A6A2B6A2734293601E3F1
:102E08002A802950656F6551D8A407D0000E236E1B
:102E1800000E246E000E256E1200000E616F000E6B
:102E2800626F000E636F6551890F645F25C065F09E
:102E38002850651B800E6517248EFF0E2316FF0E83
:102E48002416000E2516278EFF0E2616FF0E2716AF
:102E5800000E2816180E606FD890613762376337F6
:102E68002650235C2750245828502558D8A007D02E
:102E78002650235E2750245A2850255A6181D8901D
:102E8800233624362536602FE7D761C018F062C094
:102E980019F063C01AF064C01BF065C01CF03FEC69
:102EA8001AF018C023F019C024F01AC025F0120037
:102EB800000E0001BC6F010EBD6F210EBE6F7E0EAD
:102EC800BF6F70EC00F0000E196E010E1A6E01EC67
:102ED8001DF0000E0001BC6F010EBD6F350EBE6FF8
:102EE8007F0EBF6F70EC00F0000E196E010E1A6EA7
:102EF80001EC1DF0000E0001BC6F010EBD6F710EDC
:102F0800BE6F7F0EBF6FF00EC06F7F0EC16F70EC8B
:102F180000F0000E196E010E1A6E01EC1DF0000E85
:102F28000001BC6F010EBD6F5D0EBE6F7F0EBF6FDF
:102F3800AC0EC06F7F0EC16F70EC00F0000E196E02
:102F4800010E1A6E01EC1DF0000E0001BC6F010E9F
:102F5800BD6F490EBE6F7F0EBF6FD70EC06F7F0E5D
:102F6800C16F70EC00F0000E196E010E1A6E01ECC4
:102F78001DF0000E0001BC6F010EBD6F210EBE6F6B
:102F88007E0EBF6F70EC00F0000E196E010E1A6E07
:102F980001EC1DF01200000E0001CE6FCE51800A28
:102FA8007C0FD8B01200000EB46F020EB36FCE5172
:102FB800010DB90EF324F66E780EF420F76E0800B2
:102FC800F550400944EC14F0B3C0CCF0B4C0CDF0D7
:102FD8000001CC2944E1CD29D8A441D0CE51020D1D
:102FE800B10EF324F66E780EF420F76E0900F5CFD3
:102FF800CAF00900F5CFCBF0CAC028F0CBC029F041
:103008002A6A2B6A010E2C6E020E96EC1AF0000149
:10301800CE51020DB10EF324F66E780EF420F76E41
:103028000900F5CFCAF00900F5CFCBF0CAC021F0EE
:10303800CBC022F0236A246ACE51010DB90EF324C5
:10304800F66E780EF420F76E0800F5504009256EEC
:10305800000E276E020E266EC8EC20F00BD0CCC0F6
:1030680028F0CDC029F02A6A2B6A010E2C6E020EB8
:1030780096EC1AF00001CE2B91D790C018F091C0B1
:1030880019F092C01AF0960E1B6E000E1C6E76ECAC
:103098001BF0000197AF10D092AF07D0000E906FD1
:1030A800800E916FBF0E926F1200000E906F000E8F
:1030B800916F000E926F1200975104E1150E965D04
:1030C800D8A007D090C090F091C091F092C092F033
:1030D800120090C079F091C07AF092C07BF0F1ECC8
:1030E80015F079C088F07AC089F07BC08AF07CC07E
:1030F8008BF089EC1CF088C093F089C094F08AC0EA
:1031080095F090C018F091C019F092C01AF093C0D1
:103118001BF094C01CF095C01DF0BEEC1BF0D8B09D
:1031280016D093C07CF094C07DF095C07EF0000E60
:1031380000017F6F800E806FBF0E816F26EC0EF04E
:103148007CC090F07DC091F07EC092F0120093C0D8
:1031580090F094C091F095C092F012008DC026F0C6
:103168008EC027F0000E296E030E286EDAEC21F0CF
:103178008BC02FF08CC030F026502F2627503022DD
:103188002FC0F6FF30C0F7FF0900F5CF8FF0090018
:10319800F5CF90F00A00F5CF91F03FD08FC069F0DD
:1031A80090C06AF091C06BF088C066F089C067F083
:1031B8008AC068F06DEC16F066C07CF067C07DF0E0
:1031C80068C07EF0000E296E030E286E00018D0780
:1031D800D8A08E078DC026F08EC027F0DAEC21F03B
:1031E8008BC02FF08CC030F026502F26275030226D
:1031F8002FC0F6FF30C0F7FF0900F5CF7FF00900B8
:10320800F5CF80F00A00F5CF81F026EC0EF07CC0F7
:103218008FF07DC090F07EC091F000018D518E112D
:10322800D8A4BCD78FC088F090C089F091C08AF02C
:1032380012000001925193119411D8A407D0000EE6
:10324800926F000E936F000E946F120094517F0BD3
:10325800976F986BD89097379837975195279851CB
:10326800962393AF03D0976B972B02D00001976BEF
:1032780097519527000E962396AF0DD0000E0101A9
:10328800D16F220ED06F000E0001926F000E936F67
:10329800000E946F120096BF17D09605D8A014D0D0
:1032A800000E0101D16F220ED06F000194AF06D03D
:1032B800FF0E926F7F0E936FFF0EEBD7FF0E926F8C
:1032C8007F0E936F7F0EE5D796359631986F9531BF
:1032D800976F94519719800B9719946F95C097F031
:1032E800010E971797339733935197197F0B9719B7
:1032F800936F92C092F093C093F094C094F0120030
:103308000001856F010E0001806F000E816F000EB5
:10331800826F000E836F600E206E000E216E000E0D
:10332800236E200E226E41EC22F0600E186E000E05
:10333800196E24C01AF025C01BF026C01CF027C047
:103348001DF0C8EC1EF0000E0001846F1F0E84658E
:1033580001D026D0000E186E85514BEC1FF00001ED
:103368008451010D600EF324D96E000EF420DA6E3C
:10337800DF50D8B406D0010E186E855120EC1FF02E
:1033880006D0000E186E0001855120EC1FF0010ECA
:10339800186E000185514BEC1FF00001842BD6D725
:1033A800210EE82EFED700F0000E186E00018551A0
:1033B80020EC1FF0000E186E000185514BEC1FF039
:1033C8001200F2944750D76E46C0D6FF354A362AC7
:1033D80035C001F036C002F0000E046E140E036E04
:1033E8004DEC20F001500210D8A403D0010E0101C9
:1033F800EE6F35C001F036C002F0000E046E320EDA
:10340800036E4DEC20F001500210D8A403D0010E39
:103418000101ED6F35C001F036C002F0010E046EF7
:103428002C0E036E4DEC20F001500210D8A403D0EE
:10343800010E0101EC6F35C001F036C002F0000E3C
:10344800046EC80E036E4DEC20F001500210D8A493
:1034580003D0010E0101EB6F35C001F036C002F058
:10346800010E046E2C0E036E4DEC20F001C035F0F9
:1034780002C036F012001B50D8B405D018501910ED
:103488001A10D8A40CD0000E186E000E196E000E7B
:103498001A6E12001B2AD8901A3219321832000EEE
:1034A80018141D6E000E19141E6EFE0E1A141F6ECF
:1034B8001D501E101F10D8B40CD0ECD71B2A010EBB
:1034C8001826000E1922000E1A22D8901A32193224
:1034D8001832000E18141D6E000E19141E6EFF0E01
:1034E8001A141F6E1D501E101F10D8B406D0E6D730
:1034F8001B06D890183619361A3619BE03D0020E94
:103508001B60F6D71BA0199ED8901B321B501A12AD
:103518001C50D8A41A8E18C018F019C019F01AC077
:103528001AF01200306EF29E3050D8B403D0300436
:10353800D8A416D0000E186E3050AAEC20F028C07F
:1035480024F029C025F02AC026F02BC027F03050DF
:1035580084EC19F0010E186E3050AAEC20F02DD032
:10356800020E3018D8A429D0000E50EC22F0010E1B
:103578002C242E6E2F6A000E2F222FBE1BD02F5008
:1035880003E12E04D8A016D028C018F029C019F0DD
:103598002AC01AF02BC01BF02E041C6E6CEC1EF017
:1035A8002D6E2DC01AF03050F4EC1EF02E06D8A067
:1035B8002F06E3D7010E50EC22F0F28E12006C0EAB
:1035C800206E000E216E000E236E080E226E41EC56
:1035D80022F0000E0001766F000E756F76BF06D0E0
:1035E800765120E1080E755DD8B01CD0010E752506
:1035F8006A6F000E76216B6F6A516625D96E6B5122
:103608006721DA6EDF50746F7451D8B40BD06C0E2A
:103618007525D96E000E7621DA6E74C0DFFF754B02
:10362800762BDCD76C0E266E000E276E000E286EE9
:10363800000E296E000E2B6E0A0E2A6E3BEC0DF062
:1036480026C066F027C067F028C068F029C069F076
:103658001200720EF66E450EF76E000EF86E02EE50
:10366800D6F010EE0CF00900F5CFEEFFE550E15072
:10367800FAE1A80EF66E450EF76E000EF86E01EE32
:10368800EFF010EE04F00900F5CFEEFFE550E15041
:10369800FAE1A40EF66E450EF76E000EF86E00EE17
:1036A80042F010EE04F00900F5CFEEFFE550E150CE
:1036B800FAE102EE00F0D60EEE6AE806FDE101EE50
:1036C80085F06A0EEE6AE806FDE100EE31F0110EB3
:1036D800EE6AE806FDE148904892000EF86E000197
:1036E800DDEF1DF0185019101A10D8A40FD01BC008
:1036F800D9FF1CC0DAFF000EDE6E000EDD6E000E74
:10370800186E000E196E000E1A6E12001A507F0BFA
:103718001D6E1E6AD8901D361E361BC0D9FF1CC0F0
:10372800DAFF1DC0DEFF1EC0DDFF19AE03D01D6A23
:103738001D2A01D01D6A1D501BC0D9FF1CC0DAFF0D
:10374800DE12000EDD121BC0D9FF1CC0DAFF820E8C
:10375800DE26FF0EDD221A801A821A841A861A883B
:103768001A8A1A9C199E18C018F019C019F01AC0A4
:103778001AF012001AAE16D018C01EF019C01FF0A9
:103788001AC020F01E1E1F1E201E1E2A000E1F22F9
:103798002022000E1E24186E000E1F20196E800EA7
:1037A80020201A6E1DAE16D01BC01EF01CC01FF0C4
:1037B8001DC020F01E1E1F1E201E1E2A000E1F22C6
:1037C8002022000E1E241B6E000E1F201C6E800E71
:1037D80020201D6E000E181A000E191A800E1A1AD3
:1037E800000E1B1A000E1C1A800E1D1A1B50185CA6
:1037F8001C5019581D501A58D8B002D0D890120031
:10380800D8801200000E236E21AE06D0206C211E37
:10381800D8B0212A010E236E1FAE06D01E6C1F1EC3
:10382800D8B01F2A010E231A000E256E000E246E32
:1038380020502110D8B41CD0010E226E04D0D8908C
:1038480020362136222A21AEFAD7D89024362536BA
:1038580020501E5C21501F58D8A005D020501E5E55
:1038680021501F5A2480D89021322032222EEDD7A1
:103878002350D8B404D0246C251ED8B0252A24C0DF
:103888001EF025C01FF01200000E206E000E216EE3
:10389800000E226E000E236E1C501D101E101F10ED
:1038A800D8B42AD0010E246E06D0D8901C361D3606
:1038B8001E361F36242A1FAEF8D7D8902036213658
:1038C800223623361C50185C1D5019581E501A58A1
:1038D8001F501B58D8A009D01C50185E1D50195AEB
:1038E8001E501A5A1F501B5A2080D8901F321E3261
:1038F8001D321C32242EE1D720C018F021C019F047
:1039080022C01AF023C01BF01200000E306E8E0E7B
:103918002F6E00018BAF11D08B1F8A1F891F886DF6
:10392800000E89238A238B23010E306E06D0D8908F
:103938008B338A33893388332F2A000E88158C6F8E
:10394800000E89158D6F000E8A158E6FFF0E8B1570
:103958008F6F8C518D118E118F11D8A4E8D788C024
:1039680018F089C019F08AC01AF02FC01BF030C0B7
:103978001CF03FEC1AF018C088F019C089F01AC082
:103988008AF01200C8C185F1DEC120F0DFC121F044
:10399800FFEC21F020C08BF121C08CF122C08DF109
:1039A800000E83BC010E01018E6FC8C120F0C9C191
:1039B80021F0CAC122F0CBC123F09AEC1EF020C03E
:1039C8008FF121C090F122C091F1DCC192F1000E7B
:1039D80081B6010E0101966F7B0E976F040E996FE9
:1039E800D20E986FF00E9A6F7F0E9B6F010E9C6F30
:1039F800000E886F070E876F1200000E1E6E000EF5
:103A08001D6E1AD01D5019241B6E1E501A201C6ED4
:103A18001BC0F6FF1CC0F7FFF86A050EF76403D059
:103A28000800F55005D0F6CFE9FFF7CFEAFFEF50D1
:103A38006EEC20F01D4A1E2A1D5019241B6E1E50C4
:103A48001A201C6E1BC0F6FF1CC0F7FFF86A050E93
:103A5800F76403D00800F55005D0F6CFE9FFF7CF9B
:103A6800EAFFEF500009D8B41200CCD7000E1D6E43
:103A780019AE06D0186C191ED8B0192A010E1D6E81
:103A88001BAE04D01A6C1B1ED8B01B2A1A501B1070
:103A9800D8B418D0010E1C6E04D0D8901A361B3634
:103AA8001C2A1BAEFAD71A50185C1B501958D8A0FC
:103AB80004D01A50185E1B50195AD8901B321A326B
:103AC8001C2EF1D71D50D8B404D0186C191ED8B0CC
:103AD800192A18C018F019C019F01200CCC1A3F1A6
:103AE800DEC120F0DFC121F0FFEC21F020C0A9F1F8
:103AF80021C0AAF122C0ABF1000E83BC010E010166
:103B0800AC6FCCC120F0CDC121F0CEC122F0CFC125
:103B180023F09AEC1EF020C0ADF121C0AEF122C016
:103B2800AFF1DCC1B0F1000E81B6010E0101B46F36
:103B38007B0EB56F040EB76FD20EB66FF00EB86F6E
:103B48007F0EB96F000EBA6F12000001B751B8119D
:103B5800B911BA11D8B424D0010EBB6F06D0D890D1
:103B6800B737B837B937BA37BB2BBAAFF8D7B75169
:103B7800B35DB851B459B951B559BA51B659D8A06D
:103B880008D0B751B35FB851B45BB951B55BBA51FE
:103B9800B65BD890BA33B933B833B733BB2FE7D74E
:103BA800B3C0B3F0B4C0B4F0B5C0B5F0B6C0B6F0A9
:103BB8001200BFEC22F082EC22F05CEC17F0030E4E
:103BC8003DEC1EF061EC06F00101EE05D8A406D02C
:103BD800C5EC1FF0000E0101EE6FF4D7EC05D8A478
:103BE80006D06BEC22F0000E0101EC6FEBD7EB0571
:103BF800D8A406D049EC11F0000E0101EB6FE2D712
:103C0800ED05D8A4DFD7EA05D8A4DCD7FDEC0EF083
:103C1800D9D7000E1A6E000E196E1ABE06D01A50A9
:103C280027E10A0E195CD8B012008B80820E186E3C
:103C3800DE0EE82EFED7182EFCD78A88820E186E64
:103C4800DE0EE82EFED7182EFCD78B90820E186E4B
:103C5800DE0EE82EFED7182EFCD78A98820E186E34
:103C6800DE0EE82EFED7182EFCD7194A1A2AD5D709
:103C780012001B6E000E1D6E000E1C6E1B50186E7F
:103C8800196A18501C5C1D50800A1A6E1950800A57
:103C98001A58D8B012008B90020E196E040E186EC6
:103CA800BA0EE82EFED7182EFCD7192EFAD700D058
:103CB8008B80020E196E040E186EBA0EE82EFED70F
:103CC800182EFCD7192EFAD700D01C4A1D2AD6D791
:103CD8001FD018501200195012001A501200000E6E
:103CE80018141D6E000E19141E6E000E1A141F6E85
:103CF800FF0E1B14206E190E05D0D89020321F32EB
:103D08001E321D32E82EF9D71D501200000E120087
:103D18001C50000AD8B4DDD7010AD8B4DCD7030A8E
:103D2800D8B4DBD7010AD8B4DAD7F0D78E0E286E0C
:103D380006D0D8902332223221322032282A000E8F
:103D48002014246E000E2114256E000E2214266EF7
:103D5800FF0E2314276E2450251026102710D8A4F0
:103D6800E8D720C018F021C019F022C01AF028C0E6
:103D78001BF0000E1C6E3FEC1AF018C020F019C0A2
:103D880021F01AC022F01200000E216E000E206EE3
:103D980021BE06D0215023E1210E205CD8B01200AC
:103DA800010E20241E6E000E21201F6E1E1E1F1ED7
:103DB8001E4A1F2A200E1E26000E1F221E501824DF
:103DC800D96E1F501920DA6E1A50010BDF6ED89089
:103DD8001D321C321B321A32204A212AD9D712002E
:103DE8001C6E080E1B6E1AD0010E186E1C504BEC80
:103DF8001FF01AAE06D0010E186E1C5020EC1FF0F2
:103E080005D0000E186E1C5020EC1FF0000E186E26
:103E18001C504BEC1FF01B06D8901A361B50D8A428
:103E2800E3D7000E186E1C5020EC1FF0000E186E21
:103E38001C504BEC1FF01200196E1ED01804D8A4A9
:103E480002D08C8012001850D8A412008C90120056
:103E58001804D8A402D08B8A12001850D8A41200D3
:103E68008B9A12001804D8A402D08988120018501E
:103E7800D8A41200899812001950000AD8B4DED7C5
:103E8800010AD8B4E5D7030AD8A41200EBD7196EF3
:103E98001ED01804D8A402D08B8612001850D8A4BB
:103EA80012008B9612001804D8A402D08B88120036
:103EB8001850D8A412008B9812001804D8A402D065
:103EC800898612001850D8A4120089961200195039
:103ED800000AD8B4DED7010AD8B4E5D7030AD8A4B3
:103EE8001200EBD7000E226E000E236E000E246E19
:103EF800000E256E1AA008D01E5022261F5023221D
:103F08002050242221502522D8901E361F362036D4
:103F18002136D8901D321C321B321A321A501B100F
:103F28001C101D10D8A4E6D722C01AF023C01BF01D
:103F380024C01CF025C01DF01200000E8D6E400E2E
:103F48008C6E060E896E000E8A6E000E8B6E070E42
:103F5800966EE10E926EEE0E936E800E946EB20E19
:103F6800956E300E0F013A6F320E396FA40E3B6F0B
:103F7800070E3C6F2F0E386FC20E616EF18EF286FF
:103F88001200010E0101C027000EC123C223C32362
:103F9800C0C1B3F0C1C1B4F0C2C1B5F0C3C1B6F07D
:103FA800800E0001B76F430EB86F000EB96F000E98
:103FB800BA6FA9EC1DF0B3C0C0F1B4C0C1F1B5C06F
:103FC800C2F1B6C0C3F11200000E0101E56F000E88
:103FD800E46F000EE06F000EE36F000EE26F000E5C
:103FE800E16FC20E206E020E216E000E236E140EBB
:103FF800226E41EC22F0AE0E206E020E216E000EF3
:10400800236E140E226E41EC22F01200000E1A6E7E
:10401800000E196E0101E751D8A402D01950120000
:104028003950010D460EF324D96E020EF420DA6ED3
:10403800DF50186E1850196E1A6A392A270E39641B
:1040480002D0000E396E9D9AE7079D8A195012001A
:1040580000018B518C118D11D8B406D0000E8B1B2A
:10406800000E8C1B800E8D1B88C07CF089C07DF0F3
:104078008AC07EF08BC07FF08CC080F08DC081F04C
:1040880026EC0EF07CC088F07DC089F07EC08AF0F6
:10409800120003500410D8B418D0010E056E04D0D5
:1040A800D89003360436052A04AEFAD70350015CCB
:1040B80004500258D8A004D00350015E0450025A9C
:1040C800D89004320332052EF1D701C001F002C0A6
:1040D80002F01200186E0101F351D8B4FCD79DB854
:1040E80003D018C0ADFF12D09D983C50010D000EB2
:1040F800F324D96E020EF420DA6E18C0DFFF3C2AD2
:10410800450E3C6402D0000E3C6EF3079D881200F9
:10411800196E14D01804D8A402D08B82120018503B
:10412800D8A412008B9212001804D8A402D08C8450
:1041380012001850D8A412008C9412001950000ACA
:10414800D8B4E8D7010AD8A41200EED7196E14D053
:104158001804D8A402D08B8412001850D8A41200D6
:104168008B9412001804D8A402D08C861200185020
:10417800D8A412008C9612001950000AD8B4E8D7B7
:10418800010AD8A41200EED726C029F015D021C004
:1041980018F022C019F023C01AF024C01BF029041B
:1041A8001C6E6CEC1EF0286E28C01BF0295000080D
:1041B8002524B2EC22F029062950D8B41200E7D7FA
:1041C800000E236E21AE06D0206C211ED8B0212A05
:1041D800010E236E20C018F021C019F01A6A8E0E45
:1041E8001B6E23C01CF03FEC1AF018C020F019C059
:1041F80021F01AC022F01200460E0101F36112D01C
:104208003B50010D000EF324D96E020EF420DA6E35
:10421800DF50AD6E3B2A450E3B6402D0000E3B6E6C
:10422800F32B12009D98000E3B6E000E3C6E1200A0
:104238009D9A9D98080EB86E900EAB6E240EAC6ECB
:10424800100EAF6E000EB06E000E3C6E000E3B6E90
:10425800460E0101F36F000E3A6E000E396E000E25
:10426800E76F9D8A1200196E000EF2BE010E1A6EDB
:1042780019C0A9FF18C0A8FFA69EA69CA684F29EF6
:10428800550EA76EAA0EA76EA682A6B2FED7A69452
:104298001AB002D0F29E01D0F28E12003C0ED76EF8
:1042A800AF0ED66ED650D7CF1AF01B6A1AC01BF0C5
:1042B8001A6A1A10466E1B50476EF294F28A000E64
:1042C800186E000E196EC4EC22F0900ED56E120016
:1042D800ABA202D0AB98AB88AECFADFF3A50010D80
:1042E800460EF324D96E020EF420DA6EAECFDFFF4D
:1042F8003A2A270E3A6402D0000E3A6E0101E72BE3
:1043080012001C6E1CC01AF01A461A46C2501A181F
:10431800830B1A18C26EC280C282C2B2FED7C450C2
:104328001B6E1A6AC3501A24186E000E1B20196ED1
:10433800120018C01EF019C01FF008D01EC0D9FF07
:104348001FC0DAFF1AC0DFFF1E4A1F2A1C06D8A0AA
:104358001D061C28F3E11D28D8B41200EFD71D6EE6
:10436800010E1C6E7B0E1D6003D0610E1D6007D010
:104378001D5032EC22F0D8B002D0000E1C6E1CC0CA
:104388001BF01B3012001A6E010E196E200E1A183F
:10439800D8B408D00E0E1A6003D0090E1A6002D0E5
:1043A800000E196E19C018F0183012002650280295
:1043B800F3CF2AF0F4CF2BF026502902F3502B2606
:1043C80027502802F3502B262AC026F02BC027F0AE
:1043D80012000001E46F06D0C6EC07F012000DECE5
:1043E8001EF012000001E451180AD8B4F5D7040AE7
:1043F800D8A41200F4D720C018F021C019F01A6A06
:104408008E0E1B6E000E1C6E3FEC1AF018C020F0CA
:1044180019C021F01AC022F01200185019101A10F1
:10442800D8B406D0000E181A000E191A800E1A1ADF
:1044380018C018F019C019F01AC01AF012001A6E34
:10444800000E196E3A0E1A6005D02F0E1A6402D0AB
:10445800010E196E19C018F0183012001A6E000EED
:10446800196E5B0E1A6005D0400E1A6402D0010E58
:10447800196E19C018F01830120020C018F021C0A9
:1044880019F0000E1B6E000E1A6E22C01CF023C01D
:104498001DF09DEC21F01200186E04D089941200D2
:1044A800898412001850000AD8B4F8D7010AD8A491
:1044B8001200F6D7D6EC22F0A1EC1FF0ABEC22F0FC
:1044C80077EC22F052EC21F01CEC21F012008BB0BA
:1044D80003D0186A182A01D0186A8B501818FE0BD6
:1044E80018188B6E1200050EC26E000EC16E870E74
:1044F800C06E000EC36E000EC46E1200CEEC22F029
:10450800D8EC22F0C4EC0FF0A1EC22F0CFEC17F0BD
:104518001200186E7B0E186004D0600E186401D06B
:10452800189A18501200186E18C0A9FFA69CA69ECB
:10453800A68000F000F0A8501200000E0101C06F24
:10454800000EC16F000EC26F000EC36F1200600E26
:10455800D36E040ED26E000E9B6E12001C6E1BC032
:1045680018F01C5037EC21F01200AE296227DA430C
:104578000000000000005EEC22F0F28EF28C1200C7
:1045880018C0E2F219C0E3F21200196E195097EC44
:1045980022F01200000E0101E96F12000040000035
:1045A80000400000D09E1200D58E1200F29012003A
:0445B800A1981200B4
:1077D200001C0401000B306100BA26C000C9FC196C
:1077E2001A28042D10E70000127660053525008066
:1077F20000848B00320300000032000800A1AAAA14
:1078020001DA0E03001C0401000B3061003A32C0A1
:1078120000C9BC212228042D10E7000012762001A5
:107822003525008000849B00340300000012000014
:10783200000100000640032000010000000A0000D1
:107842000064000000E803000010270000A0860189
:107852000040420F008096980000E1F50500CA9AA8
:107862003B00803F00204100C842007A44401C4651
:1078720050C34724744997184BBCBE4C6B6E4E03E1
:10788200155079AD60F3497100803FCDCC3DD723CF
:107892003C12833AB7D138C62737388635C0D6333B
:1078A200CC2B32708930E7DB2EE53C1E42A20D4420
:1078B20023446344A344E3020406080406050700C4
:1078C200803F72313FFE753E58633D951D3CC5AE0B
:1078D2003A79213994803793A73556153400000040
:1078E20000803FF0FFBEE2A93E8376BEAE2B3E3C57
:1078F200C3BDD2133D78D3BB24524350203C583EE3
:107902003C63723E202020202053657420436F6D1B
:107912007072657373696F6E206F706572617469DE
:107922006F6E206D6F6465206174205258207379E8
:107932007374656D3A204175746F6D617469635B30
:10794200315D204D616E75616C5B305D205B44651D
:107952006661756C74203D20305D0D0A002452432F
:1079620052203C583E3C63723E202020202053652A
:107972007420436F6D7072657373696F6E207261EC
:107982006E67652061742052582073797374656D37
:107992002E2048696768205B315D204C6F77205B41
:1079A200305D205B44656661756C74203D20305DFE
:1079B2000D0A0024534255203C583E3C63723E203F
:1079C2002020202053657420554152542061757443
:1079D2006F6D61746963206F7065726174696F6E37
:1079E2003A204175746F6D617469635B315D204D3E
:1079F200616E75616C5B305D205B44656661756CC0
:107A020074203D20305D0D0A00245458203C583E1D
:107A12003C63723E2020202020205475726E206F1D
:107A22006E5B315D202F206F66665B305D20747265
:107A3200616E736D697373696F6E2061742054583F
:107A42002073797374656D205B44656661756C742F
:107A5200203D20305D0D0A00245442203C583E3C1B
:107A620063723E2020202020205475726E206F6E9B
:107A72005B315D202F206F66665B305D204249548A
:107A8200206D6F646520617420545820737973747B
:107A9200656D205B44656661756C74203D20305DC8
:107AA2000D0A00245249203C585858583E3C6372F3
:107AB2003E202020496E69742052582073797374D5
:107AC200656D20616E6420736574206672657175E0
:107AD200656E637920617420585858582028302DDB
:107AE20039393939295B4D487A5D0D0A00245444ED
:107AF200203C444143204E554D3E3C444143205698
:107B0200414C55453E3C63723E20202020202020DF
:107B1200202053657420545820444143203C302D8A
:107B2200333E203C302D567265665B3420646967B3
:107B32005D3E200D0A00245449203C585858583EB6
:107B42003C63723E202020496E6974205458207391
:107B5200797374656D20616E64207365742066723A
:107B6200657175656E63792028302D393939392967
:107B72005B4D487A5D0D0A00245242203C583E3C3F
:107B820063723E2020202020205475726E206F6E7A
:107B92005B315D202F206F66665B305D2042495469
:107BA200206D6F646520617420525820737973745C
:107BB200656D2E0D0A00245446203C585858583EF4
:107BC2003C63723E20202053657420545820737900
:107BD2007374656D206672657175656E6379206177
:107BE200742028302D39393939295B4D487A5D2E78
:107BF2000D0A00245258203C583E3C63723E20201D
:107C0200202020205475726E206F6E5B315D202F14
:107C1200206F66665B305D207265636569766520FC
:107C220061742052582073797374656D2E0D0A00A9
:107C320052582053594E54482028504C4C29204C1D
:107C42006F636B20696E6469636174696F6E203063
:107C52003A206E6F74206C6F636B656420313A203A
:107C62006C6F636B656425640A0D002453425420D3
:107C72003C58583E3C63723E2020202053657420BD
:107C82005541525420726566726573682072617440
:107C9200652028312D3230295B487A5D2E0D0A008D
:107CA200245348203C63723E2020202020202020A4
:107CB200205072696E742073797374656D206865E3
:107CC2006C70206D6573736167652E0D0A00245414
:107CD20051203C63723E202020202020202020477B
:107CE2006574207374617475732066726F6D2054AD
:107CF200582073797374656D2E0D0A002452512039
:107D02003C63723E202020202020202020476574E2
:107D1200207374617475732066726F6D20525820DF
:107D220073797374656D0D0A00245351203C583EDB
:107D32003C63723E20202020202047657420737906
:107D42007374656D207374617475732E0D0A00244B
:107D5200534C203C63723E202020202020202020F3
:107D6200546573742073797374656D204C45447344
:107D72002E0D0A0054582053594E54482028504C76
:107D82004C29204C6F636B20696E6469636174696E
:107D92006F6E2025640A0D00496E70757420706F35
:107DA2007765722073746174757320303A204F4680
:107DB2004620313A204F4E25640A0D005258205376
:107DC200414D504C45204348414E4E454C2052585F
:107DD2002D4144435F56475F4D4F4E0A0D005458A4
:107DE2002053414D504C45204348414E4E454C3A5C
:107DF2002054582D4144435F525245560A0D0052B9
:107E0200582053414D504C45204348414E4E454C1D
:107E12002052582D4144435F464657520A0D002ACC
:107E22002A2A2A2A2A2A2A2A2A2A2A2A2A2A2A2AB0
:107E32002A2A2A2A2A2A2A2A2A2A200A0D000A0D4E
:107E42003C436F6D6D6F6E2073797374656D206343
:107E52006F6D6D616E64733E0A0D0054582053417C
:107E62004D504C45204348414E4E454C20414443E1
:107E72005F54454D500A0D000A0D3C52582073794B
:107E82007374656D20636F6D6D616E64733E0A0D70
:107E9200004465766963652054656D70657261742E
:107EA2007572652025660A0D00525820467265716A
:107EB20075656E637920696E204D487A25660A0DD4
:107EC200005458204672657175656E637920696E3B
:107ED200204D487A25660A0D003C54582073797368
:107EE20074656D20636F6D6D616E64733E0A0D0083
:107EF2004C6967687420303A204F464620313A2058
:107F02004F4E25640A0D002A2A2A2A2A2A2A2A2AB8
:107F12002A2A2A2A2A2A2A2A2A2A0A0D00534F46BC
:107F220054574152452056455253494F4E202573CE
:107F32000A0D0046415354204C494E4B205359538D
:107F420054454D200A0D00436F6D70696C652074B5
:107F5200696D653A202573200A0D00436F6D7069C3
:107F62006C6520646174653A202573200A0D005304
:107F7200572056455352494F4E3A202573200A0D39
:107F820000554E495420545950452025640A0D008D
:107F9200554E49542044432025640A0D00554E494C
:107FA200542049442025640A0D004D617220323864
:107FB2002032303138004E4F54204F2E4B200A0DC4
:107FC20000525353492025640A0D004E4F54204F4E
:107FD2004B200A0D0031333A30323A3330000A0D69
:107FE200204F4B200A0D00286E756C6C2900315F02
:0E7FF2003030320025642009002564090000AB
:020000040020DA
:08000000FFFFFFFFFFFFFFFF00
:020000040030CA
:0E000000FF281F3CFFBF85FF0FC00FE00F4021
:00000001FF
