:040000006EEF00F0AF
:100008004882FACF06F0FBCF07F0E9CF08F0EACF35
:1000180009F0E1CF0AF0E2CF0BF0D9CF0CF0DACF3C
:100028000DF0F3CF0EF0F4CF0FF0F6CF10F0F7CFBE
:1000380011F0F8CF12F0F5CF13F048C014F049C012
:1000480015F04AC016F04BC017F0F2B6F2A003D074
:1000580037EC23F019D0F2BAF2A403D042EC19F02D
:1000680013D0F2AC11D0A0B8A1A803D039EC23F07A
:100078000BD09DB89EA803D074EC21F005D09DBA92
:100088009EAA02D0E0EC21F017C04BF016C04AF04F
:1000980015C049F014C048F013C0F5FF12C0F8FFAE
:1000A80011C0F7FF10C0F6FF0FC0F4FF0EC0F3FF3A
:1000B8000DC0DAFF0CC0D9FF0BC0E2FF0AC0E1FF98
:1000C80009C0EAFF08C0E9FF07C0FBFF06C0FAFF46
:1000D800489211000AEF20F0C00E0001CF6F000E09
:1000E800D06FC8D3250EE219D8B409D0BCC0D9FF47
:1000F800BDC0DAFFE2C0DFFFBC4BBD2BBBD3000E97
:10010800D26F000ED16F30D0D28548D0CFC0D9FF82
:10011800D0C0DAFFDECFCDF0DDCFCEF0020ECF2794
:10012800000ED023CD51CE11D8A414D0EC0ECD6F33
:100138007F0ECE6F0FD0CDC0F6FFCEC0F7FFBCC08C
:10014800D9FFBDC0DAFF0800F5CFDFFFCD4BCE2BBE
:10015800BC4BBD2BCDC0F6FFCEC0F7FF0800F55055
:100168000009D8B487D3E7D7BEC0F6FFBFC0F7FFF2
:10017800BE4BBF2B0800F5CFE2F0E251000AD8B41D
:1001880085D3640AD8B40AD0020AD8B4BDD70F0AF6
:10019800D8B404D01A0AD8B4B9D76CD3070ED2157C
:1001A800D8B4C8D2000ED46F060ED36FCFC0D9FF13
:1001B800D0C0DAFFDECFDFF0DECFE0F0DDCFE1F058
:1001C800030ECF27000ED023E1AF11D0DFC018F007
:1001D800E0C019F0E1C01AF073EC22F018C0DFF0AB
:1001E80019C0E0F01AC0E1F0030E0001D113000EAF
:1001F800DA6F000ED96FDF51E011E111D8B486D063
:10020800820EC46FFF0EC56FDFC0C6F0E0C0C7F036
:10021800E1C0C8F0E2C0C9F0100E05D0D890C933CB
:10022800C833C733C633E82EF9D7C651C425D96FAA
:10023800000EC521DA6FD907D8A0DA07D9C026F091
:10024800DAC027F0000E296E030E286E4EEC22F05D
:1002580026C0D9F027C0DAF0D9C01EF0DAC01FF0E6
:10026800000E216E0A0E206E65EC1BF01EC0D9F040
:100278001FC0DAF00001DAAF03D0D907D8A0DA0737
:10028800D951000851EC04F072C0DBF073C0DCF007
:1002980074C0DDF0DBC066F0DCC067F0DDC068F07C
:1002A800DFC069F0E0C06AF0E1C06BF06DEC15F0FA
:1002B80066C0DBF067C0DCF068C0DDF0DBC018F0BA
:1002C800DCC019F0DDC01AF0000E1B6E800E1C6E2B
:1002D8003F0E1D6E1DEC1BF0D8B005D00001D907EC
:1002E800D8A0DA0713D0DBC018F0DCC019F0DDC0E5
:1002F8001AF0000E1B6E200E1C6E410E1D6E1DECBA
:100308001BF0D8A003D00001D94BDA2B0001D4BFD1
:1003180006D0D4511BE10D0ED35DD8B017D0DFC085
:100328007CF0E0C07DF0E1C07EF0D35160EC09F0D4
:1003380072C07FF073C080F074C081F075EC0CF06F
:100348007CC0DFF07DC0E0F07EC0E1F00001DABFE4
:1003580006D0DA511FE10A0ED95DD8B01BD0DF51A3
:10036800E011E111D8B455D0DFC079F0E0C07AF0DF
:10037800E1C07BF0F1EC14F0000179517A117B11A6
:100388007C11D8B4DABF45D0DA5104E1020ED95D48
:10039800D8A03FD0DBC018F0DCC019F0DDC01AF0DF
:1003A800700E1B6E890E1C6E400E1D6E1DEC1BF030
:1003B800D8B003D00001F70E02D00001F80ED927FB
:1003C800FF0EDA23D95151EC04F072C0DBF073C090
:1003D800DCF074C0DDF0DFC018F0E0C019F0E1C057
:1003E8001AF0DBC01BF0DCC01CF0DDC01DF0EDEC2A
:1003F80010F018C0D5F019C0D6F01AC0D7F01BC03D
:10040800D8F0000E0001DF6F000EE06F000EE16F04
:1004180033D0DFC079F0E0C07AF0E1C07BF0F1ECD6
:1004280014F079C0D5F07AC0D6F07BC0D7F07CC084
:10043800D8F0DFC088F0E0C089F0E1C08AF0D5C00C
:1004480020F0D6C021F0D7C022F0D8C023F003ECAA
:100458001FF020C08BF021C08CF022C08DF0BEECC4
:1004680020F088C0DFF089C0E0F08AC0E1F0000E1B
:100478000001DA6F000ED96F010EE26F0A0EE21961
:10048800D8B418D0E251040DB10EF324F66E770EED
:10049800F420F76E0900F550D55D0900F550D659DE
:1004A8000900F550D7590900F550D859D8A002D0FD
:1004B800E22BE4D7030ED115C46F000ED215C56F19
:1004C800C451C511D8B451D0BCC0D9FFBDC0DAFFE2
:1004D8002D0E48D0D5C018F0D6C019F0D7C01AF0E4
:1004E800D8C01BF0E251040DB10EF324F66E770E5E
:1004F800F420F76E0900F5CF1CF00900F5CF1DF0C8
:100508000900F5CF1EF00A00F5CF1FF0A7EC1BF08D
:1005180018C0DBF019C0DCF01AC0DDF01BC0DEF03B
:10052800DBC0B3F0DCC0B4F0DDC0B5F0DEC0B6F0BF
:100538000A0E0001B76F000EB86F000EB96F000EFB
:10054800BA6F4DEC1DF0B3C0DBF0B4C0DCF0B5C041
:10055800DDF0B6C0DEF00001DB51300FBCC0D9FFC2
:10056800BDC0DAFFDF6EBC4BBD2BE207E229D8B471
:100578000CD0B0D7BCC0D9FFBDC0DAFF300EDF6EDB
:10058800BC4BBD2BD907D8A0DA07DABF05D0DA51A2
:10059800F1E1D905D8B0EED7D4BF09D0D45104E1E0
:1005A800090ED35DD8A003D0080EE26F02D0D3C0E5
:1005B800E2F0E251D35F000EE2BFFF0ED45BE251DE
:1005C800D8B408D0BCC0D9FFBDC0DAFF2E0EDF6E8C
:1005D800BC4BBD2BE25151EC04F072C0CAF073C0A1
:1005E800CBF074C0CCF0DFC069F0E0C06AF0E1C0C5
:1005F8006BF0CAC066F0CBC067F0CCC068F06DEC99
:1006080015F066C079F067C07AF068C07BF0F1EC4D
:1006180014F079C0D5F07AC0D6F07BC0D7F07CC092
:10062800D8F072D0D5C018F0D6C019F0D7C01AF0DB
:10063800D8C01BF00001E251040DB10EF324F66E90
:10064800770EF420F76E0900F5CF1CF00900F5CFFE
:100658001DF00900F5CF1EF00A00F5CF1FF0A7EC3A
:100668001BF018C0DBF019C0DCF01AC0DDF01BC0AD
:10067800DEF0DBC0B3F0DCC0B4F0DDC0B5F0DEC046
:10068800B6F00A0E0001B76F000EB86F000EB96F12
:10069800000EBA6F4DEC1DF0B3C0DBF0B4C0DCF057
:1006A800B5C0DDF0B6C0DEF00001DB51300FBCC0D4
:1006B800D9FFBDC0DAFFDF6EBC4BBD2BD5C0B3F090
:1006C800D6C0B4F0D7C0B5F0D8C0B6F0E251040D2A
:1006D800B10EF324F66E770EF420F76E0900F5CF0D
:1006E800B7F00900F5CFB8F00900F5CFB9F00A0066
:1006F800F5CFBAF04DEC1DF0B3C0D5F0B4C0D6F0CC
:10070800B5C0D7F0B6C0D8F00001E207E229D8B4E6
:100718000CD088D7BCC0D9FFBDC0DAFF300EDF6E61
:10072800BC4BBD2BD307D8A0D407D351D411D8B410
:10073800A1D0F0D7CFC0D9FFD0C0DAFFDECFD5F037
:10074800DDCFD6F0000ED6BFFF0ED76FD86F020EE2
:10075800CF27000ED023D8AF0AD0030ED113D81F4D
:10076800D71FD61FD56D000ED623D723D823010E49
:10077800E26F0A0EE219D8B418D0E251040DB10E96
:10078800F324F66E770EF420F76E0900F550D55D68
:100798000900F550D6590900F550D7590900F55008
:1007A800D859D8A002D0E22BE4D7030ED115C46FD4
:1007B800000ED215C56FC451C511D8B408D0BCC03D
:1007C800D9FFBDC0DAFF2D0EDF6EBC4BBD2BE25149
:1007D800D36FD46BD3BFD40745D0D3C0C4F0D4C033
:1007E800C5F0D890C437C537D890C437C537B10ECF
:1007F800C425F66E770EC521F76E0900F5CF1CF0FB
:100808000900F5CF1DF00900F5CF1EF00A00F5CF5D
:100818001FF0D5C018F0D6C019F0D7C01AF0D8C04C
:100828001BF0A7EC1BF018C0B3F019C0B4F01AC045
:10083800B5F01BC0B6F00A0E0001B76F000EB86F16
:10084800000EB96F000EBA6F4DEC1DF00001B351E8
:10085800300FE26FBCC0D9FFBDC0DAFFE2C0DFFFD6
:10086800BC4BBD2BD307D8A0D407D329B6E1D429D4
:10087800D8A4B3D7BEC0F6FFBFC0F7FFBE4BBF2B8F
:100888000800F5CFE2F0E251D8A42CD4BCC0D9FFBF
:10089800BDC0DAFF000EDF6E12000001786F0001A4
:1008A80078AF06D1786D7851800A120FD8A093D00E
:1008B800000E296E030E286E000E216E0A0E206EA1
:1008C800000E1B6E640E1A6E7851186E196A18BEE7
:1008D800190615EC1DF018C01EF019C01FF065ECC4
:1008E8001BF0090E1E24266E000E1F20276E4EECEC
:1008F80022F0000E2624F66E780E2720F76E0900E7
:10090800F5CF69F00900F5CF6AF00A00F5CF6BF072
:10091800000E216E640E206E000178511E6E1F6A53
:100928001EBE1F0665EC1BF0120E1E24266E000E5E
:100938001F20276E000E296E030E286E4EEC22F043
:10094800000E2624F66E780E2720F76E0900F5CFE4
:1009580066F00900F5CF67F00A00F5CF68F06DEC96
:1009680015F066C075F067C076F068C077F075C09E
:1009780066F076C067F077C068F0000E296E030E47
:10098800286E000E1B6E0A0E1A6E00017851186E42
:10099800196A18BE190615EC1DF018C026F019C002
:1009A80027F04EEC22F0000E2624F66E780E272053
:1009B800F76E0900F5CF69F00900F5CF6AF00A0073
:1009C800F5CF6BF06DEC15F066C072F067C073F090
:1009D80068C074F0120000017851800A750FD8A021
:1009E80054D0000E216E0A0E206E78511E6E1F6ABA
:1009F8001EBE1F0665EC1BF0090E1E24266E000E97
:100A08001F20276E000E296E030E286E4EEC22F072
:100A1800000E2624F66E780E2720F76E0900F5CF13
:100A280066F00900F5CF67F00A00F5CF68F0000E10
:100A3800296E030E286E000E1B6E0A0E1A6E000138
:100A48007851186E196A18BE190615EC1DF018C0F1
:100A580026F019C027F04EEC22F0000E2624F66E80
:100A6800780E2720F76E0900F5CF69F00900F5CF59
:100A78006AF00A00F5CF6BF06DEC15F066C072F005
:100A880067C073F068C074F0120000017851030D5C
:100A9800000EF324F66E780EF420F76E0900F5CFF9
:100AA80072F00900F5CF73F00A00F5CF74F0120068
:100AB8007851800A120FD8A093D0000E296E030E29
:100AC800286E000E216E0A0E206E000E1B6E640E3C
:100AD8001A6E7851186E196A18BE190615EC1DF0B1
:100AE80018C01EF019C01FF065EC1BF0090E1E247B
:100AF800266E000E1F20276E4EEC22F0D90E2624FB
:100B0800F66E770E2720F76E0900F5CF69F0090019
:100B1800F5CF6AF00A00F5CF6BF0000E216E640E77
:100B2800206E000178511E6E1F6A1EBE1F0665ECFE
:100B38001BF0120E1E24266E000E1F20276E000EBC
:100B4800296E030E286E4EEC22F0D90E2624F66E7E
:100B5800770E2720F76E0900F5CF66F00900F5CF6C
:100B680067F00A00F5CF68F06DEC15F066C075F017
:100B780067C076F068C077F075C066F076C067F039
:100B880077C068F0000E296E030E286E000E1B6EEB
:100B98000A0E1A6E00017851186E196A18BE1906E5
:100BA80015EC1DF018C026F019C027F04EEC22F005
:100BB800D90E2624F66E770E2720F76E0900F5CF9A
:100BC80069F00900F5CF6AF00A00F5CF6BF06DEC1B
:100BD80015F066C072F067C073F068C074F0120058
:100BE80000017851800A750FD8A054D0000E216EEC
:100BF8000A0E206E78511E6E1F6A1EBE1F0665EC17
:100C08001BF0090E1E24266E000E1F20276E000EF4
:100C1800296E030E286E4EEC22F0D90E2624F66EAD
:100C2800770E2720F76E0900F5CF66F00900F5CF9B
:100C380067F00A00F5CF68F0000E296E030E286EE3
:100C4800000E1B6E0A0E1A6E00017851186E196A92
:100C580018BE190615EC1DF018C026F019C027F0AB
:100C68004EEC22F0D90E2624F66E770E2720F76E6A
:100C78000900F5CF69F00900F5CF6AF00A00F5CF51
:100C88006BF06DEC15F066C072F067C073F068C069
:100C980074F0120000017851030DD90EF324F66E9A
:100CA800770EF420F76E0900F5CF72F00900F5CF42
:100CB80073F00A00F5CF74F01200000E0001BC6F4B
:100CC800010EBD6FCC0EBE6F7E0EBF6F70EC00F0D4
:100CD800000E196E010E1A6EDCEC1CF0000E0001FD
:100CE800BC6F010EBD6FB00EBE6F7A0EBF6F70EC99
:100CF80000F0000E196E010E1A6EDCEC1CF0000EEE
:100D08000001BC6F010EBD6F300EBE6F7B0EBF6F52
:100D180070EC00F0000E196E010E1A6EDCEC1CF07F
:100D2800000E0001BC6F010EBD6F780EBE6F7C0E09
:100D3800BF6F70EC00F0000E196E010E1A6EDCEC3D
:100D48001CF0000E0001BC6F010EBD6FD20EBE6F0D
:100D5800790EBF6F70EC00F0000E196E010E1A6E5E
:100D6800DCEC1CF0000E0001BC6F010EBD6F830EA1
:100D7800BE6F790EBF6F70EC00F0000E196E010E99
:100D88001A6EDCEC1CF0000E0001BC6F010EBD6F8A
:100D98006B0EBE6F7E0EBF6F70EC00F0000E196E0A
:100DA800010E1A6EDCEC1CF0000E0001BC6F010E87
:100DB800BD6F1D0EBE6F7A0EBF6F70EC00F0000E97
:100DC800196E010E1A6EDCEC1CF0000E0001BC6FEF
:100DD800010EBD6FA60EBE6F7C0EBF6F70EC00F0EB
:100DE800000E196E010E1A6EDCEC1CF0000E0001EC
:100DF800BC6F010EBD6FF20EBE6F7A0EBF6F70EC46
:100E080000F0000E196E010E1A6EDCEC1CF0000EDC
:100E18000001BC6F010EBD6F6D0EBE6F7B0EBF6F04
:100E280070EC00F0000E196E010E1A6EDCEC1CF06E
:100E3800000E0001BC6F010EBD6FD80EBE6F780E9C
:100E4800BF6F70EC00F0000E196E010E1A6EDCEC2C
:100E58001CF0000E0001BC6F010EBD6F730EBE6F5B
:100E6800780EBF6F70EC00F0000E196E010E1A6E4E
:100E7800DCEC1CF0000E0001BC6F010EBD6F310EE2
:100E8800BE6F7E0EBF6F70EC00F0000E196E010E83
:100E98001A6EDCEC1CF0000E0001BC6F010EBD6F79
:100EA8004A0EBE6F7C0EBF6F70EC00F0000E196E1C
:100EB800010E1A6EDCEC1CF0000E0001BC6F010E76
:100EC800BD6FE50EBE6F7B0EBF6F70EC00F0000EBD
:100ED800196E010E1A6EDCEC1CF0000E0001BC6FDE
:100EE800010EBD6F2E0EBE6F790EBF6F70EC00F055
:100EF800000E196E010E1A6EDCEC1CF0000E0001DB
:100F0800BC6F010EBD6FFA0EBE6F7C0EBF6F70EC2A
:100F180000F0000E196E010E1A6EDCEC1CF0000ECB
:100F28000001BC6F010EBD6F200EBE6F7D0EBF6F3E
:100F380070EC00F0000E196E010E1A6EDCEC1CF05D
:100F4800000E0001BC6F010EBD6F670EBE6F7A0EFA
:100F5800BF6F70EC00F0000E196E010E1A6EDCEC1B
:100F68001CF0000E0001BC6F010EBD6FD30EBE6FEA
:100F78007C0EBF6F70EC00F0000E196E010E1A6E39
:100F8800DCEC1CF0000E0001BC6F010EBD6F8D0E75
:100F9800BE6F7D0EBF6F70EC00F0000E196E010E73
:100FA8001A6EDCEC1CF0000E0001BC6F010EBD6F68
:100FB800190EBE6F7C0EBF6F70EC00F0000E196E3C
:100FC800010E1A6EDCEC1CF01200000E0101866F97
:100FD80059D17AEC20F0010E0101D46F12009CEC7B
:100FE80020F00101866F240E8619D8A41200020E83
:100FF800D46F1200D551D8B412009CEC20F0010136
:10100800866F8651D8B412000D0E8619D8A403D065
:10101800030ED46F1200200E8619D8B41200CE51D8
:10102800010DA20EF324D96E020EF420DA6E86C1E9
:10103800DFFFCE2B12000201A251EFEC22F00101DA
:10104800866F24D0000ED36F040ED46F1200010EE9
:10105800D36F040ED46F1200020ED36F040ED46F38
:101068001200520E0001BC6F010EBD6FBB0EBE6FA9
:101078007F0EBF6F70EC00F0520E196E010E1A6EE3
:10108800DCEC1CF0000E0101D46F12008651520AEC
:10109800D8B4D8D7010AD8B4DFD7070AD8B4D7D775
:1010A800E0D70201A351EFEC22F00101866F7CD05A
:1010B800490E8619D8B414D0460E8619D8B410D063
:1010C800510E8619D8B40CD0580E8619D8B408D049
:1010D800530E8619D8B404D0430E8619D8A406D066
:1010E8008651D00FD26F050ED46F1200D00E196E34
:1010F8007F0E1A6EDCEC1CF0000E0101D46F12009A
:10110800490E8619D8B414D0460E8619D8B410D012
:10111800510E8619D8B40CD0580E8619D8B408D0F8
:10112800420E8619D8B404D0530E8619D8A406D016
:101138008651D00FD26F050ED46F1200D00E196EE3
:101148007F0E1A6EDCEC1CF0000E0101D46F120049
:10115800480E8619D8B418D04C0E8619D8B414D0B5
:10116800540E8619D8B410D0410E8619D8B40CD0B4
:10117800550E8619D8B408D0510E8619D8B404D0A3
:10118800560E8619D8A406D08651D00FD26F050EF8
:10119800D46F1200D00E196E7F0E1A6EDCEC1CF0A4
:1011A800000E0101D46F1200D351000AD8B480D7C1
:1011B800010AD8B4A5D7030AD8A41200C9D7CE51BA
:1011C800FE0FD16FD1C18EF2D151D8A403D0080E31
:1011D800D46F1200060ED46F1200000E856F010E38
:1011E800846F1BD0010E010184250001EB6F000EF6
:1011F800010185210001EC6FA20EEB25D96E020ECC
:10120800EC21DA6E8E0E01018425E16E020E852135
:10121800E26EDFCFE7FF844B852BD1510001EB6FE6
:10122800EC6B010EEB27000EEC23EB510101845D02
:101238008551800A0001ED6FEC51800AED59D8A064
:10124800D1D7080E0101D46F1200D351020DDC0E64
:10125800F324D96E010EF420DA6E01D80FD0050000
:10126800FA6EDE50FD6EDE50FE6EF850FF6EFA50DC
:101278008E0E506F020E516FD2511200000E0101F6
:10128800D46F1200D451000AD8B4A3D6010AD8B436
:10129800A6D6030AD8B4AED6010AD8B4CCD6070A63
:1012A800D8B4FFD6010AD8B48AD7030AD8B495D7D8
:1012B8000E0AD8A41200C9D700017B6F6D0E000179
:1012C8007B65A0D0000E296E030E286E000E216EDD
:1012D8000A0E206E000E1B6E640E1A6E7BC018F08C
:1012E800196A15EC1DF018C01EF019C01FF065EC46
:1012F8001BF0090E1E24266E000E1F20276E4EECD2
:1013080022F0000E2624F66E780E2720F76E0900CC
:10131800F5CF69F00900F5CF6AF00A00F5CF6BF058
:10132800000E216E640E206E7BC01EF01F6A65ECF5
:101338001BF0120E1E24266E000E1F20276E000EB4
:10134800296E030E286E4EEC22F0000E2624F66E4F
:10135800780E2720F76E0900F5CF66F00900F5CF63
:1013680067F00A00F5CF68F06DEC15F066C078F00C
:1013780067C079F068C07AF0000E296E030E286EF7
:10138800000E1B6E0A0E1A6E7BC018F0196A15EC57
:101398001DF018C026F019C027F04EEC22F0000E00
:1013A8002624F66E780E2720F76E0900F5CF69F02F
:1013B8000900F5CF6AF00A00F5CF6BF078C066F047
:1013C80079C067F07AC068F06DEC15F066C075F00A
:1013D80067C076F068C077F075C066F076C067F0D1
:1013E80077C068F0000E0001696F000E6A6F3F0E4B
:1013F8006B6F6DEC15F066C072F067C073F068C073
:1014080074F012000A0E00017B6564D0000E296E8C
:10141800030E286E000E1B6E0A0E1A6E7BC018F0A3
:10142800196A15EC1DF018C026F019C027F04EEC0B
:1014380022F0000E2624F66E780E2720F76E09009B
:10144800F5CF69F00900F5CF6AF00A00F5CF6BF027
:10145800000E216E0A0E206E7BC01EF01F6A65EC1E
:101468001BF0090E1E24266E000E1F20276E000E8C
:10147800296E030E286E4EEC22F0000E2624F66E1E
:10148800780E2720F76E0900F5CF66F00900F5CF32
:1014980067F00A00F5CF68F06DEC15F066C078F0DB
:1014A80067C079F068C07AF078C066F079C067F0F4
:1014B8007AC068F0000E0001696F000E6A6F3F0E77
:1014C8006B6F6DEC15F066C072F067C073F068C0A2
:1014D80074F0120000017B51030D000EF324F66E28
:1014E800780EF420F76E0900F5CF66F00900F5CF05
:1014F80067F00A00F5CF68F0000E696F000E6A6F9A
:101508003F0E6B6F6DEC15F066C072F067C073F03C
:1015180068C074F01200000199519A119B11D8A467
:1015280007D0000E996F800E9A6F3F0E9B6F1200C6
:10153800720E186E310E196E440E1A6E99C01BF099
:101548009AC01CF09BC01DF01DEC1BF0D8B00DD04C
:10155800000E0101C36F220EC26FFF0E0001996FCA
:101568007F0E9A6F7F0E9B6F120099C018F09AC079
:1015780019F09BC01AF0490E1B6E3A0E1C6EC40E71
:101588001D6E1DEC1BF0D8B00DD0000E0101C36F0D
:10159800220EC26F000E0001996F000E9A6F000EA6
:1015A8009B6F120000019BAF02D0010E01D0000E0C
:1015B800A16FA151D8B40ED099C018F09AC019F0F3
:1015C8009BC01AF073EC22F018C099F019C09AF079
:1015D8001AC09BF099C066F09AC067F09BC068F08B
:1015E800AA0E0001696FB80E6A6F3F0E6B6F6DEC43
:1015F80015F066C099F067C09AF068C09BF099C072
:1016080090F09AC091F09BC092F041EC17F090C016
:101618009CF091C09DF092C09EF09CC079F09DC056
:101628007AF09EC07BF0F1EC14F079C09FF07AC09C
:10163800A0F099C088F09AC089F09BC08AF09FC03A
:1016480020F0A0C021F058EC21F020C08BF021C080
:101658008CF022C08DF0BEEC20F088C099F089C0D3
:101668009AF08AC09BF099C088F09AC089F09BC014
:101678008AF03A0E00018B6F780E8C6F000E8E6F19
:10168800090E8D6FB2EC17F088C092F089C093F004
:101698008AC094F09FC095F0A0C096F01DEC18F099
:1016A80092C099F093C09AF094C09BF00001A151A8
:1016B800D8B425D099290EE17F0E9A190BE17F0E37
:1016C8009B19D8A407D0000E996F000E9A6F000ED0
:1016D8009B6F1200000E236E800E246E3F0E256E47
:1016E80099C026F09AC027F09BC028F0E8EC15F0C6
:1016F80023C099F024C09AF025C09BF0120099C02D
:1017080099F09AC09AF09BC09BF0120026C0D9FFAE
:1017180027C0DAFFDF500001656F264A272A655186
:101728003BEC22F0D8B0F2D7000E0001616F000E3A
:10173800626F000E636F000E646F000E606F2D0EF7
:101748006519D8A403D0010E606F04D02B0E65195B
:10175800D8A408D026C0D9FF27C0DAFFDF50656FAC
:10176800264A272A300E6519D8A42ED026C0D9FFBC
:1017780027C0DAFFDF50656F264A272A2A502B1028
:10178800D8B405D0100E2A182B10D8A415D0780E6E
:101798006519D8B404D0580E6519D8A40DD0000E18
:1017A8002B6E100E2A6E26C0D9FF27C0DAFFDF5035
:1017B800656F264A272A08D02A502B10D8A404D0AF
:1017C800000E2B6E080E2A6E2A502B10D8A404D0B7
:1017D800000E2B6E0A0E2A6E655127EC22F0D8A057
:1017E80008D000016551EFEC22F0C90F0001656FC8
:1017F80009D00001655185EC22F0D8A039D0300E0F
:101808000001655F65512C6E2D6A2A502C5C2D50A5
:10181800800A2E6E2B50800A2E58D8B029D02AC0A4
:101828001AF02BC01BF0000E1BBEFF0E1C6E1D6EA7
:1018380061C01EF062C01FF063C020F064C021F0D8
:10184800DFEC1FF0000165511A24616F000E1B20A8
:10185800626F000E1C20636F000E1D20646F26C08F
:10186800D9FF27C0DAFFDF50656F264A272AB4D789
:1018780028502910D8B40ED0FF0E26242C6EFF0E47
:1018880027202D6E28C0D9FF29C0DAFF2CC0DEFF23
:101898002DC0DDFF00016051D8B41AD061C02CF012
:1018A80062C02DF063C02EF064C02FF02C1E2D1ED8
:1018B8002E1E2F1E2C2A000E2D222E222F222CC047
:1018C80026F02DC027F02EC028F02FC029F01200D6
:1018D80061C026F062C027F063C028F064C029F018
:1018E80012007EC082F00001836B846B7D358237E5
:1018F80001E383818251876F81C082F0836B846B9F
:101908008035823701E383818251866F8751D8B44D
:101918000BD08651875DD8B00ED087510008862538
:10192800826F180E826507D07FC07CF080C07DF082
:1019380081C07EF012008651D8B40BD08751865DE5
:10194800D8B00ED0865100088725826F180E8265A0
:1019580007D07CC07CF07DC07DF07EC07EF0120098
:10196800060E856F7EBF858F81BF858D7D8FFF0EAB
:101978007C17FF0E7D17000E7E17808FFF0E7F17D6
:10198800FF0E8017000E81178651875DD8B01BD0D7
:10199800D8907F3780378137860787518619D8B422
:1019A8000DD0850785C082F0070E8217D8B406D0FF
:1019B800EFD7D8907E337D337C33872B86518719B8
:1019C800D8B41FD0F6D78751865DD8B01AD0D89032
:1019D8007C377D377E37870787518619D8B40DD075
:1019E800850785C082F0070E8217D8B406D0EFD7D6
:1019F800D890813380337F33862B86518719D8A4BA
:101A0800F7D785AF0CD0FF0E7C1BFF0E7D1BFF0E9A
:101A18007E1B010E7C27000E7D23000E7E2385ADE4
:101A28000CD0FF0E7F1BFF0E801BFF0E811B010ECB
:101A38007F27000E8023000E8123000E856F7C51C6
:101A48007F277D5180237E51812381AF0ED0FF0EE9
:101A58007F1BFF0E801BFF0E811B010E7F27000ED0
:101A68008023000E8123010E856F7FC018F080C08F
:101A780019F081C01AF087C01BF085C01CF09CECDF
:101A880019F018C07CF019C07DF01AC07EF0120061
:101A9800000E0101386F000E376FC451C511D8B45C
:101AA800B5D0330E3D24F66E780E3E20F76E080052
:101AB800F550F9EC21F018C035F119C036F1000ED7
:101AC8000001A56F200EA66F410EA76F000EA26F32
:101AD800000EA36F400EA46F13EC0EF0A2C032F1FB
:101AE800A3C033F1A4C034F1C00E0001696F500ED9
:101AF8006A6F450E6B6F32C126F033C127F034C1CF
:101B080028F035C120F036C121F061EC22F020C068
:101B180023F021C024F022C025F0E8EC15F023C002
:101B280066F024C067F025C068F06DEC15F066C05B
:101B380079F067C07AF068C07BF0F1EC14F079C0F6
:101B480037F17AC038F1330E3D24F66E780E3E2018
:101B5800F76E0800F550060AD8A404D037C13FF044
:101B680038C140F0330E3D24F66E780E3E20F76EF5
:101B78000800F550050AD8A404D037C1CCF138C103
:101B8800CDF1330E3D24F66E780E3E20F76E080038
:101B9800F550040AD8A404D037C1CAF138C1CBF132
:101BA800330E3D24F66E780E3E20F76E0800F55091
:101BB800070AD8A404D037C1C8F138C1C9F1000E4A
:101BC8000001BC6F010EBD6FF90EBE6F7F0EBF6FB7
:101BD80037C1C0F038C1C1F070EC00F0000E196ECA
:101BE800010E1A6EDCEC1CF0020E0001E46F040E0C
:101BF800E36FBA0EE82EFED7E32FFCD7E42FFAD70F
:101C080000F00101C407D8A0C5071200000ED76F65
:101C1800E30E196E7F0E1A6EDCEC1CF01200000E3B
:101C28000001AE6FA251A311A411D8A41DD0000EBB
:101C3800186E000E196E000E1A6EA5C01BF0A6C015
:101C48001CF0A7C01DF01DEC1BF0D8A005D0000E9D
:101C58000101C36F210EC26F000E0001A26F000EBA
:101C6800A36F000EA46F1200A551A611A711D8A446
:101C780007D0000EA26F800EA36F3F0EA46F120054
:101C8800A4AF43D0A5C079F0A6C07AF0A7C07BF076
:101C9800F1EC14F079C0AFF07AC0B0F07BC0B1F0CD
:101CA8007CC0B2F0AFC020F0B0C021F0B1C022F0CB
:101CB800B2C023F003EC1FF00001A551201807E182
:101CC800A651211804E1A7512218D8B40DD0000E4E
:101CD8000101C36F210EC26F000E0001A26F000E3A
:101CE800A36F000EA46F1200AF51010BAE6FA2C01C
:101CF80018F0A3C019F0A4C01AF073EC22F018C0B1
:101D0800A2F019C0A3F01AC0A4F0A2C092F0A3C018
:101D180093F0A4C094F086EC11F092C0A8F093C0A0
:101D2800A9F094C0AAF0A8C066F0A9C067F0AAC03C
:101D380068F0A5C069F0A6C06AF0A7C06BF06DECAA
:101D480015F066C0ABF067C0ACF068C0ADF0ABC0D2
:101D580099F0ACC09AF0ADC09BF08FEC0AF099C036
:101D6800A2F09AC0A3F09BC0A4F00001AE51D8B471
:101D78000FD0A2C018F0A3C019F0A4C01AF073ECD9
:101D880022F018C0A2F019C0A3F01AC0A4F01200E3
:101D9800A2C0A2F0A3C0A3F0A4C0A4F01200000E39
:101DA8000001BC6F010EBD6FFA0EBE6F7E0EBF6FD5
:101DB80070EC00F0000E196E010E1A6EDCEC1CF0CF
:101DC800000E0001BC6F010EBD6F450EBE6F7D0E8B
:101DD800BF6F87C1C0F0C16B70EC00F0000E196EC8
:101DE800010E1A6EDCEC1CF0000E0001BC6F010E37
:101DF800BD6F840EBE6F7E0EBF6F8DC1C0F08EC1E9
:101E0800C1F08FC1C2F070EC00F0000E196E010E27
:101E18001A6EDCEC1CF0000E0001BC6F010EBD6FE9
:101E2800690EBE6F7D0EBF6F90C1C0F0C16B70ECC4
:101E380000F0000E196E010E1A6EDCEC1CF0000E9C
:101E48000001BC6F010EBD6FB40EBE6F7E0EBF6F7A
:101E580091C1C0F092C1C1F093C1C2F070EC00F022
:101E6800000E196E010E1A6EDCEC1CF0000E00015B
:101E7800BC6F010EBD6FC60EBE6F7F0EBF6F010136
:101E880094510001C06FC16BC0BFC10770EC00F076
:101E9800000E196E010E1A6EDCEC1CF0000E00012B
:101EA800BC6F010EBD6FE30EBE6F7E0EBF6F98C193
:101EB800C0F0C16B70EC00F0000E196E010E1A6EC6
:101EC800DCEC1CF0000E0001BC6F010EBD6F950E1E
:101ED800BE6F7F0EBF6F99C1C0F09AC1C1F070ECA0
:101EE80000F0000E196E010E1A6EDCEC1CF0000EEC
:101EF8000001BC6F010EBD6FFA0EBE6F7E0EBF6F84
:101F080070EC00F0000E196E010E1A6EDCEC1CF07D
:101F18001200000E0001BC6F010EBD6FFA0EBE6FFD
:101F28007E0EBF6F70EC00F0000E196E010E1A6E77
:101F3800DCEC1CF0000E0001BC6F010EBD6FAA0E98
:101F4800BE6F7B0EBF6F9DC1C0F0C16B70EC00F01F
:101F5800000E196E010E1A6EDCEC1CF0000E00016A
:101F6800BC6F010EBD6F840EBE6F7E0EBF6FA3C126
:101F7800C0F0A4C1C1F0A5C1C2F070EC00F0000E21
:101F8800196E010E1A6EDCEC1CF0000E0001BC6F1D
:101F9800010EBD6F690EBE6F7D0EBF6FA6C1C0F08A
:101FA800C16B70EC00F0000E196E010E1A6EDCECBD
:101FB8001CF0000E0001BC6F010EBD6F9C0EBE6FC1
:101FC8007E0EBF6FA7C1C0F0A8C1C1F0A9C1C2F001
:101FD80070EC00F0000E196E010E1A6EDCEC1CF0AD
:101FE800000E0001BC6F010EBD6FC60EBE6F7F0EE6
:101FF800BF6F0101AA510001C06FC16BC0BFC1070B
:1020080070EC00F0000E196E010E1A6EDCEC1CF07C
:10201800000E0001BC6F010EBD6FE30EBE6F7E0E99
:10202800BF6FAEC1C0F0C16B70EC00F0000E196E4E
:10203800010E1A6EDCEC1CF0000E0001BC6F010EE4
:10204800BD6F950EBE6F7F0EBF6FAFC1C0F0B0C140
:10205800C1F070EC00F0000E196E010E1A6EDCEC87
:102068001CF0000E0001BC6F010EBD6FFA0EBE6FB2
:102078007E0EBF6F70EC00F0000E196E010E1A6E26
:10208800DCEC1CF01200000E0001B96F000EB86FF6
:10209800010EBA6F040EBA6501D01200BA51010DD3
:1020A800330EF324F66E780EF420F76E0800F55020
:1020B800F9EC21F018C0B6F019C0B7F0000E000115
:1020C800A56F200EA66F410EA76F000EA26F000E1F
:1020D800A36F400EA46F13EC0EF0A2C0B3F0A3C020
:1020E800B4F0A4C0B5F0C00E0001696F500E6A6F5D
:1020F800450E6B6FB3C026F0B4C027F0B5C028F00A
:10210800B6C020F0B7C021F061EC22F020C023F067
:1021180021C024F022C025F0E8EC15F023C066F0B9
:1021280024C067F025C068F06DEC15F066C079F042
:1021380067C07AF068C07BF0F1EC14F079C0B8F0B1
:102148007AC0B9F00001BA51010D330EF324F66ECE
:10215800780EF420F76E0800F550060AD8A404D0CB
:10216800B8C03FF0B9C040F0BA51010D330EF324A6
:10217800F66E780EF420F76E0800F550050AD8A41C
:1021880004D0B8C0CCF1B9C0CDF1BA51010D330EAD
:10219800F324F66E780EF420F76E0800F550040A62
:1021A800D8A404D0B8C0CAF1B9C0CBF1BA51010D56
:1021B800330EF324F66E780EF420F76E0800F5500F
:1021C800070AD8A404D0B8C0C8F1B9C0C9F1BA2B5D
:1021D80061D71AC01EF01F6A206A19341E3601E33F
:1021E8001F801E50266E2650D8A409D0000E186EE7
:1021F800000E196E000E1A6E000E1B6E12001DC026
:102208001EF01F6A206A1C341E3601E31F801E5010
:10221800256E2550D8A409D0000E186E000E196E30
:10222800000E1A6E000E1B6E1200198EFF0E181685
:10223800FF0E1916000E1A161C8EFF0E1B16FF0E27
:102248001C16000E1D16000E216E000E226E000ECA
:10225800236E000E246E7F0E265E2550980F265E94
:10226800180E256ED89021362236233624361B5078
:10227800185C1C5019581D501A58D8A007D01B506C
:10228800185E1C50195A1D501A5A2180D8901836B9
:1022980019361A36252EE6D726AE16D02650800ACD
:1022A800970FD8B009D0000E186E000E196E000EE8
:1022B8001A6E000E1B6E1200D8902432233222327E
:1022C8002132263EF9D715D0170E26640FD0000EFE
:1022D800186E000E196E000E1A6E000E1B6E12009C
:1022E800D890213622362336243626062650D8A4FE
:1022F800F7D721C018F022C019F023C01AF024C063
:102308001BF01200000194AF0DD0000E0101C36F45
:10231800210EC26F000E0001926F000E936F000E27
:10232800946F1200925193119411D8A40DD0000EFD
:102338000101C36F220EC26F000E0001926F000EE2
:10234800936F000E946F1200000E696F000E6A6F93
:10235800400E6B6F950E1B6E000E1C6E92C018F02F
:1023680093C019F094C01AF0D5EC1AF018C066F0B2
:1023780019C067F01AC068F06DEC15F066C07CF003
:1023880067C07DF068C07EF0000E00017F6F800E90
:10239800806FBF0E816F75EC0CF07CC092F07DC031
:1023A80093F07EC094F000019507D8A0960792C0DC
:1023B80088F093C089F094C08AF0580E8B6F780E1D
:1023C8008C6F000E8E6F080E8D6FB2EC17F088C000
:1023D80092F089C093F08AC094F0720E0001696F80
:1023E800310E6A6F3F0E6B6F95C020F096C021F0DA
:1023F80058EC21F020C066F021C067F022C068F0D8
:102408006DEC15F066C07CF067C07DF068C07EF0AA
:1024180092C07FF093C080F094C081F075EC0CF00E
:102428007CC092F07DC093F07EC094F01200000151
:10243800EA6F78D081EC1DF0D3EC0EF0120050C199
:1024480066F051C167F08BEC1AF066C0B6F167C050
:10245800B7F168C0B8F169C0B9F1010120EE01F027
:102468005051D9265151DA22DF500001E36FD00EC6
:10247800E3253D6E3E6AFF0E3E2250C1D9FF51C191
:10248800DAFFDF50E36FFF0EE325206E216AFF0EAF
:10249800212258EC21F020C0E4F021C0E5F022C050
:1024A800E6F0E4C0A5F0E5C0A6F0E6C0A7F0000E8F
:1024B8000001A26F200EA36F410EA46F13EC0EF063
:1024C800A2C0E7F0A3C0E8F0A4C0E9F0B6C1B3F039
:1024D800B7C1B4F0B8C1B5F0B9C1B6F0E7C079F08A
:1024E800E8C07AF0E9C07BF0F1EC14F0000179C0A3
:1024F800B7F07AC0B8F0000EB8BFFF0EB96FBA6F68
:102508004DEC1DF0B3C0C4F1B4C0C5F13DC01FF01F
:10251800C4C120F0C5C121F0226A236A000E64EC10
:1025280014F012000001EA51120AD8B41200040A89
:10253800D8B412000F0AD8B41200380AD8B47AD71F
:10254800020AD8B47CD70B0AD8B412004B0AD8B404
:102558001200060A12001A341B34236E2350D8A422
:1025680009D0000E186E000E196E000E1A6E000EBD
:102578001B6E12001D341E34226E2250D8A409D0BE
:10258800000E186E000E196E000E1A6E000E1B6EED
:1025980012001A8EFF0E1816FF0E1916FF0E1A16C5
:1025A800000E1B161D8EFF0E1B16FF0E1C16FF0EAF
:1025B8001D16000E1E16000E1E6E000E1F6E000E5B
:1025C800206E000E216E7F0E235E2250A00F235E28
:1025D800200E226ED8901E361F36203621361B500C
:1025E800185C1C5019581D501A581E501B58D8A05A
:1025F80009D01B50185E1C50195A1D501A5A1E50EB
:102608001B5A1E80D890183619361A361B36222EB9
:10261800E1D723AE16D02350800A9F0FD8B009D037
:10262800000E186E000E196E000E1A6E000E1B6E4C
:102638001200D890213220321F321E32233EF9D7A1
:1026480015D01F0E23640FD0000E186E000E196EE1
:10265800000E1A6E000E1B6E1200D8901E361F3622
:102668002036213623062350D8A4F7D71EC018F0E9
:102678001FC019F020C01AF021C01BF01200000181
:10268800C46F000E0001C56F000EC66F000EC76F45
:10269800000EC86FB351C45F000EC96F6DD0C95129
:1026A800B76FB86B010EB727000EB823B71FB81F56
:1026B800B74BB82BB351B727B451B823D890B73715
:1026C800B837D890B737B837D890B737B837B7C012
:1026D80020F0B8C021F058EC21F020C0BEF021C095
:1026E800BFF022C0C0F0BEC0A5F0BFC0A6F0C0C0F9
:1026F800A7F0000E0001A26F000EA36F400EA46F9A
:1027080013EC0EF0A2C0C1F0A3C0C2F0A4C0C3F085
:10271800C1C079F0C2C07AF0C3C07BF0F1EC14F00C
:1027280079C0BAF07AC0BBF07BC0BCF07CC0BDF009
:102738000001C451C9252BEC23F00001B76FB75134
:102748001A6E1B6A1C6A1D6ABAC01EF0BBC01FF055
:10275800BCC020F0BDC021F0DFEC1FF00001C55166
:102768001A10C56FC6511B10C66FC7511C10C76F12
:10277800C8511D10C86FC92BC951B76FB86BB35179
:10278800B75DB851800AB96FB451800AB959D8A059
:1027980086D7C5C0B3F0C6C0B4F0C7C0B5F0C8C0CE
:1027A800B6F012000001EA6F78D077EC1EF08DECDD
:1027B8000FF0120050C166F051C167F08BEC1AF0AF
:1027C80066C0B6F167C0B7F168C0B8F169C0B9F1C1
:1027D800010120EE01F05051D9265151DA22DF5083
:1027E8000001E36FD00EE3253D6E3E6AFF0E3E22E8
:1027F80050C1D9FF51C1DAFFDF50E36FFF0EE32567
:10280800206E216AFF0E212258EC21F020C0E4F04E
:1028180021C0E5F022C0E6F0E4C0A5F0E5C0A6F0CE
:10282800E6C0A7F0000E0001A26F200EA36F410EB4
:10283800A46F13EC0EF0A2C0E7F0A3C0E8F0A4C0A8
:10284800E9F0B6C1B3F0B7C1B4F0B8C1B5F0B9C1D9
:10285800B6F0E7C079F0E8C07AF0E9C07BF0F1ECB7
:1028680014F0000179C0B7F07AC0B8F0000EB8BF14
:10287800FF0EB96FBA6F4DEC1DF0B3C0C4F1B4C010
:10288800C5F13DC01FF0C4C120F0C5C121F0226AC6
:10289800236A010E64EC14F012000001EA51120AD6
:1028A800D8B41200040AD8B412000F0AD8B412001F
:1028B800380AD8B47AD7020AD8B47CD70B0A1200DF
:1028C800286E000E246E000E256E000E266E000E79
:1028D800276E1F50D8A40BD02850D8A404D0000EBF
:1028E8000101886F1200000E01019E6F12003E5018
:1028F80004E1050E3D5CD8A007D0D00E196E7F0EFE
:102908001A6EDCEC1CF012002850D8A431D03D50CF
:102918003E10D8A404D0000E01019E6F12003D04A1
:102928003E10D8A407D0D10E196E7D0E1A6EDCECBD
:102938001CF00BD0020E3D183E10D8A406D04E0E47
:10294800196E7E0E1A6EDCEC1CF03D043E10D8B4F5
:1029580005D0020E3D183E10D8A404D0010E010186
:10296800D76F06D0D00E196E7F0E1A6EDCEC1CF0F5
:102978002804D8A412003D503E10D8A404D0000E5C
:1029880001019E6F12003D043E10D8A407D0F20E3C
:10299800196E7D0E1A6EDCEC1CF00BD0020E3D1881
:1029A8003E10D8A406D0AF0E196E7D0E1A6EDCEC60
:1029B8001CF03D043E10D8B405D0020E3D183E1060
:1029C800D8A404D0010E0101D76F1200D00E196EE1
:1029D8007F0E1A6EDCEC1CF012007BC07DF000014B
:1029E8007E6B7F6B7A357D3701E37E817D51876F02
:1029F8008751D8A409D0000E796F000E7A6F000EA7
:102A08007B6F000E7C6F1200170E7D6F79C07EF011
:102A18007AC07FF07BC080F07D29816F04D0D89088
:102A280080337F337E33812FFAD700017E51826F46
:102A38007A8FFF0E7917FF0E7A17000E7B177951E0
:102A4800836F7A51846F7B51856F866B8E0E875F9B
:102A580087AF16D08751800A8F0FD8B009D0000EE3
:102A6800796F000E7A6F000E7B6F000E7C6F12007C
:102A7800D8908633853384338333873FF9D715D08D
:102A8800170E87650FD0000E796F000E7A6F000E53
:102A98007B6F000E7C6F1200D890833784378537A0
:102AA800863787078751D8A4F7D78251D8B408D07A
:102AB800861F851F841F836D000E8423852386232C
:102AC80083C079F084C07AF085C07BF086C07CF042
:102AD800120068C02CF02D6A2E6A000167352C366A
:102AE80001E32D802C506C6F6C51D8A407D0000ED8
:102AF800666F000E676F000E686F12006BC02CF0D7
:102B08002D6A2E6A6A352C3601E32D802C50716FA0
:102B18007151D8A407D0000E666F000E676F000EC3
:102B2800686F120071517B0F6C2768C071F06B5190
:102B3800711B800E7117678F6A8FFF0E6917FF0E62
:102B48006A17000E6B17000E6D6F000E6E6F000E89
:102B58006F6F070E706F66A106D069516D276A51B5
:102B68006E236B516F23D890683367336633D890E0
:102B780069376A376B37702FEED7090E706F66A109
:102B880006D069516D276A516E236B516F23D89017
:102B9800683367336633D8906F336E336D33702F75
:102BA800EED76DC018F06EC019F06FC01AF06CC087
:102BB8001BF071C01CF09CEC19F018C066F019C02D
:102BC80067F01AC068F0120025C029F02A6A2B6A3B
:102BD8002434293601E32A8029500001646F6451A6
:102BE800D8A407D0000E236E000E246E000E256EAA
:102BF800120028C029F02A6A2B6A2734293601E3F3
:102C08002A802950656F6551D8A407D0000E236E1D
:102C1800000E246E000E256E1200000E616F000E6D
:102C2800626F000E636F6551890F645F25C065F0A0
:102C38002850651B800E6517248EFF0E2316FF0E85
:102C48002416000E2516278EFF0E2616FF0E2716B1
:102C5800000E2816180E606FD890613762376337F8
:102C68002650235C2750245828502558D8A007D030
:102C78002650235E2750245A2850255A6181D8901F
:102C8800233624362536602FE7D761C018F062C096
:102C980019F063C01AF064C01BF065C01CF09CEC0E
:102CA80019F018C023F019C024F01AC025F012003A
:102CB800000E0001BC6F010EBD6F120EBE6F7E0EBE
:102CC800BF6F70EC00F0000E196E010E1A6EDCEC8E
:102CD8001CF0000E0001BC6F010EBD6F260EBE6F0A
:102CE8007F0EBF6F70EC00F0000E196E010E1A6EA9
:102CF800DCEC1CF0000E0001BC6F010EBD6F620E13
:102D0800BE6F7F0EBF6FF30EC06F7F0EC16F70EC8A
:102D180000F0000E196E010E1A6EDCEC1CF0000EAD
:102D28000001BC6F010EBD6F4E0EBE6F7F0EBF6FF0
:102D3800AF0EC06F7F0EC16F70EC00F0000E196E01
:102D4800010E1A6EDCEC1CF0000E0001BC6F010EC7
:102D5800BD6F3A0EBE6F7F0EBF6FDA0EC06F7F0E6B
:102D6800C16F70EC00F0000E196E010E1A6EDCECEB
:102D78001CF0000E0001BC6F010EBD6F120EBE6F7D
:102D88007E0EBF6F70EC00F0000E196E010E1A6E09
:102D9800DCEC1CF01200000E0001CE6FCE51800A50
:102DA8007C0FD8B01200000EB46F020EB36FCE5174
:102DB800010D2F0EF324F66E780EF420F76E08003E
:102DC800F550400943EC13F0B3C0CCF0B4C0CDF0DB
:102DD8000001CC2944E1CD29D8A441D0CE51020D1F
:102DE800270EF324F66E780EF420F76E0900F5CF5F
:102DF800CAF00900F5CFCBF0CAC028F0CBC029F043
:102E08002A6A2B6A010E2C6E020EF3EC19F00001EF
:102E1800CE51020D270EF324F66E780EF420F76ECD
:102E28000900F5CFCAF00900F5CFCBF0CAC021F0F0
:102E3800CBC022F0236A246ACE51010D2F0EF32451
:102E4800F66E780EF420F76E0800F5504009256EEE
:102E5800000E276E020E266E3CEC21F00BD0CCC083
:102E680028F0CDC029F02A6A2B6A010E2C6E020EBA
:102E7800F3EC19F00001CE2B91D790C018F091C057
:102E880019F092C01AF0960E1B6E000E1C6ED5EC4F
:102E98001AF0000197AF10D092AF07D0000E906FD4
:102EA800800E916FBF0E926F1200000E906F000E91
:102EB800916F000E926F1200975104E1150E965D06
:102EC800D8A007D090C090F091C091F092C092F035
:102ED800120090C079F091C07AF092C07BF0F1ECCA
:102EE80014F079C088F07AC089F07BC08AF07CC081
:102EF8008BF029EC1CF088C093F089C094F08AC04C
:102F080095F090C018F091C019F092C01AF093C0D3
:102F18001BF094C01CF095C01DF01DEC1BF0D8B040
:102F280016D093C07CF094C07DF095C07EF0000E62
:102F380000017F6F800E806FBF0E816F75EC0CF003
:102F48007CC090F07DC091F07EC092F0120093C0DA
:102F580090F094C091F095C092F012008DC026F0C8
:102F68008EC027F0000E296E030E286E4EEC22F05C
:102F78008BC02FF08CC030F026502F2627503022DF
:102F88002FC0F6FF30C0F7FF0900F5CF8FF009001A
:102F9800F5CF90F00A00F5CF91F03FD08FC069F0DF
:102FA80090C06AF091C06BF088C066F089C067F085
:102FB8008AC068F06DEC15F066C07CF067C07DF0E3
:102FC80068C07EF0000E296E030E286E00018D0782
:102FD800D8A08E078DC026F08EC027F04EEC22F0C8
:102FE8008BC02FF08CC030F026502F26275030226F
:102FF8002FC0F6FF30C0F7FF0900F5CF7FF00900BA
:10300800F5CF80F00A00F5CF81F075EC0CF07CC0AC
:103018008FF07DC090F07EC091F000018D518E112F
:10302800D8A4BCD78FC088F090C089F091C08AF02E
:1030380012000001925193119411D8A407D0000EE8
:10304800926F000E936F000E946F120094517F0BD5
:10305800976F986BD89097379837975195279851CD
:10306800962393AF03D0976B972B02D00001976BF1
:1030780097519527000E962396AF0DD0000E0101AB
:10308800C36F220EC26F000E0001926F000E936F85
:10309800000E946F120096BF17D09605D8A014D0D2
:1030A800000E0101C36F220EC26F000194AF06D05B
:1030B800FF0E926F7F0E936FFF0EEBD7FF0E926F8E
:1030C8007F0E936F7F0EE5D796359631986F9531C1
:1030D800976F94519719800B9719946F95C097F033
:1030E800010E971797339733935197197F0B9719B9
:1030F800936F92C092F093C093F094C094F0120032
:103108000001856F010E0001806F000E816F000EB7
:10311800826F000E836F600E206E000E216E000E0F
:10312800236E200E226EA3EC22F0600E186E000EA5
:10313800196E24C01AF025C01BF026C01CF027C049
:103148001DF031EC1FF0000E0001846F1F0E846526
:1031580001D026D0000E186E8551B4EC1FF0000186
:103168008451010D600EF324D96E000EF420DA6E3E
:10317800DF50D8B406D0010E186E855189EC1FF0C7
:1031880006D0000E186E0001855189EC1FF0010E63
:10319800186E00018551B4EC1FF00001842BD6D7BE
:1031A800210EE82EFED700F0000E186E00018551A2
:1031B80089EC1FF0000E186E00018551B4EC1FF069
:1031C8001200F30E326E7F0E336E000E0001BC6FDC
:1031D800010EBD6FA20EBE6F7F0EBF6F3150C06F64
:1031E800C16BC0BFC10770EC00F0000E196E010E74
:1031F8001A6EDCEC1CF0000E0001BC6F010EBD6FF6
:10320800100EBE6F7F0EBF6F32C0C0F033C0C1F06A
:1032180070EC00F0000E196E010E1A6EDCEC1CF05A
:10322800000E0001BC6F010EBD6F860EBE6F7F0ED3
:10323800BF6F34C0C0F0C16B70EC00F0000E196EA7
:10324800010E1A6EDCEC1CF0000E0001BC6F010EC2
:10325800BD6F740EBE6F7F0EBF6F35C0C0F036C035
:10326800C1F037C0C2F038C0C3F070EC00F0000EF7
:10327800196E010E1A6EDCEC1CF01200F294475025
:10328800D76E46C0D6FF3B4A3C2A3BC001F03CC043
:1032980002F0000E046E140E036EDFEC20F00150F5
:1032A8000210D8A403D0010E0101DB6F3BC001F06E
:1032B8003CC002F0000E046E320E036EDFEC20F00C
:1032C80001500210D8A403D0010E0101DA6F3BC0EF
:1032D80001F03CC002F0010E046E2C0E036EDFEC10
:1032E80020F001500210D8A403D0010E0101D96FBB
:1032F8003BC001F03CC002F0000E046EC80E036E25
:10330800DFEC20F001500210D8A403D0010E010117
:10331800D86F3BC001F03CC002F0010E046E2C0EC9
:10332800036EDFEC20F001C03BF002C03CF012005D
:103338001B50D8B405D0185019101A10D8A40CD0A6
:10334800000E186E000E196E000E1A6E12001B2A5F
:10335800D8901A3219321832000E18141D6E000E49
:1033680019141E6EFE0E1A141F6E1D501E101F100B
:10337800D8B40CD0ECD71B2A010E1826000E19223F
:10338800000E1A22D8901A3219321832000E181468
:103398001D6E000E19141E6EFF0E1A141F6E1D509E
:1033A8001E101F10D8B406D0E6D71B06D8901836C2
:1033B80019361A3619BE03D0020E1B60F6D71BA0A9
:1033C800199ED8901B321B501A121C50D8A41A8E62
:1033D80018C018F019C019F01AC01AF01200306E8F
:1033E800F29E3050D8B403D03004D8A416D0000EC2
:1033F800186E30501EEC21F028C024F029C025F0AA
:103408002AC026F02BC027F0305084EC18F0010EAB
:10341800186E30501EEC21F02DD0020E3018D8A4B2
:1034280029D0000EB2EC22F0010E2C242E6E2F6A49
:10343800000E2F222FBE1BD02F5003E12E04D8A040
:1034480016D028C018F029C019F02AC01AF02BC0CD
:103458001BF02E041C6ED5EC1EF02D6E2DC01AF03C
:1034680030505DEC1FF02E06D8A02F06E3D7010ED2
:10347800B2EC22F0F28E1200000E0001796F000EFD
:103488007A6F000E7B6F000E7C6F77C066F078C095
:1034980067F08BEC1AF066C079F067C07AF068C004
:1034A8007BF069C07CF079C018F07AC019F07BC055
:1034B8001AF07CC01BF00A0E1C6E000E1D6E000E6A
:1034C8001E6E000E1F6EA7EC1BF0D20E181818E126
:1034D800040E19181A101B10D8A412D0000179A1D3
:1034E80003D0010E346E120079B103D0000E346E91
:1034F8001200D00E196E7F0E1A6EDCEC1CF0120052
:10350800D00E196E7F0E1A6EDCEC1CF012006C0ED9
:10351800206E000E216E000E236E080E226EA3ECA4
:1035280022F0000E0001766F000E756F76BF06D090
:10353800765120E1080E755DD8B01CD0010E7525B6
:103548006A6F000E76216B6F6A516625D96E6B51D2
:103558006721DA6EDF50746F7451D8B40BD06C0EDB
:103568007525D96E000E7621DA6E74C0DFFF754BB3
:10357800762BDCD76C0E266E000E276E000E286E9A
:10358800000E296E000E2B6E0A0E2A6E8AEC0BF0C6
:1035980026C066F027C067F028C068F029C069F027
:1035A8001200185019101A10D8A40FD01BC0D9FF38
:1035B8001CC0DAFF000EDE6E000EDD6E000E186E07
:1035C800000E196E000E1A6E12001A507F0B1D6E37
:1035D8001E6AD8901D361E361BC0D9FF1CC0DAFFE4
:1035E8001DC0DEFF1EC0DDFF19AE03D01D6A1D2AF7
:1035F80001D01D6A1D501BC0D9FF1CC0DAFFDE12A6
:10360800000EDD121BC0D9FF1CC0DAFF820EDE26B9
:10361800FF0EDD221A801A821A841A861A881A8ADC
:103628001A9C199E18C018F019C019F01AC01AF07F
:1036380012001AAE16D018C01EF019C01FF01AC01A
:1036480020F01E1E1F1E201E1E2A000E1F222022D2
:10365800000E1E24186E000E1F20196E800E2020EA
:103668001A6E1DAE16D01BC01EF01CC01FF01DC068
:1036780020F01E1E1F1E201E1E2A000E1F222022A2
:10368800000E1E241B6E000E1F201C6E800E2020B4
:103698001D6E000E181A000E191A800E1A1A000E46
:1036A8001B1A000E1C1A800E1D1A1B50185C1C5089
:1036B80019581D501A58D8B002D0D8901200D88086
:1036C8001200000E236E21AE06D0206C211ED8B049
:1036D800212A010E236E1FAE06D01E6C1F1ED8B005
:1036E8001F2A010E231A000E256E000E246E20508C
:1036F8002110D8B41CD0010E226E04D0D8902036E8
:103708002136222A21AEFAD7D890243625362050E1
:103718001E5C21501F58D8A005D020501E5E215095
:103728001F5A2480D89021322032222EEDD72350E0
:10373800D8B404D0246C251ED8B0252A24C01EF085
:1037480025C01FF01200000E206E000E216E000E24
:10375800226E000E236E1C501D101E101F10D8B4B0
:103768002AD0010E246E06D0D8901C361D361E367F
:103778001F36242A1FAEF8D7D89020362136223695
:1037880023361C50185C1D5019581E501A581F50CB
:103798001B58D8A009D01C50185E1D50195A1E502D
:1037A8001A5A1F501B5A2080D8901F321E321D32C1
:1037B8001C32242EE1D720C018F021C019F022C0F5
:1037C8001AF023C01BF01200000E0001B46F010EA6
:1037D800B36F370EF66E780EF76E0800F550500985
:1037E80043EC13F0B3C0CAF0B4C0CBF00001CA5127
:1037F800010B346E000EB46F010EB36F380EF66E07
:10380800780EF76E0800F550500943EC13F0B3C07A
:10381800CAF0B4C0CBF00001CA51010B396E000EDA
:10382800B46F020EB36F390EF66E780EF76E08009D
:10383800F550500943EC13F0B3C0CAF0B4C0CBF054
:103848000001CA511F0B3A6E1200000E306E8E0E28
:103858002F6E00018BAF11D08B1F8A1F891F886DB7
:10386800000E89238A238B23010E306E06D0D89050
:103878008B338A33893388332F2A000E88158C6F4F
:10388800000E89158D6F000E8A158E6FFF0E8B1531
:103898008F6F8C518D118E118F11D8A4E8D788C0E5
:1038A80018F089C019F08AC01AF02FC01BF030C078
:1038B8001CF09CEC19F018C088F019C089F01AC0E7
:1038C8008AF012000001E36F21D061EC06F01200CB
:1038D80017EC1EF0120050C177F051C178F040EC9F
:1038E8001AF01200E5EC18F0120050C177F051C13F
:1038F80078F047EC1EF0120050C177F051C178F013
:10390800E6EC1DF01200A2EC1CF012000001E351DD
:10391800110AD8B4F1D7090AD8B4D7D7040AD8B449
:10392800D7D73D0AD8B4DED7050AD8B4D4D7010A08
:10393800D8B4DBD7030AD8A41200E5D73450216ED7
:10394800226A236A246A370EF66E780EF76E08002C
:10395800F5505009256E000E276E010E266E3CECC0
:1039680021F03950216E226A236A246A380EF66ED5
:10397800780EF76E0800F5505009256E000E276E78
:10398800010E266E3CEC21F03A50216E226A236A21
:10399800246A390EF66E780EF76E0800F550500955
:1039A800256E000E276E020E266E3CEC21F01200EA
:1039B800000E1E6E000E1D6E1AD01D5019241B6EAF
:1039C8001E501A201C6E1BC0F6FF1CC0F7FFF86AB9
:1039D800050EF76403D00800F55005D0F6CFE9FFCF
:1039E800F7CFEAFFEF5000EC21F01D4A1E2A1D50C8
:1039F80019241B6E1E501A201C6E1BC0F6FF1CC01B
:103A0800F7FFF86A050EF76403D00800F55005D0F3
:103A1800F6CFE9FFF7CFEAFFEF500009D8B412005C
:103A2800CCD7000E1D6E19AE06D0186C191ED8B072
:103A3800192A010E1D6E1BAE04D01A6C1B1ED8B0BD
:103A48001B2A1A501B10D8B418D0010E1C6E04D0B3
:103A5800D8901A361B361C2A1BAEFAD71A50185C97
:103A68001B501958D8A004D01A50185E1B50195A68
:103A7800D8901B321A321C2EF1D71D50D8B404D05E
:103A8800186C191ED8B0192A18C018F019C019F0E6
:103A980012000001B751B811B911BA11D8B424D025
:103AA800010EBB6F06D0D890B737B837B937BA37D9
:103AB800BB2BBAAFF8D7B751B35DB851B459B951A8
:103AC800B559BA51B659D8A008D0B751B35FB85153
:103AD800B45BB951B55BBA51B65BD890BA33B93358
:103AE800B833B733BB2FE7D7B3C0B3F0B4C0B4F023
:103AF800B5C0B5F0B6C0B6F01200BAC187F13FC084
:103B080020F040C021F061EC22F020C08DF121C0EE
:103B18008EF122C08FF1000E83BC010E0101906F5F
:103B2800BAC120F0BBC121F0BCC122F0BDC123F055
:103B380003EC1FF020C091F121C092F122C093F153
:103B4800CCC194F1000E81B6010E0101986F040EEC
:103B58009A6FD20E996F000E8A6F070E896F120046
:103B680021EC23F0E4EC22F05CEC16F0E8EC1BF01E
:103B7800030EA6EC1EF0E9EC07F00101DB05D8A462
:103B880006D057EC20F0000E0101DB6FF4D7D90501
:103B9800D8A406D0CDEC22F0000E0101D96FEBD7E6
:103BA800D805D8A406D047EC10F0000E0101D86F54
:103BB800E2D7DA05D8A4DFD7D705D8A4DCD74CECF0
:103BC8000DF0D9D7000E0001796F000E7A6F000E44
:103BD8007B6F000E7C6F77C066F078C067F08BEC67
:103BE8001AF066C079F067C07AF068C07BF069C0E7
:103BF8007CF0000179517A117B117C11D8A403D093
:103C0800000E396E120079057A117B117C11D8A447
:103C180003D0010E396E1200D00E196E7F0E1A6E87
:103C2800DCEC1CF01200000E1A6E000E196E1ABEA3
:103C380006D01A5027E10A0E195CD8B012008B8002
:103C4800820E186EDE0EE82EFED7182EFCD78A8854
:103C5800820E186EDE0EE82EFED7182EFCD78B903B
:103C6800820E186EDE0EE82EFED7182EFCD78A9824
:103C7800820E186EDE0EE82EFED7182EFCD7194AD3
:103C88001A2AD5D71200000E0001796F000E7A6F3C
:103C9800000E7B6F000E7C6F77C066F078C067F00F
:103CA8008BEC1AF066C079F067C07AF068C07BF0D8
:103CB80069C07CF0000179517A117B117C11D8A47C
:103CC80008D07C517B117A1107E1150E795DD8B0C7
:103CD80003D079C03AF01200D00E196E7F0E1A6E1A
:103CE800DCEC1CF01200BEC19DF13FC020F040C0CA
:103CF80021F061EC22F020C0A3F121C0A4F122C080
:103D0800A5F1000E83BC010E0101A66FBEC120F013
:103D1800BFC121F0C0C122F0C1C123F003EC1FF0E4
:103D280020C0A7F121C0A8F122C0A9F1CCC1AAF1F5
:103D3800000E81B6010E0101AE6F040EB06FD20EF7
:103D4800AF6F12001B6E000E1D6E000E1C6E1B5016
:103D5800186E196A18501C5C1D50800A1A6E19508A
:103D6800800A1A58D8B012008B90020E196E040EF1
:103D7800186EBA0EE82EFED7182EFCD7192EFAD7D1
:103D880000D08B80020E196E040E186EBA0EE82E43
:103D9800FED7182EFCD7192EFAD700D01C4A1D2A98
:103DA800D6D71FD018501200195012001A501200FE
:103DB800000E18141D6E000E19141E6E000E1A1433
:103DC8001F6EFF0E1B14206E190E05D0D8902032DE
:103DD8001F321E321D32E82EF9D71D501200000E78
:103DE80012001C50000AD8B4DDD7010AD8B4DCD7B9
:103DF800030AD8B4DBD7010AD8B4DAD7F0D78E0EC5
:103E0800286E06D0D8902332223221322032282A36
:103E1800000E2014246E000E2114256E000E2214AC
:103E2800266EFF0E2314276E245025102610271007
:103E3800D8A4E8D720C018F021C019F022C01AF081
:103E480028C01BF0000E1C6E9CEC19F018C020F066
:103E580019C021F01AC022F01200000E216E000EC7
:103E6800206E21BE06D0215023E1210E205CD8B05F
:103E78001200010E20241E6E000E21201F6E1E1E31
:103E88001F1E1E4A1F2A200E1E26000E1F221E500D
:103E98001824D96E1F501920DA6E1A50010BDF6EE4
:103EA800D8901D321C321B321A32204A212AD9D707
:103EB80012001C6E080E1B6E1AD0010E186E1C50D4
:103EC800B4EC1FF01AAE06D0010E186E1C5089EC27
:103ED8001FF005D0000E186E1C5089EC1FF0000E64
:103EE800186E1C50B4EC1FF01B06D8901A361B50E5
:103EF800D8A4E3D7000E186E1C5089EC1FF0000EF2
:103F0800186E1C50B4EC1FF01200196E1ED0180465
:103F1800D8A402D08C8012001850D8A412008C901B
:103F280012001804D8A402D08B8A12001850D8A402
:103F380012008B9A12001804D8A402D089881200A3
:103F48001850D8A41200899812001950000AD8B441
:103F5800DED7010AD8B4E5D7030AD8A41200EBD7F4
:103F6800196E1ED01804D8A402D08B8612001850DF
:103F7800D8A412008B9612001804D8A402D08B88FB
:103F880012001850D8A412008B9812001804D8A454
:103F980002D0898612001850D8A4120089961200FF
:103FA8001950000AD8B4DED7010AD8B4E5D7030AF5
:103FB800D8A41200EBD7000E226E000E236E000E5E
:103FC800246E000E256E1AA008D01E5022261F50FF
:103FD80023222050242221502522D8901E361F3615
:103FE80020362136D8901D321C321B321A321A5014
:103FF8001B101C101D10D8A4E6D722C01AF023C02D
:104008001BF024C01CF025C01DF01200360EF66E01
:10401800460EF76E000EF86E01EEDCF010EE0CF0B6
:104028000900F5CFEEFFE550E150FAE102EE00F0AD
:10403800B60EEE6AE806FDE101EE87F0550EEE6A6F
:10404800E806FDE100EE31F0150EEE6AE806FDE146
:1040580048904892000EF86E0001B4EF1DF0000E73
:104068008D6E400E8C6E060E896E000E8A6E000EE6
:104078008B6E070E966EE10E926EEE0E936E800EAC
:10408800946EB20E956E300E0F013A6F320E396F84
:10409800A40E3B6F070E3C6F2F0E386FC20E616E79
:1040A800F18EF2861200010E0101B227000EB32331
:1040B800B423B523B2C1B3F0B3C1B4F0B4C1B5F001
:1040C800B5C1B6F0800E0001B76F430EB86F000E91
:1040D800B96F000EBA6F4DEC1DF0B3C0B2F1B4C0A9
:1040E800B3F1B5C0B4F1B6C0B5F11200000E0101CC
:1040F800D36F000ED26F000ECE6F000ED16F000E80
:10410800D06F000ECF6FA20E206E020E216E000E31
:10411800236E140E226EA3EC22F08E0E206E020E79
:10412800216E000E236E140E226EA3EC22F01200F4
:10413800000E1A6E000E196E0101D551D8A402D0D6
:10414800195012004150010D460EF324D96E020E8B
:10415800F420DA6EDF50186E1850196E1A6A412A68
:10416800270E416402D0000E416E9D9AD5079D8AA4
:104178001950120000018B518C118D11D8B406D042
:10418800000E8B1B000E8C1B800E8D1B88C07CF0D4
:1041980089C07DF08AC07EF08BC07FF08CC080F033
:1041A8008DC081F075EC0CF07CC088F07DC089F082
:1041B8007EC08AF0120003500410D8B418D0010E43
:1041C800056E04D0D89003360436052A04AEFAD713
:1041D8000350015C04500258D8A004D00350015E7B
:1041E8000450025AD89004320332052EF1D701C088
:1041F80001F002C002F01200186E0101EA51D8B4B1
:10420800FCD79DB803D018C0ADFF12D09D9844507C
:10421800010D000EF324D96E020EF420DA6E18C0D8
:10422800DFFF442A450E446402D0000E446EEA07BC
:104238009D881200196E14D01804D8A402D08B845B
:1042480012001850D8A412008B9412001804D8A495
:1042580002D08C8612001850D8A412008C96120036
:104268001950000AD8B4E8D7010AD8A41200EED72A
:1042780026C029F015D021C018F022C019F023C09B
:104288001AF024C01BF029041C6ED5EC1EF0286E11
:1042980028C01BF029500008252414EC23F0290617
:1042A8002950D8B41200E7D7000E236E21AE06D0ED
:1042B800206C211ED8B0212A010E236E20C018F0D0
:1042C80021C019F01A6A8E0E1B6E23C01CF09CECDC
:1042D80019F018C020F019C021F01AC022F01200FD
:1042E800460E0101EA6112D04350010D000EF3247D
:1042F800D96E020EF420DA6EDF50AD6E432A450EF9
:10430800436402D0000E436EEA2B12009D98000E03
:10431800436E000E446E12009D9A9D98080EB86E6A
:10432800900EAB6E240EAC6E100EAF6E000EB06E1B
:10433800000E446E000E436E460E0101EA6F000E39
:10434800426E000E416E000ED56F9D8A1200196EE6
:10435800000EF2BE010E1A6E19C0A9FF18C0A8FF00
:10436800A69EA69CA684F29E550EA76EAA0EA76EC0
:10437800A682A6B2FED7A6941AB002D0F29E01D0A9
:10438800F28E12003C0ED76EAF0ED66ED650D7CF37
:104398001AF01B6A1AC01BF01A6A1A10466E1B50D4
:1043A800476EF294F28A000E186E000E196E26EC13
:1043B80023F0900ED56E1200ABA202D0AB98AB885A
:1043C800AECFADFF4250010D460EF324D96E020E5A
:1043D800F420DA6EAECFDFFF422A270E426402D005
:1043E800000E426E0101D52B12001C6E1CC01AF083
:1043F8001A461A46C2501A18830B1A18C26EC2807F
:10440800C282C2B2FED7C4501B6E1A6AC3501A24A5
:10441800186E000E1B20196E120018C01EF019C06D
:104428001FF008D01EC0D9FF1FC0DAFF1AC0DFFF77
:104438001E4A1F2A1C06D8A01D061C28F3E11D28A9
:10444800D8B41200EFD71D6E010E1C6E7B0E1D60D6
:1044580003D0610E1D6007D01D5094EC22F0D8B037
:1044680002D0000E1C6E1CC01BF01B3012001A6E0E
:10447800010E196E200E1A18D8B408D00E0E1A6044
:1044880003D0090E1A6002D0000E196E19C018F078
:104498001830120026502802F3CF2AF0F4CF2BF060
:1044A80026502902F3502B2627502802F3502B269A
:1044B8002AC026F02BC027F0120020C018F021C017
:1044C80019F01A6A8E0E1B6E000E1C6E9CEC19F009
:1044D80018C020F019C021F01AC022F0120018509C
:1044E80019101A10D8B406D0000E181A000E191A8E
:1044F800800E1A1A18C018F019C019F01AC01AF04C
:1045080012001A6E000E196E3A0E1A6005D02F0EA0
:104518001A6402D0010E196E19C018F01830120072
:104528001A6E000E196E5B0E1A6005D0400E1A64E2
:1045380002D0010E196E19C018F01830120020C0F0
:1045480018F021C019F0000E1B6E000E1A6E22C062
:104558001CF023C01DF011EC22F01200186E04D0DC
:1045680089941200898412001850000AD8B4F8D728
:10457800010AD8A41200F6D733EC23F033EC20F06C
:104588000DEC23F0D9EC22F0C6EC21F090EC21F0F0
:1045980012008BB003D0186A182A01D0186A8B5001
:1045A8001818FE0B18188B6E1200050EC26E000E3E
:1045B800C16E870EC06E000EC36E000EC46E120070
:1045C80030EC23F035EC23F03BEC23F003EC23F044
:1045D800CFEC16F01200186E7B0E186004D0600E37
:1045E800186401D0189A18501200186E18C0A9FF44
:1045F800A69CA69EA68000F000F0A8501200000E0F
:104608000101B26F000EB36F000EB46F000EB56FEC
:104618001200600ED36E040ED26E000E9B6E120056
:104628001C6E1BC018F01C50ABEC21F01200AC271C
:104638003624CC38000000000000C0EC22F0F28ED6
:10464800F28C120018C0E8F119C0E9F11200196ED5
:104658001950F9EC22F01200000E456E1200D09E9F
:104668001200D58E1200F2901200A19812001200CA
:10774800001C0401000B306100BA26C000C9FC19F6
:107758001A28042D10E700001276600535250080F0
:1077680000848B00320300000032000800A1AAAA9E
:1077780001DA0E03001C0401000B3061003A32C02C
:1077880000C9BC212228042D10E700001276200130
:107798003525008000849B0034030000001200009F
:1077A800000100000640032000010000000A00005C
:1077B8000064000000E803000010270000A0860114
:1077C8000040420F008096980000E1F50500CA9A33
:1077D8003B00803F00204100C842007A44401C46DC
:1077E80050C34724744997184BBCBE4C6B6E4E036C
:1077F800155079AD60F3497100803FCDCC3DD7235A
:107808003C12833AB7D138C62737388635C0D633C5
:10781800CC2B32708930E7DB2EE53C1E42A20D44AA
:1078280023446344A344E30204060804060507004E
:10783800010200803F72313FFE753E58633D951D41
:107848003CC5AE3A79213994803793A7355615341B
:1078580000000000803FF0FFBEE2A93E8376BEAE86
:107868002B3E3CC3BDD2133D78D3BB24524350209A
:107878003C583E3C63723E202020202053657420F3
:10788800436F6D7072657373696F6E206F70657288
:107898006174696F6E206D6F646520617420525841
:1078A8002073797374656D3A204175746F6D6174D6
:1078B80069635B315D204D616E75616C5B305D2085
:1078C8005B44656661756C74203D20305D0D0A006F
:1078D80024524352203C583E3C63723E20202020D4
:1078E8002053657420436F6D7072657373696F6E92
:1078F8002072616E67652061742052582073797315
:1079080074656D2E2048696768205B315D204C6F77
:1079180077205B305D205B44656661756C74203D43
:1079280020305D0D0A00245341203C583E3C6372D0
:107938003E20202020205365742055415254206158
:1079480075746F6D61746963206F706572617469B5
:107958006F6E3A204175746F6D617469635B315D58
:10796800204D616E75616C5B305D205B44656661BE
:10797800756C74203D20305D0D0A00245458203C5D
:10798800583E3C63723E2020202020205475726EA1
:10799800206F6E5B315D202F206F66665B305D2047
:1079A8007472616E736D697373696F6E2061742090
:1079B80054582073797374656D205B4465666175EE
:1079C8006C74203D20305D0D0A00245442203C5840
:1079D8003E3C63723E2020202020205475726E2089
:1079E8006F6E5B315D202F206F66665B305D2042D5
:1079F8004954206D6F646520617420545820737950
:107A08007374656D205B44656661756C74203D20F8
:107A1800305D0D0A00245249203C585858583E3CC5
:107A280063723E202020496E697420525820737971
:107A38007374656D20616E64207365742066726569
:107A48007175656E637920617420585858582028DC
:107A5800302D39393939295B4D487A5D0D0A0024B2
:107A68005444203C444143204E554D3E3C44414300
:107A78002056414C55453E3C63723E202020202034
:107A88002020202053657420545820444143203C32
:107A9800302D333E203C302D567265665B342064B1
:107AA80069675D3E200D0A00245449203C58585807
:107AB800583E3C63723E202020496E697420545819
:107AC8002073797374656D20616E6420736574200A
:107AD8006672657175656E63792028302D3939397C
:107AE80039295B4D487A5D0D0A00245242203C58E2
:107AF8003E3C63723E2020202020205475726E2068
:107B08006F6E5B315D202F206F66665B305D2042B3
:107B18004954206D6F646520617420525820737930
:107B28007374656D2E0D0A00245446203C5858582D
:107B3800583E3C63723E20202053657420545820E0
:107B480073797374656D206672657175656E637996
:107B58002061742028302D39393939295B4D487A0C
:107B68005D2E0D0A00245258203C583E3C63723E5C
:107B78002020202020205475726E206F6E5B315DAE
:107B8800202F206F66665B305D20726563656976BD
:107B9800652061742052582073797374656D2E0DB9
:107BA8000A0052582053594E54482028504C4C290A
:107BB800204C6F636B20696E6469636174696F6ED2
:107BC80020303A206E6F74206C6F636B65642031CF
:107BD8003A206C6F636B656425640A0D0024535565
:107BE800203C58583E3C63723E2020202053657448
:107BF800205541525420726566726573682072611F
:107C080074652028312D3230295B487A5D2E0D0AA3
:107C180000245356203C63723E2020202020202040
:107C28002020536176652053797374656D207374D1
:107C38006174757320546F20454550524F4D200D87
:107C48000A00245348203C63723E20202020202034
:107C58002020205072696E742073797374656D20CA
:107C680068656C70206D6573736167652E0D0A0019
:107C7800245451203C63723E2020202020202020C4
:107C880020476574207374617475732066726F6D14
:107C98002054582073797374656D2E0D0A00245290
:107CA80051203C63723E20202020202020202047A5
:107CB8006574207374617475732066726F6D2052D9
:107CC800582073797374656D0D0A00245351203C54
:107CD80063723E20202020202020202052656164ED
:107CE8002053797374656D20537461747573200D16
:107CF8000A00245351203C583E3C63723E20202009
:107D08002020204765742073797374656D2073741F
:107D1800617475732E0D0A0024534C203C63723E27
:107D2800202020202020202020546573742073797F
:107D38007374656D204C4544732E0D0A0054582009
:107D480053594E54482028504C4C29204C6F636B93
:107D580020696E6469636174696F6E2025640A0D19
:107D680000496E70757420706F7765722073746146
:107D780074757320303A204F464620313A204F4ED2
:107D880025640A0D00245354203C63723E202020B1
:107D980020202020202053657420556E69742054BB
:107DA800797065200D0A0052582053414D504C45BA
:107DB800204348414E4E454C2052582D4144435F84
:107DC80056475F4D4F4E0A0D0054582053414D50B1
:107DD8004C45204348414E4E454C3A2054582D417D
:107DE80044435F525245560A0D0052582053414DA4
:107DF800504C45204348414E4E454C2052582D4149
:107E080044435F464657520A0D002A2A2A2A2A2A3C
:107E18002A2A2A2A2A2A2A2A2A2A2A2A2A2A2A2ABA
:107E28002A2A2A2A2A200A0D000A0D3C436F6D6D62
:107E38006F6E2073797374656D20636F6D6D616EFD
:107E480064733E0A0D0054582053414D504C452050
:107E58004348414E4E454C204144435F54454D50A4
:107E68000A0D000A0D3C52582073797374656D2011
:107E7800636F6D6D616E64733E0A0D0044657669CB
:107E880063652054656D706572617475726520252F
:107E9800660A0D005258204672657175656E6379E1
:107EA80020696E204D487A25660A0D0054582046F0
:107EB80072657175656E637920696E204D487A2503
:107EC800660A0D003C54582073797374656D2063FD
:107ED8006F6D6D616E64733E0A0D004C696768745E
:107EE80020303A204F464620313A204F4E25640A2A
:107EF8000D002A2A2A2A2A2A2A2A2A2A2A2A2A2A21
:107F08002A2A2A2A2A0A0D00534F46545741524515
:107F18002056455253494F4E2025730A0D004641BD
:107F28005354204C494E4B2053595354454D200A25
:107F38000D00436F6D70696C652074696D653A203A
:107F48002573200A0D00436F6D70696C65206461AC
:107F580074653A202573200A0D005357205645535F
:107F680052494F4E3A202573200A0D005041535371
:107F780020434F554E5445522025640A0D00554E56
:107F8800495420545950452025640A0D00554E493E
:107F9800542044432025640A0D00554E4954204975
:107FA800442025640A0D004D617220323920323098
:107FB8003138004E4F54204F2E4B200A0D0052539B
:107FC80053492025640A0D004E4F54204F4B200A78
:107FD8000D0031333A33383A3034000A0D204F4B14
:107FE800200A0D00286E756C6C2900315F30303224
:077FF80000256420090000D0
:020000040020DA
:08000000FFFFFFFFFFFFFFFF00
:020000040030CA
:0E000000FF281F3CFFBF85FF0FC00FE00F4021
:00000001FF
