:040000006EEF00F0AF
:100008004882FACF06F0FBCF07F0E9CF08F0EACF35
:1000180009F0E1CF0AF0E2CF0BF0D9CF0CF0DACF3C
:100028000DF0F3CF0EF0F4CF0FF0F6CF10F0F7CFBE
:1000380011F0F8CF12F0F5CF13F048C014F049C012
:1000480015F04AC016F04BC017F0F2B6F2A003D074
:100058005EEC15F019D0F2BAF2A403D0FCEC0DF066
:1000680013D0F2AC11D0A0B8A1A803D060EC15F061
:100078000BD09DB89EA803D0B6EC13F005D09DBA5E
:100088009EAA02D007EC14F017C04BF016C04AF035
:1000980015C049F014C048F013C0F5FF12C0F8FFAE
:1000A80011C0F7FF10C0F6FF0FC0F4FF0EC0F3FF3A
:1000B8000DC0DAFF0CC0D9FF0BC0E2FF0AC0E1FF98
:1000C80009C0EAFF08C0E9FF07C0FBFF06C0FAFF46
:1000D8004892110053EF0FF0000E0201346F57D110
:1000E80059EC12F0010E0001C06F12007BEC12F007
:1000F8000201346F240E3419D8A41200020E000134
:10010800C06F1200C151D8B412007BEC12F002018A
:10011800346F3451D8B412000D0E3419D8A404D059
:10012800030E0001C06F1200200E02013419D8B46A
:1001380012000001BA51010DC20EF324D96E010E4E
:10014800F420DA6E34C2DFFFBA2B12000101C2516B
:1001580028EC15F00201346F26D0000E0001BF6FA5
:10016800040EC06F1200010E0001BF6F040EC06FB5
:100178001200020E0001BF6F040EC06F1200000EC5
:10018800246E020E256EC60E266E7F0E276EFBECC1
:1001980004F0000E196E020E1A6E8CEC0FF0000EB1
:1001A8000001C06F120002013451520AD8B4D5D7E9
:1001B800010AD8B4DED7070AD8B4D5D7E0D70101E9
:1001C800C35128EC15F00201346F72D0490E0201B8
:1001D8003419D8B418D0460E3419D8B414D0510EE6
:1001E8003419D8B410D0580E3419D8B40CD0430EE2
:1001F8003419D8B408D0530E3419D8B404D0430EE7
:100208003419D8A407D03451D00F0001BE6F050EA1
:10021800C06F1200D10E196E7F0E1A6E8CEC0FF0A3
:10022800000E0001C06F1200490E02013419D8B443
:1002380014D0460E3419D8B410D0510E3419D8B48D
:100248000CD0580E3419D8B408D0420E3419D8B48A
:1002580004D0530E3419D8A407D03451D00F00015C
:10026800BE6F050EC06F1200D10E196E7F0E1A6E8A
:100278008CEC0FF0000E0001C06F1200480E020156
:100288003419D8B404D04C0E3419D8A407D034513A
:10029800D00F0001BE6F050EC06F1200D10E196E8F
:1002A8007F0E1A6E8CEC0FF0000E0001C06F12006A
:1002B8000001BF51000AD8B489D7010AD8B4B4D70D
:1002C800030AD8A41200DAD7BA51FE0FBD6FBDC019
:1002D800AEF1BD51D8A403D0080EC06F1200060EAF
:1002E800C06F1200000E0201336F010E326F1BD077
:1002F800010E0201322500019E6F000E020133211A
:1003080000019F6FC20E9E25D96E010E9F21DA6EE5
:10031800AE0E02013225E16E010E3321E26EDFCF0F
:10032800E7FF324B332B0001BD519E6F9F6B010ECF
:100338009E27000E9F239E510201325D3351800A91
:100348000001A06F9F51800AA059D8A0D1D7080EEC
:10035800C06F1200BF51020DC70EF324D96E000EF4
:10036800F420DA6E01D80FD00500FA6EDE50FD6E6B
:10037800DE50FE6EF850FF6EFA50AE0E9B6F010E07
:100388009C6FBE511200000E0001C06F12000001E8
:10039800C051000AD8B4A4D6010AD8B4A7D6030A13
:1003A800D8B4B0D6010AD8B4D1D6070AD8B407D77A
:1003B800010AD8B489D7030AD8B494D70E0AD8A4A6
:1003C8001200C8D7690E246E000E256E410E266EE7
:1003D8007F0E276EFBEC04F0690E196E000E1A6E84
:1003E8008CEC0FF0690E246E000E256EE90E266E59
:1003F8007C0E276EFBEC04F0690E196E000E1A6E67
:100408008CEC0FF0690E246E000E256E690E266EB8
:100418007D0E276EFBEC04F0690E196E000E1A6E45
:100428008CEC0FF0690E246E000E256E460E266EBB
:100438007E0E276EFBEC04F0690E196E000E1A6E24
:100448008CEC0FF0690E246E000E256E540E266E8D
:100458007C0E276EFBEC04F0690E196E000E1A6E06
:100468008CEC0FF0690E246E000E256E050E266EBC
:100478007C0E276EFBEC04F0690E196E000E1A6EE6
:100488008CEC0FF0690E246E000E256E280E266E79
:100498007F0E276EFBEC04F0690E196E000E1A6EC3
:1004A8008CEC0FF0690E246E000E256E9F0E266EE2
:1004B8007C0E276EFBEC04F0690E196E000E1A6EA6
:1004C8008CEC0FF0690E246E000E256E740E266EED
:1004D8007E0E276EFBEC04F0690E196E000E1A6E84
:1004E8008CEC0FF0690E246E000E256E2B0E266E16
:1004F8007D0E276EFBEC04F0690E196E000E1A6E65
:100508008CEC0FF0690E246E000E256EA60E266E7A
:100518007D0E276EFBEC04F0690E196E000E1A6E44
:100528008CEC0FF0690E246E000E256E590E266EA7
:100538007B0E276EFBEC04F0690E196E000E1A6E26
:100548008CEC0FF0690E246E000E256EF40E266EEC
:100558007A0E276EFBEC04F0690E196E000E1A6E07
:100568008CEC0FF0690E246E000E256E0B0E266EB5
:100578007F0E276EFBEC04F0690E196E000E1A6EE2
:100588008CEC0FF0690E246E000E256E180E266E88
:100598007E0E276EFBEC04F0690E196E000E1A6EC3
:1005A8008CEC0FF0690E246E000E256EE30E266E9D
:1005B8007D0E276EFBEC04F0690E196E000E1A6EA4
:1005C8008CEC0FF0690E246E000E256EAF0E266EB1
:1005D8007B0E276EFBEC04F0690E196E000E1A6E86
:1005E8008CEC0FF0690E246E000E256EA10E266E9F
:1005F8007E0E276EFBEC04F0690E196E000E1A6E63
:100608008CEC0FF0690E246E000E256EC70E266E58
:100618007E0E276EFBEC04F0690E196E000E1A6E42
:100628008CEC0FF012000001915192119311D8A493
:1006380007D0000E916F800E926F3F0E936F1200DD
:10064800720E186E310E196E440E1A6E91C01BF0A0
:1006580092C01CF093C01DF08DEC0EF0D8B00CD0F9
:10066800000E0001B26F220EB16FFF0E916F7F0E68
:10067800926F7F0E936F120091C018F092C019F01C
:1006880093C01AF0490E1B6E3A0E1C6EC40E1D6EF6
:100698008DEC0EF0D8B00CD0000E0001B26F220E17
:1006A800B16F000E916F000E926F000E936F1200E3
:1006B800000193AF02D0010E01D0000E996F99513D
:1006C800D8B40ED091C018F092C019F093C01AF0A7
:1006D8009AEC14F018C091F019C092F01AC093F077
:1006E80091C066F092C067F093C068F0AA0E00014E
:1006F800696FB80E6A6F3F0E6B6F64EC0AF066C0E4
:1007080091F067C092F068C093F091C089F092C0F0
:100718008AF093C08BF053EC0BF089C094F08AC038
:1007280095F08BC096F094C072F095C073F096C0A7
:1007380074F0E8EC09F072C097F073C098F091C0BB
:100748007EF092C07FF093C080F097C020F098C0F0
:1007580021F09AEC13F020C081F021C082F022C071
:1007680083F0E0EC12F07EC091F07FC092F080C080
:1007780093F091C07EF092C07FF093C080F0BB0EE2
:100788000001816F7A0E826F000E846F090E836FED
:1007980031EC0CF07EC088F07FC089F080C08AF010
:1007A80097C08BF098C08CF09CEC0CF088C091F04E
:1007B80089C092F08AC093F000019951D8B425D02D
:1007C80091290EE17F0E92190BE17F0E9319D8A49F
:1007D80007D0000E916F000E926F000E936F1200FB
:1007E800000E236E800E246E3F0E256E91C026F0FB
:1007F80092C027F093C028F0DFEC0AF023C091F0F4
:1008080024C092F025C093F0120091C091F092C0DC
:1008180092F093C093F0120024C0D9FF25C0DAFFEC
:10082800DF500001656F244A252A655162EC14F0F7
:10083800D8B0F2D7000E0001616F000E626F000E93
:10084800636F000E646F000E606F2D0E6519D8A4DB
:1008580003D0010E606F04D02B0E6519D8A408D000
:1008680024C0D9FF25C0DAFFDF50656F244A252A46
:10087800300E6519D8A42ED024C0D9FF25C0DAFFC0
:10088800DF50656F244A252A28502910D8B405D08E
:10089800100E28182910D8A415D0780E6519D8B4C8
:1008A80004D0580E6519D8A40DD0000E296E100E6C
:1008B800286E24C0D9FF25C0DAFFDF50656F244AAF
:1008C800252A08D028502910D8A404D0000E296E53
:1008D800080E286E28502910D8A404D0000E296EBE
:1008E8000A0E286E65514EEC14F0D8A008D000010D
:1008F800655128EC15F0C90F0001656F09D000019A
:100908006551BEEC14F0D8A039D0300E0001655FF7
:1009180065512A6E2B6A28502A5C2B50800A2C6E4F
:100928002950800A2C58D8B029D028C018F029C0DE
:1009380019F0000E19BEFF0E1A6E1B6E61C01CF076
:1009480062C01DF063C01EF064C01FF040EC11F0DF
:10095800000165511824616F000E1920626F000EA6
:100968001A20636F000E1B20646F24C0D9FF25C0B6
:10097800DAFFDF50656F244A252AB4D7265027109E
:10098800D8B40ED0FF0E24242A6EFF0E25202B6E1D
:1009980026C0D9FF27C0DAFF2AC0DEFF2BC0DDFF43
:1009A80000016051D8B41AD061C02AF062C02BF09F
:1009B80063C02CF064C02DF02A1E2B1E2C1E2D1E89
:1009C8002A2A000E2B222C222D222AC024F02BC0EA
:1009D80025F02CC026F02DC027F0120061C024F0AD
:1009E80062C025F063C026F064C027F01200280E0C
:1009F8000001626F000E636FC0D0250E6819D8B46D
:100A080009D024C0D9FF25C0DAFF68C0DFFF244A17
:100A1800252AB3D0000E606F2ED062C0D9FF63C004
:100A2800DAFFDECF64F0DDCF65F0020E6227000E3C
:100A3800632364516511D8A414D0ED0E646F7F0E42
:100A4800656F0FD064C0F6FF65C0F7FF24C0D9FFFB
:100A580025C0DAFF0800F5CFDFFF644B652B244A79
:100A6800252A64C0F6FF65C0F7FF0800F5500009A5
:100A7800D8B483D0E7D726C0F6FF27C0F7FF264AA9
:100A8800272A0800F5CF68F06851000AD8B481D049
:100A9800640AD8B407D00D0AD8B404D01A0AD8B456
:100AA800BCD76BD062C0D9FF63C0DAFFDECF66F077
:100AB800DDCF67F0020E6227000E632367AF06D012
:100AC800030E6013666D671FD8B0672B010E686F41
:100AD800050E6819D8B412D06851020DAD0EF32472
:100AE800F66E7A0EF420F76E0900F550665D09007F
:100AF800F5506759D8A002D0682BEAD760C02AF011
:100B0800030E2A16D8B408D024C0D9FF25C0DAFFAE
:100B18002D0EDF6E244A252A68C061F02AD0615163
:100B2800020DAD0EF324F66E7A0EF420F76E09006E
:100B3800F5CF1AF00A00F5CF1BF066C018F067C0B1
:100B480019F0C1EC11F018C01FF019C020F0000E08
:100B5800226E0A0E216EBFEC12F01F50300F0001FA
:100B6800686F24C0D9FF25C0DAFF68C0DFFF244AB8
:100B7800252A61076129D8A4D2D726C0F6FF27C045
:100B8800F7FF264A272A0800F5CF68F06851D8A44D
:100B980034D724C0D9FF25C0DAFF000EDF6E12005B
:100BA80074C078F00001796B7A6B7335783701E39C
:100BB800798178517D6F77C078F0796B7A6B76356B
:100BC800783701E3798178517C6F7D51D8B40BD0A7
:100BD8007C517D5DD8B00ED07D5100087C25786FA2
:100BE800180E786507D075C072F076C073F077C0BC
:100BF80074F012007C51D8B40BD07D517C5DD8B014
:100C08000ED07C5100087D25786F180E786507D0C6
:100C180072C072F073C073F074C074F01200060EE4
:100C28007B6F74BF7B8F77BF7B8D738FFF0E7217BF
:100C3800FF0E7317000E7417768FFF0E7517FF0ED1
:100C48007617000E77177C517D5DD8B01BD0D890F1
:100C58007537763777377C077D517C19D8B40DD036
:100C68007B077BC078F0070E7817D8B406D0EFD78B
:100C7800D8907433733372337D2B7C517D19D8B47B
:100C88001FD0F6D77D517C5DD8B01AD0D890723776
:100C9800733774377D077D517C19D8B40DD07B0725
:100CA8007BC078F0070E7817D8B406D0EFD7D89065
:100CB8007733763375337C2B7C517D19D8A4F7D7DD
:100CC8007BAF0CD0FF0E721BFF0E731BFF0E741B45
:100CD800010E7227000E7323000E74237BAD0CD017
:100CE800FF0E751BFF0E761BFF0E771B010E752777
:100CF800000E7623000E7723000E7B6F7251752746
:100D0800735176237451772377AF0ED0FF0E751B7E
:100D1800FF0E761BFF0E771B010E7527000E76233C
:100D2800000E7723010E7B6F75C018F076C019F09E
:100D380077C01AF07DC01BF07BC01CF05BEC0DF097
:100D480018C072F019C073F01AC074F01200800E47
:100D5800626E010E186E000E5EEC13F0000E2D6E22
:100D6800000E2C6E2DBE06D02D5028E10D0E2C5CE9
:100D7800D8B024D02CC02AF02DC02BF0D8902A3619
:100D88002B36D8902A362B36450E2A24F66E7A0E44
:100D98002B20F76E0900F5CF21F00900F5CF22F0DE
:100DA8000900F5CF23F00A00F5CF24F0030E256ED5
:100DB800000EFFEC0CF02C4A2D2AD4D7010E186E29
:100DC800010E5EEC13F0000E2F6E000E2E6E2FBE7D
:100DD80006D02F5028E10D0E2E5CD8B024D02EC09E
:100DE8002AF02FC02BF0D8902A362B36D8902A36E6
:100DF8002B36790E2A24F66E7A0E2B20F76E090010
:100E0800F5CF21F00900F5CF22F00900F5CF23F046
:100E18000A00F5CF24F0030E256E010EFFEC0CF04E
:100E28002E4A2F2AD4D7890EF66E7A0EF76E09004D
:100E3800F5CF21F00900F5CF22F00900F5CF23F016
:100E48000A00F5CF24F0030E256E010EFFEC0CF01E
:100E5800810EF66E7A0EF76E0900F5CF21F00900C3
:100E6800F5CF22F00900F5CF23F00A00F5CF24F0E2
:100E7800030E256E010EFFEC0CF07D0EF66E7A0E59
:100E8800F76E0900F5CF21F00900F5CF22F009002F
:100E9800F5CF23F00A00F5CF24F0030E256E010EDE
:100EA800FFEC0CF0790EF66E7A0EF76E0900F5CFAE
:100EB80021F00900F5CF22F00900F5CF23F00A0050
:100EC800F5CF24F0030E256E010EFFEC0CF0120096
:100ED800000E0001A66F9A519B119C11D8A41DD039
:100EE800000E186E000E196E000E1A6E9DC01BF0D3
:100EF8009EC01CF09FC01DF08DEC0EF0D8A005D050
:100F0800000E0001B26F210EB16F000E00019A6F42
:100F1800000E9B6F000E9C6F12009D519E119F1139
:100F2800D8A407D0000E9A6F800E9B6F3F0E9C6F5F
:100F380012009CAF41D09DC072F09EC073F09FC05C
:100F480074F0E8EC09F072C0A7F073C0A8F074C0A0
:100F5800A9F075C0AAF0A7C020F0A8C021F0A9C0C8
:100F680022F0AAC023F08CEC10F000019D5120184B
:100F780007E19E51211804E19F512218D8B40BD0E3
:100F8800000EB26F210EB16F000E9A6F000E9B6FAC
:100F9800000E9C6F1200A751010BA66F9AC018F0A3
:100FA8009BC019F09CC01AF09AEC14F018C09AF083
:100FB80019C09BF01AC09CF09AC088F09BC089F0B9
:100FC8009CC08AF0CBEC08F088C0A0F089C0A1F0E2
:100FD8008AC0A2F0A0C066F0A1C067F0A2C068F005
:100FE8009DC069F09EC06AF09FC06BF064EC0AF087
:100FF80066C0A3F067C0A4F068C0A5F0A3C091F0D4
:10100800A4C092F0A5C093F017EC03F091C09AF039
:1010180092C09BF093C09CF00001A651D8B40FD0A9
:101028009AC018F09BC019F09CC01AF09AEC14F002
:1010380018C09AF019C09BF01AC09CF012009AC010
:101048009AF09BC09BF09CC09CF012000001776F47
:10105800000E0001786F000E796F000E7A6F000E97
:101068007B6F75C0D9FF76C0DAFF300EDE18D8A4C2
:1010780007D0D10E196E7F0E1A6E8CEC0FF012008D
:1010880075C066F076C067F0B2EC0DF066C078F017
:1010980067C079F068C07AF069C07BF00A0E1C6EF0
:1010A800000E1D6E000E1E6E000E1F6E78C018F02A
:1010B80079C019F07AC01AF07BC01BF0D5EC0EF09D
:1010C80018C025F019C026F01AC027F01BC028F058
:1010D800640E296E000E2A6E000E2B6E000E2C6E0A
:1010E800FAEC0FF025C037F026C038F078C025F0AC
:1010F80079C026F07AC027F07BC028F00A0E296E46
:10110800000E2A6E000E2B6E000E2C6EFAEC0FF0FD
:1011180025C0B5F026C0B6F0385004E1050E375C9E
:10112800D8A007D0D10E196E7F0E1A6E8CEC0FF076
:10113800120000017751D8A41CD037503810D8A419
:1011480006D0940E196E7F0E1A6E8CEC0FF0375085
:101158003810D8B404D037043810D8A404D0010EFD
:101168000001C36F06D0D10E196E7F0E1A6E8CEC7B
:101178000FF000017705D8A403D0010EC36F120049
:10118800D10E196E7F0E1A6E8CEC0FF01200000152
:101198008AAF0BD0000EB26F210EB16F000E886FB0
:1011A800000E896F000E8A6F1200885189118A110A
:1011B800D8A40BD0000EB26F220EB16F000E886F4C
:1011C800000E896F000E8A6F1200000E696F000E04
:1011D8006A6F400E6B6F8B0E1B6E000E1C6E88C004
:1011E80018F089C019F08AC01AF045EC0EF018C042
:1011F80066F019C067F01AC068F064EC0AF066C0BF
:1012080072F067C073F068C074F0000E0001756F6B
:10121800800E766FBF0E776FD4EC05F072C088F041
:1012280073C089F074C08AF000018B07D8A08C07BE
:1012380088C07EF089C07FF08AC080F0D90E816FA7
:101248007A0E826F000E846F080E836F31EC0CF0FB
:101258007EC088F07FC089F080C08AF0720E0001DD
:10126800696F310E6A6F3F0E6B6F8BC020F08CC0B8
:1012780021F09AEC13F020C066F021C067F022C07C
:1012880068F064EC0AF066C072F067C073F068C07A
:1012980074F088C075F089C076F08AC077F0D4EC15
:1012A80005F072C088F073C089F074C08AF012002B
:1012B800000E0201386F000E376F0001B507D8A085
:1012C800B607B52903E1B629D8B474D0B70E3724C8
:1012D800F66E7A0E3820F76E0800F55020EC14F000
:1012E80018C035F219C036F2000E00019D6F200EAD
:1012F8009E6F410E9F6F000E9A6F000E9B6F400EFF
:101308009C6F6CEC07F09AC032F29BC033F29CC021
:1013180034F2C00E0001696F500E6A6F450E6B6F94
:1013280032C226F033C227F034C228F035C220F08A
:1013380036C221F0ACEC14F020C023F021C024F018
:1013480022C025F0DFEC0AF023C066F024C067F065
:1013580025C068F064EC0AF066C072F067C073F0EC
:1013680068C074F0E8EC09F072C037F273C038F264
:10137800000E246E020E256EFA0E266E7F0E276E64
:1013880037C228F038C229F0FBEC04F0000E196EC1
:10139800020E1A6E8CEC0FF00B0E0001AC6F260ECD
:1013A800AB6F5D0EE82EFED7AB2FFCD7AC2FFAD76C
:1013B80000D01200000E0001C36FE40E196E7F0EFC
:1013C8001A6E8CEC0FF0120074C076F00001776B87
:1013D800786B7335763701E377817651806F80516A
:1013E800D8A409D0000E726F000E736F000E746FD0
:1013F800000E756F1200170E766F72C077F073C00B
:1014080078F074C079F076297A6F04D0D89079335F
:10141800783377337A2FFAD7000177517B6F738F40
:10142800FF0E7217FF0E7317000E741772517C6F40
:1014380073517D6F74517E6F7F6B8E0E805F80AFAE
:1014480016D08051800A8F0FD8B009D0000E726F65
:10145800000E736F000E746F000E756F1200D89037
:101468007F337E337D337C33803FF9D715D0170E19
:1014780080650FD0000E726F000E736F000E746FD0
:10148800000E756F1200D8907C377D377E377F3716
:1014980080078051D8A4F7D77B51D8B408D07F1FD4
:1014A8007E1F7D1F7C6D000E7D237E237F237CC0E5
:1014B80072F07DC073F07EC074F07FC075F01200CA
:1014C80068C02CF02D6A2E6A000167352C3601E3BE
:1014D8002D802C506C6F6C51D8A407D0000E666F0D
:1014E800000E676F000E686F12006BC02CF02D6A3B
:1014F8002E6A6A352C3601E32D802C50716F71519C
:10150800D8A407D0000E666F000E676F000E686FD4
:10151800120071517B0F6C2768C071F06B51711B01
:10152800800E7117678F6A8FFF0E6917FF0E6A1793
:10153800000E6B17000E6D6F000E6E6F000E6F6F52
:10154800070E706F66A106D069516D276A516E2328
:101558006B516F23D890683367336633D8906937F7
:101568006A376B37702FEED7090E706F66A106D0F9
:1015780069516D276A516E236B516F23D890683378
:1015880067336633D8906F336E336D33702FEED771
:101598006DC018F06EC019F06FC01AF06CC01BF067
:1015A80071C01CF05BEC0DF018C066F019C067F054
:1015B8001AC068F0120025C029F02A6A2B6A243460
:1015C800293601E32A8029500001646F6451D8A4A8
:1015D80007D0000E236E000E246E000E256E12003A
:1015E80028C029F02A6A2B6A2734293601E32A8081
:1015F8002950656F6551D8A407D0000E236E000EE0
:10160800246E000E256E1200000E616F000E626FD0
:10161800000E636F6551890F645F25C065F028501F
:10162800651B800E6517248EFF0E2316FF0E2416E9
:10163800000E2516278EFF0E2616FF0E2716000E03
:101648002816180E606FD8906137623763372650B6
:10165800235C2750245828502558D8A007D0265056
:10166800235E2750245A2850255A6181D890233662
:1016780024362536602FE7D761C018F062C019F00C
:1016880063C01AF064C01BF065C01CF05BEC0DF081
:1016980018C023F019C024F01AC025F0120089C020
:1016A80018F08AC019F08BC01AF08F0E1B6E000E4E
:1016B8001C6E45EC0EF0000190AF10D08BAF07D038
:1016C800000E896F800E8A6FBF0E8B6F1200000E9E
:1016D800896F000E8A6F000E8B6F1200905104E123
:1016E800150E8F5DD8A007D089C089F08AC08AF00E
:1016F8008BC08BF0120089C072F08AC073F08BC067
:1017080074F0E8EC09F072C081F073C082F074C024
:1017180083F075C084F016EC0FF081C08CF082C0A5
:101728008DF083C08EF089C018F08AC019F08BC084
:101738001AF08CC01BF08DC01CF08EC01DF08DEC13
:101748000EF0D8B016D08CC072F08DC073F08EC079
:1017580074F0000E0001756F800E766FBF0E776F04
:10176800D4EC05F072C089F073C08AF074C08BF0B5
:1017780012008CC089F08DC08AF08EC08BF01200E8
:10178800690E246E000E256EEC0E266E7E0E276EF8
:10179800FBEC04F0690E196E000E1A6E8CEC0FF05B
:1017A800690E246E000E256E580E266E7F0E276E6B
:1017B800FBEC04F0690E196E000E1A6E8CEC0FF03B
:1017C800690E246E000E256EA80E266E7F0E276EFB
:1017D800F40E286E7F0E296EFBEC04F0690E196E6C
:1017E800000E1A6E8CEC0FF0690E246E000E256E3A
:1017F800800E266E7F0E276EBA0E286E7F0E296E1B
:10180800FBEC04F0690E196E000E1A6E8CEC0FF0EA
:10181800690E246E000E256E6C0E266E7F0E276EE6
:10182800DB0E286E7F0E296EFBEC04F0690E196E34
:10183800000E1A6E8CEC0FF0690E246E000E256EE9
:10184800EC0E266E7E0E276EFBEC04F0690E196E08
:10185800000E1A6E8CEC0FF0120083C018F084C0D2
:1018680019F0000E1B6E030E1A6E75EC14F081C091
:101878002FF082C030F018502F26195030222FC078
:10188800F6FF30C0F7FF0900F5CF85F00900F5CF66
:1018980086F00A00F5CF87F03FD085C069F086C092
:1018A8006AF087C06BF07EC066F07FC067F080C0CA
:1018B80068F064EC0AF066C072F067C073F068C044
:1018C80074F0000E1B6E030E1A6E00018307D8A079
:1018D800840783C018F084C019F075EC14F081C037
:1018E8002FF082C030F018502F26195030222FC008
:1018F800F6FF30C0F7FF0900F5CF75F00900F5CF06
:1019080076F00A00F5CF77F0D4EC05F072C085F0D8
:1019180073C086F074C087F0000183518411D8A485
:10192800BCD785C07EF086C07FF087C080F01200EB
:101938000001885189118A11D8A407D0000E886F38
:10194800000E896F000E8A6F12008A517F0B8D6F0F
:101958008E6BD8908D378E378D518B278E518C2377
:1019680089AF03D08D6B8D2B02D000018D6B8D510B
:101978008B27000E8C238CAF0BD0000EB26F220E7B
:10198800B16F000E886F000E896F000E8A6F12000B
:101998008CBF15D08C05D8A012D0000EB26F220EC5
:1019A800B16F8AAF06D0FF0E886F7F0E896FFF0E6A
:1019B800EDD7FF0E886F7F0E896F7F0EE7D78C35C6
:1019C8008C318E6F8B318D6F8A518D19800B8D19EB
:1019D8008A6F8BC08DF0010E8D178D338D33895131
:1019E8008D197F0B8D19896F88C088F089C089F09F
:1019F8008AC08AF01200296EF29E2950D8B403D00A
:101A08002904D8A405D0000E186E29507CEC13F0D8
:101A1800020E2918D8A403D0000EEBEC14F0010E26
:101A28002524276E286A000E282228BE2BD028508D
:101A380003E12704D8A026D021C018F022C019F04D
:101A480023C01AF024C01BF027041C6EBAEC10F057
:101A5800266E2950D8B403D02904D8A406D026C0AD
:101A68001AF02950E8EC10F009D0020E2918D8A471
:101A780005D026C01AF0295014EC11F02706D8A07A
:101A88002806D3D7020E2918D8A404D0010EEBECEF
:101A980014F00BD02950D8B403D02904D8A405D009
:101AA800010E186E29507CEC13F0F28E12001B50B8
:101AB800D8B405D0185019101A10D8A40CD0000E9C
:101AC800186E000E196E000E1A6E12001B2AD8909E
:101AD8001A3219321832000E18141D6E000E19141D
:101AE8001E6EFE0E1A141F6E1D501E101F10D8B445
:101AF8000CD0ECD71B2A010E1826000E1922000E56
:101B08001A22D8901A3219321832000E18141D6E83
:101B1800000E19141E6EFF0E1A141F6E1D501E1093
:101B28001F10D8B406D0E6D71B06D8901836193639
:101B38001A3619BE03D0020E1B60F6D71BA0199ED9
:101B4800D8901B321B501A121C50D8A41A8E18C0D9
:101B580018F019C019F01AC01AF012006A0E206E97
:101B6800000E216E000E236E080E226EDCEC14F0BF
:101B7800000E0001746F000E736F74BF06D07451AD
:101B880020E1080E735DD8B01CD0010E73252E6EAF
:101B9800000E74212F6E2E506625D96E2F506721A6
:101BA800DA6EDF50726F7251D8B40BD06A0E73259B
:101BB800D96E000E7421DA6E72C0DFFF734B742B7E
:101BC800DCD76A0E246E000E256E000E266E000EFF
:101BD800276E000E296E0A0E286E10EC04F024C041
:101BE80066F025C067F026C068F027C069F01200CB
:101BF800F2944750D76E46C0D6FF354A362A35C0CC
:101C080001F036C002F0000E046E140E036E01ECF3
:101C180013F001500210D8A403D0010E0001C66FC2
:101C280035C001F036C002F0000E046E320E036EAD
:101C380001EC13F001500210D8A403D0010E0001EA
:101C4800C56F35C001F036C002F0010E046E2C0ECF
:101C5800036E01EC13F001500210D8A403D0010E5A
:101C68000001C46F35C001F036C002F0010E046EE9
:101C78002C0E036E01EC13F001C035F002C036F0F3
:101C88001200185019101A10D8A40FD01BC0D9FF71
:101C98001CC0DAFF000EDE6E000EDD6E000E186E40
:101CA800000E196E000E1A6E12001A507F0B1D6E70
:101CB8001E6AD8901D361E361BC0D9FF1CC0DAFF1D
:101CC8001DC0DEFF1EC0DDFF19AE03D01D6A1D2A30
:101CD80001D01D6A1D501BC0D9FF1CC0DAFFDE12DF
:101CE800000EDD121BC0D9FF1CC0DAFF820EDE26F3
:101CF800FF0EDD221A801A821A841A861A881A8A16
:101D08001A9C199E18C018F019C019F01AC01AF0B8
:101D180012001AAE16D018C01EF019C01FF01AC053
:101D280020F01E1E1F1E201E1E2A000E1F2220220B
:101D3800000E1E24186E000E1F20196E800E202023
:101D48001A6E1DAE16D01BC01EF01CC01FF01DC0A1
:101D580020F01E1E1F1E201E1E2A000E1F222022DB
:101D6800000E1E241B6E000E1F201C6E800E2020ED
:101D78001D6E000E181A000E191A800E1A1A000E7F
:101D88001B1A000E1C1A800E1D1A1B50185C1C50C2
:101D980019581D501A58D8B002D0D8901200D880BF
:101DA8001200000E206E000E216E000E226E000E34
:101DB800236E1C501D101E101F10D8B42AD0010EFF
:101DC800246E06D0D8901C361D361E361F36242A9F
:101DD8001FAEF8D7D89020362136223623361C502D
:101DE800185C1D5019581E501A581F501B58D8A05F
:101DF80009D01C50185E1D50195A1E501A5A1F50EF
:101E08001B5A2080D8901F321E321D321C32242EBD
:101E1800E1D720C018F021C019F022C01AF023C061
:101E28001BF01200000E306E8E0E2F6E000184AF74
:101E380011D0841F831F821F816D000E822383238C
:101E48008423010E306E06D0D890843383338233D6
:101E580081332F2A000E8115856F000E8215866F3B
:101E6800000E8315876FFF0E8415886F85518611C4
:101E780087118811D8A4E8D781C018F082C019F05A
:101E880083C01AF02FC01BF030C01CF05BEC0DF0C3
:101E980018C081F019C082F01AC083F01200780EC1
:101EA800F66E2A0EF76E000EF86E00EEC7F010EE12
:101EB80010F00900F5CFEEFFE550E150FAE1B00E61
:101EC800F66E2A0EF76E000EF86E00EE42F010EE77
:101ED80004F00900F5CFEEFFE550E150FAE101EE1C
:101EE80000F0D60EEE6AE806FDE100EEADF01A0E3F
:101EF800EE6AE806FDE100EE31F0110EEE6AE80642
:101F0800FDE148904892000EF86E0001EAEF11F0EA
:101F1800000E1E6E000E1D6E1AD01D5019241B6E69
:101F28001E501A201C6E1BC0F6FF1CC0F7FFF86A73
:101F3800050EF76403D00800F55005D0F6CFE9FF89
:101F4800F7CFEAFFEF5040EC13F01D4A1E2A1D5050
:101F580019241B6E1E501A201C6E1BC0F6FF1CC0D5
:101F6800F7FFF86A050EF76403D00800F55005D0AE
:101F7800F6CFE9FFF7CFEAFFEF500009D8B4120017
:101F8800CCD7440E216E230E226E000E236E000E57
:101F9800246E010E256E020EFFEC0CF0440E216E2D
:101FA800630E226E000E236E000E246E010E256E47
:101FB800020EFFEC0CF0440E216EA30E226E000EF2
:101FC800236E000E246E010E256E020EFFEC0CF03F
:101FD800440E216EE30E226E000E236E000E246E58
:101FE800010E256E020EFFEC0CF0120029502A108B
:101FF8002B102C10D8B424D0010E2D6E06D0D890FA
:1020080029362A362B362C362D2A2CAEF8D72950CD
:10201800255C2A5026582B5027582C502858D8A0D1
:1020280008D02950255E2A50265A2B50275A2C5062
:10203800285AD8902C322B322A3229322D2EE7D723
:1020480025C025F026C026F027C027F028C028F094
:102058001200000E1A6E000E196E1ABE06D01A5023
:1020680027E10A0E195CD8B012008B80820E186E18
:10207800DE0EE82EFED7182EFCD78A88820E186E40
:10208800DE0EE82EFED7182EFCD78B90820E186E27
:10209800DE0EE82EFED7182EFCD78A98820E186E10
:1020A800DE0EE82EFED7182EFCD7194A1A2AD5D7E5
:1020B80012001B6E000E1D6E000E1C6E1B50186E5B
:1020C800196A18501C5C1D50800A1A6E1950800A33
:1020D8001A58D8B012008B90020E196E040E186EA2
:1020E800BA0EE82EFED7182EFCD7192EFAD700D034
:1020F8008B80020E196E040E186EBA0EE82EFED7EB
:10210800182EFCD7192EFAD700D01C4A1D2AD6D76C
:102118008E0E286E06D0D8902332223221322032F9
:10212800282A000E2014246E000E2114256E000E9D
:102138002214266EFF0E2314276E24502510261015
:102148002710D8A4E8D720C018F021C019F022C061
:102158001AF028C01BF0000E1C6E5BEC0DF018C0C6
:1021680020F019C021F01AC022F012001FD0185018
:102178001200195012001A501200000E18141D6E89
:10218800000E19141E6E000E1A141F6EFF0E1B147B
:10219800206E190E05D0D89020321F321E321D3203
:1021A800E82EF9D71D501200000E12001C50000A2C
:1021B800D8B4DDD7010AD8B4DCD7030AD8B4DBD742
:1021C800010AD8B4DAD7F0D71C6E080E1B6E1AD0E5
:1021D800000E186E1C5096EC11F01AAE06D0010EC7
:1021E800186E1C506BEC11F005D0000E186E1C50C8
:1021F8006BEC11F0010E186E1C5096EC11F01B06DA
:10220800D8901A361B50D8A4E3D7000E186E1C506D
:102218006BEC11F0000E186E1C5096EC11F01200C9
:102228001C6E080E1B6E1AD0010E186E1C5096EC10
:1022380011F01AAE06D0010E186E1C506BEC11F09E
:1022480005D0000E186E1C506BEC11F0000E186EC5
:102258001C5096EC11F01B06D8901A361B50D8A4C7
:10226800E3D7000E186E1C506BEC11F0000E186EC0
:102278001C5096EC11F01200000E206E000E216E1C
:10228800000E226E000E236E18A008D01C502026C7
:102298001D5021221E5022221F502322D8901C3666
:1022A8001D361E361F36D8901B321A321932183294
:1022B800185019101A101B10D8A4E6D720C018F00F
:1022C80021C019F022C01AF023C01BF01200196EA9
:1022D8001ED01804D8A402D08C8012001850D8A49C
:1022E80012008C9012001804D8A402D08B8A120015
:1022F8001850D8A412008B9A12001804D8A402D03F
:10230800898812001850D8A4120089981200195010
:10231800000AD8B4DED7010AD8B4E5D7030AD8A48E
:102328001200EBD7196E1ED01804D8A402D08B86E1
:1023380012001850D8A412008B9612001804D8A4C2
:1023480002D08B8812001850D8A412008B98120063
:102358001804D8A402D0898612001850D8A41200F4
:10236800899612001950000AD8B4DED7010AD8B4E9
:10237800E5D7030AD8A41200EBD7000E1E6E000E94
:102388001D6E1A501B10D8B41CD0010E1C6E04D040
:10239800D8901A361B361C2A1BAEFAD7D8901D3691
:1023A8001E361A50185C1B501958D8A005D01A5060
:1023B800185E1B50195A1D80D8901B321A321C2ED9
:1023C800EDD71DC018F01EC019F012004BEC15F027
:1023D8001DEC15F0C4EC0BF0030E5DEC10F070EC86
:1023E80000F00001C605D8A406D09DEC12F0000E3E
:1023F8000001C66FF4D7C405D8A406D006EC15F0C2
:10240800000E0001C46FEBD7C505D8A4E8D7C305F3
:10241800D8A4E5D75CEC09F0E2D700019D6F08D09D
:102428009BC075F09CC076F0000E2AEC08F01200F4
:1024380000019D51120AD8B41200040AD8B412003F
:102448000F0AD8B41200380AD8B41200020AD8B455
:10245800E7D70B0AD8B412004B0AD8B41200060A00
:102468001200000E8D6E000E8C6E060E896E000E28
:102478008A6E000E8B6E070E966EE10E926EEF0E50
:10248800936E800E946EF20E956E300E0F013A6FB9
:10249800330E396FE40E3B6F070E3C6F2F0E386F0B
:1024A800C20E616EF18EF2861200000E0001BF6F3F
:1024B800000EBE6F000EBA6F000EBD6F000EBC6F2F
:1024C800000EBB6FC20E206E010E216E000E236E31
:1024D800140E226EDCEC14F0AE0E206E010E216E8E
:1024E800000E236E140E226EDCEC14F01200000EA7
:1024F8001A6E000E196E0001C151D8A402D01950ED
:1025080012003950010D460EF324D96E010EF42045
:10251800DA6EDF50186E1850196E1A6A392A270EAB
:10252800396402D0000E396E9D9AC1079D8A1950F0
:102538001200010E0001AD27000EAE23AF23B02319
:10254800ADC025F0AEC026F0AFC027F0B0C028F06F
:10255800800E296E430E2A6E000E2B6E000E2C6E16
:10256800FAEC0FF025C0ADF026C0AEF027C0AFF0F2
:1025780028C0B0F0120021502210D8B418D0010E93
:10258800236E04D0D89021362236232A22AEFAD7D9
:1025980021501F5C22502058D8A004D021501F5E23
:1025A8002250205AD89022322132232EF1D71FC030
:1025B8001FF020C020F01200000181518211831108
:1025C800D8B406D0000E811B000E821B800E831B20
:1025D8007EC072F07FC073F080C074F081C075F067
:1025E80082C076F083C077F0D4EC05F072C07EF03C
:1025F80073C07FF074C080F0120003500410D8B488
:1026080018D0010E056E04D0D89003360436052A7A
:1026180004AEFAD70350015C04500258D8A004D085
:102628000350015E0450025AD89004320332052E3A
:10263800F1D701C001F002C002F0120000019D6F45
:1026480008D09BC075F09CC076F0010E2AEC08F00B
:10265800120000019D51120AD8B41200040AD8B41D
:1026680012000F0AD8B41200380AD8B41200020AAD
:10267800D8B4E7D70B0A1200186E0001D951D8B4A4
:10268800FCD79DB803D018C0ADFF12D09D983C5020
:10269800010D000EF324D96E010EF420DA6E18C075
:1026A800DFFF3C2A450E3C6402D0000E3C6ED90781
:1026B8009D881200196E14D01804D8A402D08B82F9
:1026C80012001850D8A412008B9212001804D8A433
:1026D80002D08C8412001850D8A412008B921200D9
:1026E8001950000AD8B4E8D7010AD8A41200EED7C6
:1026F800196E14D01804D8A402D08B841200185074
:10270800D8A412008B9412001804D8A402D08C8686
:1027180012001850D8A412008C9612001950000A02
:10272800D8B4E8D7010AD8A41200EED7000E236E59
:1027380021AE06D0206C211ED8B0212A010E236EAE
:1027480020C018F021C019F01A6A8E0E1B6E23C023
:102758001CF05BEC0DF018C020F019C021F01AC075
:1027680022F01200460E0001D96112D03B50010D33
:10277800000EF324D96E010EF420DA6EDF50AD6E30
:102788003B2A450E3B6402D0000E3B6ED92B12004B
:102798009D98000E3B6E000E3C6E12009D9A9D980F
:1027A800080EB86E900EAB6E240EAC6E100EAF6EA7
:1027B800000EB06E000E3C6E000E3B6E460E000121
:1027C800D96F000E3A6E000E396E000EC16F9D8AE9
:1027D80012003C0ED76EAF0ED66ED650D7CF1AF079
:1027E8001B6A1AC01BF01A6A1A10466E1B50476EF5
:1027F800F294F28A000E186E000E196E50EC15F065
:10280800900ED56E1200ABA202D0AB98AB88AECFBB
:10281800ADFF3A50010D460EF324D96E010EF42097
:10282800DA6EAECFDFFF3A2A270E3A6402D0000EE6
:102838003A6E0001C12B12001C6E1CC01AF01A4619
:102848001A46C2501A18830B1A18C26EC280C28266
:10285800C2B2FED7C4501B6E1A6AC3501A24186E2F
:10286800000E1B20196E120018C01EF019C01FF0B0
:1028780008D01EC0D9FF1FC0DAFF1AC0DFFF1E4AEA
:102888001F2A1C06D8A01D061C28F3E11D28D8B451
:102898001200EFD71D6E010E1C6E7B0E1D6003D05B
:1028A800610E1D6007D01D50CDEC14F0D8B002D0D9
:1028B800000E1C6E1CC01BF01B3012001A6E010E9D
:1028C800196E200E1A18D8B408D00E0E1A6003D04C
:1028D800090E1A6002D0000E196E19C018F01830CF
:1028E800120018501A02F3CF1CF0F4CF1DF0185044
:1028F8001B02F3501D2619501A02F3501D261CC046
:1029080018F01DC019F0120000019D6F06D0E6EC0A
:1029180001F012002DEC10F0120000019D51180A70
:10292800D8B4F5D7040AD8A41200F4D7185019104F
:102938001A10D8B406D0000E181A000E191A800EF4
:102948001A1A18C018F019C019F01AC01AF0120093
:1029580020C018F021C019F01A6A8E0E1B6E000EE6
:102968001C6E5BEC0DF018C020F019C021F01AC0E5
:1029780022F012001A6E000E196E3A0E1A6005D077
:102988002F0E1A6402D0010E196E19C018F01830F3
:1029980012001A6E000E196E5B0E1A6005D0400EFA
:1029A8001A6402D0010E196E19C018F018301200FE
:1029B80020C018F021C019F0000E1B6E000E1A6E10
:1029C80022C01CF023C01DF038EC14F01200186E61
:1029D80004D089941200898412001850000AD8B4CF
:1029E800F8D7010AD8A41200F6D75AEC15F035EC3E
:1029F80012F044EC15F0EDEC13F012EC15F0D2ECFB
:102A080013F012008BB003D0186A182A01D0186A84
:102A18008B501818FE0B18188B6E1200050EC26E1C
:102A2800000EC16E870EC06E000EC36E000EC46E1F
:102A3800120055EC15F05CEC15F0ABEC06F032EC3E
:102A480015F0C5EC0FF01200186E7B0E186004D05C
:102A5800600E186401D0189A18501200000E000178
:102A6800AD6F000EAE6F000EAF6F000EB06F1200AC
:102A78004426222410290000000000000040000025
:102A8800600ED36E040ED26E000E9B6E1200F9EC2F
:102A980014F0F28EF28C120018C0D7F019C0D8F0DA
:102AA8001200000E3D6E120000400000D09E120081
:0C2AB800D58E1200F2901200A1981200BE
:107A4400001C0401000B306100BA26C000C9FC19F7
:107A54001A28042D10E700001276600535250080F1
:107A640000848B00320300000032000800A1AAAA9F
:107A740001DA0E03001C0401000B3061003A32C02D
:107A840000C9BC212228042D10E700001276200131
:107A94003525008000849B003403000000120000A0
:107AA40000010000064003200001000A006400E811
:107AB4000310270405060700803F72313FFE753E20
:107AC40058633D951D3CC5AE3A792139948037936E
:107AD400A73556153400000000803FF0FFBEE2A930
:107AE4003E8376BEAE2B3E3CC3BDD2133D78D3BBA2
:107AF40024524350203C583E3C63723E20202020B8
:107B04002053657420436F6D7072657373696F6E73
:107B1400206F7065726174696F6E206D6F6465208B
:107B240061742052582073797374656D3A204175DD
:107B3400746F6D617469635B315D204D616E756155
:107B44006C5B305D205B44656661756C74203D2020
:107B5400305D0D0A0024524352203C583E3C63726F
:107B64003E202020202053657420436F6D70726581
:107B74007373696F6E2072616E6765206174205241
:107B8400582073797374656D2E2048696768205B8B
:107B9400315D204C6F77205B305D205B446566610E
:107BA400756C74203D20305D0D0A0024534255202D
:107BB4003C583E3C63723E202020202053657420B4
:107BC40055415254206175746F6D61746963206FFF
:107BD4007065726174696F6E3A204175746F6D617E
:107BE4007469635B315D204D616E75616C5B305D02
:107BF400205B44656661756C74203D20305D0D0A20
:107C040000245458203C583E3C63723E20202020DF
:107C140020205475726E206F6E5B315D202F206FB3
:107C240066665B305D207472616E736D697373692F
:107C34006F6E2061742054582073797374656D20BD
:107C44005B44656661756C74203D20305D0D0A00EF
:107C5400245442203C583E3C63723E202020202085
:107C6400205475726E206F6E5B315D202F206F661D
:107C7400665B305D20424954206D6F6465206174F9
:107C84002054582073797374656D205B4465666174
:107C9400756C74203D20305D0D0A00245249203C4F
:107CA400585858583E3C63723E202020496E6974EF
:107CB4002052582073797374656D20616E6420734B
:107CC4006574206672657175656E637920617420D0
:107CD400585858582028302D39393939295B4D489E
:107CE4007A5D0D0A00245449203C585858583E3CAB
:107CF40063723E202020496E6974205458207379A1
:107D04007374656D20616E6420736574206672659A
:107D14007175656E63792028302D39393939295BBD
:107D24004D487A5D0D0A00245242203C583E3C6383
:107D3400723E2020202020205475726E206F6E5BCE
:107D4400315D202F206F66665B305D2042495420F0
:107D54006D6F646520617420525820737973746563
:107D64006D2E0D0A00245446203C585858583E3C69
:107D740063723E2020205365742054582073797315
:107D840074656D206672657175656E6379206174C2
:107D94002028302D39393939295B4D487A5D2E0D2B
:107DA4000A00245258203C583E3C63723E20202056
:107DB4002020205475726E206F6E5B315D202F2061
:107DC4006F66665B305D2072656365697665206108
:107DD400742052582073797374656D2E0D0A002433
:107DE400534254203C58583E3C63723E202020208D
:107DF40053657420554152542072656672657368E8
:107E040020726174652028312D3230295B487A5DF7
:107E14002E0D0A00245348203C63723E202020206B
:107E240020202020205072696E7420737973746549
:107E34006D2068656C70206D6573736167652E0DC8
:107E44000A00245451203C63723E2020202020202C
:107E540020202047657420737461747573206672E2
:107E64006F6D2054582073797374656D2E0D0A005C
:107E7400245251203C63723E2020202020202020C8
:107E840020476574207374617475732066726F6D16
:107E94002052582073797374656D0D0A0024535170
:107EA400203C583E3C63723E202020202020476521
:107EB400742073797374656D207374617475732E93
:107EC4000D0A0024534C203C63723E2020202020C5
:107ED40020202020546573742073797374656D2099
:107EE4004C4544732E0D0A002A2A2A2A2A2A2A2AB1
:107EF4002A2A2A2A2A2A2A2A2A2A2A2A2A2A2A2ADE
:107F04002A2A2A200A0D000A0D3C436F6D6D6F6EFC
:107F14002073797374656D20636F6D6D616E647326
:107F24003E0A0D000A0D3C52582073797374656D36
:107F340020636F6D6D616E64733E0A0D003C54588E
:107F44002073797374656D20636F6D6D616E6473F6
:107F54003E0A0D0046415354204C494E4B20535980
:107F64005354454D200A0D00436F6D70696C6520B4
:107F740074696D653A202573200A0D00436F6D7096
:107F8400696C6520646174653A202573200A0D00CC
:107F940053414D504C45204348414E4E454C204E94
:107FA400414D450053572056455352494F4E3A20B0
:107FB4002573200A0D004D61722032352032303194
:107FC40038004E4F54204F2E4B200A0D004E4F5474
:107FD400204F4B200A0D0031373A35353A34320000
:107FE4000A0D204F4B200A0D00286E756C6C290079
:0C7FF400315F30303200256420090000AD
:020000040020DA
:08000000FFFFFFFFFFFFFFFF00
:020000040030CA
:0E000000FF281F3CFFBF85FF0FC00FE00F4021
:00000001FF
