:040000006EEF00F0AF
:100008004882FACF06F0FBCF07F0E9CF08F0EACF35
:1000180009F0E1CF0AF0E2CF0BF0D9CF0CF0DACF3C
:100028000DF0F3CF0EF0F4CF0FF0F6CF10F0F7CFBE
:1000380011F0F8CF12F0F5CF13F048C014F049C012
:1000480015F04AC016F04BC017F0F2B6F2A003D074
:10005800BFEC13F019D0F2BAF2A403D0CCEC0DF037
:1000680013D0F2AC11D0A0B8A1A803D0C1EC13F002
:100078000BD09DB89EA803D00AEC12F005D09DBA0B
:100088009EAA02D0BEEC12F017C04BF016C04AF080
:1000980015C049F014C048F013C0F5FF12C0F8FFAE
:1000A80011C0F7FF10C0F6FF0FC0F4FF0EC0F3FF3A
:1000B8000DC0DAFF0CC0D9FF0BC0E2FF0AC0E1FF98
:1000C80009C0EAFF08C0E9FF07C0FBFF06C0FAFF46
:0800D8004892110094EF0EF0B4
:10060000001C0401000B306100BA26C000C9FC19AF
:100610001A28042D10E700001276600535250080A9
:1006200000848B00320300000032000800A1AAAA57
:1006300001DA0E03001C0401000B3061003A32C0E5
:1006400000C9BC212228042D10E7000012762001E9
:100650003525008000849B00340300000012000058
:1006600000010000064003200007060504190A0DDA
:1006700000803F72313FFE753E58633D951D3CC57D
:10068000AE3A79213994803793A735561534000056
:100690000000803FF0FFBEE2A93E8376BEAE2B3E57
:1006A0003CC3BDD2133D78D3BB2A2A2A2A2A2A2A40
:1006B0002A2A2A2A2A2A2A2A2A2A2A2A2A2A2A2A9A
:1006C0002A200A0D002A2A2A2A2A2A2A2A2A2A2AFB
:1006D0002A2A2A2A2A2A2A2A2A2A2A2A2A000A0DE1
:1006E0002046415354204C494E4B205359535445B6
:1006F0004D200A0D0000000199519A119B11D8A4B8
:1007000007D0000E996F800E9A6F3F0E9B6F1200FC
:10071000720E186E310E196E440E1A6E99C01BF0CF
:100720009AC01CF09BC01DF084EC0DF0D8B00CD02A
:10073000000E0001C36F220EC26FFF0E996F7F0E75
:100740009A6F7F0E9B6F120099C018F09AC019F033
:100750009BC01AF0490E1B6E3A0E1C6EC40E1D6E25
:1007600084EC0DF0D8B00CD0000E0001C36F220E47
:10077000C26F000E996F000E9A6F000E9B6F1200F1
:1007800000019BAF02D0010E01D0000EA16FA1515C
:10079000D8B40ED099C018F09AC019F09BC01AF0C6
:1007A000FAEC12F018C099F019C09AF01AC09BF038
:1007B00099C069F09AC06AF09BC06BF0AA0E000164
:1007C0006C6FB80E6D6F3F0E6E6F34EC09F069C040
:1007D00099F06AC09AF06BC09BF099C091F09AC0F2
:1007E00092F09BC093F023EC0AF091C09CF092C071
:1007F0009DF093C09EF09CC078F09DC079F09EC0A3
:100800007AF0B8EC08F078C09FF079C0A0F099C0F9
:1008100084F09AC085F09BC086F09FC020F0A0C0F5
:1008200021F0EEEC11F020C087F021C088F022C04A
:1008300089F052EC11F084C099F085C09AF086C01E
:100840009BF099C084F09AC085F09BC086F0700E32
:100850000001876F060E886F000E8A6F090E896F80
:1008600004EC0BF084C090F085C091F086C092F04B
:100870009FC093F0A0C094F071EC0BF090C099F081
:1008800091C09AF092C09BF00001A151D8B425D03C
:1008900099290EE17F0E9A190BE17F0E9B19D8A4BE
:1008A00007D0000E996F000E9A6F000E9B6F12001A
:1008B000000E296E800E2A6E3F0E2B6E99C02CF012
:1008C0009AC02DF09BC02EF0AFEC09F029C099F032
:1008D0002AC09AF02BC09BF0120099C099F09AC0E0
:1008E0009AF09BC09BF01200000E0101C16F000E38
:1008F000C06F0001CC51D8A474D0000E0101C26FAA
:10090000060EC26501D01200C251010D690EF3241A
:10091000F66E060EF420F76E0800F55090EC12F01B
:1009200018C0B9F119C0BAF1000E0001A56F200E70
:10093000A66F410EA76F000EA26F000EA36F400EB0
:10094000A46FEAEC06F0A2C0BDF1A3C0BEF1A4C042
:10095000BFF1C00E00016C6F500E6D6F450E6E6FD3
:10096000BDC12CF0BEC12DF0BFC12EF0B9C120F029
:10097000BAC121F00CEC13F020C029F021C02AF0FC
:1009800022C02BF0AFEC09F029C069F02AC06AF050
:100990002BC06BF034EC09F069C078F06AC079F0D4
:1009A0006BC07AF0B8EC08F078C0C0F179C0C1F142
:1009B000C0C12DF0C1C12EF00101C2292F6E3BEC48
:1009C00008F0030E0001A96F8A0EA86F550EE82EDD
:1009D000FED7A82FFCD7A92FFAD700D00101C22B30
:1009E0008FD70001CC05D8A41200CB51010D690EA0
:1009F000F324F66E060EF420F76E0800F55090EC26
:100A000012F018C0BBF119C0BCF1000E0001A56FB7
:100A1000200EA66F410EA76F000EA26F000EA36FEF
:100A2000400EA46FEAEC06F0A2C0BDF1A3C0BEF177
:100A3000A4C0BFF1C00E00016C6F500E6D6F450E6B
:100A40006E6FBDC12CF0BEC12DF0BFC12EF0BBC179
:100A500020F0BCC121F00CEC13F020C029F021C023
:100A60002AF022C02BF0AFEC09F029C069F02AC0AF
:100A70006AF02BC06BF034EC09F069C078F06AC002
:100A800079F06BC07AF0B8EC08F078C0C0F179C0AA
:100A9000C1F1C0C12DF0C1C12EF0010E2F6E3BEC93
:100AA00008F012007AC07EF000017F6B806B793510
:100AB0007E3701E37F817E51836F7DC07EF07F6B47
:100AC000806B7C357E3701E37F817E51826F83515D
:100AD000D8B40BD08251835DD8B00ED083510008BA
:100AE00082257E6F180E7E6507D07BC078F07CC0B3
:100AF00079F07DC07AF012008251D8B40BD08351C6
:100B0000825DD8B00ED08251000883257E6F180E0A
:100B10007E6507D078C078F079C079F07AC07AF035
:100B20001200060E816F7ABF818F7DBF818D798F14
:100B3000FF0E7817FF0E7917000E7A177C8FFF0EC5
:100B40007B17FF0E7C17000E7D178251835DD8B096
:100B50001BD0D8907B377C377D3782078351821931
:100B6000D8B40DD0810781C07EF0070E7E17D8B4AF
:100B700006D0EFD7D8907A3379337833832B8251EC
:100B80008319D8B41FD0F6D78351825DD8B01AD05C
:100B9000D890783779377A37830783518219D8B458
:100BA0000DD0810781C07EF0070E7E17D8B406D025
:100BB000EFD7D8907D337C337B33822B82518319DE
:100BC000D8A4F7D781AF0CD0FF0E781BFF0E791B8E
:100BD000FF0E7A1B010E7827000E7923000E7A2370
:100BE00081AD0CD0FF0E7B1BFF0E7C1BFF0E7D1B0F
:100BF000010E7B27000E7C23000E7D23000E816FEB
:100C000078517B2779517C237A517D237DAF0ED09B
:100C1000FF0E7B1BFF0E7C1BFF0E7D1B010E7B2737
:100C2000000E7C23000E7D23010E816F7BC018F027
:100C30007CC019F07DC01AF083C01BF081C01CF08D
:100C4000E5EC0CF018C078F019C079F01AC07AF011
:100C50001200800E626E010E186E000EB2EC11F0E2
:100C6000000E2D6E000E2C6E2DBE06D02D5028E1EC
:100C70000D0E2C5CD8B024D02CC02AF02DC02BF047
:100C8000D8902A362B36D8902A362B36010E2A24B5
:100C9000F66E060E2B20F76E0900F5CF21F0090045
:100CA000F5CF22F00900F5CF23F00A00F5CF24F0AC
:100CB000030E256E000E32EC0CF02C4A2D2AD4D7F0
:100CC000010E186E010EB2EC11F0000E2F6E000E28
:100CD0002E6E2FBE06D02F5028E10D0E2E5CD8B000
:100CE00024D02EC02AF02FC02BF0D8902A362B36D5
:100CF000D8902A362B36350E2A24F66E060E2B2077
:100D0000F76E0900F5CF21F00900F5CF22F00900B8
:100D1000F5CF23F00A00F5CF24F0030E256E010E67
:100D200032EC0CF02E4A2F2AD4D7450EF66E060E62
:100D3000F76E0900F5CF21F00900F5CF22F0090088
:100D4000F5CF23F00A00F5CF24F0030E256E010E37
:100D500032EC0CF03D0EF66E060EF76E0900F5CF84
:100D600021F00900F5CF22F00900F5CF23F00A00A9
:100D7000F5CF24F0030E256E010E32EC0CF0390E87
:100D8000F66E060EF76E0900F5CF21F00900F5CFDB
:100D900022F00900F5CF23F00A00F5CF24F0030E6E
:100DA000256E010E32EC0CF0350EF66E060EF76E67
:100DB0000900F5CF21F00900F5CF22F00900F5CFA9
:100DC00023F00A00F5CF24F0030E256E010E32EC5D
:100DD0000CF01200000E0101B46F0001A251A3112A
:100DE000A411D8A41DD0000E186E000E196E000EAE
:100DF0001A6EA5C01BF0A6C01CF0A7C01DF084ECA5
:100E00000DF0D8A005D0000E0001C36F210EC26FF7
:100E1000000E0001A26F000EA36F000EA46F12005F
:100E2000A551A611A711D8A407D0000EA26F800E5D
:100E3000A36F3F0EA46F1200A4AF42D0A5C078F0FC
:100E4000A6C079F0A7C07AF0B8EC08F078C0B5F188
:100E500079C0B6F17AC0B7F17BC0B8F1B5C120F066
:100E6000B6C121F0B7C122F0B8C123F0C1EC0FF038
:100E70000001A551201807E1A651211804E1A7514E
:100E80002218D8B40BD0000EC36F210EC26F000E13
:100E9000A26F000EA36F000EA46F12000101B551E6
:100EA000010BB46FA2C018F0A3C019F0A4C01AF0CF
:100EB000FAEC12F018C0A2F019C0A3F01AC0A4F006
:100EC000A2C090F0A3C091F0A4C092F0AAEC07F0E9
:100ED00090C0AEF191C0AFF192C0B0F1AEC169F077
:100EE000AFC16AF0B0C16BF0A5C06CF0A6C06DF0E8
:100EF000A7C06EF034EC09F069C0B1F16AC0B2F17C
:100F00006BC0B3F1B1C199F0B2C19AF0B3C19BF01B
:100F10007BEC03F099C0A2F09AC0A3F09BC0A4F0B0
:100F20000101B451D8B40FD0A2C018F0A3C019F079
:100F3000A4C01AF0FAEC12F018C0A2F019C0A3F085
:100F40001AC0A4F01200A2C0A2F0A3C0A3F0A4C0D3
:100F5000A4F01200000192AF0BD0000EC36F210E5F
:100F6000C26F000E906F000E916F000E926F120014
:100F7000905191119211D8A40BD0000EC36F220E84
:100F8000C26F000E906F000E916F000E926F1200F4
:100F9000000E6C6F000E6D6F400E6E6F930E1B6E29
:100FA000000E1C6E90C018F091C019F092C01AF09B
:100FB0003CEC0DF018C069F019C06AF01AC06BF073
:100FC00034EC09F069C078F06AC079F06BC07AF04F
:100FD000000E00017B6F800E7C6FBF0E7D6F52ECA8
:100FE00005F078C090F079C091F07AC092F00001DD
:100FF0009307D8A0940790C084F091C085F092C068
:1010000086F08E0E876F060E886F000E8A6F080EB0
:10101000896F04EC0BF084C090F085C091F086C01D
:1010200092F0720E00016C6F310E6D6F3F0E6E6F9D
:1010300093C020F094C021F0EEEC11F020C069F0D4
:1010400021C06AF022C06BF034EC09F069C078F07E
:101050006AC079F06BC07AF090C07BF091C07CF0F0
:1010600092C07DF052EC05F078C090F079C091F01C
:101070007AC092F012002F500001606F616B0C0E6D
:10108000D89060376137E82EFBD760C062F061C04E
:1010900063F062512D1263512E12D890C435D96E6F
:1010A000C535DA6E6E0ED926010EDA222DC0DEFFAE
:1010B0002EC0DDFFC44BC52BC4C060F0C5C061F0BD
:1010C000D89060376137615104E1400E605DD8A06F
:1010D0001200A8EC13F00009D8B4120042C01DF0B1
:1010E00043C01EF044C01FF045C020F06E0E216EBC
:1010F000010E226ED4EC0BF0400E4226000E43226D
:10110000442245224550441006E1F00E425C7F0E19
:101110004358D8A018D0000E426E400E436E000E09
:10112000446E000E456E010E0001C86F400EF419AA
:10113000F311F511F611D8A406D0400EF327000ED6
:10114000F423F523F6233004FF0E3158FF0E3258F6
:10115000FF0E3358D8B006D0010E3026000E3122D3
:1011600032223322000E0001C56F000EC46F120040
:101170007AC07CF000017D6B7E6B79357C3701E3B2
:101180007D817C51866F8651D8A409D0000E786F7E
:10119000000E796F000E7A6F000E7B6F1200170E33
:1011A0007C6F78C07DF079C07EF07AC07FF07C29BA
:1011B000806F04D0D8907F337E337D33802FFAD771
:1011C00000017D51816F798FFF0E7817FF0E79171F
:1011D000000E7A177851826F7951836F7A51846F3C
:1011E000856B8E0E865F86AF16D08651800A8F0F74
:1011F000D8B009D0000E786F000E796F000E7A6FAC
:10120000000E7B6F1200D890853384338333823392
:10121000863FF9D715D0170E86650FD0000E786F70
:10122000000E796F000E7A6F000E7B6F1200D8905F
:10123000823783378437853786078651D8A4F7D716
:101240008151D8B408D0851F841F831F826D000E82
:1012500083238423852382C078F083C079F084C0FF
:101260007AF085C07BF012006BC06FF00001706BEC
:10127000716B6A356F3701E370816F51726F725114
:10128000D8A407D0000E696F000E6A6F000E6B6F56
:1012900012006EC06FF0706B716B6D356F3701E3CC
:1012A00070816F51776F7751D8A407D0000E696FA6
:1012B000000E6A6F000E6B6F120077517B0F722762
:1012C0006BC077F06E51771B800E77176A8F6D8F2A
:1012D000FF0E6C17FF0E6D17000E6E17000E736F6A
:1012E000000E746F000E756F070E766F69A106D041
:1012F0006C5173276D5174236E517523D8906B33E5
:101300006A336933D8906C376D376E37762FEED7E6
:10131000090E766F69A106D06C5173276D51742345
:101320006E517523D8906B336A336933D890753317
:1013300074337333762FEED773C018F074C019F07E
:1013400075C01AF072C01BF077C01CF0E5EC0CF011
:1013500018C069F019C06AF01AC06BF012002BC0F7
:1013600060F00001616B626B2A34603701E36181D8
:101370006051676F6751D8A407D0000E296E000E28
:101380002A6E000E2B6E12002EC060F0616B626B35
:101390002D34603701E361816051686F6851D8A4D2
:1013A00007D0000E296E000E2A6E000E2B6E120062
:1013B000000E646F000E656F000E666F6851890F36
:1013C000675F2BC068F02E50681B800E68172A8E4E
:1013D000FF0E2916FF0E2A16000E2B162D8EFF0E5D
:1013E0002C16FF0E2D16000E2E16180E636FD890B9
:1013F0006437653766372C50295C2D502A582E509B
:101400002B58D8A007D02C50295E2D502A5A2E5088
:101410002B5A6481D89029362A362B36632FE7D78A
:1014200064C018F065C019F066C01AF067C01BF000
:1014300068C01CF0E5EC0CF018C029F019C02AF0C7
:101440001AC02BF0120091C018F092C019F093C08E
:101450001AF0970E1B6E000E1C6E3CEC0DF0000196
:1014600098AF10D093AF07D0000E916F800E926F9F
:10147000BF0E936F1200000E916F000E926F000E60
:10148000936F1200985104E1150E975DD8A007D014
:1014900091C091F092C092F093C093F0120091C06D
:1014A00078F092C079F093C07AF0B8EC08F078C088
:1014B00087F079C088F07AC089F07BC08AF057EC59
:1014C0000EF087C094F088C095F089C096F091C066
:1014D00018F092C019F093C01AF094C01BF095C098
:1014E0001CF096C01DF084EC0DF0D8B016D094C05E
:1014F00078F095C079F096C07AF0000E00017B6F0D
:10150000800E7C6FBF0E7D6F52EC05F078C091F0BD
:1015100079C092F07AC093F0120094C091F095C017
:1015200092F096C093F0120020EEEEF010EE60F014
:10153000040EDBCFE3FFE806FCE2650E206E000E32
:10154000216E000E236E1E0E226E1EEC13F0650E31
:10155000186E000E196EA90E1A6E060E1B6E000E86
:101560001D6E1E0E1C6EECEC10F0650E196E000E5A
:101570001A6E000E1C6E1E0E1B6E41EC12F0650EF4
:10158000206E000E216E000E236E1E0E226E1EECCB
:1015900013F0650E186E000E196EDE0E1A6E060E32
:1015A0001B6E000E1D6E1E0E1C6EECEC10F0650E18
:1015B000196E000E1A6E000E1C6E1E0E1B6E41EC94
:1015C00012F0650E206E000E216E000E236E1E0EB0
:1015D000226E1EEC13F0650E186E000E196EC50E0D
:1015E0001A6E060E1B6E000E1D6E1E0E1C6EECECAF
:1015F00010F0650E196E000E1A6E000E1C6E1E0E97
:101600001B6E41EC12F0120089C018F08AC019F06C
:10161000000E1B6E030E1A6EE7EC12F087C08BF003
:1016200088C08CF0185000018B2719508C238BC078
:10163000F6FF8CC0F7FF0900F5CF8DF00900F5CF5C
:101640008EF00A00F5CF8FF040D08DC06CF08EC0C8
:101650006DF08FC06EF084C069F085C06AF086C0FE
:101660006BF034EC09F069C078F06AC079F06BC0B7
:101670007AF0000E1B6E030E1A6E00018907D8A0C7
:101680008A0789C018F08AC019F0E7EC12F087C009
:101690008BF088C08CF0185000018B2719508C23D8
:1016A0008BC0F6FF8CC0F7FF0900F5CF7BF0090077
:1016B000F5CF7CF00A00F5CF7DF052EC05F078C054
:1016C0008DF079C08EF07AC08FF0000189518A11B7
:1016D000D8A4BBD78DC084F08EC085F08FC086F0B3
:1016E00012000001905191119211D8A407D0000E60
:1016F000906F000E916F000E926F120092517F0B4F
:10170000956F966BD890953796379551932796514C
:10171000942391AF03D0956B952B02D00001956B6C
:1017200095519327000E942394AF0BD0000EC36FF6
:10173000220EC26F000E906F000E916F000E926F1E
:10174000120094BF15D09405D8A012D0000EC36F1C
:10175000220EC26F92AF06D0FF0E906F7F0E916F78
:10176000FF0EEDD7FF0E906F7F0E916F7F0EE7D7C4
:1017700094359431966F9331956F92519519800BF2
:101780009519926F93C095F0010E95179533953387
:10179000915195197F0B9519916F90C090F091C060
:1017A00091F092C092F01200C00E236E7F0E246E54
:1017B0001DC025F01EC026F02350251624502616E5
:1017C00025C027F026C028F0296A2A6A000EF2BE3A
:1017D000010E2B6E27501D1844E128501E1841E1C0
:1017E00029501F183EE12A502018D8A412001DC00D
:1017F00018F01EC019F01FC01AF020C01BF076ECC4
:1018000012F01FC0F8FF1EC0F7FF1DC0F6FF000E4C
:101810002C6E3F0E2C6401D013D02C50010DF350D0
:101820002124D96EF4502220DA6EDF50F56E3F0E7F
:101830002C18D8A402D00C0001D00D002C2AE9D716
:10184000A188A68EA69CA684F29E550EA76EAA0E0F
:10185000A76EA682A6942BB002D0F29E01D0F28E83
:1018600012001200296EF29E2950D8B403D0290428
:10187000D8A405D0000E186E2950D0EC11F0020E3D
:101880002918D8A403D0000E3BEC13F0010E252438
:10189000276E286A000E282228BE2BD0285003E18C
:1018A0002704D8A026D021C018F022C019F023C0E8
:1018B0001AF024C01BF027041C6E93EC0FF0266E68
:1018C0002950D8B403D02904D8A406D026C01AF0D1
:1018D0002950EFEC0FF009D0020E2918D8A405D03A
:1018E00026C01AF029501BEC10F02706D8A02806B5
:1018F000D3D7020E2918D8A404D0010E3BEC13F064
:101900000BD02950D8B403D02904D8A405D0010E97
:10191000186E2950D0EC11F0F28E1200E00E2C6EF1
:10192000FF0E2D6E460E2E6E42C078F043C079F049
:1019300044C07AF045C07BF00001781F791F7A1F00
:101940007B1F782B000E79237A237B23F00E7825DA
:10195000206E7F0E7921216E000E7A21226E000EFC
:101960007B21236EC1EC0FF020C029F021C02AF0AA
:1019700022C02BF0AFEC09F029C069F02AC06AF050
:101980002BC06BF0000E00016C6FC80E6D6F420E25
:101990006E6F34EC09F069C07CF06AC07DF06BC0FA
:1019A0007EF0000E186E960E196E420E1A6E7CC0F6
:1019B0001BF07DC01CF07EC01DF084EC0DF0D8B093
:1019C00002D0010E1200000E12001B50D8B405D038
:1019D000185019101A10D8A40CD0000E186E000E52
:1019E000196E000E1A6E12001B2AD8901A32193284
:1019F0001832000E18141D6E000E19141E6EFE0E05
:101A00001A141F6E1D501E101F10D8B40CD0ECD726
:101A10001B2A010E1826000E1922000E1A22D89039
:101A20001A3219321832000E18141D6E000E1914D5
:101A30001E6EFF0E1A141F6E1D501E101F10D8B4FC
:101A400006D0E6D71B06D890183619361A3619BEB6
:101A500003D0020E1B60F6D71BA0199ED8901B3234
:101A60001B501A121C50D8A41A8E18C018F019C096
:101A700019F01AC01AF01200185019101A10D8A430
:101A80000FD01BC0D9FF1CC0DAFF000EDE6E000EA7
:101A9000DD6E000E186E000E196E000E1A6E12002A
:101AA0001A507F0B1D6E1E6AD8901D361E361BC045
:101AB000D9FF1CC0DAFF1DC0DEFF1EC0DDFF19AE5E
:101AC00003D01D6A1D2A01D01D6A1D501BC0D9FFFD
:101AD0001CC0DAFFDE12000EDD121BC0D9FF1CC0D5
:101AE000DAFF820EDE26FF0EDD221A801A821A84A9
:101AF0001A861A881A8A1A9C199E18C018F019C0DA
:101B000019F01AC01AF012001AAE16D018C01EF042
:101B100019C01FF01AC020F01E1E1F1E201E1E2AF4
:101B2000000E1F222022000E1E24186E000E1F2001
:101B3000196E800E20201A6E1DAE16D01BC01EF02E
:101B40001CC01FF01DC020F01E1E1F1E201E1E2ABE
:101B5000000E1F222022000E1E241B6E000E1F20CE
:101B60001C6E800E20201D6E000E181A000E191A11
:101B7000800E1A1A000E1B1A000E1C1A800E1D1A57
:101B80001B50185C1C5019581D501A58D8B002D060
:101B9000D8901200D8801200F2944750D76E46C0F9
:101BA000D6FF344A352A34C001F035C002F0000EA9
:101BB000046E140E036E73EC11F001500210D8A4E1
:101BC00002D0010E3D6E34C001F035C002F0000EAF
:101BD000046E320E036E73EC11F001500210D8A4A3
:101BE00002D0010E3C6E34C001F035C002F0010E8F
:101BF000046E2C0E036E73EC11F001500210D8A489
:101C000002D0010E3B6E34C001F035C002F0010E6F
:101C1000046E2C0E036E73EC11F001C034F002C0A0
:101C200035F01200000E266E000E256E000E246E9A
:101C30002FD02DEC13F0010E0001CA6F120031EC11
:101C400011F0266E240E2618D8A41200020E0001F0
:101C5000CA6F1200C951010DCE0EF324D96E000EC9
:101C6000F420DA6E26C0DFFFC92B140E2618D8A484
:101C70001200040ECA6F1200CE5185EC13F0256ECF
:101C80002550510AD8A4050A000E0001CA6F12009F
:101C90000001CA51000AD8B4CCD7010AD8B4CFD7B2
:101CA000030AD8B4D7D7060AD8A41200E5D7000E85
:101CB0000001906F8E0E8F6F8AAF11D08A1F891F1F
:101CC000881F876D000E882389238A23010E906F59
:101CD00006D0D8908A338933883387338F2B000E10
:101CE00087158B6F000E88158C6F000E89158D6F10
:101CF000FF0E8A158E6F8B518C118D118E11D8A409
:101D0000E8D787C018F088C019F089C01AF08FC0D2
:101D10001BF090C01CF0E5EC0CF018C087F019C067
:101D200088F01AC089F01200F40EF66E260EF76ED7
:101D3000000EF86E00EEE2F010EE15F00900F5CF9F
:101D4000EEFFE550E150FAE1720EF66E270EF76EE7
:101D5000000EF86E00EE42F010EE04F00900F5CF30
:101D6000EEFFE550E150FAE101EE00F0AE0EEE6A52
:101D7000E806FDE100EEAAF0380EEE6AE806FDE1A5
:101D800000EE30F0120EEE6AE806FDE1489048924F
:101D9000000EF86E000147EF10F0440E216E230E86
:101DA000226E000E236E000E246E010E256E020EB2
:101DB00032EC0CF0440E216E630E226E000E236E88
:101DC000000E246E010E256E020E32EC0CF0440E55
:101DD000216EA30E226E000E236E000E246E010EE5
:101DE000256E020E32EC0CF0440E216EE30E226ED4
:101DF000000E236E000E246E010E256E020E32ECD4
:101E00000CF012001C501D101E101F10D8B424D04E
:101E1000010E206E06D0D8901C361D361E361F3699
:101E2000202A1FAEF8D71C50185C1D5019581E50A0
:101E30001A581F501B58D8A008D01C50185E1D50AF
:101E4000195A1E501A5A1F501B5AD8901F321E3250
:101E50001D321C32202EE7D718C018F019C019F017
:101E60001AC01AF01BC01BF012001D6E000E1C6E73
:101E7000000E1B6E1D50186E196A18501B5C1C500A
:101E8000800A1A6E1950800A1A58D8B012008B9026
:101E9000020E196E040E186EBA0EE82EFED7182E1A
:101EA000FCD7192EFAD700D08B80020E196E040EC3
:101EB000186EBA0EE82EFED7182EFCD7192EFAD7B8
:101EC00000D01B4A1C2AD6D71D6E000E1C6E000EB9
:101ED0001B6E1D50186E196A18501B5C1C50800A2E
:101EE0001A6E1950800A1A58D8B012008A98020E39
:101EF000196E040E186EBA0EE82EFED7182EFCD7F7
:101F0000192EFAD700D08A88020E196E040E186EA8
:101F1000BA0EE82EFED7182EFCD7192EFAD700D00D
:101F20001B4A1C2AD6D71FD0185012001950120075
:101F30001A501200000E18141D6E000E19141E6E99
:101F4000000E1A141F6EFF0E1B14206E190E05D002
:101F5000D89020321F321E321D32E82EF9D71D5084
:101F60001200000E12001C50000AD8B4DDD7010A7E
:101F7000D8B4DCD7030AD8B4DBD7010AD8B4DAD78F
:101F8000F0D78E0E286E06D0D8902332223221321E
:101F90002032282A000E2014246E000E2114256EF3
:101FA000000E2214266EFF0E2314276E24502510D7
:101FB00026102710D8A4E8D720C018F021C019F0A7
:101FC00022C01AF028C01BF0000E1C6EE5EC0CF0CD
:101FD00018C020F019C021F01AC022F012001C6EA7
:101FE000080E1B6E1AD0000E186E1C509DEC10F0DF
:101FF0001AAE06D0010E186E1C5072EC10F005D00F
:10200000000E186E1C5072EC10F0010E186E1C5071
:102010009DEC10F01B06D8901A361B50D8A4E3D7BD
:10202000000E186E1C5072EC10F0000E186E1C5052
:102030009DEC10F012001C6E080E1B6E1AD0010EE3
:10204000186E1C509DEC10F01AAE06D0010E186EE2
:102050001C5072EC10F005D0000E186E1C5072EC83
:1020600010F0000E186E1C509DEC10F01B06D8905E
:102070001A361B50D8A4E3D7000E186E1C5072EC11
:1020800010F0000E186E1C509DEC10F01200AFEC1A
:1020900013F056EC13F094EC0AF0030E35EC0FF04D
:1020A00012EC0EF03D04D8A405D00FEC11F0000E98
:1020B0003D6EF6D73C04D8A40FD063EC13F08EEC41
:1020C0000CF0E806D8A403D0040E64EC0FF074EC16
:1020D00004F0000E3C6EE4D73B04D8A4E1D7000E18
:1020E0003B6EDED7196E1ED01804D8A402D08C80A7
:1020F00012001850D8A412008C9012001804D8A412
:1021000002D08B8A12001850D8A412008B9A1200A9
:102110001804D8A402D0898812001850D8A412003C
:10212000899812001950000AD8B4DED7010AD8B431
:10213000E5D7030AD8A41200EBD7196E1ED01804F5
:10214000D8A402D08B8612001850D8A412008B9607
:1021500012001804D8A402D08B8812001850D8A4FA
:1021600012008B9812001804D8A402D0898612009D
:102170001850D8A41200899612001950000AD8B439
:10218000DED7010AD8B4E5D7030AD8A41200EBD7EA
:10219000000E8D6E000E8C6E060E896E000E8A6E1D
:1021A000000E8B6E070E966EE10E926EEF0E936E22
:1021B000800E946EF20E956E300E0F013A6F330E54
:1021C000396FE40E3B6F070E3C6F2F0E386FC20E57
:1021D000616EF19EF28612001AC021F01BC022F03F
:1021E00018C01FF019C020F011D021C0F6FF22C086
:1021F000F7FF0800F5CF1EF0214A222A1FC0D9FFA1
:1022000020C0DAFF1EC0DFFF1F4A202A1C06D8A00C
:102210001D061C28EAE11D28D8B41200E6D7010EDD
:102220000001BE27000EBF23C023C123BEC018F08B
:10223000BFC019F0C0C01AF0C1C01BF0800E1C6EE8
:10224000430E1D6E000E1E6E000E1F6E02EC0FF090
:1022500018C0BEF019C0BFF01AC0C0F01BC0C1F05A
:102260001200000E1A6E000E196E3650D8A402D05D
:10227000195012003750010D460EF324D96E010E8D
:10228000F420DA6EDF50186E1850196E1A6A372A69
:10229000270E376402D0000E376E9D9A36069D8A4F
:1022A000195012000001875188118911D8B406D045
:1022B000000E871B000E881B800E891B84C078F0DF
:1022C00085C079F086C07AF087C07BF088C07CF04A
:1022D00089C07DF052EC05F078C084F079C085F0BB
:1022E0007AC086F0120003500410D8B418D0010E42
:1022F000056E04D0D89003360436052A04AEFAD70A
:102300000350015C04500258D8A004D00350015E71
:102310000450025AD89004320332052EF1D701C07E
:1023200001F002C002F01200186E0001FB51D8B497
:10233000FCD79DB803D018C0ADFF12D09D983A507D
:10234000010D000EF324D96E010EF420DA6E18C0D0
:10235000DFFF3A2A450E3A6402D0000E3A6EFB07C0
:102360009D881200196E14D01804D8A402D08B8254
:1023700012001850D8A412008B9212001804D8A48E
:1023800002D08C8412001850D8A412008B92120034
:102390001950000AD8B4E8D7010AD8A41200EED721
:1023A000196E14D01804D8A402D08B8412001850CF
:1023B000D8A412008B9412001804D8A402D08C86E2
:1023C00012001850D8A412008C9612001950000A5E
:1023D000D8B4E8D7010AD8A41200EED7000E236EB5
:1023E00021AE06D0206C211ED8B0212A010E236E0A
:1023F00020C018F021C019F01A6A8E0E1B6E23C07F
:102400001CF0E5EC0CF018C020F019C021F01AC047
:1024100022F01200460E0001FB6112D03950010D6E
:10242000000EF324D96E010EF420DA6EDF50AD6E8B
:10243000392A450E396402D0000E396EFB2B12008A
:102440009D98000E396E000E3A6E12009D9A9D986E
:10245000080EB86E900EAB6E240EAC6E100EAF6E02
:10246000000EB06E000E3A6E000E396E460E000180
:10247000FB6F000E386E000E376E000E366E9D8AB2
:102480001200000E1F6E000E1E6E0BD01E5019247F
:10249000D96E1F501A20DA6EDF5094EC11F01E4AEC
:1024A0001F2A1B501E5C1F50800A1D6E1C50800A84
:1024B0001D58D8B01200EAD73C0ED76EAF0ED66EBC
:1024C000D650D7CF1AF01B6A1AC01BF01A6A1A101E
:1024D000466E1B50476EF294F28A000E186E000E84
:1024E000196EB4EC13F0900ED56E1200000EF2BE11
:1024F000010E1C6E1AC0F8FF19C0F7FF18C0F6FFD6
:10250000A68EA69CA684A688F29E550EA76EAA0E3D
:10251000A76EA6821CB002D0F29E01D0F28E1200ED
:102520001C6E1CC01AF01A461A46C2501A18830BA9
:102530001A18C26EC280C282C2B2FED7C4501B6ECD
:102540001A6AC3501A24186E000E1B20196E12004E
:1025500018C01EF019C01FF008D01EC0D9FF1FC040
:10256000DAFF1AC0DFFF1E4A1F2A1C06D8A01D066C
:102570001C28F3E11D28D8B41200EFD7ABA202D07B
:10258000AB98AB883850010D460EF324D96E010E7E
:10259000F420DA6EAECFDFFF382A270E386402D07F
:1025A000000E386E362A1200000E0F01386F000E32
:1025B0003B6F000E926E000E896E000E956E000E3F
:1025C0008C6E000E0001FA6F010EF96F12001850A8
:1025D0001A02F3CF1CF0F4CF1DF018501B02F35079
:1025E0001D2619501A02F3501D261CC018F01DC0DC
:1025F00019F01200185019101A10D8B406D0000E95
:10260000181A000E191A800E1A1A18C018F019C0DC
:1026100019F01AC01AF0120020C018F021C019F0E9
:102620001A6A8E0E1B6E000E1C6EE5EC0CF018C0C4
:1026300020F019C021F01AC022F0120020C018F0BA
:1026400021C019F0000E1B6E000E1A6E22C01CF085
:1026500023C01DF0A8EC12F01200000E0001C96F9B
:10266000CE0E206E000E216E000E236E140E226E12
:102670001EEC13F01200186E04D0899412008984A5
:1026800012001850000AD8B4F8D7010AD8A41200D2
:10269000F6D7BBEC13F0C8EC10F0A1EC13F06FEC24
:1026A00013F05CEC12F026EC12F0120099EC13F02F
:1026B000BDEC13F0D4EC12F029EC06F08FEC13F023
:1026C000CDEC0EF012008BB003D0186A182A01D09E
:1026D000186A8B501818FE0B18188B6E1200050E16
:1026E000C26E000EC16E870EC06E000EC36E000E6D
:1026F000C46E120000000000000000000000000096
:09270000526F6565000040000005
:10270A00186E7B0E186004D0600E186401D0189AF7
:10271A0018501200000E0001BE6F000EBF6F000EAF
:10272A00C06F000EC16F1200000E0001CD6F000EC7
:10273A00CC6F000E186E1200600ED36E040ED26EAD
:10274A00000E9B6E1200A6A201D002D0010E12004A
:10275A00000E120049EC13F0F28EF28C120018C02F
:10276A00F7F019C0F8F0120000400000D09E1200E5
:0C277A00D58E1200F2901200A1981200FF
:020000040020DA
:08000000FFFFFFFFFFFFFFFF00
:020000040030CA
:0E000000FF281F3CFFBF85FF0FC00FE00F4021
:00000001FF
