:040000006EEF00F0AF
:100008004882FACF06F0FBCF07F0E9CF08F0EACF35
:1000180009F0E1CF0AF0E2CF0BF0D9CF0CF0DACF3C
:100028000DF0F3CF0EF0F4CF0FF0F6CF10F0F7CFBE
:1000380011F0F8CF12F0F5CF13F048C014F049C012
:1000480015F04AC016F04BC017F0F2B6F2A003D074
:1000580086EC16F019D0F2BAF2A403D042EC0FF0F5
:1000680013D0F2AC11D0A0B8A1A803D088EC16F038
:100078000BD09DB89EA803D0DDEC14F005D09DBA36
:100088009EAA02D02EEC15F017C04BF016C04AF00D
:1000980015C049F014C048F013C0F5FF12C0F8FFAE
:1000A80011C0F7FF10C0F6FF0FC0F4FF0EC0F3FF3A
:1000B8000DC0DAFF0CC0D9FF0BC0E2FF0AC0E1FF98
:1000C80009C0EAFF08C0E9FF07C0FBFF06C0FAFF46
:1000D80048921100A9EF0EF09BC020F09CC021F0BF
:1000E8009DC022F09EC023F05CEC10F020C02AF0E6
:1000F80021C02BF022C02CF0000E2D6E000E2E6EAB
:10010800400E2F6ED0EC0BF02AC028F12BC029F13D
:100118002CC02AF1000E01012B6F200E2C6F420E0D
:100128002D6F2BC12DF02CC12EF02DC12FF028C121
:100138002AF029C12BF02AC12CF0D0EC0BF02AC0F0
:1001480078F02BC079F02CC07AF0D9EC0AF00001D5
:1001580078C02EF179C02FF10101000E2FBFFF0EDC
:10016800306F316F000E326F000E336F000E346F38
:10017800010E356F2BC12DF02CC12EF02DC12FF0A3
:1001880028C12AF029C12BF02AC12CF0D0EC0BF0A1
:100198002AC08DF02BC08EF02CC08FF02BC12DF013
:1001A8002CC12EF02DC12FF028C12AF029C12BF027
:1001B8002AC12CF0D0EC0BF02AC078F02BC079F0D3
:1001C8002CC07AF0D9EC0AF078C087F079C088F0B2
:1001D800C0EC14F087C08AF088C08BF089C08CF01E
:1001E800AFEC15F08AC090F08BC091F08CC092F003
:1001F80080EC07F08DC036F18EC037F18FC038F132
:10020800000E00016C6F800E6D6F4B0E6E6F36C165
:1002180069F037C16AF038C16BF055EC0BF069C072
:1002280078F06AC079F06BC07AF0D9EC0AF0000176
:1002380078C039F179C03AF10101000E3ABFFF0EDA
:100248003B6F3C6F000E00016C6F800E6D6F4B0EA4
:100258006E6F36C169F037C16AF038C16BF055EC82
:100268000BF069C08DF06AC08EF06BC08FF0000E85
:1002780000016C6F800E6D6F4B0E6E6F36C169F0AA
:1002880037C16AF038C16BF055EC0BF069C078F0F3
:100298006AC079F06BC07AF0D9EC0AF078C087F0C0
:1002A80079C088F0C0EC14F087C08AF088C08BF061
:1002B80089C08CF0AFEC15F08AC090F08BC091F03B
:1002C8008CC092F080EC07F08DC03DF18EC03EF1FD
:1002D8008FC03FF1550E0101406F150E416F000EA2
:1002E800426F000E436F3DC16CF03EC16DF03FC1DF
:1002F8006EF040C120F041C121F042C122F043C15B
:1003080023F05CEC10F020C069F021C06AF022C034
:100318006BF055EC0BF069C078F06AC079F06BC0EF
:100328007AF0D9EC0AF0000178C044F179C045F1BF
:100338000101000E45BFFF0E466F476F2EC19FF0AB
:100348002FC1A0F030C1A1F031C1A2F0040ED890A5
:1003580000019F37A037A137A237E82EF8D799C0F8
:10036800D9FF9AC0DAFF9FC0DEFFA0C0DEFFA1C0A0
:10037800DEFFA2C0DEFF39C19FF03AC1A0F03BC149
:10038800A1F03CC1A2F0040ED8909F37A037A13746
:10039800A237E82EF9D7010E9F11A36FA051A46FC1
:1003A800A151A56FA251A66F20EE04F09951D9264C
:1003B8009A51DA22A3C0DEFFA4C0DEFFA5C0DEFF8B
:1003C800A6C0DEFF44C19FF045C1A0F046C1A1F020
:1003D80047C1A2F0120ED8909F37A037A137A23795
:1003E800E82EF9D7500E9F25A36F550EA021A46FB4
:1003F800000EA121A56F000EA221A66F020EA31167
:10040800A76FA451A86FA551A96FA651AA6F20EE96
:1004180008F09951D9269A51DA22A7C0DEFFA8C060
:10042800DEFFA9C0DEFFAAC0DEFF1200000E010138
:10043800EE6F57D1BBEC13F0010E0001D16F120023
:10044800DDEC13F00101EE6F240EEE19D8A41200B2
:10045800020E0001D16F1200D251D8B41200DDECA7
:1004680013F00101EE6FEE51D8B412000D0EEE1923
:10047800D8A404D0030E0001D16F1200200E010190
:10048800EE19D8B412000001CB51010DA60EF324C9
:10049800D96E010EF420DA6EEEC1DFFFCB2B12000D
:1004A8000101A65150EC16F00101EE6F26D0000EA6
:1004B8000001D06F040ED16F1200010E0001D06F41
:1004C800040ED16F1200020E0001D06F040ED16F1E
:1004D8001200BA0E246E010E256ECE0E266E7F0E09
:1004E800276EA7EC06F0BA0E196E010E1A6E98EC7C
:1004F80010F0000E0001D16F12000101EE51520AF6
:10050800D8B4D5D7010AD8B4DED7070AD8B4D5D716
:10051800E0D70101A75150EC16F00101EE6F72D03F
:10052800490E0101EE19D8B418D0460EEE19D8B408
:1005380014D0510EEE19D8B410D0580EEE19D8B404
:100548000CD0430EEE19D8B408D0530EEE19D8B417
:1005580004D0430EEE19D8A407D0EE51D00F0001F5
:10056800CF6F050ED16F1200D90E196E7F0E1A6E5D
:1005780098EC10F0000E0001D16F1200490E010135
:10058800EE19D8B414D0460EEE19D8B410D0510EC6
:10059800EE19D8B40CD0580EEE19D8B408D0420EC3
:1005A800EE19D8B404D0530EEE19D8A407D0EE51E2
:1005B800D00F0001CF6F050ED16F1200D90E196E42
:1005C8007F0E1A6E98EC10F0000E0001D16F120029
:1005D800480E0101EE19D8B404D04C0EEE19D8A477
:1005E80007D0EE51D00F0001CF6F050ED16F12006A
:1005F800D90E196E7F0E1A6E98EC10F0000E0001DD
:10060800D16F12000001D051000AD8B489D7010A6D
:10061800D8B4B4D7030AD8A41200DAD7CB51FE0F46
:10062800CE6FCEC092F1CE51D8A403D0080ED16FB0
:100638001200060ED16F1200000E0101ED6F010EBF
:10064800EC6F1BD0010E0101EC250001C46F000EF8
:100658000101ED210001C56FA60EC425D96E010E5A
:10066800C521DA6E920E0101EC25E16E010EED2135
:10067800E26EDFCFE7FFEC4BED2B0001CE51C46FEC
:10068800C56B010EC427000EC523C4510101EC5DE2
:10069800ED51800A0001C66FC551800AC659D8A01D
:1006A800D1D7080ED16F1200D051020DEF0EF324EE
:1006B800D96E010EF420DA6E01D80FD00500FA6E5B
:1006C800DE50FD6EDE50FE6EF850FF6EFA50920E50
:1006D800C16F010EC26FCF511200000E0001D16F21
:1006E80012000001D151000AD8B4A4D6010AD8B426
:1006F800A7D6030AD8B4B0D6010AD8B4D1D6070A07
:10070800D8B407D7010AD8B489D7030AD8B494D77C
:100718000E0AD8A41200C8D7690E246E000E256EE2
:10072800490E266E7F0E276EA7EC06F0690E196E2D
:10073800000E1A6E98EC10F0690E246E000E256EED
:10074800F10E266E7C0E276EA7EC06F0690E196E68
:10075800000E1A6E98EC10F0690E246E000E256ECD
:10076800710E266E7D0E276EA7EC06F0690E196EC7
:10077800000E1A6E98EC10F0690E246E000E256EAD
:100788004E0E266E7E0E276EA7EC06F0690E196EC9
:10079800000E1A6E98EC10F0690E246E000E256E8D
:1007A8005C0E266E7C0E276EA7EC06F0690E196E9D
:1007B800000E1A6E98EC10F0690E246E000E256E6D
:1007C8000D0E266E7C0E276EA7EC06F0690E196ECC
:1007D800000E1A6E98EC10F0690E246E000E256E4D
:1007E800300E266E7F0E276EA7EC06F0690E196E86
:1007F800000E1A6E98EC10F0690E246E000E256E2D
:10080800A70E266E7C0E276EA7EC06F0690E196EF1
:10081800000E1A6E98EC10F0690E246E000E256E0C
:100828007C0E266E7E0E276EA7EC06F0690E196EFA
:10083800000E1A6E98EC10F0690E246E000E256EEC
:10084800330E266E7D0E276EA7EC06F0690E196E24
:10085800000E1A6E98EC10F0690E246E000E256ECC
:10086800AE0E266E7D0E276EA7EC06F0690E196E89
:10087800000E1A6E98EC10F0690E246E000E256EAC
:10088800610E266E7B0E276EA7EC06F0690E196EB8
:10089800000E1A6E98EC10F0690E246E000E256E8C
:1008A800FC0E266E7A0E276EA7EC06F0690E196EFE
:1008B800000E1A6E98EC10F0690E246E000E256E6C
:1008C800130E266E7F0E276EA7EC06F0690E196EC2
:1008D800000E1A6E98EC10F0690E246E000E256E4C
:1008E800200E266E7E0E276EA7EC06F0690E196E96
:1008F800000E1A6E98EC10F0690E246E000E256E2C
:10090800EB0E266E7D0E276EA7EC06F0690E196EAB
:10091800000E1A6E98EC10F0690E246E000E256E0B
:10092800B70E266E7B0E276EA7EC06F0690E196EC1
:10093800000E1A6E98EC10F0690E246E000E256EEB
:10094800A90E266E7E0E276EA7EC06F0690E196EAC
:10095800000E1A6E98EC10F0690E246E000E256ECB
:10096800CF0E266E7E0E276EA7EC06F0690E196E66
:10097800000E1A6E98EC10F012000001AC51AD1187
:10098800AE11D8A407D0000EAC6F800EAD6F3F0E2D
:10099800AE6F1200720E186E310E196E440E1A6E7A
:1009A800ACC01BF0ADC01CF0AEC01DF0D3EC0FF016
:1009B800D8B00DD0000E01014D6F220E4C6FFF0E06
:1009C8000001AC6F7F0EAD6F7F0EAE6F1200ACC032
:1009D80018F0ADC019F0AEC01AF0490E1B6E3A0EF1
:1009E8001C6EC40E1D6ED3EC0FF0D8B00DD0000EE7
:1009F80001014D6F220E4C6F000E0001AC6F000E0E
:100A0800AD6F000EAE6F12000001AEAF02D0010E46
:100A180001D0000EB46FB451D8B40ED0ACC08AF077
:100A2800ADC08BF0AEC08CF0AFEC15F08AC0ACF066
:100A38008BC0ADF08CC0AEF0ACC069F0ADC06AF050
:100A4800AEC06BF0AA0E00016C6FB80E6D6F3F0E52
:100A58006E6F55EC0BF069C0ACF06AC0ADF06BC0BE
:100A6800AEF0ACC099F0ADC09AF0AEC09BF044ECCB
:100A78000CF099C0AFF09AC0B0F09BC0B1F0AFC015
:100A880078F0B0C079F0B1C07AF0D9EC0AF078C04B
:100A9800B2F079C0B3F0ACC099F0ADC09AF0AEC076
:100AA8009BF0B2C087F0B3C088F0C0EC14F087C0E8
:100AB8009CF088C09DF089C09EF042EC14F099C06B
:100AC800ACF09AC0ADF09BC0AEF0ACC099F0ADC030
:100AD8009AF0AEC09BF0C30E00019C6F7A0E9D6F1A
:100AE800000E9F6F090E9E6F22EC0DF099C0A5F0C5
:100AF8009AC0A6F09BC0A7F0B2C0A8F0B3C0A9F0F6
:100B08008FEC0DF0A5C0ACF0A6C0ADF0A7C0AEF05C
:100B18000001B451D8B425D0AC290EE17F0EAD192F
:100B28000BE17F0EAE19D8A407D0000EAC6F000EF3
:100B3800AD6F000EAE6F1200000E2A6E800E2B6E87
:100B48003F0E2C6EACC02DF0ADC02EF0AEC02FF015
:100B5800D0EC0BF02AC0ACF02BC0ADF02CC0AEF03E
:100B68001200ACC0ACF0ADC0ADF0AEC0AEF012003B
:100B780024C0D9FF25C0DAFFDF500001656F244A81
:100B8800252A655189EC15F0D8B0F2D7000E00017E
:100B9800616F000E626F000E636F000E646F000ECF
:100BA800606F2D0E6519D8A403D0010E606F04D0B4
:100BB8002B0E6519D8A408D024C0D9FF25C0DAFFA8
:100BC800DF50656F244A252A300E6519D8A42ED027
:100BD80024C0D9FF25C0DAFFDF50656F244A252AD3
:100BE80028502910D8B405D0100E28182910D8A4D8
:100BF80015D0780E6519D8B404D0580E6519D8A444
:100C08000DD0000E296E100E286E24C0D9FF25C005
:100C1800DAFFDF50656F244A252A08D028502910AA
:100C2800D8A404D0000E296E080E286E285029106A
:100C3800D8A404D0000E296E0A0E286E655175ECF2
:100C480015F0D8A008D00001655150EC16F0C90F76
:100C58000001656F09D000016551E6EC15F0D8A0D8
:100C680039D0300E0001655F65512A6E2B6A285015
:100C78002A5C2B50800A2C6E2950800A2C58D8B038
:100C880029D028C018F029C019F0000E19BEFF0E8F
:100C98001A6E1B6E61C01CF062C01DF063C01EF0AE
:100CA80064C01FF078EC12F0000165511824616FE0
:100CB800000E1920626F000E1A20636F000E1B20B1
:100CC800646F24C0D9FF25C0DAFFDF50656F244A5E
:100CD800252AB4D726502710D8B40ED0FF0E2424C6
:100CE8002A6EFF0E25202B6E26C0D9FF27C0DAFFFB
:100CF8002AC0DEFF2BC0DDFF00016051D8B41AD036
:100D080061C02AF062C02BF063C02CF064C02DF0E3
:100D18002A1E2B1E2C1E2D1E2A2A000E2B222C22A8
:100D28002D222AC024F02BC025F02CC026F02DC07F
:100D380027F0120061C024F062C025F063C026F0DD
:100D480064C027F01200280E0001626F000E636F66
:100D5800C0D0250E6819D8B409D024C0D9FF25C041
:100D6800DAFF68C0DFFF244A252AB3D0000E606F7F
:100D78002ED062C0D9FF63C0DAFFDECF64F0DDCFCA
:100D880065F0020E6227000E632364516511D8A432
:100D980014D0EC0E646F7F0E656F0FD064C0F6FF41
:100DA80065C0F7FF24C0D9FF25C0DAFF0800F5CFDA
:100DB800DFFF644B652B244A252A64C0F6FF65C013
:100DC800F7FF0800F5500009D8B483D0E7D726C04C
:100DD800F6FF27C0F7FF264A272A0800F5CF68F054
:100DE8006851000AD8B481D0640AD8B407D00D0A73
:100DF800D8B404D01A0AD8B4BCD76BD062C0D9FF13
:100E080063C0DAFFDECF66F0DDCF67F0020E62273F
:100E1800000E632367AF06D0030E6013666D671F6D
:100E2800D8B0672B010E686F050E6819D8B412D0B8
:100E38006851020DB50EF324F66E7A0EF420F76EA3
:100E48000900F550665D0900F5506759D8A002D031
:100E5800682BEAD760C02AF0030E2A16D8B408D047
:100E680024C0D9FF25C0DAFF2D0EDF6E244A252ABB
:100E780068C061F02AD06151020DB50EF324F66EF8
:100E88007A0EF420F76E0900F5CF1AF00A00F5CFB4
:100E98001BF066C018F067C019F0F9EC12F018C022
:100EA8001FF019C020F0000E226E0A0E216E21ECF0
:100EB80014F01F50300F0001686F24C0D9FF25C0FF
:100EC800DAFF68C0DFFF244A252A61076129D8A410
:100ED800D2D726C0F6FF27C0F7FF264A272A0800E0
:100EE800F5CF68F06851D8A434D724C0D9FF25C0FD
:100EF800DAFF000EDF6E12008FC093F00001946BD2
:100F0800956B8E35933701E394819351986F92C016
:100F180093F0946B956B9135933701E394819351DA
:100F2800976F9851D8B40BD09751985DD8B00ED020
:100F3800985100089725936F180E936507D090C0B5
:100F48008DF091C08EF092C08FF012009751D8B4F6
:100F58000BD09851975DD8B00ED0975100089825BE
:100F6800936F180E936507D08DC08DF08EC08EF0EC
:100F78008FC08FF01200060E966F8FBF968F92BFAC
:100F8800968D8E8FFF0E8D17FF0E8E17000E8F1702
:100F9800918FFF0E9017FF0E9117000E9217975121
:100FA800985DD8B01BD0D890903791379237970773
:100FB80098519719D8B40DD0960796C093F0070E9C
:100FC8009317D8B406D0EFD7D8908F338E338D339C
:100FD800982B97519819D8B41FD0F6D79851975D88
:100FE800D8B01AD0D8908D378E378F379807985148
:100FF8009719D8B40DD0960796C093F0070E93179B
:10100800D8B406D0EFD7D890923391339033972B3A
:1010180097519819D8A4F7D796AF0CD0FF0E8D1B0F
:10102800FF0E8E1BFF0E8F1B010E8D27000E8E23C9
:10103800000E8F2396AD0CD0FF0E901BFF0E911B58
:10104800FF0E921B010E9027000E9123000E922393
:10105800000E966F8D5190278E5191238F519223B8
:1010680092AF0ED0FF0E901BFF0E911BFF0E921B2E
:10107800010E9027000E9123000E9223010E966F09
:1010880090C018F091C019F092C01AF098C01BF0E7
:1010980096C01CF052EC0EF018C08DF019C08EF0FE
:1010A8001AC08FF01200000E0001C16FB551B611C1
:1010B800B711D8A41DD0000E186E000E196E000EC0
:1010C8001A6EB8C01BF0B9C01CF0BAC01DF0D3EC42
:1010D8000FF0D8A005D0000E01014D6F210E4C6F06
:1010E800000E0001B56F000EB66F000EB76F12004C
:1010F800B851B911BA11D8A407D0000EB56F800E37
:10110800B66F3F0EB76F1200B7AF43D0B8C078F0D4
:10111800B9C079F0BAC07AF0D9EC0AF078C0C2F058
:1011280079C0C3F07AC0C4F07BC0C5F0C2C020F05B
:10113800C3C021F0C4C022F0C5C023F098EC11F060
:101148000001B851201807E1B951211804E1BA513A
:101158002218D8B40DD0000E01014D6F210E4C6F2E
:10116800000E0001B56F000EB66F000EB76F1200CB
:10117800C251010BC16FB5C08AF0B6C08BF0B7C0C1
:101188008CF0AFEC15F08AC0B5F08BC0B6F08CC00F
:10119800B7F0B5C0A5F0B6C0A6F0B7C0A7F0B8ECD8
:1011A80009F0A5C0BBF0A6C0BCF0A7C0BDF0BBC08D
:1011B80069F0BCC06AF0BDC06BF0B8C06CF0B9C0D3
:1011C8006DF0BAC06EF055EC0BF069C0BEF06AC0A5
:1011D800BFF06BC0C0F0BEC0ACF0BFC0ADF0C0C0C7
:1011E800AEF0C1EC04F0ACC0B5F0ADC0B6F0AEC026
:1011F800B7F00001C151D8B40FD0B5C08AF0B6C05D
:101208008BF0B7C08CF0AFEC15F08AC0B5F08BC08E
:10121800B6F08CC0B7F01200B5C0B5F0B6C0B6F0E5
:10122800B7C0B7F012000001776F000E0001786FA9
:10123800000E796F000E7A6F000E7B6F75C0D9FFB4
:1012480076C0DAFF300EDE18D8A407D0D90E196E92
:101258007F0E1A6E98EC10F0120075C066F076C01A
:1012680067F0F8EC0EF066C078F067C079F068C0F7
:101278007AF069C07BF00A0E1C6E000E1D6E000E1F
:101288001E6E000E1F6E78C018F079C019F07AC073
:101298001AF07BC01BF01BEC10F018C025F019C029
:1012A80026F01AC027F01BC028F0640E296E000E25
:1012B8002A6E000E2B6E000E2C6E06EC11F025C067
:1012C80037F026C038F078C025F079C026F07AC00B
:1012D80027F07BC028F00A0E296E000E2A6E000E39
:1012E8002B6E000E2C6E06EC11F025C04EF126C0B8
:1012F8004FF1385004E1050E375CD8A007D0D90E5D
:10130800196E7F0E1A6E98EC10F0120000017751DA
:10131800D8A41CD037503810D8A406D09C0E196E0B
:101328007F0E1A6E98EC10F037503810D8B404D0ED
:1013380037043810D8A404D0010E0001D46F06D0A9
:10134800D90E196E7F0E1A6E98EC10F00001770511
:10135800D8A403D0010ED46F1200D90E196E7F0ED7
:101368001A6E98EC10F012000001A7AF0DD0000E15
:1013780001014D6F210E4C6F000E0001A56F000E8C
:10138800A66F000EA76F1200A551A611A711D8A429
:101398000DD0000E01014D6F220E4C6F000E0001A2
:1013A800A56F000EA66F000EA76F1200000E6C6FDF
:1013B800000E6D6F400E6E6FA80E1B6E000E1C6E39
:1013C800A5C018F0A6C019F0A7C01AF08BEC0FF052
:1013D80018C069F019C06AF01AC06BF055EC0BF030
:1013E80069C08DF06AC08EF06BC08FF0000E0001EE
:1013F800906F800E916FBF0E926F80EC07F08DC0DA
:10140800A5F08EC0A6F08FC0A7F00001A807D8A04D
:10141800A907A5C099F0A6C09AF0A7C09BF0E10E55
:101428009C6F7A0E9D6F000E9F6F080E9E6F22ECC8
:101438000DF099C0A5F09AC0A6F09BC0A7F0720E57
:1014480000016C6F310E6D6F3F0E6E6FA8C087F094
:10145800A9C088F0C0EC14F087C069F088C06AF0B1
:1014680089C06BF055EC0BF069C08DF06AC08EF046
:101478006BC08FF0A5C090F0A6C091F0A7C092F005
:1014880080EC07F08DC0A5F08EC0A6F08FC0A7F045
:101498001200000E02017E6F000E7D6F01014E07E3
:1014A800D8A04F074E2903E14F29D8B474D0BF0EF6
:1014B8003724F66E7A0E3820F76E0800F55047ECA0
:1014C80015F018C07BF219C07CF2000E0001B86F4D
:1014D800200EB96F410EBA6F000EB56F000EB66FD1
:1014E800400EB76F57EC08F0B5C078F2B6C079F285
:1014F800B7C07AF2C00E00016C6F500E6D6F450ECA
:101508006E6F78C22DF079C22EF07AC22FF07BC2AE
:1015180020F07CC221F0D4EC15F020C02AF021C0C4
:101528002BF022C02CF0D0EC0BF02AC069F02BC0B5
:101538006AF02CC06BF055EC0BF069C078F06AC00B
:1015480079F06BC07AF0D9EC0AF078C07DF279C0F6
:101558007EF2460E246E020E256EF90E266E7F0E62
:10156800276E7DC228F07EC229F0A7EC06F0460E51
:10157800196E020E1A6E98EC10F00B0E0001C76F70
:10158800260EC66F5D0EE82EFED7C62FFCD7C72FD6
:10159800FAD700D01200000E0001D46FD90E196ED0
:1015A8007F0E1A6E98EC10F012007AC07CF00001E1
:1015B8007D6B7E6B79357C3701E37D817C51866F4D
:1015C8008651D8A409D0000E786F000E796F000EEE
:1015D8007A6F000E7B6F1200170E7C6F78C07DF05B
:1015E80079C07EF07AC07FF07C29806F04D0D890D3
:1015F8007F337E337D33802FFAD700017D51816F91
:10160800798FFF0E7817FF0E7917000E7A17785129
:10161800826F7951836F7A51846F856B8E0E865FE6
:1016280086AF16D08651800A8F0FD8B009D0000E29
:10163800786F000E796F000E7A6F000E7B6F1200C4
:10164800D8908533843383338233863FF9D715D0D6
:10165800170E86650FD0000E786F000E796F000E9A
:101668007A6F000E7B6F1200D890823783378437E9
:10167800853786078651D8A4F7D78151D8B408D0C2
:10168800851F841F831F826D000E83238423852377
:1016980082C078F083C079F084C07AF085C07BF08E
:1016A80012006BC06FF00001706B716B6A356F3799
:1016B80001E370816F51726F7251D8A407D0000E88
:1016C800696F000E6A6F000E6B6F12006EC06FF0CC
:1016D800706B716B6D356F3701E370816F51776F88
:1016E8007751D8A407D0000E696F000E6A6F000EFC
:1016F8006B6F120077517B0F72276BC077F06E51BA
:10170800771B800E77176A8F6D8FFF0E6C17FF0E91
:101718006D17000E6E17000E736F000E746F000EBB
:10172800756F070E766F69A106D06C5173276D51DE
:1017380074236E517523D8906B336A336933D8900C
:101748006C376D376E37762FEED7090E766F69A135
:1017580006D06C5173276D5174236E517523D89040
:101768006B336A336933D890753374337333762F98
:10177800EED773C018F074C019F075C01AF072C0B3
:101788001BF077C01CF052EC0EF018C069F019C0BD
:101798006AF01AC06BF012002CC060F00001616B97
:1017A800626B2B34603701E361816051676F675169
:1017B800D8A407D0000E2A6E000E2B6E000E2C6ED9
:1017C80012002FC060F0616B626B2E34603701E34A
:1017D80061816051686F6851D8A407D0000E2A6EE5
:1017E800000E2B6E000E2C6E1200000E646F000EA1
:1017F800656F000E666F6851890F675F2CC068F0CF
:101808002F50681B800E68172B8EFF0E2A16FF0EAE
:101818002B16000E2C162E8EFF0E2D16FF0E2E16D2
:10182800000E2F16180E636FD89064376537663729
:101838002D502A5C2E502B582F502C58D8A007D04A
:101848002D502A5E2E502B5A2F502C5A6481D89036
:101858002A362B362C36632FE7D764C018F065C0BC
:1018680019F066C01AF067C01BF068C01CF052EC93
:101878000EF018C02AF019C02BF01AC02CF0120074
:1018880099C018F09AC019F09BC01AF09F0E1B6EF1
:10189800000E1C6E8BEC0FF00001A0AF10D09BAFB8
:1018A80007D0000E996F800E9A6FBF0E9B6F1200C3
:1018B800000E996F000E9A6F000E9B6F1200A051D8
:1018C80004E1150E9F5DD8A007D099C099F09AC081
:1018D8009AF09BC09BF0120099C078F09AC079F0FA
:1018E8009BC07AF0D9EC0AF078C020F079C021F0DA
:1018F8007AC022F07BC023F05CEC10F020C09CF092
:1019080021C09DF022C09EF099C018F09AC019F02D
:101918009BC01AF09CC01BF09DC01CF09EC01DF01F
:10192800D3EC0FF0D8B016D09CC08DF09DC08EF0CF
:101938009EC08FF0000E0001906F800E916FBF0E59
:10194800926F80EC07F08DC099F08EC09AF08FC02E
:101958009BF012009CC099F09DC09AF09EC09BF02D
:101968001200690E246E000E256EF40E266E7E0E91
:10197800276EA7EC06F0690E196E000E1A6E98EC29
:1019880010F0690E246E000E256E600E266E7F0E16
:10199800276EA7EC06F0690E196E000E1A6E98EC09
:1019A80010F0690E246E000E256EB00E266E7F0EA6
:1019B800276EF30E286E7F0E296EA7EC06F0690ECF
:1019C800196E000E1A6E98EC10F0690E246E000E57
:1019D800256E880E266E7F0E276EC20E286E7F0E2D
:1019E800296EA7EC06F0690E196E000E1A6E98ECB7
:1019F80010F0690E246E000E256E740E266E7F0E92
:101A0800276EE30E286E7F0E296EA7EC06F0690E8E
:101A1800196E000E1A6E98EC10F0690E246E000E06
:101A2800256EF40E266E7E0E276EA7EC06F0690E64
:101A3800196E000E1A6E98EC10F012009EC018F085
:101A48009FC019F0000E1B6E030E1A6E9CEC15F069
:101A58009CC0A0F09DC0A1F018500001A02719500B
:101A6800A123A0C0F6FFA1C0F7FF0900F5CFA2F09F
:101A78000900F5CFA3F00A00F5CFA4F040D0A2C02A
:101A88006CF0A3C06DF0A4C06EF099C069F09AC064
:101A98006AF09BC06BF055EC0BF069C08DF06AC022
:101AA8008EF06BC08FF0000E1B6E030E1A6E0001D5
:101AB8009E07D8A09F079EC018F09FC019F09CEC05
:101AC80015F09CC0A0F09DC0A1F018500001A027FF
:101AD8001950A123A0C0F6FFA1C0F7FF0900F5CF58
:101AE80090F00900F5CF91F00A00F5CF92F080EC64
:101AF80007F08DC0A2F08EC0A3F08FC0A4F0000143
:101B08009E519F11D8A4BBD7A2C099F0A3C09AF048
:101B1800A4C09BF012000001A551A611A711D8A4DA
:101B280007D0000EA56F000EA66F000EA76F12005B
:101B3800A7517F0BAA6FAB6BD890AA37AB37AA51C6
:101B4800A827AB51A923A6AF03D0AA6BAA2B02D012
:101B58000001AA6BAA51A827000EA923A9AF0DD08E
:101B6800000E01014D6F220E4C6F000E0001A56F93
:101B7800000EA66F000EA76F1200A9BF17D0A90507
:101B8800D8A014D0000E01014D6F220E4C6F000139
:101B9800A7AF06D0FF0EA56F7F0EA66FFF0EEBD77F
:101BA800FF0EA56F7F0EA66F7F0EE5D7A935A93169
:101BB800AB6FA831AA6FA751AA19800BAA19A76FF2
:101BC800A8C0AAF0010EAA17AA33AA33A651AA19C7
:101BD8007F0BAA19A66FA5C0A5F0A6C0A6F0A7C03E
:101BE800A7F01200296EF29E2950D8B403D0290418
:101BF800D8A405D0000E186E2950A2EC14F0020EDD
:101C08002918D8A403D0000E13EC16F0010E2524D1
:101C1800276E286A000E282228BE2BD0285003E100
:101C28002704D8A026D021C018F022C019F023C05C
:101C38001AF024C01BF027041C6EC6EC11F0266EA7
:101C48002950D8B403D02904D8A406D026C01AF045
:101C5800295020EC12F009D0020E2918D8A405D07A
:101C680026C01AF029504CEC12F02706D8A02806F6
:101C7800D3D7020E2918D8A404D0010E13EC16F0FD
:101C88000BD02950D8B403D02904D8A405D0010E0C
:101C9800186E2950A2EC14F0F28E12001B50D8B422
:101CA80005D0185019101A10D8A40CD0000E186EB0
:101CB800000E196E000E1A6E12001B2AD8901A32E6
:101CC80019321832000E18141D6E000E19141E6EEB
:101CD800FE0E1A141F6E1D501E101F10D8B40CD003
:101CE800ECD71B2A010E1826000E1922000E1A2204
:101CF800D8901A3219321832000E18141D6E000EC0
:101D080019141E6EFF0E1A141F6E1D501E101F1080
:101D1800D8B406D0E6D71B06D890183619361A3626
:101D280019BE03D0020E1B60F6D71BA0199ED890CF
:101D38001B321B501A121C50D8A41A8E18C018F047
:101D480019C019F01AC01AF01200D60EF66E2C0E31
:101D5800F76E000EF86E01EEEFF010EE0CF00900D1
:101D6800F5CFEEFFE550E150FAE1000EF66E2D0ECC
:101D7800F76E000EF86E00EED8F010EE04F00900D1
:101D8800F5CFEEFFE550E150FAE1FC0EF66E2C0EB1
:101D9800F76E000EF86E00EE42F010EE04F0090047
:101DA800F5CFEEFFE550E150FAE102EE00F0460E05
:101DB800EE6AE806FDE101EE00F0BA0EEE6AE8060A
:101DC800FDE100EEC8F0100EEE6AE806FDE100EE57
:101DD80031F0110EEE6AE806FDE148904892000ED7
:101DE800F86E00014AEF13F06A0E206E000E216EA5
:101DF800000E236E080E226E04EC16F0000E000191
:101E0800746F000E736F74BF06D0745120E1080E12
:101E1800735DD8B01CD0010E73252E6E000E742190
:101E28002F6E2E506625D96E2F506721DA6EDF503F
:101E3800726F7251D8B40BD06A0E7325D96E000E2A
:101E48007421DA6E72C0DFFF734B742BDCD76A0E15
:101E5800246E000E256E000E266E000E276E000EF4
:101E6800296E0A0E286EBCEC05F024C066F025C069
:101E780067F026C068F027C069F01200F294475056
:101E8800D76E46C0D6FF354A362A35C001F036C06F
:101E980002F0000E046E140E036E63EC14F0015091
:101EA8000210D8A403D0010E0001D76F35C001F08D
:101EB80036C002F0000E046E320E036E63EC14F0AE
:101EC80001500210D8A403D0010E0001D66F35C00E
:101ED80001F036C002F0010E046E2C0E036E63ECA6
:101EE80014F001500210D8A403D0010E0001D56FE0
:101EF80035C001F036C002F0010E046E2C0E036EE0
:101F080063EC14F001C035F002C036F0120018502E
:101F180019101A10D8A40FD01BC0D9FF1CC0DAFFA3
:101F2800000EDE6E000EDD6E000E186E000E196ECD
:101F3800000E1A6E12001A507F0B1D6E1E6AD89082
:101F48001D361E361BC0D9FF1CC0DAFF1DC0DEFFC0
:101F58001EC0DDFF19AE03D01D6A1D2A01D01D6AFF
:101F68001D501BC0D9FF1CC0DAFFDE12000EDD12A7
:101F78001BC0D9FF1CC0DAFF820EDE26FF0EDD2251
:101F88001A801A821A841A861A881A8A1A9C199E22
:101F980018C018F019C019F01AC01AF012001AAEB9
:101FA80016D018C01EF019C01FF01AC020F01E1E4F
:101FB8001F1E201E1E2A000E1F222022000E1E2475
:101FC800186E000E1F20196E800E20201A6E1DAE8E
:101FD80016D01BC01EF01CC01FF01DC020F01E1E16
:101FE8001F1E201E1E2A000E1F222022000E1E2445
:101FF8001B6E000E1F201C6E800E20201D6E000E12
:10200800181A000E191A800E1A1A000E1B1A000E42
:102018001C1A800E1D1A1B50185C1C5019581D5094
:102028001A58D8B002D0D8901200D8801200000EEA
:10203800206E000E216E000E226E000E236E1C50C4
:102048001D101E101F10D8B42AD0010E246E06D001
:10205800D8901C361D361E361F36242A1FAEF8D7D8
:10206800D89020362136223623361C50185C1D5055
:1020780019581E501A581F501B58D8A009D01C5068
:10208800185E1D50195A1E501A5A1F501B5A20808C
:10209800D8901F321E321D321C32242EE1D720C0A8
:1020A80018F021C019F022C01AF023C01BF012004A
:1020B800000E296E8E0E286E23AE11D0231E221E0E
:1020C800211E206C000E212222222322010E296EBD
:1020D80006D0D8902332223221322032282A000E0C
:1020E8002014246E000E2114256E000E2214266E74
:1020F800FF0E2314276E2450251026102710D8A46D
:10210800E8D720C018F021C019F022C01AF028C062
:102118001BF029C01CF052EC0EF018C020F019C0BA
:1021280021F01AC022F01200000E1E6E000E1D6E65
:102138001AD01D5019241B6E1E501A201C6E1BC06D
:10214800F6FF1CC0F7FFF86A050EF76403D0080015
:10215800F55005D0F6CFE9FFF7CFEAFFEF5084EC52
:1021680014F01D4A1E2A1D5019241B6E1E501A20D9
:102178001C6E1BC0F6FF1CC0F7FFF86A050EF7645B
:1021880003D00800F55005D0F6CFE9FFF7CFEAFFF6
:10219800EF500009D8B41200CCD7440E216E230E9C
:1021A800226E000E236E000E246E010E256E020EA6
:1021B800F6EC0DF0440E216E630E226E000E236EB7
:1021C800000E246E010E256E020EF6EC0DF0440E84
:1021D800216EA30E226E000E236E000E246E010ED9
:1021E800256E020EF6EC0DF0440E216EE30E226E03
:1021F800000E236E000E246E010E256E020EF6EC04
:102208000DF0120029502A102B102C10D8B424D00D
:10221800010E2D6E06D0D89029362A362B362C364C
:102228002D2A2CAEF8D72950255C2A5026582B5039
:1022380027582C502858D8A008D02950255E2A5055
:10224800265A2B50275A2C50285AD8902C322B32E9
:102258002A3229322D2EE7D725C025F026C026F0B0
:1022680027C027F028C028F01200000E1A6E000EB2
:10227800196E1ABE06D01A5027E10A0E195CD8B09A
:1022880012008B80820E186EDE0EE82EFED7182EF6
:10229800FCD78A88820E186EDE0EE82EFED7182E1E
:1022A800FCD78B90820E186EDE0EE82EFED7182E05
:1022B800FCD78A98820E186EDE0EE82EFED7182EEE
:1022C800FCD7194A1A2AD5D712001B6E000E1D6EAC
:1022D800000E1C6E1B50186E196A18501C5C1D509D
:1022E800800A1A6E1950800A1A58D8B012008B90BA
:1022F800020E196E040E186EBA0EE82EFED7182EAE
:10230800FCD7192EFAD700D08B80020E196E040E56
:10231800186EBA0EE82EFED7182EFCD7192EFAD74B
:1023280000D01C4A1D2AD6D78E0E286E06D0D8900B
:102338002332223221322032282A000E2014246E21
:10234800000E2114256E000E2214266EFF0E231493
:10235800276E2450251026102710D8A4E8D720C0AF
:1023680018F021C019F022C01AF028C01BF0000E86
:102378001C6E52EC0EF018C020F019C021F01AC0E3
:1023880022F012001FD018501200195012001A50D3
:102398001200000E18141D6E000E19141E6E000E89
:1023A8001A141F6EFF0E1B14206E190E05D0D8903C
:1023B80020321F321E321D32E82EF9D71D5012006E
:1023C800000E12001C50000AD8B4DDD7010AD8B498
:1023D800DCD7030AD8B4DBD7010AD8B4DAD7F0D7E8
:1023E8000001C36F10D0C1C0ABF0C2C0ACF0000E8A
:1023F80022EC13F01200C1C075F0C2C076F0000ED6
:1024080017EC09F012000001C351120AD8B41200E7
:10241800040AD8B4E8D70F0AD8B41200380AD8B4D6
:102428001200020AD8B4E7D70B0AD8B412004B0A34
:10243800D8B41200060A12001C6E080E1B6E1AD0C1
:10244800000E186E1C50CEEC12F01AAE06D0010E1B
:10245800186E1C50A3EC12F005D0000E186E1C501C
:10246800A3EC12F0010E186E1C50CEEC12F01B06F5
:10247800D8901A361B50D8A4E3D7000E186E1C50FB
:10248800A3EC12F0000E186E1C50CEEC12F01200E5
:102498001C6E080E1B6E1AD0010E186E1C50CEEC66
:1024A80012F01AAE06D0010E186E1C50A3EC12F0F2
:1024B80005D0000E186E1C50A3EC12F0000E186E1A
:1024C8001C50CEEC12F01B06D8901A361B50D8A41C
:1024D800E3D7000E186E1C50A3EC12F0000E186E15
:1024E8001C50CEEC12F01200000E206E000E216E71
:1024F800000E226E000E236E18A008D01C50202655
:102508001D5021221E5022221F502322D8901C36F3
:102518001D361E361F36D8901B321A321932183221
:10252800185019101A101B10D8A4E6D720C018F09C
:1025380021C019F022C01AF023C01BF01200196E36
:102548001ED01804D8A402D08C8012001850D8A429
:1025580012008C9012001804D8A402D08B8A1200A2
:102568001850D8A412008B9A12001804D8A402D0CC
:10257800898812001850D8A412008998120019509E
:10258800000AD8B4DED7010AD8B4E5D7030AD8A41C
:102598001200EBD7196E1ED01804D8A402D08B866F
:1025A80012001850D8A412008B9612001804D8A450
:1025B80002D08B8812001850D8A412008B981200F1
:1025C8001804D8A402D0898612001850D8A4120082
:1025D800899612001950000AD8B4DED7010AD8B477
:1025E800E5D7030AD8A41200EBD7000E1E6E000E22
:1025F8001D6E1A501B10D8B41CD0010E1C6E04D0CE
:10260800D8901A361B361C2A1BAEFAD7D8901D361E
:102618001E361A50185C1B501958D8A005D01A50ED
:10262800185E1B50195A1D80D8901B321A321C2E66
:10263800EDD71DC018F01EC019F01200ABC066F02F
:10264800ACC067F0F8EC0EF066C0BDF067C0BEF035
:1026580068C0BFF069C0C0F0AD0E206E000E216EDC
:10266800000E236E100E226E04EC16F0AD0E000163
:10267800996F000E9A6FBDC09BF0BEC09CF0BFC0A2
:102688009DF0C0C09EF070EC00F0120071EC16F0E6
:1026980045EC16F0B5EC0CF0030E69EC11F01AECF1
:1026A80002F00001D705D8A406D0FFEC13F0000E05
:1026B8000001D76FF4D7D505D8A406D02EEC16F0B4
:1026C800000E0001D56FEBD7D605D8A4E8D7D405FE
:1026D800D8A4E5D74DEC0AF0E2D70001C36F10D0BB
:1026E800C1C0ABF0C2C0ACF0010E22EC13F0120076
:1026F800C1C075F0C2C076F0010E17EC09F01200E7
:102708000001C351120AD8B41200040AD8B4E8D799
:102718000F0AD8B41200380AD8B41200020AD8B482
:10272800E7D70B0A1200000E8D6E000E8C6E060E97
:10273800896E000E8A6E000E8B6E070E966EE10E85
:10274800926EEF0E936E800E946EF20E956E300EB2
:102758000F013A6F330E396FE40E3B6F070E3C6F73
:102768002F0E386FC20E616EF18EF2861200000EC7
:102778000001D06F000ECF6F000ECB6F000ECE6F32
:10278800000ECD6F000ECC6FA60E206E010E216ECE
:10279800000E236E140E226E04EC16F0920E206EBC
:1027A800010E216E000E236E140E226E04EC16F03C
:1027B8001200000E1A6E000E196E0001D251D8A434
:1027C80002D0195012003950010D000EF324D96EB1
:1027D800010EF420DA6EDF50186E1850196E1A6A5E
:1027E800392A270E396402D0000E396E9D9AD20715
:1027F8009D8A19501200010E01014827000E492335
:102808004A234B2348C125F049C126F04AC127F085
:102818004BC128F0800E296E430E2A6E000E2B6ED7
:10282800000E2C6E06EC11F025C048F126C049F1C7
:1028380027C04AF128C04BF1120021502210D8B409
:1028480018D0010E236E04D0D89021362236232AC0
:1028580022AEFAD721501F5C22502058D8A004D0AD
:1028680021501F5E2250205AD89022322132232E26
:10287800F1D71FC01FF020C020F0120000019C51AA
:102888009D119E11D8B406D0000E9C1B000E9D1BF6
:10289800800E9E1B99C08DF09AC08EF09BC08FF061
:1028A8009CC090F09DC091F09EC092F080EC07F023
:1028B8008DC099F08EC09AF08FC09BF01200035023
:1028C8000410D8B418D0010E056E04D0D890033681
:1028D8000436052A04AEFAD70350015C04500258A6
:1028E800D8A004D00350015E0450025AD890043294
:1028F8000332052EF1D701C001F002C002F0120028
:10290800186E0001DC51D8B4FCD79DB803D018C0AC
:10291800ADFF12D09D983C50010D000EF324D96EE6
:10292800020EF420DA6E18C0DFFF3C2A450E3C6424
:1029380002D0000E3C6EDC079D881200196E14D080
:102948001804D8A402D08B8412001850D8A41200FE
:102958008B9412001804D8A402D08C861200185048
:10296800D8A412008C9612001950000AD8B4E8D7DF
:10297800010AD8A41200EED7000E306E000188AF0D
:1029880006D0876D881FD8B0882B010E306E87C09F
:1029980018F088C019F01A6A8E0E1B6E30C01CF031
:1029A80052EC0EF018C087F019C088F01AC089F0F0
:1029B8001200460E0001DC6112D03B50010D000EE2
:1029C800F324D96E020EF420DA6EDF50AD6E3B2A86
:1029D800450E3B6402D0000E3B6EDC2B12009D9826
:1029E800000E3B6E000E3C6E12009D9A9D98080EDC
:1029F800B86E900EAB6E240EAC6E100EAF6E000E5D
:102A0800B06E000E3C6E000E3B6E460E0001DC6F91
:102A1800000E3A6E000E396E000ED26F9D8A1200BB
:102A28003C0ED76EAF0ED66ED650D7CF1AF01B6AB3
:102A38001AC01BF01A6A1A10466E1B50476EF294A1
:102A4800F28A000E186E000E196E76EC16F0900ED3
:102A5800D56E1200ABA202D0AB98AB88AECFADFF5B
:102A68003A50010D000EF324D96E010EF420DA6EEF
:102A7800AECFDFFF3A2A270E3A6402D0000E3A6E34
:102A88000001D22B12001C6E1CC01AF01A461A46FE
:102A9800C2501A18830B1A18C26EC280C282C2B200
:102AA800FED7C4501B6E1A6AC3501A24186E000E43
:102AB8001B20196E120018C01EF019C01FF008D094
:102AC8001EC0D9FF1FC0DAFF1AC0DFFF1E4A1F2A27
:102AD8001C06D8A01D061C28F3E11D28D8B4120036
:102AE800EFD71D6E010E1C6E7B0E1D6003D0610EAC
:102AF8001D6007D01D50F5EC15F0D8B002D0000EBF
:102B08001C6E1CC01BF01B3012001A6E010E196ED1
:102B1800200E1A18D8B408D00E0E1A6003D0090E69
:102B28001A6002D0000E196E19C018F01830120081
:102B380018501A02F3CF1CF0F4CF1DF018501B02E6
:102B4800F3501D2619501A02F3501D261CC018F008
:102B58001DC019F0120000018A518B118C11D8B4D4
:102B680006D0000E8A1B000E8B1B800E8C1B8AC0A1
:102B78008AF08BC08BF08CC08CF012000001C36F00
:102B880006D090EC03F0120039EC11F012000001AD
:102B9800C351180AD8B4F5D7040AD8A41200F4D738
:102BA80020C018F021C019F01A6A8E0E1B6E000E94
:102BB8001C6E52EC0EF018C020F019C021F01AC09B
:102BC80022F012001A6E000E196E3A0E1A6005D025
:102BD8002F0E1A6402D0010E196E19C018F01830A1
:102BE80012001A6E000E196E5B0E1A6005D0400EA8
:102BF8001A6402D0010E196E19C018F018301200AC
:102C080020C018F021C019F0000E1B6E000E1A6EBD
:102C180022C01CF023C01DF05FEC15F01200186EE6
:102C280004D089941200898412001850000AD8B47C
:102C3800F8D7010AD8A41200F6D782EC16F097EC60
:102C480013F064EC16F014EC15F03AEC16F0F9EC0D
:102C580014F012008BB003D0186A182A01D0186A31
:102C68008B501818FE0B18188B6E1200050EC26ECA
:102C7800000EC16E870EC06E000EC36E000EC46ECD
:102C880012007BEC16F084EC16F08AEC16F05AEC85
:102C980016F0D1EC10F01200186E7B0E186004D0FC
:102CA800600E186401D0189A18501200000E010125
:102CB800486F000E496F000E4A6F000E4B6F1200EE
:102CC800600ED36E040ED26E000E9B6E1200E226CA
:102CD800E823842B00000000000021EC16F0F28E9F
:102CE800F28C120018C0FBF119C0FCF11200000EA2
:102CF8003D6E12000040000000400000D09E12000F
:0E2D0800D58E1200F2901200A1981200120057
:107A8000001C0401000B3061003A32C000C9BC2167
:107A90002228042D10E700001276200135250080F1
:107AA00000849B003403000000120000000100006D
:107AB000064003200001000A006400E803102704C8
:107AC00005060700803F72313FFE753E58633D95C5
:107AD0001D3CC5AE3A79213994803793A7355615A8
:107AE0003400000000803FF0FFBEE2A93E8376BE76
:107AF000AE2B3E3CC3BDD2133D78D3BB2452435082
:107B0000203C583E3C63723E202020202053657468
:107B100020436F6D7072657373696F6E206F70654F
:107B2000726174696F6E206D6F646520617420529C
:107B3000582073797374656D3A204175746F6D6167
:107B40007469635B315D204D616E75616C5B305DA6
:107B5000205B44656661756C74203D20305D0D0AC4
:107B60000024524352203C583E3C63723E20202069
:107B7000202053657420436F6D7072657373696F55
:107B80006E2072616E67652061742052582073798F
:107B90007374656D2E2048696768205B315D204CE9
:107BA0006F77205B305D205B44656661756C742087
:107BB0003D20305D0D0A0024534255203C583E3C88
:107BC00063723E202020202053657420554152547A
:107BD000206175746F6D61746963206F7065726187
:107BE00074696F6E3A204175746F6D617469635B7F
:107BF000315D204D616E75616C5B305D205B44656D
:107C00006661756C74203D20305D0D0A0024545867
:107C1000203C583E3C63723E20202020202054759A
:107C2000726E206F6E5B315D202F206F66665B3059
:107C30005D207472616E736D697373696F6E20611C
:107C4000742054582073797374656D205B446566A5
:107C500061756C74203D20305D0D0A002454422073
:107C60003C583E3C63723E202020202020547572F8
:107C70006E206F6E5B315D202F206F66665B305D1E
:107C800020424954206D6F6465206174205458204F
:107C900073797374656D205B44656661756C7420DF
:107CA0003D20305D0D0A00245249203C5858585858
:107CB0003E3C63723E202020496E69742052582059
:107CC00073797374656D20616E64207365742066CA
:107CD00072657175656E63792061742058585858C3
:107CE0002028302D39393939295B4D487A5D0D0A04
:107CF00000245449203C585858583E3C63723E205A
:107D00002020496E69742054582073797374656D0E
:107D100020616E6420736574206672657175656E8E
:107D200063792028302D39393939295B4D487A5DFE
:107D30000D0A00245242203C583E3C63723E2020F3
:107D4000202020205475726E206F6E5B315D202FD5
:107D5000206F66665B305D20424954206D6F64651C
:107D60002061742052582073797374656D2E0D0A4A
:107D700000245446203C585858583E3C63723E20DC
:107D800020205365742054582073797374656D20D6
:107D90006672657175656E63792061742028302D77
:107DA00039393939295B4D487A5D2E0D0A00245244
:107DB00058203C583E3C63723E2020202020205416
:107DC00075726E206F6E5B315D202F206F66665B73
:107DD000305D207265636569766520617420525854
:107DE0002073797374656D2E0D0A0024534254205C
:107DF0003C58583E3C63723E20202020536574203E
:107E000055415254207265667265736820726174C0
:107E1000652028312D3230295B487A5D2E0D0A000D
:107E2000245348203C63723E202020202020202024
:107E3000205072696E742073797374656D20686563
:107E40006C70206D6573736167652E0D0A00245494
:107E500051203C63723E20202020202020202047FB
:107E60006574207374617475732066726F6D20542D
:107E7000582073797374656D2E0D0A0024525120B9
:107E80003C63723E20202020202020202047657463
:107E9000207374617475732066726F6D2052582060
:107EA00073797374656D0D0A00245351203C583E5C
:107EB0003C63723E20202020202047657420737987
:107EC0007374656D207374617475732E0D0A0024CC
:107ED000534C203C63723E20202020202020202074
:107EE000546573742073797374656D204C454473C5
:107EF0002E0D0A002A2A2A2A2A2A2A2A2A2A2A2A45
:107F00002A2A2A2A2A2A2A2A2A2A2A2A2A2A2A20DB
:107F10000A0D000A0D3C436F6D6D6F6E207379730F
:107F200074656D20636F6D6D616E64733E0A0D0044
:107F30000A0D3C52582073797374656D20636F6D20
:107F40006D616E64733E0A0D003C54582073797362
:107F500074656D20636F6D6D616E64733E0A0D0014
:107F600046415354204C494E4B2053595354454D90
:107F7000200A0D00436F6D70696C652074696D6532
:107F80003A202573200A0D00436F6D70696C6520DF
:107F9000646174653A202573200A0D0053414D50E9
:107FA0004C45204348414E4E454C204E414D4500E6
:107FB00053572056455352494F4E3A202573200AB5
:107FC0000D004D61722032362032303138004E4F74
:107FD00054204F2E4B200A0D004E4F54204F4B2063
:107FE0000A0D0031323A31323A323400286E756C63
:0F7FF0006C2900315F3030320025642009000019
:020000040020DA
:08000000FFFFFFFFFFFFFFFF00
:020000040030CA
:0E000000FF281F3CFFBF85FF0FC00FE00F4021
:00000001FF
