:040000006EEF00F0AF
:100008004882FACF06F0FBCF07F0E9CF08F0EACF35
:1000180009F0E1CF0AF0E2CF0BF0D9CF0CF0DACF3C
:100028000DF0F3CF0EF0F4CF0FF0F6CF10F0F7CFBE
:1000380011F0F8CF12F0F5CF13F048C014F049C012
:1000480015F04AC016F04BC017F0F2B6F2A003D074
:10005800C9EC1BF019D0F2BAF2A403D0F3EC11F0FA
:1000680013D0F2AC11D0A0B8A1A803D0CBEC1BF0F0
:100078000BD09DB89EA803D0FBEC18F005D09DBA14
:100088009EAA02D002EC1AF017C04BF016C04AF034
:1000980015C049F014C048F013C0F5FF12C0F8FFAE
:1000A80011C0F7FF10C0F6FF0FC0F4FF0EC0F3FF3A
:1000B8000DC0DAFF0CC0D9FF0BC0E2FF0AC0E1FF98
:1000C80009C0EAFF08C0E9FF07C0FBFF06C0FAFF46
:0800D80048921100D3EF13F070
:10060000001C0401000B3061003A32C000C9BC215B
:100610002228042D10E700001276600535250080A1
:1006200000848B0032030000001200000001000073
:1006300006000000001C0401000B3061003A32C0CB
:1006400000C9BC212228042D10E700001276A0006A
:100650003525008000849B00340300000012000058
:1006600000010000064003200007060504190A0DDA
:1006700000803F72313FFE753E58633D951D3CC57D
:10068000AE3A79213994803793A735561534000056
:100690000000803FF0FFBEE2A93E8376BEAE2B3E57
:1006A0003CC3BDD2133D78D3BB00000E0001BA6F2E
:1006B000000EB96F000EBE6F000EBD6F6C0E206E87
:1006C000000E216E000E236E450E226EF6EC1AF01F
:1006D0008FEC1BF00009D8B412003E503F104010C0
:1006E0004110D8B4EED03150321033103410D8B499
:1006F0009AD02CC060F02DC061F0000E000161BFE7
:10070000FF0E626F636F3150605D3250615933503C
:10071000625934506359D8B002D0010E01D0000E96
:10072000646F656B666B676B641F651F661F671F71
:10073000642B000E65236623672331506425686FA0
:1007400032506521696F335066216A6F34506721DA
:100750006B6F685169116A116B11D8A40AD02CC053
:10076000B1F02DC0B2F0000EB2BFFF0EB36FB46F88
:1007700008D031C0B1F032C0B2F033C0B3F034C0F1
:10078000B4F0B1C0BDF0B2C0BEF0BEAF91D0BDC03C
:1007900018F0BEC019F043EC1AF018C060F019C090
:1007A00061F0000E000161BFFF0E626F636F605168
:1007B0003E5C61513F586251405863514158D8B036
:1007C00016D03E50BD25606F3F50BE21616F605115
:1007D0002C2661512D223EC060F03FC061F0601FA9
:1007E000611F604B612B60C0BDF061C0BEF0BDC039
:1007F00060F0BEC061F0060ED89060376137E82E19
:10080000FBD760C062F061C063F0000E63BFFF0EF3
:10081000646F656F6251F7276351F8236451F923C0
:100820006551FA2345D02CC060F02DC061F0000E58
:10083000000161BFFF0E626F636F3E50605D3F500D
:1008400061594050625941506359D8A009D03EC007
:10085000B5F03FC0B6F040C0B7F041C0B8F009D025
:100860002CC0B5F02DC0B6F0000EB6BFFF0EB76FAE
:10087000B86FB5C02CF0B6C02DF02CC060F02DC004
:1008800061F0060ED89060376137E82EFBD760C064
:1008900062F061C063F0000E63BFFF0E646F656FAE
:1008A0006251F75F6351F85B6451F95B6551FA5B24
:1008B000FA51F9113EE1F705400EF859D8B039D098
:1008C00023D03B50D8B429D00001F751425CF851F5
:1008D0004358F9514458FA514558D8A01ED0400EFB
:1008E0004224F76F000E4320F86F000E4420F96F8A
:1008F000000E4520FA6FFA51F91106E1F00EF75D8E
:100900007F0EF859D8A015D0000EF76F400EF86F83
:10091000000EF96F000EFA6F0CD031503210331008
:100920003410D8A406D0550E246E050EC4EC16F073
:100930001200240E00016C6F050E6D6F540E6E6F69
:10094000400E6F6F000EBA6F000EB96F84D0000EAC
:10095000BC6F000EBB6FBCBF06D0BC512CE1400E7B
:10096000BB5DD8B028D0040EBB25606F000EBC2143
:10097000616F6C0E6025D96E000E6121DA6EBBC00E
:1009800062F0BCC063F0000E63BFFF0E646F656F62
:10099000F7516225186EF8516321196EF9516421DF
:1009A0001A6EFA5165211B6E62EC1BF0DF6E0001BE
:1009B000BB4BBC2BD0D7400EF727000EF823F923F2
:1009C000FA23FA51F91106E1F00EF75D7F0EF8599E
:1009D000D8A008D0000EF76F400EF86F000EF96F28
:1009E000000EFA6F6C0E186E000E196E000E1B6E64
:1009F000440E1A6EEDEC16F00001B06F6C0E196E1D
:100A0000000E1A6E000E1C6E450E1B6E83EC19F064
:100A10003150321033103410D8B41AD03E04FF0EC7
:100A20003F58FF0E4058FF0E4158D8B006D0010E77
:100A30003E26000E3F224022412231503210331018
:100A40003410D8B405D03106000E325A335A345A15
:100A50000001B94BBA2B2C50B95DBA51800A606FB6
:100A60002D50800A6059D8B0120071D7800E626E86
:100A7000010E186E000EA3EC18F0000E2D6E000E85
:100A80002C6E2DBE06D02D5028E10D0E2C5CD8B05A
:100A900024D02CC02AF02DC02BF0D8902A362B362B
:100AA000D8902A362B36350E2A24F66E060E2B20C9
:100AB000F76E0900F5CF21F00900F5CF22F009000B
:100AC000F5CF23F00A00F5CF24F0030E256E000EBB
:100AD000A6EC11F02C4A2D2AD4D7450EF66E060E40
:100AE000F76E0900F5CF21F00900F5CF22F00900DB
:100AF000F5CF23F00A00F5CF24F0030E256E000E8B
:100B0000A6EC11F03D0EF66E060EF76E0900F5CF5D
:100B100021F00900F5CF22F00900F5CF23F00A00FB
:100B2000F5CF24F0030E256E000EA6EC11F0390E61
:100B3000F66E060EF76E0900F5CF21F00900F5CF2D
:100B400022F00900F5CF23F00A00F5CF24F0030EC0
:100B5000256E000EA6EC11F0350EF66E060EF76E41
:100B60000900F5CF21F00900F5CF22F00900F5CFFB
:100B700023F00A00F5CF24F0030E256E000EA6EC3C
:100B800011F0010E186E010EA3EC18F0000E2F6E7E
:100B9000000E2E6E2FBE06D02F5028E10D0E2E5CBB
:100BA000D8B024D02EC02AF02FC02BF0D8902A36EF
:100BB0002B36D8902A362B36350E2A24F66E060EA2
:100BC0002B20F76E0900F5CF21F00900F5CF22F0B8
:100BD0000900F5CF23F00A00F5CF24F0030E256EAF
:100BE000010EA6EC11F02E4A2F2AD4D7450EF66E30
:100BF000060EF76E0900F5CF21F00900F5CF22F0BF
:100C00000900F5CF23F00A00F5CF24F0030E256E7E
:100C1000010EA6EC11F03D0EF66E060EF76E090001
:100C2000F5CF21F00900F5CF22F00900F5CF23F030
:100C30000A00F5CF24F0030E256E010EA6EC11F08C
:100C4000390EF66E060EF76E0900F5CF21F0090099
:100C5000F5CF22F00900F5CF23F00A00F5CF24F0FC
:100C6000030E256E010EA6EC11F0350EF66E060E83
:100C7000F76E0900F5CF21F00900F5CF22F0090049
:100C8000F5CF23F00A00F5CF24F0030E256E010EF8
:100C9000A6EC11F01200000E0101CB6FDFD0040EA4
:100CA0000001D2651200010ED16F12002FEC1AF074
:100CB000000E0001CA6F010ED2650ED07EEC17F057
:100CC0000101CB6FCBC1D7F0240ECB19D8A41200F1
:100CD000020E0001D16F1200000ED16F1200010E42
:100CE000D26512007EEC17F00001D06FD0C0D8F0B2
:100CF000030ED16F1200010ED26512007EEC17F0C8
:100D00000001CF6FCFC0D9F0040ED16F1200010ED9
:100D1000D26512007EEC17F00001CE6FCEC0DAF083
:100D2000CE51D8A403D0060ED16F1200050ED16F9C
:100D30001200CE51D25DD8A01200AE0E206E010E70
:100D4000216E000E236E140E226EF6EC1AF0000EC9
:100D50000101CA6F000EC96F22D07EEC17F00101AD
:100D6000CB6F0001CA510101C56FC66B040EC527C8
:100D7000000EC623D70EC525D96E000EC621DA6E29
:100D8000CBC1DFFF0001CA2BAE0E0101C925D96E10
:100D9000010ECA21DA6ECBC1DFFFC94BCA2B00019D
:100DA000CE510101C56FC66BC551C95DCA51800ADC
:100DB000C76FC651800AC759D8A0CFD7060E000109
:100DC000D16F1200D251D8B412007EEC17F000019E
:100DD000CB6FD70E186E000E196E040ECA251A6E50
:100DE0001B6A000E1B22EDEC16F00001CC6FCC51FB
:100DF000CB19D8A403D0070ED16F1200000ED16F0B
:100E00001200FE0E0101C56FFF0EC66F0001D0512A
:100E10000101C76FC86BD890C737C837C551C727FE
:100E2000C651C823EB0EC725D96E000EC821DA6E55
:100E300001D810D00500FA6EDE50FD6EDE50FE6E59
:100E4000F850FF6EFA50AE0EC26F010EC36F000174
:100E5000CF511200000E0001D16F12000001D151DC
:100E6000000AD8B41CD7010AD8B420D7030AD8B4D2
:100E700036D7010AD8B43FD7070AD8B448D7010AF1
:100E8000D8B457D7030AD8B49DD7010AD8A4120002
:100E9000B8D70001975198119911D8A407D0000E26
:100EA000976F800E986F3F0E996F1200720E186E3A
:100EB000310E196E440E1A6E97C01BF098C01CF0CC
:100EC00099C01DF0CCEC12F0D8B00CD0000E00018F
:100ED000C56F220EC46FFF0E976F7F0E986F7F0E47
:100EE000996F120097C018F098C019F099C01AF0C5
:100EF000490E1B6E3A0E1C6EC40E1D6ECCEC12F029
:100F0000D8B00CD0000E0001C56F220EC46F000EC9
:100F1000976F000E986F000E996F1200000199AF45
:100F200002D0010E01D0000E9F6F9F51D8B40ED099
:100F300097C018F098C019F099C01AF0A4EC1AF0F4
:100F400018C097F019C098F01AC099F097C069F0CE
:100F500098C06AF099C06BF0AA0E00016C6FB80ED1
:100F60006D6F3F0E6E6FADEC0DF069C097F06AC00B
:100F700098F06BC099F097C08FF098C090F099C02E
:100F800091F00EEC0FF08FC09AF090C09BF091C0E2
:100F90009CF09AC078F09BC079F09CC07AF031EC5C
:100FA0000DF078C09DF079C09EF097C084F098C095
:100FB00085F099C086F09DC020F09EC021F0DFEC46
:100FC00018F020C087F021C088F022C089F025ECFD
:100FD00018F084C097F085C098F086C099F097C04B
:100FE00084F098C085F099C086F0700E0001876F7C
:100FF000060E886F000E8A6F090E896F7FEC0FF066
:1010000084C08EF085C08FF086C090F09DC091F0B6
:101010009EC092F0EAEC0FF08EC097F08FC098F06F
:1010200090C099F000019F51D8B425D097290EE1C6
:101030007F0E98190BE17F0E9919D8A407D0000EE6
:10104000976F000E986F000E996F1200000E296EB8
:10105000800E2A6E3F0E2B6E97C02CF098C02DF09C
:1010600099C02EF028EC0EF029C097F02AC098F015
:101070002BC099F0120097C097F098C098F099C0D3
:1010800099F0120024C0D9FF25C0DAFFDF5000011B
:10109000656F244A252A65516BEC1AF0D8B0F2D757
:1010A000000E0001616F000E626F000E636F000E94
:1010B000646F000E606F2D0E6519D8A403D0010E69
:1010C000606F04D02B0E6519D8A408D024C0D9FFB6
:1010D00025C0DAFFDF50656F244A252A300E6519D6
:1010E000D8A42ED024C0D9FF25C0DAFFDF50656F09
:1010F000244A252A28502910D8B405D0100E2818C3
:101100002910D8A415D0780E6519D8B404D0580E7B
:101110006519D8A40DD0000E296E100E286E24C0BB
:10112000D9FF25C0DAFFDF50656F244A252A08D091
:1011300028502910D8A404D0000E296E080E286E5D
:1011400028502910D8A404D0000E296E0A0E286E4B
:10115000655157EC1AF0D8A008D0000165514EEC4B
:101160001BF0C90F0001656F09D000016551D8EC73
:101170001AF0D8A039D0300E0001655F65512A6E93
:101180002B6A28502A5C2B50800A2C6E2950800A2A
:101190002C58D8B029D028C018F029C019F0000E5A
:1011A00019BEFF0E1A6E1B6E61C01CF062C01DF0EE
:1011B00063C01EF064C01FF01AEC16F00001655108
:1011C0001824616F000E1920626F000E1A20636FE1
:1011D000000E1B20646F24C0D9FF25C0DAFFDF504A
:1011E000656F244A252AB4D726502710D8B40ED0CC
:1011F000FF0E24242A6EFF0E25202B6E26C0D9FF59
:1012000027C0DAFF2AC0DEFF2BC0DDFF00016051DE
:10121000D8B41AD061C02AF062C02BF063C02CF0A1
:1012200064C02DF02A1E2B1E2C1E2D1E2A2A000EF5
:101230002B222C222D222AC024F02BC025F02CC0DA
:1012400026F02DC027F0120061C024F062C025F006
:1012500063C026F064C027F01200000E0001BB6FCF
:10126000000EBA6F3C50D8A473D0000EBC6F060EAF
:10127000BC6501D01200BC51010D690EF324F66E5D
:10128000060EF420F76E0800F550EAEC19F018C0CD
:10129000B3F019C0B4F0000E0001A36F200EA46FCC
:1012A000410EA56F000EA06F000EA16F400EA26F41
:1012B000DFEC0AF0A0C0B7F0A1C0B8F0A2C0B9F04E
:1012C000C00E00016C6F500E6D6F450E6E6FB7C093
:1012D0002CF0B8C02DF0B9C02EF0B3C020F0B4C0CF
:1012E00021F0B6EC1AF020C029F021C02AF022C06B
:1012F0002BF028EC0EF029C069F02AC06AF02BC050
:101300006BF0ADEC0DF069C078F06AC079F06BC09D
:101310007AF031EC0DF078C0BAF079C0BBF0BAC009
:101320002DF0BBC02EF00001BC292F6EB4EC0CF0E8
:10133000030E0001B26F8A0EB16F550EE82EFED774
:10134000B12FFCD7B22FFAD700D00001BC2B8FD71A
:101350003C04D8A41200D351010D690EF324F66E9B
:10136000060EF420F76E0800F550EAEC19F018C0EC
:10137000B5F019C0B6F0000E0001A36F200EA46FE7
:10138000410EA56F000EA06F000EA16F400EA26F60
:10139000DFEC0AF0A0C0B7F0A1C0B8F0A2C0B9F06D
:1013A000C00E00016C6F500E6D6F450E6E6FB7C0B2
:1013B0002CF0B8C02DF0B9C02EF0B5C020F0B6C0EA
:1013C00021F0B6EC1AF020C029F021C02AF022C08A
:1013D0002BF028EC0EF029C069F02AC06AF02BC06F
:1013E0006BF0ADEC0DF069C078F06AC079F06BC0BD
:1013F0007AF031EC0DF078C0BAF079C0BBF0BAC029
:101400002DF0BBC02EF0010E2F6EB4EC0CF01200CC
:101410007AC07EF000017F6B806B79357E3701E307
:101420007F817E51836F7DC07EF07F6B806B7C35CA
:101430007E3701E37F817E51826F8351D8B40BD018
:101440008251835DD8B00ED08351000882257E6F13
:10145000180E7E6507D07BC078F07CC079F07DC027
:101460007AF012008251D8B40BD08351825DD8B08B
:101470000ED08251000883257E6F180E7E6507D03E
:1014800078C078F079C079F07AC07AF01200060E50
:10149000816F7ABF818F7DBF818D798FFF0E781725
:1014A000FF0E7917000E7A177C8FFF0E7B17FF0E49
:1014B0007C17000E7D178251835DD8B01BD0D89069
:1014C0007B377C377D37820783518219D8B40DD0A2
:1014D000810781C07EF0070E7E17D8B406D0EFD703
:1014E000D8907A3379337833832B82518319D8B4E7
:1014F0001FD0F6D78351825DD8B01AD0D8907837F4
:1015000079377A37830783518219D8B40DD0810790
:1015100081C07EF0070E7E17D8B406D0EFD7D890E2
:101520007D337C337B33822B82518319D8A4F7D748
:1015300081AF0CD0FF0E781BFF0E791BFF0E7A1BBC
:10154000010E7827000E7923000E7A2381AD0CD08E
:10155000FF0E7B1BFF0E7C1BFF0E7D1B010E7B27EE
:10156000000E7C23000E7D23000E816F78517B27B7
:1015700079517C237A517D237DAF0ED0FF0E7B1BEA
:10158000FF0E7C1BFF0E7D1B010E7B27000E7C23B4
:10159000000E7D23010E816F7BC018F07CC019F016
:1015A0007DC01AF083C01BF081C01CF002EC11F06A
:1015B00018C078F019C079F01AC07AF01200000E45
:1015C0000001AC6FA051A111A211D8A41DD0000E32
:1015D000186E000E196E000E1A6EA3C01BF0A4C088
:1015E0001CF0A5C01DF0CCEC12F0D8A005D0000E68
:1015F0000001C56F210EC46F000E0001A06F000E28
:10160000A16F000EA26F1200A351A411A511D8A4BE
:1016100007D0000EA06F800EA16F3F0EA26F1200C8
:10162000A2AF41D0A3C078F0A4C079F0A5C07AF0F1
:1016300031EC0DF078C0ADF079C0AEF07AC0AFF00B
:101640007BC0B0F0ADC020F0AEC021F0AFC022F042
:10165000B0C023F094EC15F00001A351201807E16D
:10166000A451211804E1A5512218D8B40BD0000EC2
:10167000C56F210EC46F000EA06F000EA16F000E8B
:10168000A26F1200AD51010BAC6FA0C018F0A1C049
:1016900019F0A2C01AF0A4EC1AF018C0A0F019C0FA
:1016A000A1F01AC0A2F0A0C08EF0A1C08FF0A2C01D
:1016B00090F09DEC0BF08EC0A6F08FC0A7F090C00C
:1016C000A8F0A6C069F0A7C06AF0A8C06BF0A3C0DC
:1016D0006CF0A4C06DF0A5C06EF0ADEC0DF069C06B
:1016E000A9F06AC0AAF06BC0ABF0A9C097F0AAC07D
:1016F00098F0ABC099F049EC07F097C0A0F098C003
:10170000A1F099C0A2F00001AC51D8B40FD0A0C094
:1017100018F0A1C019F0A2C01AF0A4EC1AF018C079
:10172000A0F019C0A1F01AC0A2F01200A0C0A0F051
:10173000A1C0A1F0A2C0A2F01200000190AF0BD096
:10174000000EC56F210EC46F000E8E6F000E8F6FDE
:10175000000E906F12008E518F119011D8A40BD0F3
:10176000000EC56F220EC46F000E8E6F000E8F6FBD
:10177000000E906F1200000E6C6F000E6D6F400E29
:101780006E6F910E1B6E000E1C6E8EC018F08FC017
:1017900019F090C01AF084EC12F018C069F019C06A
:1017A0006AF01AC06BF0ADEC0DF069C078F06AC059
:1017B00079F06BC07AF0000E00017B6F800E7C6FB9
:1017C000BF0E7D6F08EC0AF078C08EF079C08FF004
:1017D0007AC090F000019107D8A092078EC084F0E3
:1017E0008FC085F090C086F08E0E876F060E886FD2
:1017F000000E8A6F080E896F7FEC0FF084C08EF0A8
:1018000085C08FF086C090F0720E00016C6F310EB3
:101810006D6F3F0E6E6F91C020F092C021F0DFEC33
:1018200018F020C069F021C06AF022C06BF0ADEC66
:101830000DF069C078F06AC079F06BC07AF08EC0A4
:101840007BF08FC07CF090C07DF008EC0AF078C08F
:101850008EF079C08FF07AC090F01200280E206EC2
:10186000000E216E000E236E090E226EF6EC1AF0A9
:10187000240E286E050E296E520E2A6E040E2B6E53
:10188000F00E186E3F0E196E000E1A6E000E1B6ED3
:10189000010E1C6E66EC15F02C6EF00E186E3F0EED
:1018A000196E000E1A6E000E1B6E000E1C6E66EC9A
:1018B00015F02D6E42C024F043C025F044C026F040
:1018C00045C027F0241E251E261E271E242A000E92
:1018D000252226222722F00E2424186E7F0E252092
:1018E000196E000E26201A6E000E27201B6E010EA8
:1018F0001C6E66EC15F02E6E42C024F043C025F03D
:1019000044C026F045C027F0241E251E261E271E93
:10191000242A000E252226222722F00E2424186EC7
:101920007F0E2520196E000E26201A6E000E27202D
:101930001B6E000E1C6E66EC15F02F6E280E186ED6
:10194000000E196E000E1B6E080E1A6EEDEC16F0EE
:10195000306E280E196E000E1A6E000E1C6E090EE7
:101960001B6E83EC19F012002F500001606F616B49
:101970000C0ED89060376137E82EFBD760C062F05C
:1019800061C063F062512D1263512E12D890C6359A
:10199000D96EC735DA6E6E0ED926010EDA222DC049
:1019A000DEFF2EC0DDFFC64BC72BC6C060F0C7C030
:1019B00061F0D89060376137615104E1400E605D9D
:1019C000D8A012008FEC1BF00009D8B4120042C05E
:1019D0001DF043C01EF044C01FF045C020F06E0E45
:1019E000216E010E226E4DEC10F0400E4226000ECC
:1019F0004322442245224550441006E1F00E425C49
:101A00007F0E4358D8A018D0000E426E400E436E91
:101A1000000E446E000E456E010E3B6E400E00013E
:101A2000F819F711F911FA11D8A406D0400EF727CA
:101A3000000EF823F923FA233104FF0E3258FF0E6B
:101A40003358FF0E3458D8B006D0010E3126000EA0
:101A5000322233223422000E0001C76F000EC66FFF
:101A600012007AC07CF000017D6B7E6B79357C378B
:101A700001E37D817C51866F8651D8A409D0000E88
:101A8000786F000E796F000E7A6F000E7B6F120078
:101A9000170E7C6F78C07DF079C07EF07AC07FF041
:101AA0007C29806F04D0D8907F337E337D33802FA4
:101AB000FAD700017D51816F798FFF0E7817FF0EE5
:101AC0007917000E7A177851826F7951836F7A51A6
:101AD000846F856B8E0E865F86AF16D08651800A26
:101AE0008F0FD8B009D0000E786F000E796F000EFE
:101AF0007A6F000E7B6F1200D89085338433833366
:101B00008233863FF9D715D0170E86650FD0000EA9
:101B1000786F000E796F000E7A6F000E7B6F1200E7
:101B2000D890823783378437853786078651D8A483
:101B3000F7D78151D8B408D0851F841F831F826DC9
:101B4000000E83238423852382C078F083C079F03C
:101B500084C07AF085C07BF012006BC06FF000018A
:101B6000706B716B6A356F3701E370816F51726F03
:101B70007251D8A407D0000E696F000E6A6F000E74
:101B80006B6F12006EC06FF0706B716B6D356F37DD
:101B900001E370816F51776F7751D8A407D0000EA1
:101BA000696F000E6A6F000E6B6F120077517B0F2A
:101BB00072276BC077F06E51771B800E77176A8F94
:101BC0006D8FFF0E6C17FF0E6D17000E6E17000E57
:101BD000736F000E746F000E756F070E766F69A13C
:101BE00006D06C5173276D5174236E517523D890B4
:101BF0006B336A336933D8906C376D376E37762F15
:101C0000EED7090E766F69A106D06C5173276D511E
:101C100074236E517523D8906B336A336933D8902F
:101C2000753374337333762FEED773C018F074C0E6
:101C300019F075C01AF072C01BF077C01CF002ECEE
:101C400011F018C069F019C06AF01AC06BF01200E8
:101C50002BC060F00001616B626B2A34603701E3D6
:101C600061816051676F6751D8A407D0000E296E5B
:101C7000000E2A6E000E2B6E12002EC060F0616BFB
:101C8000626B2D34603701E361816051686F685188
:101C9000D8A407D0000E296E000E2A6E000E2B6EFF
:101CA0001200000E646F000E656F000E666F6851C3
:101CB000890F675F2BC068F02E50681B800E681775
:101CC0002A8EFF0E2916FF0E2A16000E2B162D8EB9
:101CD000FF0E2C16FF0E2D16000E2E16180E636F1B
:101CE000D8906437653766372C50295C2D502A58B8
:101CF0002E502B58D8A007D02C50295E2D502A5A90
:101D00002E502B5A6481D89029362A362B36632FD1
:101D1000E7D764C018F065C019F066C01AF067C054
:101D20001BF068C01CF002EC11F018C029F019C0BB
:101D30002AF01AC02BF01200240E0001606F020E70
:101D4000616F210E626F040E636FC0C069F0C1C085
:101D50006AF0C2C06BF0C3C06CF0000E6E6F000E74
:101D60006D6F6EBF06D06E5142E1040E6D5DD8B04E
:101D70003ED0040E6D25256E000E6E21266E600E7F
:101D80002524D96E000E2620DA6E69C018F06AC0CC
:101D900019F06BC01AF06CC01BF00A0E1C6E000E1E
:101DA0001D6E000E1E6E000E1F6E76EC14F01850A5
:101DB000DF6E69C018F06AC019F06BC01AF06CC011
:101DC0001BF00A0E1C6E000E1D6E000E1E6E000E25
:101DD0001F6E14EC13F018C069F019C06AF01AC035
:101DE0006BF01BC06CF000016D4B6E2BBAD7600E10
:101DF000186E000E196E000E1B6E080E1A6EEDECBA
:101E000016F00001686F600E196E000E1A6E000E5B
:101E10001C6E090E1B6E83EC19F012008FC018F0B7
:101E200090C019F091C01AF0950E1B6E000E1C6E3A
:101E300084EC12F0000196AF10D091AF07D0000EE5
:101E40008F6F800E906FBF0E916F1200000E8F6F1C
:101E5000000E906F000E916F1200965104E1150E66
:101E6000955DD8A007D08FC08FF090C090F091C042
:101E700091F012008FC078F090C079F091C07AF0A4
:101E800031EC0DF078C087F079C088F07AC089F025
:101E90007BC08AF096EC13F087C092F088C093F074
:101EA00089C094F08FC018F090C019F091C01AF05A
:101EB00092C01BF093C01CF094C01DF0CCEC12F04B
:101EC000D8B016D092C078F093C079F094C07AF070
:101ED000000E00017B6F800E7C6FBF0E7D6F08ECE3
:101EE0000AF078C08FF079C090F07AC091F01200BB
:101EF00092C08FF093C090F094C091F0120089C00E
:101F000018F08AC019F0000E1B6E030E1A6E91ECC9
:101F10001AF087C02FF088C030F018502F261950C3
:101F200030222FC0F6FF30C0F7FF0900F5CF8BF04D
:101F30000900F5CF8CF00A00F5CF8DF03FD08BC0B3
:101F40006CF08CC06DF08DC06EF084C069F085C0FF
:101F50006AF086C06BF0ADEC0DF069C078F06AC035
:101F600079F06BC07AF0000E1B6E030E1A6E000142
:101F70008907D8A08A0789C018F08AC019F091ECA7
:101F80001AF087C02FF088C030F018502F26195053
:101F900030222FC0F6FF30C0F7FF0900F5CF7BF0ED
:101FA0000900F5CF7CF00A00F5CF7DF008EC0AF0CF
:101FB00078C08BF079C08CF07AC08DF00001895127
:101FC0008A11D8A4BCD78BC084F08CC085F08DC09A
:101FD00086F0120000018E518F119011D8A407D005
:101FE000000E8E6F000E8F6F000E906F12009051DA
:101FF0007F0B936F946BD8909337943793519127BD
:10200000945192238FAF03D0936B932B02D0000196
:10201000936B93519127000E922392AF0BD0000E39
:10202000C56F220EC46F000E8E6F000E8F6F000EF4
:10203000906F120092BF15D09205D8A012D0000E5A
:10204000C56F220EC46F90AF06D0FF0E8E6F7F0E4D
:102050008F6FFF0EEDD7FF0E8E6F7F0E8F6F7F0E8F
:10206000E7D792359231946F9131936F90519319D4
:10207000800B9319906F91C093F0010E93179333D7
:1020800093338F5193197F0B93198F6F8EC08EF0FE
:102090008FC08FF090C090F01200C00E236E7F0EA4
:1020A000246E1DC025F01EC026F023502516245096
:1020B000261625C027F026C028F0296A2A6A000EB5
:1020C000F2BE010E2B6E27501D1844E128501E1839
:1020D00041E129501F183EE12A502018D8A41200CF
:1020E0001DC018F01EC019F01FC01AF020C01BF050
:1020F000B8EC19F01FC0F8FF1EC0F7FF1DC0F6FFB7
:10210000000E2C6E3F0E2C6401D013D02C50010D0C
:10211000F3502124D96EF4502220DA6EDF50F56E90
:102120003F0E2C18D8A402D00C0001D00D002C2A90
:10213000E9D7A188A68EA69CA684F29E550EA76E0E
:10214000AA0EA76EA682A6942BB002D0F29E01D052
:10215000F28E12001200E00E2C6EFF0E2D6E460E57
:102160002E6E42C078F043C079F044C07AF045C08A
:102170007BF00001781F791F7A1F7B1F782B000EE0
:1021800079237A237B23F00E7825206E7F0E792128
:10219000216E000E7A21226E000E7B21236E94ECBC
:1021A00015F020C029F021C02AF022C02BF028EC25
:1021B0000EF029C069F02AC06AF02BC06BF0000E47
:1021C00000016C6FC80E6D6F420E6E6FADEC0DF0BE
:1021D00069C07CF06AC07DF06BC07EF0000E186EA6
:1021E000960E196E420E1A6E7CC01BF07DC01CF05C
:1021F0007EC01DF0CCEC12F0D8B002D0010E12005F
:10220000000E12001B50D8B405D0185019101A1027
:10221000D8A40CD0000E186E000E196E000E1A6EA7
:1022200012001B2AD8901A3219321832000E1814D4
:102230001D6E000E19141E6EFE0E1A141F6E1D5018
:102240001E101F10D8B40CD0ECD71B2A010E182674
:10225000000E1922000E1A22D8901A3219321832A2
:10226000000E18141D6E000E19141E6EFF0E1A14A7
:102270001F6E1D501E101F10D8B406D0E6D71B06C7
:10228000D890183619361A3619BE03D0020E1B60C4
:10229000F6D71BA0199ED8901B321B501A121C5047
:1022A000D8A41A8E18C018F019C019F01AC01AF064
:1022B00012006A0E206E000E216E000E236E080EB4
:1022C000226EF6EC1AF0000E0001746F000E736FB0
:1022D00074BF06D0745123E1080E735DD8B01FD0CF
:1022E00073516625D96E74516721DA6EDF50300F55
:1022F000726F400E7219D8B412D06A0E7325D96E5F
:10230000000E7421DA6E73516625E16E74516721F7
:10231000E26EE750300FDF6E734B742BD9D76A0E25
:10232000246E000E256E000E266E000E276E000E27
:10233000296E100E286E42EC08F024C066F025C00D
:1023400067F026C068F027C069F01200296EF29E7F
:102350002950D8B403D02904D8A406D0000E186E92
:102360002950C1EC18F007D0020E2918D8A403D0C8
:10237000000E05EC1BF0010E2524276E286A000EC6
:10238000282228BE1BD0285003E12704D8A016D04D
:1023900021C018F022C019F023C01AF024C01BF08D
:1023A00027041C6E66EC15F0266E26C01AF0295024
:1023B000EEEC15F02706D8A02806E3D72950D8B4AC
:1023C00003D02904D8A406D0010E186E2950C1EC00
:1023D00018F007D0020E2918D8A403D0010E05EC7E
:1023E0001BF0F28E1200F2944750D76E46C0D6FF13
:1023F000354A362A35C001F036C002F0000E046EB0
:10240000140E036E46EC18F001500210D8A403D04D
:10241000010E0001D66F35C001F036C002F0000E8B
:10242000046E320E036E46EC18F001500210D8A470
:1024300003D0010E0001D56F35C001F036C002F0A7
:10244000010E046E2C0E036E46EC18F001500210C3
:10245000D8A403D0010E0001D46F35C001F036C0FE
:1024600002F0010E046E2C0E036E46EC18F001C053
:1024700035F002C036F01200260E206E000E216EDE
:10248000000E236E090E226EF6EC1AF0240E266E54
:10249000020E276E230E286E040E296E000E306E7B
:1024A000000E2F6E30BE06D0305018E1040E2F5CA7
:1024B000D8B014D0040E2F24246E000E3020256EC8
:1024C000260E2424D96E000E2520DA6E2F50040F1C
:1024D000B4EC1BF0DF6E2F4A302AE4D7260E186EBC
:1024E000000E196E000E1B6E080E1A6EEDEC16F043
:1024F0002E6E260E196E000E1A6E000E1C6E090E40
:102500001B6E83EC19F01200185019101A10D8A481
:102510000FD01BC0D9FF1CC0DAFF000EDE6E000E0C
:10252000DD6E000E186E000E196E000E1A6E12008F
:102530001A507F0B1D6E1E6AD8901D361E361BC0AA
:10254000D9FF1CC0DAFF1DC0DEFF1EC0DDFF19AEC3
:1025500003D01D6A1D2A01D01D6A1D501BC0D9FF62
:102560001CC0DAFFDE12000EDD121BC0D9FF1CC03A
:10257000DAFF820EDE26FF0EDD221A801A821A840E
:102580001A861A881A8A1A9C199E18C018F019C03F
:1025900019F01AC01AF012001AAE16D018C01EF0A8
:1025A00019C01FF01AC020F01E1E1F1E201E1E2A5A
:1025B000000E1F222022000E1E24186E000E1F2067
:1025C000196E800E20201A6E1DAE16D01BC01EF094
:1025D0001CC01FF01DC020F01E1E1F1E201E1E2A24
:1025E000000E1F222022000E1E241B6E000E1F2034
:1025F0001C6E800E20201D6E000E181A000E191A77
:10260000800E1A1A000E1B1A000E1C1A800E1D1ABC
:102610001B50185C1C5019581D501A58D8B002D0C5
:10262000D8901200D8801200000E206E000E216E8D
:10263000000E226E000E236E1C501D101E101F1067
:10264000D8B42AD0010E246E06D0D8901C361D3680
:102650001E361F36242A1FAEF8D7D89020362136D2
:10266000223623361C50185C1D5019581E501A581B
:102670001F501B58D8A009D01C50185E1D50195A65
:102680001E501A5A1F501B5A2080D8901F321E32DB
:102690001D321C32242EE1D720C018F021C019F0C1
:1026A00022C01AF023C01BF01200260E206E000E6E
:1026B000216E000E236E090E226EF6EC1AF0240E27
:1026C000266E020E276E220E286E040E296E000E54
:1026D0002F6E030E2F6401D013D02F50246E256A65
:1026E000040E2426000E2522260E2424D96E000E68
:1026F0002520DA6E2F50B4EC1BF0DF6E2F2AE9D7BD
:10270000260E186E000E196E000E1B6E080E1A6E45
:10271000EDEC16F02E6E260E196E000E1A6E000EDF
:102720001C6E090E1B6E83EC19F01200000E306E49
:102730008E0E2F6E00018AAF11D08A1F891F881F4D
:10274000876D000E882389238A23010E306E06D000
:10275000D8908A338933883387332F2A000E871520
:102760008B6F000E88158C6F000E89158D6FFF0E14
:102770008A158E6F8B518C118D118E11D8A4E8D7CC
:1027800087C018F088C019F089C01AF02FC01BF05C
:1027900030C01CF002EC11F018C087F019C088F0AE
:1027A0001AC089F01200D60EF66E360EF76E000EC5
:1027B000F86E00EEEBF010EE10F00900F5CFEEFF32
:1027C000E550E150FAE1860EF66E370EF76E000E18
:1027D000F86E00EE42F010EE04F00900F5CFEEFFC7
:1027E000E550E150FAE101EE00F0C20EEE6AE806B3
:1027F000FDE100EEC0F02B0EEE6AE806FDE100EE12
:1028000031F0110EEE6AE806FDE148904892000EA4
:10281000F86E0001A9EF14F0000E2E6E000E2D6E62
:102820002EBE06D02E5027E10A0E2D5CD8B023D044
:102830008B80820E2C6EDE0EE82EFED72C2EFCD75F
:102840008A88820E2C6EDE0EE82EFED72C2EFCD748
:102850008B90820E2C6EDE0EE82EFED72C2EFCD72F
:102860008A98820E2C6EDE0EE82EFED72C2EFCD718
:102870002D4A2E2AD5D7150E246E010EC4EC16F063
:102880001200440E216E230E226E000E236E000EE7
:10289000246E010E256E020EA6EC11F0440E216E80
:1028A000630E226E000E236E000E246E010E256E46
:1028B000020EA6EC11F0440E216EA30E226E000E45
:1028C000236E000E246E010E256E020EA6EC11F092
:1028D000440E216EE30E226E000E236E000E246E57
:1028E000010E256E020EA6EC11F012001C501D10F8
:1028F0001E101F10D8B424D0010E206E06D0D89020
:102900001C361D361E361F36202A1FAEF8D71C5027
:10291000185C1D5019581E501A581F501B58D8A02B
:1029200008D01C50185E1D50195A1E501A5A1F50BC
:102930001B5AD8901F321E321D321C32202EE7D770
:1029400018C018F019C019F01AC01AF01BC01BF0FB
:102950001200B9EC1BF020EC1BF0AEEC1BF0030EE8
:10296000DAEC14F04BEC06F00001D605D8A406D042
:10297000A0EC17F0000E0001D66FF4D7D505D8A44F
:1029800010D02DEC1BF0ABEC10F0E806D8A403D06F
:10299000040E09EC15F02DEC09F0000E0001D56FC6
:1029A000E1D7D405D8A4DED7A8EC1BF0000E0001B7
:1029B000D46FD8D71B6E000E1D6E000E1C6E1B5000
:1029C000186E196A18501C5C1D50800A1A6E195036
:1029D000800A1A58D8B012008B90020E196E040E9D
:1029E000186EBA0EE82EFED7182EFCD7192EFAD77D
:1029F00000D08B80020E196E040E186EBA0EE82EEF
:102A0000FED7182EFCD7192EFAD700D01C4A1D2A43
:102A1000D6D71B6E000E1D6E000E1C6E1B50186E5E
:102A2000196A18501C5C1D50800A1A6E1950800AD1
:102A30001A58D8B012008A98020E196E040E186E39
:102A4000BA0EE82EFED7182EFCD7192EFAD700D0D2
:102A50008A88020E196E040E186EBA0EE82EFED782
:102A6000182EFCD7192EFAD700D01C4A1D2AD6D70B
:102A70000001BF6F1CD0C2C118F0C3C119F0CDEC6A
:102A80001BF01200C2C118F0C3C119F0CDEC1BF04D
:102A90001200C2C12EF0C3C12FF0C2EC17F0120019
:102AA000C2C12EF0C3C12FF0E3EC17F012000001F9
:102AB000BF51400AD8B4DFD7010AD8B4E3D7030A1C
:102AC000D8B4E7D7010AD8A41200EAD71FD018500B
:102AD0001200195012001A501200000E18141D6E28
:102AE000000E19141E6E000E1A141F6EFF0E1B141A
:102AF000206E190E05D0D89020321F321E321D32A2
:102B0000E82EF9D71D501200000E12001C50000ACA
:102B1000D8B4DDD7010AD8B4DCD7030AD8B4DBD7E0
:102B2000010AD8B4DAD7F0D78E0E286E06D0D89026
:102B30002332223221322032282A000E2014246E21
:102B4000000E2114256E000E2214266EFF0E231493
:102B5000276E2450251026102710D8A4E8D720C0AF
:102B600018F021C019F022C01AF028C01BF0000E86
:102B70001C6E02EC11F018C020F019C021F01AC030
:102B800022F012000001BF6F17D055EC13F01200B5
:102B9000C2C12CF0C3C12DF017EC19F012003CECAF
:102BA00012F01200C2C12CF0C3C12DF004EC18F0D9
:102BB00012009CEC0EF012000001BF51210AD8B4A3
:102BC000F8D7030AD8B4E1D7010AD8B4E8D7070A7E
:102BD000D8B4DED7010AD8A41200E4D71C6E080EC0
:102BE0001B6E1AD0010E186E1C5070EC16F01AAE47
:102BF00006D0010E186E1C5045EC16F005D0000EE4
:102C0000186E1C5045EC16F0000E186E1C5070EC3F
:102C100016F01B06D8901A361B50D8A4E3D7000E26
:102C2000186E1C5045EC16F0000E186E1C5070EC1F
:102C300016F01200000E206E000E216E000E226EA5
:102C4000000E236E18A008D01C5020261D502122F3
:102C50001E5022221F502322D8901C361D361E36AD
:102C60001F36D8901B321A321932183218501910E8
:102C70001A101B10D8A4E6D720C018F021C019F0F4
:102C800022C01AF023C01BF01200196E1ED01804C7
:102C9000D8A402D08C8012001850D8A412008C90B6
:102CA00012001804D8A402D08B8A12001850D8A49D
:102CB00012008B9A12001804D8A402D0898812003E
:102CC0001850D8A41200899812001950000AD8B4DC
:102CD000DED7010AD8B4E5D7030AD8A41200EBD78F
:102CE000196E1ED01804D8A402D08B86120018507A
:102CF000D8A412008B9612001804D8A402D08B8896
:102D000012001850D8A412008B9812001804D8A4EE
:102D100002D0898612001850D8A412008996120099
:102D20001950000AD8B4DED7010AD8B4E5D7030A8F
:102D3000D8A41200EBD7000E426E400E436E000E78
:102D4000446E000E456E000E0001F76F400EF86FE6
:102D5000000EF96F000EFA6F000E316E000E326E2B
:102D6000000E336E000E346E6E0E206E010E216E5C
:102D7000000E236E200E226EF6EC1AF0510E246E19
:102D8000050EC4EC16F01200256E260E206E000E05
:102D9000216E000E236E060E226EF6EC1AF0240E43
:102DA000266E25C027F024C028F0000E296E260EBE
:102DB000186E000E196E000E1B6E050E1A6EEDECED
:102DC00016F02B6E260E196E000E1A6E000E1C6E7B
:102DD000060E1B6E83EC19F01200000E1E6E000E24
:102DE0001D6E000E206E000E1F6E0ED01F50182498
:102DF000D96E20501920DA6EDF501C6E1C501D2633
:102E0000000E1E221F4A202A1A501F5C2050800AE2
:102E10001C6E1B50800A1C58D8A0E8D7FF0E1D1648
:102E2000000E1E161D5012000001BF6F15D0C2C14A
:102E30002CF0C3C12DF0A2EC1BF01200C2C12CF08B
:102E4000C3C12DF0D2EC19F01200C2C12CF0C3C1E5
:102E50002DF09CEC1BF012000001BF51310AD8B4D8
:102E6000E6D7030AD8B4EAD7010AD8A41200EDD7EE
:102E7000000E8D6E000E8C6E060E896E000E8A6E30
:102E8000000E8B6E070E966EE10E926EEF0E936E35
:102E9000800E946EF20E956E300E0F013A6F330E67
:102EA000396FE40E3B6F070E3C6F2F0E386FC20E6A
:102EB000616EF19EF28612000101C46F13D09BEC8B
:102EC00016F012002EEC0CF01200C2C1D9FFC3C1E3
:102ED000DAFFDF500001BF6FBF512C6E2D6A55EC39
:102EE00003F012000101C451510AD8B4E8D7030A13
:102EF000D8B4E8D7010AD8A41200E7D7000E1A6E9A
:102F0000000E196E0001D251D8A402D0195012003F
:102F10003750010D460EF324D96E010EF420DA6EFF
:102F2000DF50186E1850196E1A6A372A270E376448
:102F300002D0000E376E9D9AD2079D8A195012005A
:102F4000010E0001C027000EC123C223C323C0C04D
:102F500018F0C1C019F0C2C01AF0C3C01BF0800E37
:102F60001C6E430E1D6E000E1E6E000E1F6E76EC64
:102F700014F018C0C0F019C0C1F01AC0C2F01BC0D4
:102F8000C3F012002EC066F02FC067F059EC11F0AC
:102F900066C075F067C076F068C077F069C078F0F9
:102FA00075C021F076C022F077C023F078C024F0FD
:102FB000030E256E000EA6EC11F0420E246E040ED8
:102FC000C4EC16F012002EC066F02FC067F059EC6A
:102FD00011F066C075F067C076F068C077F069C020
:102FE00078F075C021F076C022F077C023F078C069
:102FF00024F0030E256E010EA6EC11F0430E246E94
:10300000040EC4EC16F01200000E2F6E000E2E6E91
:103010002FBE06D02F5013E1040E2E5CD8B00FD077
:103020002E502C24D96E2F502D20DA6EDF501B6EBF
:103030002E50040F73EC1BF02E4A2F2AE9D7250ED1
:10304000246E020EC4EC16F01200000187518811A4
:103050008911D8B406D0000E871B000E881B800E85
:10306000891B84C078F085C079F086C07AF087C06B
:103070007BF088C07CF089C07DF008EC0AF078C055
:1030800084F079C085F07AC086F0120003500410F5
:10309000D8B418D0010E056E04D0D890033604368B
:1030A000052A04AEFAD70350015C04500258D8A098
:1030B00004D00350015E0450025AD8900432033207
:1030C000052EF1D701C001F002C002F0120000018C
:1030D000BF6F09D00CEC14F012007AEC1BF0120058
:1030E00096EC1BF012000001BF51110AD8B4F5D7BD
:1030F000030AD8B4F5D7010AD8B41200070AD8B425
:103100001200010AD8A41200E5D7186E0001FF5181
:10311000D8B4FCD79DB803D018C0ADFF12D09D988D
:103120003A50010D000EF324D96E010EF420DA6E30
:1031300018C0DFFF3A2A450E3A6402D0000E3A6EFC
:10314000FF079D881200196E14D01804D8A402D06D
:103150008B8212001850D8A412008B92120018040F
:10316000D8A402D08C8412001850D8A412008B92DC
:1031700012001950000AD8B4E8D7010AD8A41200E6
:10318000EED7196E14D01804D8A402D08B84120084
:103190001850D8A412008B9412001804D8A402D09E
:1031A0008C8612001850D8A412008C961200195068
:1031B000000AD8B4E8D7010AD8A41200EED7000E4E
:1031C000236E21AE06D0206C211ED8B0212A010E1C
:1031D000236E20C018F021C019F01A6A8E0E1B6EE3
:1031E00023C01CF002EC11F018C020F019C021F02F
:1031F0001AC022F01200460E0001FF6112D03950B1
:10320000010D000EF324D96E010EF420DA6EDF50AA
:10321000AD6E392A450E396402D0000E396EFF2B8F
:1032200012009D98000E396E000E3A6E1200000ECC
:103230002E6E030E2E6401D00FD02E50010DF350D0
:103240002C24D96EF4502D20DA6EDF501B6E2E50D8
:1032500073EC1BF02E2AEDD7240E246E020EC4EC64
:1032600016F01200196E000EF2BE010E1A6E19C091
:10327000A9FF18C0A8FFA69EA69CA684F29E550E84
:10328000A76EAA0EA76EA682A6B2FED7A6941AB003
:1032900002D0F29E01D0F28E12002EC066F02FC036
:1032A00067F059EC11F066C075F067C076F075C034
:1032B00021F076C022F0236A246A010E256E020EE8
:1032C000A6EC11F0610E246E060EC4EC16F012008E
:1032D0009D9A9D98080EB86E900EAB6E240EAC6E43
:1032E000100EAF6E000EB06E000E3A6E000E396E0C
:1032F000460E0001FF6F000E386E000E376E000E96
:10330000D26F9D8A1200000E1F6E000E1E6E0BD033
:103310001E501924D96E1F501A20DA6EDF5085EC2A
:1033200018F01E4A1F2A1B501E5C1F50800A1D6E7B
:103330001C50800A1D58D8B01200EAD73C0ED76E38
:10334000AF0ED66ED650D7CF1AF01B6A1AC01BF03C
:103350001A6A1A10466E1B50476EF294F28A000EDB
:10336000186E000E196EBEEC1BF0900ED56E12009A
:10337000000EF2BE010E1C6E1AC0F8FF19C0F7FF56
:1033800018C0F6FFA68EA69CA684A688F29E550EAF
:10339000A76EAA0EA76EA6821CB002D0F29E01D024
:1033A000F28E12002CC0D9FF2DC0DAFFDF503C6E28
:1033B0003C04D8A409D020EE01F02C50D9262D5081
:1033C000DA22DF500001D36F320E246E030EC4ECFC
:1033D00016F012001C6E1CC01AF01A461A46C25093
:1033E0001A18830B1A18C26EC280C282C2B2FED7EC
:1033F000C4501B6E1A6AC3501A24186E000E1B208C
:10340000196E1200ABA202D0AB98AB883850010DF8
:10341000460EF324D96E010EF420DA6EAECFDFFF34
:10342000382A270E386402D0000E386E0001D22BE5
:10343000120018C01EF019C01FF008D01EC0D9FF1E
:103440001FC0DAFF1AC0DFFF1E4A1F2A1C06D8A0C1
:103450001D061C28F3E11D28D8B41200EFD7000E7A
:103460000001CE6F000ECC6F000ECB6F000ECA6F46
:10347000D70E206E000E216E000E236E140E226EEB
:10348000F6EC1AF0120019AE0DD018C01AF019C0DF
:103490001BF01A1E1B1E1A4A1B2A1AC018F01BC04A
:1034A00019F0120018C018F019C019F012001D6EA2
:1034B000010E1C6E7B0E1D6003D0610E1D6007D0D7
:1034C0001D50E7EC1AF0D8B002D0000E1C6E1CC0E4
:1034D0001BF01B3012001A6E010E196E200E1A1806
:1034E000D8B408D00E0E1A6003D0090E1A6002D0AC
:1034F000000E196E19C018F018301200000E0F01DE
:10350000386F000E3B6F000E926E000E896E000E3B
:10351000956E000E8C6E000E0001FE6F010EFD6FA9
:10352000120018501A02F3CF1CF0F4CF1DF01850FF
:103530001B02F3501D2619501A02F3501D261CC001
:1035400018F01DC019F01200185019101A10D8B434
:1035500006D0000E181A000E191A800E1A1A18C07A
:1035600018F019C019F01AC01AF0120020C018F093
:1035700021C019F01A6A8E0E1B6E000E1C6E02EC32
:1035800011F018C020F019C021F01AC022F012006A
:103590000001BF6F07D0C2C12EF0C3C12FF04DECA8
:1035A00019F012000001BF51610AD8A41200F3D72C
:1035B0001A6E000E196E3A0E1A6005D02F0E1A649C
:1035C00002D0010E196E19C018F0183012001A6ED0
:1035D000000E196E5B0E1A6005D0400E1A6402D000
:1035E000010E196E19C018F01830120020C018F022
:1035F00021C019F0000E1B6E000E1A6E22C01CF0C6
:1036000023C01DF019EC1AF01200186E04D0899432
:103610001200898412001850000AD8B4F8D7010AA1
:10362000D8A41200F6D7C5EC1BF038EC17F081ECEB
:103630001BF039EC1BF09EEC19F068EC19F012004D
:1036400088EC1BF0C7EC1BF07EEC1AF036EC05F0B2
:1036500058EC1BF041EC14F012008BB003D0186A48
:10366000182A01D0186A8B501818FE0B18188B6E88
:103670001200050EC26E000EC16E870EC06E000EE7
:10368000C36E000EC46E1200186E18C0A9FFA69C6F
:10369000A69EA68000F000F0A8501200186E7B0EC7
:1036A000186004D0600E186401D0189A18501200E7
:1036B000000E0001C06F000EC16F000EC26F000E41
:1036C000C36F12001AC0F8FF19C0F7FF18C0F6FF49
:1036D0000800F5501200CE30842B282E702AB82E08
:1036E0009035004000001C6E1BC018F01C5032ECDE
:1036F00019F01200110E246E010EC4EC16F0FF003A
:103700001200600ED36E040ED26E000E9B6E12007D
:10371000000E3D6E000E3C6E000E186E1200A6A24A
:1037200001D002D0010E1200000E1200120E246E03
:10373000010EC4EC16F01200330E246E030EC4EC1E
:1037400016F01200310E246E030EC4EC16F01200B7
:10375000160E246E010EC4EC16F01200100E246E2C
:10376000010EC4EC16F01200196E195044EC1BF057
:10377000120013EC1BF0F28EF28C120018C0FBF05A
:1037800019C0FCF0120000400000D09E1200D58E3F
:0C3790001200F2901200A198120012002A
:020000040020DA
:08000000FFFFFFFFFFFFFFFF00
:020000040030CA
:0E000000FF281F3CFFBF85FF0FC00FE00F4021
:00000001FF
