:040000006EEF00F0AF
:100008004882FACF06F0FBCF07F0E9CF08F0EACF35
:1000180009F0E1CF0AF0E2CF0BF0D9CF0CF0DACF3C
:100028000DF0F3CF0EF0F4CF0FF0F6CF10F0F7CFBE
:1000380011F0F8CF12F0F5CF13F048C014F049C012
:1000480015F04AC016F04BC017F0F2B6F2A003D074
:1000580072EC13F019D0F2BAF2A403D0FEEC0CF053
:1000680013D0F2AC11D0A0B8A1A803D074EC13F04F
:100078000BD09DB89EA803D09BEC11F005D09DBA7B
:100088009EAA02D038EC12F017C04BF016C04AF006
:1000980015C049F014C048F013C0F5FF12C0F8FFAE
:1000A80011C0F7FF10C0F6FF0FC0F4FF0EC0F3FF3A
:1000B8000DC0DAFF0CC0D9FF0BC0E2FF0AC0E1FF98
:1000C80009C0EAFF08C0E9FF07C0FBFF06C0FAFF46
:1000D8004892110014EF0EF0000E0001C46F23D1F6
:1000E8008EEC12F0010E0001D36F12009FEC10F09D
:1000F8000001C46F240EC419D8A41200020ED36FD5
:100108001200D451D8B412009FEC10F00001C46F53
:10011800C451D8B412000D0EC419D8A403D0030ECC
:10012800D36F1200200EC419D8B41200D051010D9B
:10013800DB0EF324D96E000EF420DA6EC4C0DFFFA4
:10014800D02B1200DB5130EC13F00001C46F23D028
:10015800000ED26F040ED36F1200010ED26F040E80
:10016800D36F1200020ED26F040ED36F1200920EDC
:10017800186E000E196EDD0E1A6E7F0E1B6ECDEC1A
:100188000AF0920E196E000E1A6EECEC11F0000EC9
:100198000001D36F1200C451520AD8B4D9D7010A4A
:1001A800D8B4E0D7070AD8B4D8D7E1D7DC5130ECB7
:1001B80013F00001C46F79D0490EC419D8B410D017
:1001C800460EC419D8B40CD0510EC419D8B408D0EE
:1001D800580EC419D8B404D0430EC419D8A46FD08B
:1001E800430EC419D8A428D0DD5130EC13F0500ABE
:1001F800D8B407D00001DD5130EC13F0520AD8A46E
:1002080007D00001DD5130EC13F00001C42515D0F2
:10021800920E186E000E196EDD0E1A6E7F0E1B6E92
:10022800CDEC0AF0920E196E000E1A6EECEC11F07D
:10023800000E0001D36F1200C451D00FD16F20D02F
:10024800D36F1200490EC419D8B4F6D7460EC41994
:10025800D8B4F2D7510EC419D8B4EED7580EC41971
:10026800D8B4EAD7420EC419D8A429D0E5D7480E85
:10027800C419D8B4E1D74C0EC419D8A403D0DCD71C
:10028800050EDED7920E186E000E196EDD0E1A6E70
:100298007F0E1B6ECDEC0AF0920E196E000E1A6ED0
:1002A800ECEC11F0000E0001CBD7D251000AD8B403
:1002B80083D7010AD8B4C6D7030AD8B4D8D7920EC0
:1002C800186E000E196EDD0E1A6E7F0E1B6ECDECC9
:1002D8000AF0920E196E000E1A6EECEC11F0000E78
:1002E8000001D36F1200070ED36F1200D251020D16
:1002F800EF0EF324D96E000EF420DA6E01D80FD079
:100308000500FA6EDE50FD6EDE50FE6EF850FF6E90
:10031800FA50AE0E246E010E256ED1511200000E59
:100328000001D36F1200D351000AD8B4D9D6010AFC
:10033800D8B4DCD6030AD8B4E4D6010AD8B402D7B4
:10034800070AD8B433D7010AD8B4CDD7020AD8A43B
:100358001200CCD7600E186E000E196E6C0E1A6E55
:100368007F0E1B6ECDEC0AF0600E196E000E1A6E31
:10037800ECEC11F0600E186E000E196E140E1A6E69
:100388007D0E1B6ECDEC0AF0600E196E000E1A6E13
:10039800ECEC11F0600E186E000E196E940E1A6EC9
:1003A8007D0E1B6ECDEC0AF0600E196E000E1A6EF3
:1003B800ECEC11F0600E186E000E196E710E1A6ECC
:1003C8007E0E1B6ECDEC0AF0600E196E000E1A6ED2
:1003D800ECEC11F0600E186E000E196E7F0E1A6E9E
:1003E8007C0E1B6ECDEC0AF0600E196E000E1A6EB4
:1003F800ECEC11F0600E186E000E196E300E1A6ECD
:100408007C0E1B6ECDEC0AF0600E196E000E1A6E93
:10041800ECEC11F0600E186E000E196E530E1A6E89
:100428007F0E1B6ECDEC0AF0600E196E000E1A6E70
:10043800ECEC11F0600E186E000E196ECA0E1A6EF2
:100448007C0E1B6ECDEC0AF0600E196E000E1A6E53
:10045800ECEC11F0600E186E000E196E9F0E1A6EFD
:100468007E0E1B6ECDEC0AF0600E196E000E1A6E31
:10047800ECEC11F0600E186E000E196E560E1A6E26
:100488007D0E1B6ECDEC0AF0600E196E000E1A6E12
:10049800ECEC11F0600E186E000E196ED10E1A6E8B
:1004A8007D0E1B6ECDEC0AF0600E196E000E1A6EF2
:1004B800ECEC11F0600E186E000E196E840E1A6EB8
:1004C8007B0E1B6ECDEC0AF0600E196E000E1A6ED4
:1004D800ECEC11F0600E186E000E196E1F0E1A6EFD
:1004E8007B0E1B6ECDEC0AF0600E196E000E1A6EB4
:1004F800ECEC11F0600E186E000E196E360E1A6EC6
:100508007F0E1B6ECDEC0AF0600E196E000E1A6E8F
:10051800ECEC11F0600E186E000E196E430E1A6E98
:100528007E0E1B6ECDEC0AF0600E196E000E1A6E70
:10053800ECEC11F0600E186E000E196E0E0E1A6EAD
:100548007E0E1B6ECDEC0AF0600E196E000E1A6E50
:10055800ECEC11F0600E186E000E196EDA0E1A6EC1
:100568007B0E1B6ECDEC0AF0600E196E000E1A6E33
:10057800ECEC11F0600E186E000E196ECC0E1A6EAF
:100588007E0E1B6ECDEC0AF0600E196E000E1A6E10
:10059800ECEC11F0600E186E000E196EF20E1A6E69
:1005A8007E0E1B6ECDEC0AF0600E196E000E1A6EF0
:1005B800ECEC11F01200000199519A119B11D8A48A
:1005C80007D0000E996F800E9A6F3F0E9B6F120036
:1005D800720E186E310E196E440E1A6E99C01BF009
:1005E8009AC01CF09BC01DF08FEC0DF0D8B00CD059
:1005F800000E0001CA6F220EC96FFF0E996F7F0EA1
:100608009A6F7F0E9B6F120099C018F09AC019F06C
:100618009BC01AF0490E1B6E3A0E1C6EC40E1D6E5E
:100628008FEC0DF0D8B00CD0000E0001CA6F220E6E
:10063800C96F000E996F000E9A6F000E9B6F120023
:1006480000019BAF02D0010E01D0000EA16FA15195
:10065800D8B40ED099C018F09AC019F09BC01AF0FF
:10066800A0EC12F018C099F019C09AF01AC09BF0CB
:1006780099C069F09AC06AF09BC06BF0AA0E00019D
:100688006C6FB80E6D6F3F0E6E6F93EC08F069C01B
:1006980099F06AC09AF06BC09BF099C091F09AC02B
:1006A80092F09BC093F082EC09F091C09CF092C04C
:1006B8009DF093C09EF09CC078F09DC079F09EC0DC
:1006C8007AF017EC08F078C09FF079C0A0F099C0D4
:1006D80084F09AC085F09BC086F09FC020F0A0C02F
:1006E80021F07FEC11F020C087F021C088F022C0F3
:1006F80089F0E3EC10F084C099F085C09AF086C0C8
:100708009BF099C084F09AC085F09BC086F0E60EF5
:100718000001876F7A0E886F000E8A6F090E896F45
:1007280060EC0AF084C090F085C091F086C092F029
:100738009FC093F0A0C094F033EC0BF090C099F0F8
:1007480091C09AF092C09BF00001A151D8B425D075
:1007580099290EE17F0E9A190BE17F0E9B19D8A4F7
:1007680007D0000E996F000E9A6F000E9B6F120053
:10077800000E296E800E2A6E3F0E2B6E99C02CF04B
:100788009AC02DF09BC02EF00EEC09F029C099F00C
:100798002AC09AF02BC09BF0120099C099F09AC019
:1007A8009AF09BC09BF01200000E0001BD6F000E76
:1007B800BC6FD651D8A473D0000EBE6F060EBE65AE
:1007C80001D01200BE51010DDF0EF324F66E7A0E31
:1007D800F420F76E0800F55020EC12F018C0B5F0C0
:1007E80019C0B6F0000E0001A56F200EA66F410ECD
:1007F800A76F000EA26F000EA36F400EA46F4BEC04
:1008080006F0A2C0B9F0A3C0BAF0A4C0BBF0C00EF5
:1008180000016C6F500E6D6F450E6E6FB9C02CF0F5
:10082800BAC02DF0BBC02EF0B5C020F0B6C021F084
:10083800B2EC12F020C029F021C02AF022C02BF01F
:100848000EEC09F029C069F02AC06AF02BC06BF0E1
:1008580093EC08F069C078F06AC079F06BC07AF060
:1008680017EC08F078C0BCF079C0BDF0BCC02DF022
:10087800BDC02EF00001BE292F6E9AEC07F0030EC2
:100888000001B46F8A0EB36F550EE82EFED7B32F52
:10089800FCD7B42FFAD700D00001BE2B8FD7D605CE
:1008A800D8A41200D551010DDF0EF324F66E7A0E8E
:1008B800F420F76E0800F55020EC12F018C0B7F0DD
:1008C80019C0B8F0000E0001A56F200EA66F410EEA
:1008D800A76F000EA26F000EA36F400EA46F4BEC23
:1008E80006F0A2C0B9F0A3C0BAF0A4C0BBF0C00E15
:1008F80000016C6F500E6D6F450E6E6FB9C02CF015
:10090800BAC02DF0BBC02EF0B7C020F0B8C021F09F
:10091800B2EC12F020C029F021C02AF022C02BF03E
:100928000EEC09F029C069F02AC06AF02BC06BF000
:1009380093EC08F069C078F06AC079F06BC07AF07F
:1009480017EC08F078C0BCF079C0BDF0BCC02DF041
:10095800BDC02EF0010E2F6E9AEC07F012007AC07F
:100968007EF000017F6B806B79357E3701E37F81F4
:100978007E51836F7DC07EF07F6B806B7C357E37C8
:1009880001E37F817E51826F8351D8B40BD08251AD
:10099800835DD8B00ED08351000882257E6F180E73
:1009A8007E6507D07BC078F07CC079F07DC07AF096
:1009B80012008251D8B40BD08351825DD8B00ED0CA
:1009C8008251000883257E6F180E7E6507D078C097
:1009D80078F079C079F07AC07AF01200060E816F4B
:1009E8007ABF818F7DBF818D798FFF0E7817FF0EBB
:1009F8007917000E7A177C8FFF0E7B17FF0E7C1776
:100A0800000E7D178251835DD8B01BD0D8907B37FC
:100A18007C377D37820783518219D8B40DD081077E
:100A280081C07EF0070E7E17D8B406D0EFD7D890D5
:100A38007A3379337833832B82518319D8B41FD012
:100A4800F6D78351825DD8B01AD0D89078377937E5
:100A58007A37830783518219D8B40DD0810781C0B2
:100A68007EF0070E7E17D8B406D0EFD7D8907D3326
:100A78007C337B33822B82518319D8A4F7D781AF7B
:100A88000CD0FF0E781BFF0E791BFF0E7A1B010E90
:100A98007827000E7923000E7A2381AD0CD0FF0E43
:100AA8007B1BFF0E7C1BFF0E7D1B010E7B27000EA0
:100AB8007C23000E7D23000E816F78517B277951AE
:100AC8007C237A517D237DAF0ED0FF0E7B1BFF0E5A
:100AD8007C1BFF0E7D1B010E7B27000E7C23000E66
:100AE8007D23010E816F7BC018F07CC019F07DC09A
:100AF8001AF083C01BF081C01CF0A7EC0CF018C0E2
:100B080078F019C079F01AC07AF01200800E626E7F
:100B1800010E186E000E43EC11F0000E2D6E000E43
:100B28002C6E2DBE06D02D5028E10D0E2C5CD8B0B1
:100B380024D02CC02AF02DC02BF0D8902A362B3682
:100B4800D8902A362B36770E2A24F66E7A0E2B206A
:100B5800F76E0900F5CF21F00900F5CF22F0090062
:100B6800F5CF23F00A00F5CF24F0030E256E000E12
:100B7800F4EC0BF02C4A2D2AD4D7010E186E010E76
:100B880043EC11F0000E2F6E000E2E6E2FBE06D015
:100B98002F5028E10D0E2E5CD8B024D02EC02AF09C
:100BA8002FC02BF0D8902A362B36D8902A362B36E1
:100BB800AB0E2A24F66E7A0E2B20F76E0900F5CFBD
:100BC80021F00900F5CF22F00900F5CF23F00A0043
:100BD800F5CF24F0030E256E010EF4EC0BF02E4A2F
:100BE8002F2AD4D7BB0EF66E7A0EF76E0900F5CF12
:100BF80021F00900F5CF22F00900F5CF23F00A0013
:100C0800F5CF24F0030E256E010EF4EC0BF0B30EB5
:100C1800F66E7A0EF76E0900F5CF21F00900F5CFD0
:100C280022F00900F5CF23F00A00F5CF24F0030ED7
:100C3800256E010EF4EC0BF0AF0EF66E7A0EF76E21
:100C48000900F5CF21F00900F5CF22F00900F5CF12
:100C580023F00A00F5CF24F0030E256E010EF4EC04
:100C68000BF0AB0EF66E7A0EF76E0900F5CF21F099
:100C78000900F5CF22F00900F5CF23F00A00F5CFDF
:100C880024F0030E256E010EF4EC0BF01200000E9A
:100C98000001AE6FA251A311A411D8A41DD0000E5B
:100CA800186E000E196E000E1A6EA5C01BF0A6C0B5
:100CB8001CF0A7C01DF08FEC0DF0D8A005D0000ED9
:100CC8000001CA6F210EC96F000E0001A26F000E4D
:100CD800A36F000EA46F1200A551A611A711D8A4E6
:100CE80007D0000EA26F800EA36F3F0EA46F1200F4
:100CF800A4AF41D0A5C078F0A6C079F0A7C07AF01B
:100D080017EC08F078C0AFF079C0B0F07AC0B1F055
:100D18007BC0B2F0AFC020F0B0C021F0B1C022F06B
:100D2800B2C023F09FEC0FF00001A551201807E195
:100D3800A651211804E1A7512218D8B40BD0000EEF
:100D4800CA6F210EC96F000EA26F000EA36F000EAE
:100D5800A46F1200AF51010BAE6FA2C018F0A3C070
:100D680019F0A4C01AF0A0EC12F018C0A2F019C033
:100D7800A3F01AC0A4F0A2C090F0A3C091F0A4C040
:100D880092F009EC07F090C0A8F091C0A9F092C0C9
:100D9800AAF0A8C069F0A9C06AF0AAC06BF0A5C003
:100DA8006CF0A6C06DF0A7C06EF093EC08F069C0B7
:100DB800ABF06AC0ACF06BC0ADF0ABC099F0ACC0A2
:100DC8009AF0ADC09BF0DFEC02F099C0A2F09AC097
:100DD800A3F09BC0A4F00001AE51D8B40FD0A2C0BC
:100DE80018F0A3C019F0A4C01AF0A0EC12F018C0B3
:100DF800A2F019C0A3F01AC0A4F01200A2C0A2F079
:100E0800A3C0A3F0A4C0A4F01200000192AF0BD0BD
:100E1800000ECA6F210EC96F000E906F000E916F01
:100E2800000E926F1200905191119211D8A40BD01C
:100E3800000ECA6F220EC96F000E906F000E916FE0
:100E4800000E926F1200000E6C6F000E6D6F400E58
:100E58006E6F930E1B6E000E1C6E90C018F091C042
:100E680019F092C01AF047EC0DF018C069F019C0DB
:100E78006AF01AC06BF093EC08F069C078F06AC0A9
:100E880079F06BC07AF0000E00017B6F800E7C6FEA
:100E9800BF0E7D6FB3EC04F078C090F079C091F08C
:100EA8007AC092F000019307D8A0940790C084F00C
:100EB80091C085F092C086F0040E876F7B0E886F14
:100EC800000E8A6F080E896F60EC0AF084C090F0FB
:100ED80085C091F086C092F0720E00016C6F310EE1
:100EE8006D6F3F0E6E6F93C020F094C021F07FECC1
:100EF80011F020C069F021C06AF022C06BF093ECB9
:100F080008F069C078F06AC079F06BC07AF090C0D8
:100F18007BF091C07CF092C07DF0B3EC04F078C017
:100F280090F079C091F07AC092F012002F50000131
:100F3800606F616B0C0ED89060376137E82EFBD775
:100F480060C062F061C063F062512D1263512E12CD
:100F5800D890CB35D96ECC35DA6E6E0ED926010E07
:100F6800DA222DC0DEFF2EC0DDFFCB4BCC2BCBC051
:100F780060F0CCC061F0D89060376137615104E10E
:100F8800400E605DD8A0120053EC13F00009D8B4ED
:100F9800120042C01DF043C01EF044C01FF045C0FF
:100FA80020F06E0E216E010E226E96EC0BF0400EB4
:100FB8004226000E4322442245224550441006E1B1
:100FC800F00E425C7F0E4358D8A018D0000E426E37
:100FD800400E436E000E446E000E456E010E000179
:100FE800CF6F400E3F183E1040104110D8A406D0D5
:100FF800400E3E26000E3F22402241223004FF0EC2
:101008003158FF0E3258FF0E3358D8B006D0010EB3
:101018003026000E312232223322000E0001CC6F1E
:10102800000ECB6F12007AC07CF000017D6B7E6BE6
:1010380079357C3701E37D817C51866F8651D8A450
:1010480009D0000E786F000E796F000E7A6F000ECF
:101058007B6F1200170E7C6F78C07DF079C07EF030
:101068007AC07FF07C29806F04D0D8907F337E339C
:101078007D33802FFAD700017D51816F798FFF0E64
:101088007817FF0E7917000E7A177851826F795109
:10109800836F7A51846F856B8E0E865F86AF16D00C
:1010A8008651800A8F0FD8B009D0000E786F000ED5
:1010B800796F000E7A6F000E7B6F1200D89085331F
:1010C800843383338233863FF9D715D0170E86656C
:1010D8000FD0000E786F000E796F000E7A6F000E39
:1010E8007B6F1200D890823783378437853786071D
:1010F8008651D8A4F7D78151D8B408D0851F841F4A
:10110800831F826D000E83238423852382C078F099
:1011180083C079F084C07AF085C07BF012006BC080
:101128006FF00001706B716B6A356F3701E3708186
:101138006F51726F7251D8A407D0000E696F000EFC
:101148006A6F000E6B6F12006EC06FF0706B716B80
:101158006D356F3701E370816F51776F7751D8A480
:1011680007D0000E696F000E6A6F000E6B6F1200D9
:1011780077517B0F72276BC077F06E51771B800E0B
:1011880077176A8F6D8FFF0E6C17FF0E6D17000EA5
:101198006E17000E736F000E746F000E756F070EDA
:1011A800766F69A106D06C5173276D5174236E5107
:1011B8007523D8906B336A336933D8906C376D37A1
:1011C8006E37762FEED7090E766F69A106D06C516F
:1011D80073276D5174236E517523D8906B336A331E
:1011E8006933D890753374337333762FEED773C061
:1011F80018F074C019F075C01AF072C01BF077C0EF
:101208001CF0A7EC0CF018C069F019C06AF01AC0FD
:101218006BF012002BC060F00001616B626B2A3426
:10122800603701E361816051676F6751D8A407D0C7
:10123800000E296E000E2A6E000E2B6E12002EC0B4
:1012480060F0616B626B2D34603701E3618160513E
:10125800686F6851D8A407D0000E296E000E2A6E58
:10126800000E2B6E1200000E646F000E656F000EEC
:10127800666F6851890F675F2BC068F02E50681B36
:10128800800E68172A8EFF0E2916FF0E2A16000EEA
:101298002B162D8EFF0E2C16FF0E2D16000E2E1659
:1012A800180E636FD8906437653766372C50295C01
:1012B8002D502A582E502B58D8A007D02C50295ED4
:1012C8002D502A5A2E502B5A6481D89029362A3606
:1012D8002B36632FE7D764C018F065C019F066C0D5
:1012E8001AF067C01BF068C01CF0A7EC0CF018C01F
:1012F80029F019C02AF01AC02BF0120091C018F07A
:1013080092C019F093C01AF0970E1B6E000E1C6E57
:1013180047EC0DF0000198AF10D093AF07D0000E46
:10132800916F800E926FBF0E936F1200000E916F37
:10133800000E926F000E936F1200985104E1150E83
:10134800975DD8A007D091C091F092C092F093C059
:1013580093F0120091C078F092C079F093C07AF0BF
:1013680017EC08F078C087F079C088F07AC089F067
:101378007BC08AF0D7EC0DF087C094F088C095F058
:1013880089C096F091C018F092C019F093C01AF075
:1013980094C01BF095C01CF096C01DF08FEC0DF0AA
:1013A800D8B016D094C078F095C079F096C07AF08D
:1013B800000E00017B6F800E7C6FBF0E7D6FB3EC5B
:1013C80004F078C091F079C092F07AC093F01200DE
:1013D80094C091F095C092F096C093F01200600E00
:1013E800186E000E196E170E1A6E7F0E1B6ECDEC5E
:1013F8000AF0600E196E000E1A6EECEC11F0600E19
:10140800186E000E196E830E1A6E7F0E1B6ECDECD1
:101418000AF0600E196E000E1A6EECEC11F0600EF8
:10142800186E000E196EBF0E1A6E7F0E1B6EF80E28
:101438001C6E7F0E1D6ECDEC0AF0600E196E000E4C
:101448001A6EECEC11F0600E186E000E196EAB0EF1
:101458001A6E7F0E1B6ED10E1C6E7F0E1D6ECDECAC
:101468000AF0600E196E000E1A6EECEC11F0600EA8
:10147800186E000E196E970E1A6E7F0E1B6EE80E10
:101488001C6E7F0E1D6ECDEC0AF0600E196E000EFC
:101498001A6EECEC11F0600E186E000E196E170E35
:1014A8001A6E7F0E1B6ECDEC0AF0600E196E000EE0
:1014B8001A6EECEC11F0120089C018F08AC019F00D
:1014C800000E1B6E030E1A6E7BEC12F087C08BF0B9
:1014D80088C08CF0185000018B2719508C238BC0C2
:1014E800F6FF8CC0F7FF0900F5CF8DF00900F5CFA6
:1014F8008EF00A00F5CF8FF040D08DC06CF08EC012
:101508006DF08FC06EF084C069F085C06AF086C047
:101518006BF093EC08F069C078F06AC079F06BC0A2
:101528007AF0000E1B6E030E1A6E00018907D8A010
:101538008A0789C018F08AC019F07BEC12F087C0BE
:101548008BF088C08CF0185000018B2719508C2321
:101558008BC0F6FF8CC0F7FF0900F5CF7BF00900C0
:10156800F5CF7CF00A00F5CF7DF0B3EC04F078C03D
:101578008DF079C08EF07AC08FF0000189518A1100
:10158800D8A4BBD78DC084F08EC085F08FC086F0FC
:1015980012001C0E1F6E000E206E4ED0250E211854
:1015A800D8B409D018C0D9FF19C0DAFF21C0DFFFAD
:1015B800184A192A41D0000E1E6E2ED01FC0D9FF1E
:1015C80020C0DAFFDECF22F0DDCF23F0020E1F2687
:1015D800000E202222502310D8A414D0F10E226E1F
:1015E8007F0E236E0FD022C0F6FF23C0F7FF18C06E
:1015F800D9FF19C0DAFF0800F5CFDFFF224A232AF6
:10160800184A192A22C0F6FF23C0F7FF0800F55030
:101618000009D8B411D0E7D71AC0F6FF1BC0F7FFEE
:101628001A4A1B2A0800F5CF21F02150000AD8B425
:101638000FD0730AD8B4C2D71AC0F6FF1BC0F7FF81
:101648001A4A1B2A0800F5CF21F02150D8A4A6D7A2
:1016580018C0D9FF19C0DAFF000EDF6E12000001B2
:10166800905191119211D8A407D0000E906F000EDE
:10167800916F000E926F120092517F0B956F966BCF
:10168800D89095379637955193279651942391AFD3
:1016980003D0956B952B02D00001956B955193273C
:1016A800000E942394AF0BD0000ECA6F220EC96FA0
:1016B800000E906F000E916F000E926F120094BF93
:1016C80015D09405D8A012D0000ECA6F220EC96F8B
:1016D80092AF06D0FF0E906F7F0E916FFF0EEDD781
:1016E800FF0E906F7F0E916F7F0EE7D79435943180
:1016F800966F9331956F92519519800B9519926F4A
:1017080093C095F0010E951795339533915195191E
:101718007F0B9519916F90C090F091C091F092C095
:1017280092F01200C00E236E7F0E246E1DC025F0AD
:101738001EC026F0235025162450261625C027F053
:1017480026C028F0296A2A6A000EF2BE010E2B6E06
:1017580027501D1844E128501E1841E129501F1830
:101768003EE12A502018D8A412001DC018F01EC04F
:1017780019F01FC01AF020C01BF006EC12F01FC0B1
:10178800F8FF1EC0F7FF1DC0F6FF000E2C6E3F0EBF
:101798002C6401D013D02C50010DF3502124D96EA4
:1017A800F4502220DA6EDF50F56E3F0E2C18D8A4C4
:1017B80002D00C0001D00D002C2AE9D7A188A68EF2
:1017C800A69CA684F29E550EA76EAA0EA76EA682A8
:1017D800A6942BB002D0F29E01D0F28E1200120015
:1017E800296EF29E2950D8B403D02904D8A405D074
:1017F800000E186E295061EC11F0020E2918D8A4B9
:1018080003D0000EF3EC12F0010E2524276E286A8F
:10181800000E282228BE2BD0285003E12704D8A088
:1018280026D021C018F022C019F023C01AF024C015
:101838001BF027041C6E71EC0FF0266E2950D8B4EB
:1018480003D02904D8A406D026C01AF02950CDEC1C
:101858000FF009D0020E2918D8A405D026C01AF016
:101868002950F9EC0FF02706D8A02806D3D7020E86
:101878002918D8A404D0010EF3EC12F00BD029508B
:10188800D8B403D02904D8A405D0010E186E295065
:1018980061EC11F0F28E1200E00E2C6EFF0E2D6E30
:1018A800460E2E6E42C078F043C079F044C07AF0FC
:1018B80045C07BF00001781F791F7A1F7B1F782BAA
:1018C800000E79237A237B23F00E7825206E7F0E75
:1018D8007921216E000E7A21226E000E7B21236E63
:1018E8009FEC0FF020C029F021C02AF022C02BF075
:1018F8000EEC09F029C069F02AC06AF02BC06BF021
:10190800000E00016C6FC80E6D6F420E6E6F93EC87
:1019180008F069C07CF06AC07DF06BC07EF0000EF4
:10192800186E960E196E420E1A6E7CC01BF07DC0A2
:101938001CF07EC01DF08FEC0DF0D8B002D0010E67
:101948001200000E12001B50D8B405D01850191000
:101958001A10D8A40CD0000E186E000E196E000EC6
:101968001A6E12001B2AD8901A3219321832000E39
:1019780018141D6E000E19141E6EFE0E1A141F6E1A
:101988001D501E101F10D8B40CD0ECD71B2A010E06
:101998001826000E1922000E1A22D8901A3219326F
:1019A8001832000E18141D6E000E19141E6EFF0E4C
:1019B8001A141F6E1D501E101F10D8B406D0E6D77B
:1019C8001B06D890183619361A3619BE03D0020EDF
:1019D8001B60F6D71BA0199ED8901B321B501A12F9
:1019E8001C50D8A41A8E18C018F019C019F01AC0C3
:1019F8001AF01200F2944750D76E46C0D6FF344A08
:101A0800352A34C001F035C002F0000E046E140E01
:101A1800036E04EC11F001500210D8A403D0010E9B
:101A28000001DA6F34C001F035C002F0000E046E18
:101A3800320E036E04EC11F001500210D8A403D04A
:101A4800010E0001D96F34C001F035C002F0010E5B
:101A5800046E2C0E036E04EC11F001500210D8A491
:101A680003D0010E0001D86F34C001F035C002F078
:101A7800010E046E2C0E036E04EC11F001C034F05C
:101A880002C035F01200185019101A10D8A40FD03F
:101A98001BC0D9FF1CC0DAFF000EDE6E000EDD6E23
:101AA800000E186E000E196E000E1A6E12001A50F3
:101AB8007F0B1D6E1E6AD8901D361E361BC0D9FFBF
:101AC8001CC0DAFF1DC0DEFF1EC0DDFF19AE03D04B
:101AD8001D6A1D2A01D01D6A1D501BC0D9FF1CC0DC
:101AE800DAFFDE12000EDD121BC0D9FF1CC0DAFFC0
:101AF800820EDE26FF0EDD221A801A821A841A86CA
:101B08001A881A8A1A9C199E18C018F019C019F058
:101B18001AC01AF012001AAE16D018C01EF019C05A
:101B28001FF01AC020F01E1E1F1E201E1E2A000EA7
:101B38001F222022000E1E24186E000E1F20196E70
:101B4800800E20201A6E1DAE16D01BC01EF01CC0C1
:101B58001FF01DC020F01E1E1F1E201E1E2A000E74
:101B68001F222022000E1E241B6E000E1F201C6E3A
:101B7800800E20201D6E000E181A000E191A800EF5
:101B88001A1A000E1B1A000E1C1A800E1D1A1B5062
:101B9800185C1C5019581D501A58D8B002D0D8904B
:101BA8001200D8801200000E0001906F8E0E8F6F09
:101BB8008AAF11D08A1F891F881F876D000E88235E
:101BC80089238A23010E906F06D0D8908A338933EF
:101BD800883387338F2B000E87158B6F000E88157F
:101BE8008C6F000E89158D6FFF0E8A158E6F8B51C5
:101BF8008C118D118E11D8A4E8D787C018F088C031
:101C080019F089C01AF08FC01BF090C01CF0A7EC27
:101C18000CF018C087F019C088F01AC089F01200BB
:101C2800B40EF66E260EF76E000EF86E00EEEFF0AC
:101C380010EE0CF00900F5CFEEFFE550E150FAE1A7
:101C4800D40EF66E260EF76E000EF86E00EE3EF01D
:101C580010EE08F00900F5CFEEFFE550E150FAE18B
:101C680001EE00F0C20EEE6AE806FDE100EEC5F0F6
:101C78002A0EEE6AE806FDE100EE30F00E0EEE6A7E
:101C8800E806FDE148904892000EF86E000143EF27
:101C98000FF0440E216E230E226E000E236E000EEE
:101CA800246E010E256E020EF4EC0BF0440E216E2C
:101CB800630E226E000E236E000E246E010E256E3A
:101CC800020EF4EC0BF0440E216EA30E226E000EF1
:101CD800236E000E246E010E256E020EF4EC0BF03E
:101CE800440E216EE30E226E000E236E000E246E4B
:101CF800010E256E020EF4EC0BF012001C501D10A4
:101D08001E101F10D8B424D0010E206E06D0D89013
:101D18001C361D361E361F36202A1FAEF8D71C501B
:101D2800185C1D5019581E501A581F501B58D8A01F
:101D380008D01C50185E1D50195A1E501A5A1F50B0
:101D48001B5AD8901F321E321D321C32202EE7D764
:101D580018C018F019C019F01AC01AF01BC01BF0EF
:101D68001200000E1A6E000E196E1ABE06D01A5016
:101D780027E10A0E195CD8B012008B80820E186E0B
:101D8800DE0EE82EFED7182EFCD78A88820E186E33
:101D9800DE0EE82EFED7182EFCD78B90820E186E1A
:101DA800DE0EE82EFED7182EFCD78A98820E186E03
:101DB800DE0EE82EFED7182EFCD7194A1A2AD5D7D8
:101DC80012001B6E000E1D6E000E1C6E1B50186E4E
:101DD800196A18501C5C1D50800A1A6E1950800A26
:101DE8001A58D8B012008B90020E196E040E186E95
:101DF800BA0EE82EFED7182EFCD7192EFAD700D027
:101E08008B80020E196E040E186EBA0EE82EFED7DD
:101E1800182EFCD7192EFAD700D01C4A1D2AD6D75F
:101E28001B6E000E1D6E000E1C6E1B50186E196A7C
:101E380018501C5C1D50800A1A6E1950800A1A58D6
:101E4800D8B012008A98020E196E040E186EBA0ED7
:101E5800E82EFED7182EFCD7192EFAD700D08A887C
:101E6800020E196E040E186EBA0EE82EFED7182E42
:101E7800FCD7192EFAD700D01C4A1D2AD6D760ECF9
:101E880013F025EC13F0F3EC09F0030EE5EC0EF07B
:101E980070EC00F00001DA05D8A406D0C1EC10F00F
:101EA800000E0001DA6FF4D7D905D8A410D00EECD3
:101EB80013F050EC0CF0E806D8A403D0040E14EC90
:101EC8000FF0D8EC03F0000E0001D96FE1D7D80568
:101ED800D8A4DED7000ED86FDBD71FD01850120059
:101EE800195012001A501200000E18141D6E000E20
:101EF80019141E6E000E1A141F6EFF0E1B14206E8E
:101F0800190E05D0D89020321F321E321D32E82E0D
:101F1800F9D71D501200000E12001C50000AD8B448
:101F2800DDD7010AD8B4DCD7030AD8B4DBD7010A55
:101F3800D8B4DAD7F0D78E0E286E06D0D8902332D0
:101F4800223221322032282A000E2014246E000E5C
:101F58002114256E000E2214266EFF0E2314276E00
:101F68002450251026102710D8A4E8D720C018F030
:101F780021C019F022C01AF028C01BF0000E1C6EF8
:101F8800A7EC0CF018C020F019C021F01AC022F0FC
:101F980012001C6E080E1B6E1AD0000E186E1C5014
:101FA80050EC10F01AAE06D0010E186E1C5025EC3D
:101FB80010F005D0000E186E1C5025EC10F0010E24
:101FC800186E1C5050EC10F01B06D8901A361B5097
:101FD800D8A4E3D7000E186E1C5025EC10F0000EA4
:101FE800186E1C5050EC10F012001C6E080E1B6E80
:101FF8001AD0010E186E1C5050EC10F01AAE06D014
:10200800010E186E1C5025EC10F005D0000E186E4D
:102018001C5025EC10F0000E186E1C5050EC10F0FF
:102028001B06D8901A361B50D8A4E3D7000E186E9A
:102038001C5025EC10F0000E186E1C5050EC10F0DF
:102048001200196E1ED01804D8A402D08C80120079
:102058001850D8A412008C9012001804D8A402D0EA
:102068008B8A12001850D8A412008B9A12001804F8
:10207800D8A402D0898812001850D8A412008998D0
:1020880012001950000AD8B4DED7010AD8B4E5D72F
:10209800030AD8A41200EBD7196E1ED01804D8A4CE
:1020A80002D08B8612001850D8A412008B9612000A
:1020B8001804D8A402D08B8812001850D8A4120093
:1020C8008B9812001804D8A402D0898612001850E0
:1020D800D8A41200899612001950000AD8B4DED785
:1020E800010AD8B4E5D7030AD8A41200EBD7000E2A
:1020F8008D6E000E8C6E060E896E000E8A6E000EB6
:102108008B6E070E966EE10E926EEF0E936E800E3A
:10211800946EF20E956E300E0F013A6F330E396FD2
:10212800E40E3B6F070E3C6F2F0E386FC20E616EC8
:10213800F19EF2861200000E1A6E000E196E000152
:10214800D451D8A402D0195012003650010D460EB1
:10215800F324D96E010EF420DA6EDF50186E185091
:10216800196E1A6A362A270E366402D0000E366EA9
:102178009D9AD4079D8A19501200010E0001C527A7
:10218800000EC623C723C823C5C018F0C6C019F05F
:10219800C7C01AF0C8C01BF0800E1C6E430E1D6E1F
:1021A800000E1E6E000E1F6E82EC0EF018C0C5F0F9
:1021B80019C0C6F01AC0C7F01BC0C8F01200000151
:1021C800875188118911D8B406D0000E871B000EDC
:1021D800881B800E891B84C078F085C079F086C082
:1021E8007AF087C07BF088C07CF089C07DF0B3ECC2
:1021F80004F078C084F079C085F07AC086F01200C7
:1022080003500410D8B418D0010E056E04D0D8902D
:1022180003360436052A04AEFAD70350015C04508D
:102228000258D8A004D00350015E0450025AD89036
:1022380004320332052EF1D701C001F002C002F0CA
:102248001200186E0001FD51D8B4FCD79DB803D018
:1022580018C0ADFF12D09D983950010D000EF3241F
:10226800D96E010EF420DA6E18C0DFFF392A450E48
:10227800396402D0000E396EFD079D881200196E70
:1022880014D01804D8A402D08B8212001850D8A4F5
:1022980012008B9212001804D8A402D08C84120069
:1022A8001850D8A412008B9212001950000AD8B402
:1022B800E8D7010AD8A41200EED7196E14D0180472
:1022C800D8A402D08B8412001850D8A412008B9482
:1022D80012001804D8A402D08C8612001850D8A472
:1022E80012008C9612001950000AD8B4E8D7010AD7
:1022F800D8A41200EED7000E236E21AE06D0206CB3
:10230800211ED8B0212A010E236E20C018F021C04A
:1023180019F01A6A8E0E1B6E23C01CF0A7EC0CF085
:1023280018C020F019C021F01AC022F01200460E81
:102338000001FD6112D03850010D000EF324D96E52
:10234800010EF420DA6EDF50AD6E382A450E38647F
:1023580002D0000E386EFD2B12009D98000E386ECC
:10236800000E396E12009D9A9D98080EB86E900E58
:10237800AB6E240EAC6E100EAF6E000EB06E000E7B
:10238800396E000E386E460E0001FD6F000E376E76
:10239800000E366E000ED46F9D8A12003C0ED76E6A
:1023A800AF0ED66ED650D7CF1AF01B6A1AC01BF0E4
:1023B8001A6A1A10466E1B50476EF294F28A000E83
:1023C800186E000E196E65EC13F0900ED56E1200A3
:1023D800000E1C6E000E1B6E0BD01B501924D96EFC
:1023E8001C501A20DA6EDF5025EC11F01B4A1C2A0B
:1023F8001B501924D96E1C501A20DA6EDF50D8B43D
:102408001200EBD7000EF2BE010E1C6E1AC0F8FFC8
:1024180019C0F7FF18C0F6FFA68EA69CA684A6884A
:10242800F29E550EA76EAA0EA76EA6821CB002D009
:10243800F29E01D0F28E12001C6E1CC01AF01A46D1
:102448001A46C2501A18830B1A18C26EC280C2826A
:10245800C2B2FED7C4501B6E1A6AC3501A24186E33
:10246800000E1B20196E1200ABA202D0AB98AB88ED
:102478003750010D460EF324D96E010EF420DA6EA2
:10248800AECFDFFF372A270E376402D0000E376E33
:102498000001D42B120018C01EF019C01FF008D07C
:1024A8001EC0D9FF1FC0DAFF1AC0DFFF1E4A1F2A4D
:1024B8001C06D8A01D061C28F3E11D28D8B412005C
:1024C800EFD7276E2750120AD8B41200040AD8B4DE
:1024D80012000F0AD8B41200380AD8B41200090A38
:1024E800D8B412004B0AD8B41200060A12001850C9
:1024F8001A02F3CF1CF0F4CF1DF018501B02F35052
:102508001D2619501A02F3501D261CC018F01DC0B4
:1025180019F01200000E0001D26F000ED16F000EEC
:10252800D06FDB0E206E000E216E000E236E140E8F
:10253800226EE4EC12F01200185019101A10D8B4D8
:1025480006D0000E181A000E191A800E1A1A18C092
:1025580018F019C019F01AC01AF0120020C018F0AB
:1025680021C019F01A6A8E0E1B6E000E1C6EA7ECA5
:102578000CF018C020F019C021F01AC022F0120087
:10258800266E06D0AEEC01F01200B5EC0EF012008B
:102598002650180AD8B4F6D7040AD8A41200F5D7DA
:1025A800276E2750120AD8B41200040AD8B41200B1
:1025B8000F0AD8B41200380AD8B41200090A120057
:1025C80020C018F021C019F0000E1B6E000E1A6E04
:1025D80022C01CF023C01DF04FEC12F01200186E40
:1025E80004D089941200898412001850000AD8B4C3
:1025F800F8D7010AD8A41200F6D76EEC13F07BECDA
:1026080010F04CEC13F01AEC13F0D2EC11F0B7EC1C
:1026180011F012008BB003D0186A182A01D0186A7A
:102628008B501818FE0B18188B6E1200050EC26E10
:10263800000EC16E870EC06E000EC36E000EC46E13
:10264800120044EC13F070EC13F08AEC05F03AEC4D
:1026580013F04DEC0EF01200186E7B0E186004D0CB
:10266800600E186401D0189A18501200000E00016C
:10267800C56F000EC66F000EC76F000EC86F120040
:10268800000E0001D76F000ED66F000E186E1200F4
:10269800600ED36E040ED26E000E9B6E1200A6A2C0
:1026A80001D002D0010E1200000E1200A825CA2483
:1026B800882500000000000001EC13F0F28EF28C77
:1026C800120018C0FBF019C0FCF012000040000016
:1026D80000400000D09E1200D58E1200F290120029
:0426E800A1981200A3
:107A7600001C0401000B306100BA26C000C9FC19C5
:107A86001A28042D10E700001276600535250080BF
:107A960000848B00320300000032000800A1AAAA6D
:107AA60001DA0E03001C0401000B3061003A32C0FB
:107AB60000C9BC212228042D10E7000012762001FF
:107AC6003525008000849B0034030000001200006E
:107AD60000010000064003200007060504190A0DF0
:107AE60000803F72313FFE753E58633D951D3CC593
:107AF600AE3A79213994803793A73556153400006C
:107B06000000803FF0FFBEE2A93E8376BEAE2B3E6C
:107B16003CC3BDD2133D78D3BB24524350203C58BE
:107B26003E3C63723E202020202053657420436F24
:107B36006D7072657373696F6E206F7065726174B4
:107B4600696F6E206D6F64652061742052582073D2
:107B5600797374656D3A204175746F6D61746963EC
:107B66005B315D204D616E75616C5B305D205B4401
:107B7600656661756C74203D20305D0D0A002452E7
:107B86004352203C583E3C63723E20202020205326
:107B9600657420436F6D7072657373696F6E2072C2
:107BA600616E67652061742052582073797374651D
:107BB6006D2E2048696768205B315D204C6F772009
:107BC6005B305D205B44656661756C74203D2030DA
:107BD6005D0D0A0024534255203C583E3C63723EDC
:107BE6002020202020536574205541525420617571
:107BF600746F6D61746963206F7065726174696F0B
:107C06006E3A204175746F6D617469635B315D20F6
:107C16004D616E75616C5B305D205B4465666175B8
:107C26006C74203D20305D0D0A00245458203C58C9
:107C36003E3C63723E2020202020205475726E2028
:107C46006F6E5B315D202F206F66665B305D207442
:107C560072616E736D697373696F6E2061742054FF
:107C6600582073797374656D205B44656661756C25
:107C760074203D20305D0D0A00245442203C583EBD
:107C86003C63723E2020202020205475726E206FA7
:107C96006E5B315D202F206F66665B305D2042494A
:107CA60054206D6F64652061742054582073797375
:107CB60074656D205B44656661756C74203D20308B
:107CC6005D0D0A00245249203C585858583E3C63E2
:107CD600723E202020496E697420525820737973B1
:107CE60074656D20616E64207365742066726571BB
:107CF60075656E637920617420585858582028306D
:107D06002D39393939295B4D487A5D0D0A002454DD
:107D160049203C585858583E3C63723E2020204922
:107D26006E69742054582073797374656D20616E82
:107D36006420736574206672657175656E6379205B
:107D460028302D39393939295B4D487A5D0D0A00BD
:107D5600245242203C583E3C63723E202020202084
:107D6600205475726E206F6E5B315D202F206F661A
:107D7600665B305D20424954206D6F6465206174F6
:107D86002052582073797374656D2E0D0A002454A1
:107D960046203C585858583E3C63723E202020539B
:107DA60065742054582073797374656D2066726506
:107DB6007175656E63792061742028302D393939E3
:107DC60039295B4D487A5D2E0D0A00245258203C15
:107DD600583E3C63723E2020202020205475726E4F
:107DE600206F6E5B315D202F206F66665B305D20F5
:107DF60072656365697665206174205258207379CF
:107E06007374656D2E0D0A0024534254203C585855
:107E16003E3C63723E20202020536574205541521B
:107E260054207265667265736820726174652028D5
:107E3600312D3230295B487A5D2E0D0A00245348D5
:107E4600203C63723E2020202020202020205072DB
:107E5600696E742073797374656D2068656C702023
:107E66006D6573736167652E0D0A00245451203CBD
:107E760063723E2020202020202020204765742089
:107E86007374617475732066726F6D205458207315
:107E9600797374656D2E0D0A00245251203C63726D
:107EA6003E20202020202020202047657420737447
:107EB600617475732066726F6D20525820737973E2
:107EC60074656D0D0A00245351203C583E3C637284
:107ED6003E20202020202047657420737973746526
:107EE6006D207374617475732E0D0A0024534C2033
:107EF6003C63723E202020202020202020546573E1
:107F0600742073797374656D204C4544732E0D0A85
:107F1600002A2A2A2A2A2A2A2A2A2A2A2A2A2A2AE5
:107F26002A2A2A2A2A2A2A2A2A2A2A2A200A0D001C
:107F36000A0D3C436F6D6D6F6E2073797374656DBA
:107F460020636F6D6D616E64733E0A0D000A0D3C11
:107F560052582073797374656D20636F6D6D616E11
:107F660064733E0A0D003C54582073797374656D32
:107F760020636F6D6D616E64733E0A0D004641535A
:107F860054204C494E4B2053595354454D200A0D0D
:107F960000436F6D70696C652074696D653A2025C4
:107FA60073200A0D00436F6D70696C6520646174FF
:107FB600653A202573200A0D005357205645535223
:107FC600494F4E3A202573200A0D004D617220302C
:107FD600362032303138004E4F54204F2E4B200A77
:107FE6000D0031383A31313A343900286E756C6CEF
:097FF6002900315F303032000037
:020000040020DA
:08000000FFFFFFFFFFFFFFFF00
:020000040030CA
:0E000000FF281F3CFFBF85FF0FC00FE00F4021
:00000001FF
